:1000000020640020716C00003D6B00006D6C0000EE
:100010006D6C00006D6C00006D6C00006D6C00007C
:100020000000000000000000000000006D6C0000F7
:100030006D6C0000000000006D6C00006D6C000035
:10004000B554000075510000B5540000B5540000CF
:1000500051480000CD470000D14800001149000080
:10006000695000009943000049520000E952000025
:1000700015430000000000003544000085440000E6
:100080004964000000000000095E0000000000005C
:10009000696900000000000000000000000000008E
:1000A0000000000000000000000000000000000050
:1000B0000000000000000000000000000000000040
:1000C000FFFFFFFFFFFFFFFFFFFFFFFFFFFFFFFF40
:1000D000FFFFFFFFFFFFFFFFFFFFFFFFFFFFFFFF30
:10040000FFFFFFFFDFCEFFFFFCFF0F00FFFF0F002E
:10041000FCFF0F00FFFF0F00FCFF0F00FFFF0F00AE
:10042000FCFF0F20FFFF0F20FCFF7F40FFFF7F40FE
:10043000FCFF0D40FFFF0D40FFFFFFFFFFFFFFFF31
:10044000FFFFFFFFFFFFFFFFFFFFFFFFFFFFFFFFBC
:10045000FFFFFFFFFFFFFFFFFFFFFFFFFFFFFFFFAC
:10046000FFFFFFFFFFFFFFFFFFFFFFFFFFFFFFFF9C
:10047000FFFFFFFFFFFFFFFFFFFFFFFFFFFFFFFF8C
:10048000FFFFFFFFFFFFFFFFFFFFFFFFFFFFFFFF7C
:10049000FFFFFFFFFFFFFFFFFFFFFFFFFFFFFFFF6C
:1004A000FFFFFFFFFFFFFFFFFFFFFFFFFFFFFFFF5C
:1004B000FFFFFFFFFFFFFFFFFFFFFFFFFFFFFFFF4C
:1004C000FFFFFFFFFFFFFFFFFFFFFFFFFFFFFFFF3C
:1004D000FFFFFFFFFFFFFFFFFFFFFFFFFFFFFFFF2C
:1004E000FFFFFFFFFFFFFFFFFFFFFFFFFFFFFFFF1C
:1004F000FFFFFFFFFFFFFFFFFFFFFFFFFFFFFFFF0C
:1005000010B544F24014C2F20004237863B940F2FB
:100510000003C0F200032BB14EF6A470C0F200003D
:1005200000E000BF0123237010BDC04640F200036D
:10053000C0F2000310B54BB144F244114EF6A47062
:10054000C2F20001C0F2000000E000BF10BDC046D2
:100550000C23093130B591FBF3F40A256343C91A22
:10056000CCB2B4FBF5F4041B40F26D10A4B26043AE
:10057000A308C3186420B4FBF0F0181A40F29013DB
:10058000B4FBF3F45E3B5943053191FBF5F50019DB
:100590004019013A8018C11730BDFFFFF7B50700B9
:1005A000080011001A004B1E0B2B06D8531E1E2BE1
:1005B00003D8314BC318C72B04D90023BB803B8021
:1005C000BB70F7BD2D4BC418430213431D004B01F4
:1005D0001D432B00A4B22A4DA60076599E4202D993
:1005E000284BC418A4B2A300ED58FFF7B1FF0F26A3
:1005F0001F2201906909E8022A403140000DFFF7EF
:10060000A7FF214BA200D15840F2010C4B0B1E401A
:1006100040F2CD73E418A3B20C240093019B013384
:10062000181A80B2E3B201930D23E2B29B1A62461C
:10063000A2400A40E240013A554255411D35DBB225
:10064000854207D20E23019A401B9B1ADBB280B26F
:10065000013CE7D200223A7046B1B34206D90136D6
:10066000B34201D101323A70013BDBB2BB70009B57
:100670007870BB80A5E7C04630F8FFFF33F8FFFF76
:100680002889000032F8FFFFF885000083880C20DD
:10069000B3FBF0F25043181AC0B2704783880A20A7
:1006A000B3FBF0F25043181AC0B2704783880C2095
:1006B000B3FBF0F25043181AC0B2704770B5040093
:1006C00016482518AEB20020322E18D80139C9B20A
:1006D0000B2914D84900C9B20E2A01D90131C9B277
:1006E000032675430E4EC808AD19285C07250D403A
:1006F000A8400C4A525C000602D401201A7070BD5A
:10070000152909D80848C840C10705D540F2FB7132
:100710008C4201D80132F0E7013AEEE730F8FFFFF2
:1007200040850000E085000002082400F0B585B097
:10073000019302AB073307000D001600FFF7BEFF61
:10074000FF2468B16C1E6400E4B20E2E01D901349E
:10075000E4B202ABDA79B24205D10023019A1370F8
:10076000200005B0F0BDB24204D9961B019BF6B241
:100770001E70F5E70134E4B20E2E09D802AB0F2249
:10078000073329003800FFF799FF02ABDA79ECE76D
:10079000164BEB18013B1B780093022D14D1BB07BD
:1007A00012D16423B7FBF3F25343FB1A9BB23BB95C
:1007B0009133FF33B7FBF3F25343FB1A9BB21BB9E0
:1007C000009A0132D3B200930135E9B20D2900D16C
:1007D0000C3902AB012207333800FFF76FFF02AB81
:1007E000DA79009B961BF618C0E7C04634850000F6
:1007F000F0B5030041180826FF2031251A78504033
:10080000320047B24400E0B2002F01DA6C40E0B29F
:10081000013AD2B2002AF4D101338B42EED1F0BDBD
:10082000F0B50227002440F2E83685B03A00019086
:10083000184903A806F030FB174D019A02AB9C71D2
:1008400002AB03A91A7128002300032204F014FB51
:1008500000F0D4F93100052006F046F923003A00F3
:1008600003A9280004F0E5FB00F0C8F931000A20D4
:1008700006F03AF95020019B4042184302AB032294
:10088000187103A92300280004F0F6FA00F0B6F965
:1008900005B0F0BD618C0000505A0020014B18805B
:1008A0007047C04662410020014B18807047C04627
:1008B0005C410020024B5A881B88428003807047AD
:1008C0005E4100207FB5002405000322210003A81B
:1008D000029406F0EAFA382000F0AEF910B90120CF
:1008E00004B070BD01223821464804F049FA2300C3
:1008F000012201A9434804F09CFB00F07FF96B46FC
:1009000018221B79134093420DD01B20FFF788FF5C
:100910001C20FFF785FF1E20FFF782FF40F2E83121
:100920000A2006F0E1F80322374901A806F0B4FADC
:100930000023032201A9334804F09EFA00F05EF977
:1009400040F2E831502006F0CFF8642440F2E83657
:100950000023012201A92B4804F06BFB00F04EF9A3
:100960006B461B795BB2002B42DB02AC00230722F3
:100970002100244804F05DFB00F040F90128AED0CE
:1009800006212000FFF734FFA3798342A7D1092273
:100990006A44537811781B020B4340F2E8315BBA8A
:1009A000E2789BB21B0213431B094B43174E1848B6
:1009B00036881B0D03809B19267912026479324315
:1009C000120222431203140B40F2D0726243120D42
:1009D000F53AFF3A92B242800E481BB200882B8053
:1009E00012186A8000208B4200DC79E7298077E7C3
:1009F000013CA4B2002CB8D03100012006F074F8FC
:100A0000A6E7C046505A0020588C00005C410020E8
:100A10005E4100206241002073B50500442000F0D3
:100A20000BF908B9012076BD324806F0CDFA002452
:100A30006B466A469C80FD2340F2E83644210094D0
:100A40002D481370012204F09BF92300012269460E
:100A5000294804F011FA00F0D1F831000A2006F01C
:100A600043F8230006226946234804F0E2FA00F026
:100A7000C5F802216846FFF7BBFE6B469B788342B0
:100A8000D0D16B460221D81CFFF7B2FE6B465B79D2
:100A90008342C7D16B466A461B7852781B021343C8
:100AA00040F2D6624FF6FF715A43B2FBF1F2134B9C
:100AB0001B88C33BFF3BD2186B466A80DA781B79F0
:100AC00012021A4340F2E2435343B3FBF1F30C4AE0
:100AD0003C3B9BB213800B4A12889B181BB2B3425B
:100AE00002DD2E8020009EE7002B01DB2B80F9E742
:100AF0002C80F7E75B8C0000505A002062410020F8
:100B00005E4100205C41002073B50500452000F0E7
:100B100093F808B9012076BD00246B4601224521D7
:100B20002D489C80009404F02BF924236A4640F25F
:100B3000E8366946137028482300022204F09CF925
:100B400000F05CF83100142005F0CEFF23000622EF
:100B50006946214804F06DFA00F050F80221684619
:100B6000FFF746FE6B469B788342D3D16B4602214A
:100B7000D81CFFF73DFE6B465B798342CAD16B46BA
:100B80006A461B7852781B02134340F2D6624FF636
:100B9000FF715A43B2FBF1F2104B1B88C33BFF3B82
:100BA000D2186B466A80DA781B79120213437343BA
:100BB000B3FBF1F30A4A13800A4A12889B181BB24E
:100BC000B34202DD2E802000A5E7002B01DB2B8045
:100BD000F9E72C80F7E7C046505A00206241002018
:100BE0005E4100205C4100200122034B1A7008B1D5
:100BF00002791A707047C04680400020012370B50A
:100C000040F2E8350A4C23702378D8B2012B09D181
:100C10001DB9084804F007FA06E0010005F064FF7A
:100C2000013DF1E7002DF4D02078C0B270BDC04680
:100C300080400020505A002037B56B46DD1D002350
:100C4000094C0100012220002B7004F099F80123C7
:100C500029001A00200004F00FF9FFF7CFFF013838
:100C6000431E9841C0B23EBD505A00200A2110B523
:100C7000B0FBF1F4B4FBF1F302004B436143E31A20
:100C8000D8B2521A00011043C0B210BD02090300CD
:100C90000A2050430F221340C018C0B27047037897
:100CA0008B4201D9017070479342FCD20270FAE77F
:100CB00010B5040000223B210830FFF7F0FF2000B0
:100CC00000223B210A30FFF7EAFFA01D0022172176
:100CD000FFF7E5FF2000002206210C30FFF7DFFFC1
:100CE000201D01221F21FFF7DAFFA01C01220C2189
:100CF000FFF7D5FF002263212000FFF7D0FF10BDD2
:100D000037B500250122322104002A4800950195BB
:100D100004F036F82B0001226946264804F0ACF8AE
:100D2000FFF76CFF01283CD0082269462B002148C0
:100D300004F07FF9FFF762FF6B461878FFF7A6FF14
:100D40006B4660815878FFF7A1FF6B462081987849
:100D5000FFF79CFF6B46E080DB780422102B0AD063
:100D600020D8023A042B06D00132082B03D0023BD4
:100D70005A425341DAB26B46A2811879FFF786FFD7
:100D80006B46A0805879FFF781FF6B4660809879A9
:100D9000FFF77CFF6B462080D879FFF777FFE08173
:100DA00000203EBD0522202BE5D02A00402BE2D1B9
:100DB0000622E0E7505A0020002373B50093050097
:100DC000807AFFF753FF6B465870287AFFF74EFF83
:100DD0006B469870A879FFF749FF6B46D870AC88CE
:100DE000E0B2FFF743FF6B4658716E88F0B2FFF731
:100DF0003DFF6B462D889871E8B2FFF737FF6B46D1
:100E0000721ED8713300012A39D940F2D072AD1860
:100E10000322591C5143023291FBF2F25B001C1970
:100E20001219AB105219D21864235B4295FBF3F3ED
:100E3000D21840F2901395FBF3F30721D21892FBDE
:100E4000F1F34B43D31A013393FBF1F251430122E7
:100E50005B1A110099400B0069460B480B71322157
:100E600003F08EFF002308226946074804F004F8C7
:100E7000FFF7C4FE013843425841C0B276BD40F28C
:100E8000CF720C33C3E7C046505A002037B56B46CB
:100E90000122DD1DD8710C000D48322103F070FFD6
:100EA0000023012229000A4803F0E6FFFFF7A6FE0F
:100EB00001280BD0002301222100054804F0B9F8D5
:100EC000FFF79CFE013843425841C0B23EBDC046C8
:100ED000505A002013B56B460A4C18715971012203
:100EE0003221200003F04CFF0023022201A9200040
:100EF00003F0C2FFFFF782FE013843425841C0B2FF
:100F000016BDC046505A0020F7B56B46DC1D0E00DA
:100F1000210005001700FFF7B9FF030001203BB9CE
:100F20002178B1432FB9217028002178FFF7D2FF33
:100F3000FEBD3143F7E737B56B46DD1D0C002900D8
:100F4000FFF7A4FF0300FF200BB9287820403EBD27
:100F50000122014B1A707047984000200122014B7A
:100F60001A70704764570020044B1A78D1B2012AD6
:100F700003D100221A70024B1970704708580020E4
:100F80009840002001220A4B0A491A700A4A1000B0
:100F9000FC30836808329B07DB0F4B70D36F9B07D5
:100FA000DB0F0B7043689B07DB0F8B707047C046ED
:100FB00065570020025800200008044037B5FF2480
:100FC0000C4D0D4806F000F802F04AFE0B4805F003
:100FD000FBFF40F20E1340F22812982128000094E3
:100FE00002F0BEFA280002F0DDFA200002F06CFBED
:100FF00037BDC04664410020808C0000958C000005
:10100000F7B5060008A8008898420FD90524D21A1F
:1010100095B22200A4466A4392FBFCF7FF18013CFC
:1010200087420EDC094BA400E05800B908480023B1
:10103000019310338AB2009331000B3302F094FB1A
:10104000F7BD521B002CE7D1F0E7C04684400020DA
:101050003891000070B5060000240800190004282B
:101060000DD8358805F0A4FE1F031C2629000A238D
:10107000B5FBF3F5B5FBF3F46343EB1ADCB2324B8B
:101080001D78FDB901351D70944201D26419E1B299
:10109000042828D8328805F08BFE202836454D00DC
:1010A0006424B5FBF4F50A24B5FBF4F35C432C1B74
:1010B000E4B2E4E740F2E834F3E742F21074B5FB3F
:1010C000F4F4F5E75D78002D3BD101355D708C427D
:1010D00001D9013CDBE71100DAE70A24B2FBF4F2A4
:1010E00054436418348001200CE06423B2FBF3F411
:1010F00063430A24B2FBF4F565434C43521B9B182F
:101100001B19338070BD40F2E833B2FBF3F4634344
:101110006424B2FBF4F06043121A9B184C431B1971
:101120003380E0E742F21073B2FBF3F4634340F222
:10113000E834EEE742F21074B2FBF4F36343D31ADF
:10114000ECE70020DEE7C04602580020F0B500249E
:101150000825070085B02B000E002200A421764848
:101160000095019402F000FB2B002200DC21724864
:101170000095019402F0F8FA2B00220040F21411BD
:101180006D480095019402F0EFFA6C4D6C4B220013
:10119000019321003B0025200294009502F058FBAA
:1011A000062E36D83000674E02940196009505F061
:1011B000FFFD04324A627A9BAF000022082198208A
:1011C000614B02F045FB00220821D8205F4B0294BE
:1011D0000196009502F03CFB0022082140F210101D
:1011E0005B4B02940196009502F032FB00228021B5
:1011F000D320584B02940196009502F029FB00225F
:10120000802140F20210544B02940196009502F0A6
:101210001FFB05B0F0BD0022082198204A4B02F0C8
:1012200017FB00220821D8204C4B02940196009510
:1012300002F00EFB0022082140F20810484B0294F5
:1012400001960095D0E7002208219820454B02F036
:10125000FFFA454B00220821D82002940196009500
:1012600002F0F6FA414B0294019600950022082103
:1012700040F21010CBE7002208219820324B02F0F8
:10128000E7FA3B4B00220821D020029401960095FA
:1012900002F0DEFA374B02940196009500220821F5
:1012A00040F20810B3E700220821A0202B4B02F0E7
:1012B000CFFA00220821D820284B029401960095ED
:1012C00002F0C6FA0022082140F20810244B0294D2
:1012D0000196009502F0BCFA00228021D3201D4B1C
:1012E00002940196009592E700220821A0201B4B52
:1012F00002F0AEFA174B00220821D020029401968A
:10130000009502F0A5FA164B029401960095C5E7E8
:10131000002208219820184B02F09AFA0B4B002269
:101320000821D82002940196009502F091FA084B0A
:1013300002940196009599E7DDE400001091000009
:1013400010E7000008E70000A58C0000AC8C00004E
:10135000B08C0000B48C0000BB8C0000C28C00007C
:10136000C58C0000C2900000CC8C0000D08C000026
:101370009D900000D48C0000228D000030B5002428
:1013800085B0294DFF2002F09FF902212748FFF781
:10139000DDFE220020213820254B02940195009487
:1013A00002F056FA382122000800224B02940195DF
:1013B000009402F04DFA2200502138201E4B029476
:1013C0000195009402F044FA2200682138201B4B5A
:1013D00002940195009402F03BFA22002021C020E3
:1013E000174B02940195009402F032FA2200382142
:1013F000C020144B02940195009402F029FA2200B7
:101400005021C020104B02940195009402F020FA64
:1014100022006821C0200D4B02940195009402F037
:1014200017FA05B030BDC04608E70000DB8C0000AD
:10143000E88C0000F58C0000028D00000F8D00008C
:101440001C8D0000298D0000368D0000438D0000AA
:10145000F0B5002789B001F0A5FF0121AF4802F0E7
:1014600033F8AF4CFF2002F02FF90021AB4802F017
:101470002BF801F025FF01F0D1FFA28907AB1A80FC
:10148000162301253E00E28902A95B181A80238AEF
:101490000322FF21A348049305F007FD0594A14B07
:1014A0009A78D4B2002A00D094E001329A70072EC4
:1014B00000D9F2E0B6180121984802F005F8FF20A3
:1014C00002F002F900219848FFF740FE42F2AC63B7
:1014D00040F6FF71049A0025534393FBF1F2934BBE
:1014E00093481B68934F534393FBF1F340F2E83169
:1014F00093FBF1F251435B1A8F4905F06FFD8F4B5F
:101500002A0020213820019700930295884B02F091
:101510009FF9049A8A49864805F060FD38210197B1
:101520006427864A0800824B009202952A0002F046
:101530008FF907AB1B883900B3FBF7F251435B1AF5
:101540009BB2804992B27A4805F048FD794B7B4ABC
:101550005021382001930092754B2A00029502F029
:1015600077F9162102ABC9180B887148B3FBF7F263
:101570005743DB1B74499BB292B205F02FFD6D4BB4
:101580006E4A0193009268212A003820684B029528
:1015900002F05EF9012E00D081E0102338222021D4
:1015A0006A480195009302F0DFF800215B4801F0E2
:1015B0008BFF002701F084FE40F6CC41644804F024
:1015C00034FF6448013703F02FFA0CB109B0F0BDC5
:1015D000250064E7082E2ED8300005F0E9FB05133E
:1015E000252E32363D4145001A7800240AB90134CF
:1015F0001C70002D00D05EE740F22C139F42DBD917
:101600000124D9E71A78D4B232B901321A70049B96
:101610009B189BB204934EE75A78D4B25AB9013260
:101620005A70049B013BF4E700230422022107A81F
:10163000FFF710FD05000024DBE70023092201214C
:10164000F5E7002309221900F1E700230422022113
:10165000162002AC0019EBE7002309220121F7E76D
:10166000002309221900F3E71A780024002AC0D1C8
:1016700001341C70162302AA9B181B88059A059931
:10168000D38107AA12880A338A810A000499244860
:101690001182538101F04CFDABE726000BE7B31E2E
:1016A000022B15D8102350222021009327480195A2
:1016B00002F05AF80321B6FBF1F1082360227118F9
:1016C0000F31C900C9B289B20195009322486AE777
:1016D000731F022B14D810236822202100931B486B
:1016E000019502F041F80621B6FBF1F108237118CB
:1016F0000C31C900C9B2782289B201950093E5E79F
:1017000001210948FFF722FDDF2106B12F31002317
:101710000193083390220093D8E7C046644100202B
:101720007058002002580020028D000068570020E9
:101730006C57002008E70000508D00001091000059
:10174000678D00007E8D0000958D0000BDE40000D7
:1017500090590020905A0020DDE40000F0B58BB0D5
:1017600001F020FE0121934801F0AEFEFF2001F0C0
:10177000ABFF00218F4801F0A7FE01F0A1FD01F0B1
:101780004DFE0322FF218C4805F08FFB1622002618
:1017900001278A4B04A8D98A121811805A8B1D8BF5
:1017A000059206960793844B9A78D4B2002A00D00B
:1017B00081E001329A70069B032B00D9E8E09B1868
:1017C000069301217B4801F07FFEFF2001F07CFFA2
:1017D00000217B48FFF7BAFC162304AA9B180722B6
:1017E00000270A261B8877495A43774B7748D21837
:1017F00005F0F4FB764B774A28215B200193009299
:10180000724B3A00029702F023F805996F48714332
:101810000A00714905F0E2FB6D4B6E4A40215B20E6
:1018200001930092694B3A00029702F011F8B5FB60
:10183000F6F25643AB1B69499BB292B2634805F07E
:10184000CDFB634B634A01930092604B3A005821F1
:101850005B20029701F0FCFF069B013B022B00D9A5
:1018600098E01822069B43215A43102310325C480B
:1018700092B20197009301F077FF00214D4801F0EB
:1018800023FE01F01DFD069B0026023B012B04D820
:1018900064222800059902F0DBF840F6CC4151485B
:1018A00004F0C3FD5048013603F0BEF80CB10BB094
:1018B000F0BD270077E7069A042A1CD8100005F02F
:1018C00077FA03111C3A53001A7800240AB901343C
:1018D0001C70002F00D074E740F22C139E42DCD91C
:1018E0000124DAE70023162004AC012219000019B4
:1018F000FFF7B0FB07000024EBE71A78D4B252B927
:1019000001321A70059B9B189BB20593142B00D8CB
:1019100057E7059255E75A78D4B2002AEBD1013245
:101920005A70059B013B9BB20593002B00D048E702
:101930001433059345E71A78D4B242B90132AD1891
:10194000ADB21A70502D00D83BE7142539E75A780C
:10195000D4B2002ACFD1013D0132ADB25A70132D5D
:1019600000D92EE750252CE71A780024002AB0D1A0
:1019700001341C70162304AA9B181B88079A0F4871
:10198000D38213001583059A5A8301F0D1FBA0E797
:10199000069416E701210A48FFF7D8FB069BDF21D2
:1019A00003B12F3100230193083390220F48009395
:1019B00061E7C046644100200258002070580020B2
:1019C0000F8D0000AC8D0000F79000006C570020D8
:1019D00008E7000010910000BB8D0000C98D0000D9
:1019E000BDE4000090590020905A0020DDE4000082
:1019F000F0B500258BB001F0D5FC0121CD4801F0F8
:101A000063FDFF2001F060FECB4E0021C94801F0CC
:101A10005BFD01F055FC01F001FD09A80795089553
:101A2000FEF748FF0622B35E07AFDA0F3A80DA17F7
:101A30009B1853407B800822B35E08ACDA0F2280EB
:101A4000DA179B18534063802F0001240322FF21E3
:101A5000BA4805F02AFA0496B84B9A78D6B2002A0A
:101A600000D022E101329A70082F00D9B0E1BF18EE
:101A7000B048012101F028FDFF2001F025FE17B13B
:101A80000021092F00D101210024AD48FFF75EFBA2
:101A900002ABDB8BAB4AAC4D538002AB9B8B20215E
:101AA0001380AA4B22005220029401930095A84B68
:101AB00001F0CEFEA54B220020219E20029401932E
:101AC0000095A44B01F0C4FEA04B22002021E2208F
:101AD000029401930095A04B01F0BAFE02AB1E21C7
:101AE000595E0A2391FBF3F04343984CCB1A02B2A0
:101AF00005941BB2002900DA5B42002497499848FC
:101B000005F06CFA914B22004021162002940193BB
:101B10000095934B01F09CFE09AB00229B5E0A22CC
:101B20000A2193FBF2F251435B1A1BB28D4912B2A8
:101B30008B4805F053FA854B2200029401936021F3
:101B4000874B1620009501F083FE07AB1A880A34F4
:101B5000002A00D13EE1844A5988B1FBF4F04443A5
:101B60000C1BA4B283B281497D48009405F036FA7B
:101B70000022764B029201934021794B91200095EF
:101B800001F066FE08AB1A88002A00D124E1764AEB
:101B90000A215888B0FBF1F46143411A89B2A3B21B
:101BA00000916F48714905F019FA0022674B0292C3
:101BB000019360216A4B9120009501F049FE07AB2B
:101BC0001A885B88002A00D008E15E4A5188C9184B
:101BD0005C4B09B2598008A8428800881B880028FD
:101BE00000D0FFE0D318574A1BB213800A2391FBA1
:101BF000F3F04343CB1A02B21BB2002900DA5B4276
:101C000000245B49564805F0E9F9504B2200402179
:101C1000DC2001930294524B009501F019FE0A2139
:101C2000484B4F4800229B5E93FBF1F251435B1AF5
:101C30001BB2504912B205F0D1F9444B2200019376
:101C40006021474BDC200294009501F001FE7B1ED1
:101C5000032B00D9C8E010234022042100934648FA
:101C6000019401F081FD08235022B908C919C90067
:101C70006F39C9B201940093404801F075FD00210D
:101C80002C4801F021FC340001F01AFB002540F63D
:101C9000CC413B4804F0C9FB3A48013502F0C4FE90
:101CA000002C00D1D8E60BB0F0BD0026092F0CD8CF
:101CB000380005F07DF805141D24282C31363A69CA
:101CC0001A7800260AB901361E70002C00D0CFE623
:101CD00040F22C1334009D42D9D90124D7E70023C8
:101CE0000122190007A8FFF7B5F900260400ECE768
:101CF000002309220221162002AC0019F3E7002379
:101D000009220121F7E7002309221900F3E7002344
:101D10000122190008A8E6E70023092202211A205F
:101D2000EAE7002309220121F9E70023092219002B
:101D3000F5E7C0466441002070580020025800209A
:101D4000F58C00001A5800201091000008E70000F0
:101D5000DD8D0000E48D0000EB8D0000F28D0000B1
:101D60006C570020068E0000C38C00001A8E000005
:101D7000FB8D00000F8E0000BDE40000DDE40000DC
:101D800090590020905A00201A780026002A9CD1F1
:101D900001321A7007AB58881B88ABB9049B00B29C
:101DA00008AAD8805388128882B9049A1BB213817A
:101DB000FEF774FD049B01260820185EFEF774FDF3
:101DC000194801F0B5F980E74042E7E75B42ECE7EC
:101DD00037004DE6154ABFE6144AD9E6144A518841
:101DE000C91AF5E69B1AFEE67B1F032B12D81023B7
:101DF0006022042100930F48019401F0B5FC3B1FC1
:101E0000FA0899180823C9006F397022C9B20194E1
:101E1000009331E7DF2107B12F310023019308330D
:101E20009022009328E7C04670580020DB8D000008
:101E30001A580020BDE400007FB5002501F0B2FA79
:101E4000FF2001F041FC2A4E2A4C01212A4801F0D2
:101E50003BFB05212948FFF779F92A003821392071
:101E6000274B02950196009401F0F2FC2A005021C4
:101E70003420244B02950196009401F0E9FC2A00DD
:101E8000214B6821442002950196009401F0E0FC6A
:101E90002900194801F018FB01F012FA0322FF2172
:101EA0001A4805F002F8194B5A788AB901245C7077
:101EB00040F6CC41164804F0B8FA164802F0B4FDDA
:101EC000002CF0D00322FF21104804F0EEFF7FBD6C
:101ED0001A782AB9012410481C7001F03FF9E7E78D
:101EE00040F22C14AC42A44101356442E0E7C04604
:101EF00008E700001091000064410020298D0000D7
:101F0000268E0000468E00006B8E000002580020D6
:101F100090590020905A002070580020F0B50024FD
:101F200087B001F03FFA0121534801F0CDFAFF20BC
:101F300001F0CAFB042151480594FFF707F9082373
:101F40004F489022DF210194009301F00DFC3820CE
:101F5000FEF772FE00286CD14430FEF76DFE0028BB
:101F600069D14530FEF768FE002866D0454C322026
:101F7000FEF762FE002862D1434B22000024434E4C
:101F8000434D4449444805F029F8220028210820FF
:101F9000414B01960294009501F05AFC3F4B404A98
:101FA00040493D4805F01AF83B4B220038210820F3
:101FB00001960294009501F04BFC3B4A3B493648A0
:101FC00005F00CF805AF22004821334B082001969C
:101FD0000294009501F03CFC380004F079FD79781A
:101FE000BB78FA782C480091314904F0F7FF2200C1
:101FF00058210820284B01960294009501F028FCF6
:1020000022002C4B6821C02001960294009501F01B
:102010001FFC2100184801F057FA01F051F9032282
:10202000FF21254804F041FF012640F6CC4700255A
:102030000CE0224C9BE7224C99E7224C97E7224B7D
:102040009BE740F22C1335009C42F0D91A4B1A78CA
:102050000AB901251E7039001C4804F0E6F91C4835
:10206000013402F0E1FC002DEBD00322FF211248E5
:1020700004F01BFF07B0F0BD64410020368D000066
:10208000DDE40000A88E0000B18E000008E700002B
:1020900010910000B58E00006C570020D08E00001B
:1020A000D98E0000E58E0000FA8E0000FE8E000042
:1020B000108F0000248F0000025800209F8E000027
:1020C0008A8E0000938E0000A58E0000905900209B
:1020D000905A0020F0B5002789B0AD48FEF710FEF9
:1020E000AB48FEF7E5FD01F05DF9FF2001F0ECFAE9
:1020F000A84801F00FFA01F0E3F801F08FF903228C
:10210000FF21A54804F0D1FE162201263D00A34B75
:1021100002A899881218118005939F4B9A78D4B21F
:10212000002A5CD101329A70102D00D92EE1AD1831
:1021300000260121974801F0C7F9FF2001F0C4FAF9
:102140009349974F48894B880A88039008890290E1
:10215000C8880190898893480091934904F03EFF14
:10216000924B320044214820009302968D4B0197F8
:1021700001F06EFB162202ABD218138807225A43D5
:102180008B49884852188B4904F028FF874B32004E
:1021900000936021834B48200296019701F058FB81
:1021A0001023019600930E2D00D99FE04422252193
:1021B000814801F0D9FA6B1E0B2B00D8A7E0012152
:1021C0007E48FEF7C3FF082315B10D2D00D0C8E0EF
:1021D0000022009301920823DF219032A8E000241E
:1021E000112D13D8280004F0E3FD57091B1F252BE0
:1021F00031363C41474C52575E69705700230922E3
:1022000001216348FEF726FF00240600002E8FD12F
:1022100040F22C1326009F4200D894E0012692E061
:10222000002309221900ECE702225948002301216A
:102230008018E7E700235648092219000230E1E739
:1022400000230322012152480430DBE70023092246
:1022500019004F48F8E70023022201214C480630BC
:10226000D0E70023092219004948F8E70023052296
:10227000012147480830C5E70023092219004448D6
:10228000F8E700230522012141480A30BAE700237C
:10229000092219003E48F8E71A780024002AB5D12F
:1022A00001341C70B2E71A780024002AAED1013242
:1022B00037481A700234FEF77FFDA7E70023162087
:1022C00002AC0122190000199CE71A780024002AA8
:1022D0009CD101321A70162302AA9B181B88059AFA
:1022E0002E489380033400F023FF8FE760222521DE
:1022F000314801F039FA0F2D39D131002F48FEF75E
:1023000025FF08237022A4210196009310E03100DC
:102310002A48FEF71BFF0123691C99436B08093308
:10232000C91808235422C900C9B289B20196009382
:10233000234801F019FA0021164801F0C5F82600DB
:1023400000F0BEFF002740F6CC411E4804F06DF8B7
:102350001D48013702F068FB002E00D1DDE609B010
:10236000F0BD902240F20E1101960093E0E70121AA
:102370001248FEF7EBFEDF21102D01D140F20E11C5
:1023800000230193083390220093D1E72500CFE684
:102390000A58002064410020025800207058002094
:1023A00008E700006C570020348F000010910000F7
:1023B000F7900000548F0000BDE40000E88C00009E
:1023C000DDE4000090590020905A002070B50C4DBB
:1023D000012228000A2102F0C1FB0223094A0A490E
:1023E0000A4801F075FC40F24A14002244430A21D5
:1023F000280002F0B3FB40F6FF7094FBF0F070BDD4
:10240000305900207CEB000058EB00006C59002094
:10241000F0B500268BB000F0C5FF0121B84801F0EF
:1024200053F8FF2001F050F90021B54801F04CF8B5
:1024300000F046FF00F0F2FF0322FF21B14804F054
:1024400034FDB14B09AA998A370011801622012464
:10245000598A04A8121811800696059604960793C7
:10246000A84B9A78D5B282B901329A70049B052B99
:1024700000D994E09B18981E0493042800D913E116
:1024800004F096FC3A55658A8E00049A062A00D913
:102490002AE1100004F08CFC04131F3F4F5E6C0017
:1024A0001A7800250AB901351D70002C79D12C004D
:1024B00040F22C139F4200D8E8E00124E6E000231C
:1024C0000122190009A8FEF7C5FD04000028EFD07D
:1024D00000252C0065E01A78D5B27AB901321A705D
:1024E000FFF774FF32220690642142F2283001F097
:1024F00093FA642001F0CCFB032452E05A78D5B261
:10250000002A00D0F6E001325A70162304AA9B1864
:10251000069A1A80F0E7162004AC00190023032263
:102520000221FEF797FD04000028C1D000250024F9
:10253000AB23059335E0162004AC001900230922D3
:102540000121FEF787FD04000028B1D000250024FA
:10255000BB23EEE70023162004AC00190922190062
:10256000FEF778FD04000028A2D000252C0014E01E
:102570001A780025002A98D101351D7009AB079AF9
:102580001B8861489382162304AA9B181B88079A0C
:10259000538200F0CDFD88E70024C323C9E70495EA
:1025A00001240121564800F08FFFFF2001F08CF834
:1025B00021005648FEF7CAFD072209AB1B880026FA
:1025C0005A43534B534FD2185349544804F006FD15
:1025D00001976427524A28215B20504B00920296B3
:1025E000320001F035F906993B0091FBF7F25343B5
:1025F0004A48CB1A4B4904F0F1FC464B484A40216B
:102600005B2001930092454B3200029601F020F9C5
:10261000162304AA9B181B884349B3FBF7F25743C0
:10262000DB1B9BB292B23D4804F0D8FC394F3C4AC8
:1026300058215B20394B009202963200019701F03D
:1026400007F9374A394B0092702132005320029625
:10265000019701F0FDF8049B013B012B27D81823BB
:10266000049A4321534310339BB205931023059AD8
:102670002F480196009301F077F80021204800F0E0
:1026800023FF260000F01CFE2C00002740F6CC4162
:10269000284803F0CAFE2848013702F0C5F9002C8B
:1026A00000D1DDE60BB0F0BD2C00049279E7049B6D
:1026B000033B022B0ED810235822432100931C48C1
:1026C000019601F051F808236822059901960093BC
:1026D0001A48D0E7049BDF2103B12F310023019377
:1026E000083390220093F3E7002C00D1E0E6340099
:1026F000002556E7002C00D1DAE60025FCE6C046AE
:102700006441002002580020705800201C8D0000F9
:10271000F790000008E70000648F00006C5700206D
:10272000109100006F8F0000808F0000978F0000D5
:10273000BDE4000090590020905A0020DDE4000024
:1027400073B50026FEF71AFE00F02CFE514800F08B
:10275000E1FE00F0B5FD00F061FE4F4803F042FEDF
:102760000322FF214D4804F0A0FB012534004B4B10
:102770001A78D1B2002A3BD101321A70072C00D945
:1027800079E0A4180121434800F09EFEFEF7F6FD13
:102790001822032C00D972E0002320216243019308
:1027A0002032103392B2009300263D4800F0DCFF47
:1027B0000021384800F088FE350000F081FD40F629
:1027C000CC41354803F031FE3648013602F02CF991
:1027D000002DCCD0304803F007FD0122324B1A7097
:1027E0000023324A1380324A1370324A137073BD89
:1027F0005A7822B901325A70FCB3013CC2E79A7888
:1028000082BB01329A70072C08D8200004F0C6FA67
:1028100004181B1E212427E2FFF75CFC00F0C2FD18
:10282000FF2000F051FF1B4800F074FE00F048FD4F
:1028300000F0F4FD0322FF21184804F036FBA1E765
:10284000FFF7D6F8EAE7FEF703FEE7E7FEF786FFB5
:10285000E4E7FFF7DDFDE1E7FFF7EEFADEE7FFF77C
:102860005DFBDBE7002D00D08CE740F22C15B54274
:10287000AD416D42A3E70C0084E7072482E7231FE4
:102880005A430023203201931033A82192B20093BF
:102890008AE7C04664410020905900200258002079
:1028A000BDE40000905A0020984000200658002007
:1028B0005C57002008580020F0B58BB0012240F290
:1028C00009410790CB4802F049F90023CA4ACB4995
:1028D000CB4801F0FDF9CB4E002240F209413060B7
:1028E000C44802F03BF942F2AC63C74F3268398A00
:1028F0004B4340F6FF7193FBF1F3534393FBF1F32A
:102900000A21053393FBF1F30693069AFB89934260
:1029100039DDBE4B1D68AD07ED0FECB2002C32D196
:10292000BB4B1A78012A02D100200BB0F0BD012662
:102930001E7000F037FDFF2000F0C6FE3100B548E4
:1029400000F0C2FD982322002100B34800930194B7
:102950000B3300F009FFB14B02220193B04B402131
:10296000B92000930294AF4B00F072FF2100A948F8
:1029700000F0AAFD00F0A4FC00F0DBFDAA4B1C80D7
:10298000AA4B1D70D0E7BB8A7BB1FFF71FFDA74B99
:102990007A8A1C78190024B18242C5DB00230B70AF
:1029A00003E08242FADA01221A7032680699A048DE
:1029B00004F084FA079B002B00D013E100F0F2FC36
:1029C0009C4C0121934800F07FFDFF2000F07CFE2D
:1029D0002000FEF795F940F2D07007252188964E29
:1029E000091823793000A27889B2FDF7D7FD7178F4
:1029F000924869430918638822880491B178904805
:102A000069430918039131788E4E89008919029122
:102A1000A1898D4E8900891900260191A1888B48D2
:102A200000918B4904F0DAFA8A4A310001927C4A1B
:102A30000820864B02960092012200F009FF40F226
:102A4000D073208802AAC0181F23D67702AE9B1924
:102A50002279A17880B2FDF769FE2A0042437E49BF
:102A600002AB5218DB7F7B4926000791002B00D078
:102A7000BBE07A497A4804F0B1FA6F48FDF70EFEE0
:102A800004006D48FDF712FE05006B48FDF7FEFDE2
:102A9000744A7549AB009B18A20052186421069C29
:102AA000069D94FBF1F46143691A03916C4980001F
:102AB00001916E490294401800906D49634804F0FA
:102AC0008DFA0024102340F22812190020000094EF
:102AD00000F08AFE5F4B01220193514B1021082028
:102AE00000930294594B00F0B3FE3389F288614998
:102AF000564804F073FA604B604D022228211420DE
:102B000000930294514B019400F0A2FE2800FDF7BF
:102B1000D9FE2800FDF7F8FF2800FDF77DFF0A2009
:102B20000222AB5E0022A95E93FBF0F20500554342
:102B30005B1B1BB2DD175B196B4091FBF0F5684323
:102B4000091A09B22DB29BB212B201913F484C4909
:102B5000009504F043FA3F4B02220193304B85214C
:102B600000933220394B029400F072FEBB8A53B1BD
:102B70002E4B85221B7840F20E1101931023414801
:102B8000009300F0F1FDFB8A012B08D100220F33E6
:102B900040F218113C480192009300F0E5FD6946AF
:102BA000098B7B89BA8940F20A1000911021FEF747
:102BB00027FA0021174800F087FC00F081FBFB8A10
:102BC000012B08D133897289134323B99622798B5B
:102BD000388B00F03DFF00F0ACFC2C4804F0F4F919
:102BE0000120A2E600F01AFCEAE629491C4804F09C
:102BF000F5F942E73059002044EB000020EB0000DB
:102C0000485900206857002070580020B008044040
:102C100008580020644100207C92000010E700006A
:102C200010910000B18F0000065800205C57002072
:102C3000BE8F00000A5800205E570020A0830000CD
:102C40008184000079840000648C00006C570020AF
:102C5000CF8F000008E70000C8820000F78F000057
:102C6000D057002070830000DC8400000485000041
:102C7000149000004A8F0000089100001A580020AC
:102C80002A900000E5E40000189100004890000040
:102C90000390000070B5324C324803F0A5FA237857
:102CA000D3B34420FDF7C8FF01002F4804F006F914
:102CB0004520FDF7C1FF01002C4804F0FFF8382043
:102CC000FDF7BAFF01002A4804F0F8F87020FDF77C
:102CD000B3FF0100274804F0F1F84020FDF7ACFFF6
:102CE0000100254804F0EAF8244802F0CFFB002355
:102CF0002348237000F0D6F8224BDB6F9B0708D4E3
:102D0000214B5A68920704D49B689B0701D5FFF7B3
:102D100017FD1A4802F09AFB1C4D2B7873B1002363
:102D20001B4C2B702088FFF7C7FD10B122880132A1
:102D3000228022883C2A01D900222280154B094892
:102D40001B784BB103F04EFB80210648490303F08A
:102D50006CFB01232B7070BD03F046FAFBE7C04605
:102D600064570020905900205890000062900000A5
:102D70006C90000076900000809000001C5B0020AA
:102D80007058002008080440FC08044098400020C7
:102D9000065800205C5700207FB500F003FBFF20A1
:102DA00000F092FC01212B48002400F08DFB402311
:102DB000294D2A4E5822009321002948019400F001
:102DC000D3FC06212748FEF7C1F9220020219820D4
:102DD000254B00950294019600F03AFD220038211F
:102DE0005820224B00950294019600F031FD2200FC
:102DF000502190201E4B00950294019600F028FD72
:102E00006821220008001B4B00950294019600F0F7
:102E10001FFD194B22008821BE20009502940196C7
:102E200000F016FD21000B4800F04EFB00F048FAC0
:102E300000F07FFB114B06255B88012B00D1033D81
:102E4000002440F6B8363000013400F021FFA542DE
:102E5000F9D17FBD644100201091000008E7000017
:102E600005E500008A90000097900000A490000003
:102E7000C9900000D9900000248F000070580020F5
:102E800010B50549054802F043FF040010B104489D
:102E900004F09AF8200010BDCCEB0000BC5A0020D2
:102EA00018E7000010B5040001881D4804F006F87A
:102EB00061881C4804F002F8A1881B4803F0FEFF5B
:102EC0000623E15E194803F0F9FF0823E15E184884
:102ED00003F0F4FF6189174803F0F0FFA189164859
:102EE00003F0ECFF218A154803F0E8FFE18914485C
:102EF00003F0E4FF618A134803F0E0FFA18A12485F
:102F000003F0DCFFE18A114803F0D8FF218B104861
:102F100003F0D4FF618B0F4803F0D0FF10BDC04613
:102F200048E7000053E7000061E700006DE700009C
:102F30007BE7000088E7000095E70000A2E70000BB
:102F4000AFE70000C1E70000CFE70000E2E70000C4
:102F5000EEE7000001E8000010B504001C2207495C
:102F600003F09AFF4AF6A52322889A4204D01C2235
:102F70002000034903F090FF10BDC0460000104040
:102F8000A0E90000054B06481A00197811B901782C
:102F90000029FAD01078C0B27047C04620580020EF
:102FA0001E580020F0B50500002785B002AB1C229A
:102FB00046494748DC1D277003F06EFF1C2229009C
:102FC000434803F05BFF00286BD0424B424E1C226B
:102FD00037703E491F704148230002F029FE3D4BE7
:102FE000019318B13E4803F0EFFF5AE023788BB904
:102FF00000213C4803F062FF00233B4F3B702378E5
:10300000012B16D101223149344802F0B5FEA0B39C
:103010003648E8E7012B02D100213548EAE7022BC8
:10302000EAD1344803F0D0FFFFF7ACFF0128DFD12D
:10303000F2E7FFF7A7FF0128E4D03B788BB100232C
:10304000019A337021491370244823001C2202F096
:10305000EFFD0028C6D12378CBB90021214803F029
:103060002DFF0023244C29002370184A1B481C33D1
:1030700002F0A2FD08B32148B5E7214B1B7813B13C
:103080003B78002BFCD01F4803F09EFFD5E7012BB7
:1030900009D10021164803F011FF00211A4803F05E
:1030A0000DFF05B0F0BD022BDBD1124803F08CFF01
:1030B000FFF768FF0128D0D1EBE7114B1B7813B164
:1030C0002378002BFCD011488DE7C046000010404B
:1030D000225800201E58002020580020BC5A0020F2
:1030E00011E8000047E800001F580020B9E8000080
:1030F0005CE8000075E80000215800202BE9000082
:10310000CCEB0000EAE80000FDE800005CE900000C
:1031100010B5054802F0DAFB040010B1034803F0D3
:1031200053FF200010BDC046BC5A00206FE90000CC
:1031300010B50400FFF7A4FE012320006380FFF711
:1031400031FFFFF7E5FF2000FFF706FF40F22C12EA
:10315000C82141F6583000F05FFC10BD10B50400E6
:10316000FFF78EFE0748FFF71DFFFFF7D1FF200096
:10317000FFF7F2FE40F22C12642142F2283000F0F8
:103180004BFC10BDA0E90000007800B5032806D86C
:10319000012303F00DFE07090502044A137000BD68
:1031A000034AFBE7034AF9E7034AF7E72058002000
:1031B0001E5800201F5800202158002070B540F2F2
:1031C000001605000C4C012240F20051200001F0D5
:1031D000C5FC0121022003F087FC31000022200001
:1031E00001F0BCFC280000F015FD31000122200098
:1031F00001F0B4FC70BDC0463059002070B5040029
:10320000451820780134FFF7D9FFAC42F9D170BDE1
:1032100010B5084803F0D8FE322000F039FD064B07
:103220009B6B9B0703D5054803F0CEFE10BD6420C1
:10323000F3E7C046BCE9000000080440CAE900000A
:1032400070B540F228151324FF20013CFFF7B6FFAC
:10325000002CF9D1013D002DF5D170BD70B50C00E9
:103260000500861D28780135FFF7A8FFB542F9D182
:10327000013C002024B2FFF7A1FF002CF8D170BD63
:1032800070B540F2001605000C4C002240F20051CF
:10329000200001F063FC0121022003F025FC310035
:1032A0000022200001F05AFC280000F0B3FC31009D
:1032B0000122200001F052FC70BDC04630590020B0
:1032C00010B5064B1B7813B19220FFF7D9FF1220DF
:1032D000FFF7D6FFFFF79CFF10BDC0463E58002009
:1032E00010B52F4C00220D21200001F037FC0022E8
:1032F0000F21200001F032FC322000F0C9FC012235
:103300000F21200001F02AFC0A2000F0C1FCFFF789
:103310007FFF0120FFF7B4FF0320FFF74FFF0020DE
:10332000FFF74CFF2B20FFF749FF2B20FFF746FF4D
:103330000320FFF743FF0620FFF7A2FF1720FFF748
:103340003DFF1720FFF73AFF1720FFF737FF002058
:10335000FFF796FFBF20FFF731FF0D20FFF72EFF8D
:103360003020FFF78DFF3A20FFF728FF6120FFF79D
:1033700087FF9820FFF722FF0120FFF71FFF28207B
:10338000FFF71CFF8220FFF77BFF1C20FFF716FFD3
:103390005020FFF775FF1720FFF710FF10BDC04644
:1033A000305900200022174B10B51A70FFF798FF14
:1033B0002020FFF765FF2C211348FFF71FFF212076
:1033C000FFF75EFF2A211148FFF718FF2220FFF7C1
:1033D00057FF2A210E48FFF711FF2320FFF750FF68
:1033E0002A210C48FFF70AFF2420FFF749FF2A2172
:1033F0000948FFF703FF0420FFF742FFFFF708FF2C
:1034000010BDC0463E580020E0E9000012EA00006E
:1034100042EA000072EA0000A2EA000010B50124AE
:10342000234B1C70FFF75CFF2020FFF729FF2621AC
:103430002048FFF713FF2120FFF722FF24211E4819
:10344000FFF70CFF2220FFF71BFF24211B48FFF78B
:1034500005FF2320FFF714FF24211948FFF7FEFE84
:103460002420FFF70DFF24211648FFF7F7FE042064
:10347000FFF706FFFFF7CCFE9120FFF701FF90203A
:10348000FFF7FEFE0020FFF799FE9720FFF796FE5C
:103490000020FFF793FE0020FFF790FE2000FFF7CB
:1034A0008DFE2720FFF78AFE2820FFF787FE10BD3C
:1034B0003E5800200CEA00003CEA00006CEA0000E4
:1034C0009CEA0000CCEA000010B50400102001299D
:1034D00000D00330FFF7D4FEBCB1012240F200510E
:1034E0000B4801F03BFB002240F20011084801F0BC
:1034F00035FB41F2F851200000F0A0FB012240F220
:103500000011034801F02AFB10BDFFF799FEFBE70D
:103510003059002010B504001020FFF7B1FEFFF76E
:103520008FFE00212000FFF7CFFF1120FFF7A8FE3C
:1035300010BD10B55020FFF7A3FEF720FFF73EFEA9
:103540000220FFF79DFEFFF763FE0720FFF798FEBE
:10355000A520FFF733FE40F2F41000F099FB10BDF8
:1035600030B503AC25880E4C20600220E08200209C
:10357000A5812083218120006281CD084C0700D0E5
:103580000135002445828282C38104820BB1B42BB1
:1035900002D18180C28030BD8280C180FBE7C046FD
:1035A0008C580020014B18607047C0468C58002092
:1035B00070B5434C0300A088984202D3E08888424B
:1035C00003D2404803F000FD70BDE089B42819D053
:1035D0000ED830B15A28F7D120890138401A190085
:1035E00083B2208A0328EFD803F0E2FB19153733A2
:1035F00040F20E15A842E7D160890138C01A0B00CD
:1036000081B2EEE720890138C31A60899BB2013884
:10361000411A89B2E5E720890138C31A9BB2208993
:103620009842CED360898842CBD3E08A02281CD14D
:10363000608A25684143D80880B2091807201840DD
:10364000802303416C185BB269565AB999432170C3
:10365000BAE720890138C31A9BB260890138411A40
:1036600089B2DCE70B432370AEE7042812D1608AED
:10367000256841430324980880B20918C0202340DC
:103680005B002240184192011A416E5C864332432E
:103690006A5499E7072800D096E7608AF0254143ED
:1036A000580880B20918012003409B001D411201F7
:1036B0001A412468605CA8430243625484E7C04610
:1036C0008C580020D2EA000030B5194B4FF6FD743B
:1036D000D98A8D1E2A002240254211D1998A914211
:1036E0000CD830BD54431D686D180131285589B27E
:1036F0005C8A8C42F6D8013292B2EFE70021F7E7FC
:103700000729EED1020110430022C0B2998A9142EA
:10371000E7D9002105E054431D686D180131285593
:1037200089B25C8A8C42F6D8013292B2EEE7C0468A
:103730008C580020F7B50C001600019308AB1F88C9
:103740000090019B9C420CD3F7BD28003A00210059
:10375000FFF72EFF0135ADB2B542F6D30134A4B266
:10376000EFE7009DF8E7FFFFF0B585B00BAD2D78D2
:103770001400AC461B4D0AAAAE881288F61A370010
:103780008E4200DD0E00E988B6B2891AA14200DD42
:103790002100073289B2D410BF1BD208C908BFB2BA
:1037A000019403920291DBB100240DE019006E8AAE
:1037B00071437E4309198919029E891966465EB9CB
:1037C000065D2A6801345654039AA1B28A42EDD8A4
:1037D000019A013B8018E6E7065DF643F6B2F0E792
:1037E00005B0F0BD8C580020F7B508AC2578174C13
:1037F000A688B61AB446864200DD0600E788B6B24F
:10380000FF1A8F4200DD0F0061460733BFB28E1BE7
:10381000DB08F90801930B0069424D41B0B26D42DB
:103820008AB9F7BD678A390051438C4621684743FE
:10383000C91889196144CD550136019FB1B2B94209
:10384000F0D3013AECE70026F7E7C0468C58002099
:10385000F0B58DB01F0014AB1B7808920393039A48
:1038600000230690079102B9FF239BB20B9300231C
:1038700002930020385608B90DB0F0BD002841DB96
:10388000129BBBB30299069D129A4D1969465C784A
:1038900012789B78801A898BA2B2ADB2002822DB05
:1038A0005C43E4106043129E766830180496061953
:1038B0000596129EF6787443049E3419059EA6421E
:1038C00011D8039C0093019413000A002900FFF70C
:1038D0004BFF129B5B78089A9B18029AD3189BB2F5
:1038E00002930137C5E70B98DB0800902800FFF72B
:1038F00021FFEEE72028F4D1139B002BF1D0129B7F
:103900005B78FFDE139B002BEBD0402318420AD0DC
:10391000203B184256D0C30607D5030703D4012124
:10392000795600295AD1139BD4E70123FB56002B6B
:10393000F9D0022179560029F5D040F6C07200076F
:103940009B011A40000C10433F2202370A400243F9
:10395000002AE8D00024139B13995B78049389789C
:1039600005911399059DC9785D430A912100ED10D9
:10397000EB1C09930A9B8B42D5D01398406806191B
:10398000B5787678AC46055D36022D042B00654689
:103990001D43AC46099B1B191D0063461E43B242E2
:1039A00035D16B466A4603340019039C0299069D83
:1039B0001B8A928B0194059C491989B20094FFF7E8
:1039C000D3FEB0E70123FB56002BACD040F2C0720F
:1039D000800110403F2201371A40B8E70222BA5650
:1039E000002AA0D00323FB56002B9CD0FC24090303
:1039F000A4022140E02480046403204008433F21C6
:103A00000B401843033740F6C0739201E4E70131DD
:103A10002C00C9B2AEE7FFFF70B50E0015000B4CCD
:103A20000100200001F098FD200001F090FD00222F
:103A30003100200001F002FE280040F2E83103F0DE
:103A400053F8200001F07EFD70BDC046F45A0020FE
:103A5000F8B5104D104EB5FBF0F50C003000290004
:103A6000170001F079FD300001F071FD0521B5FB73
:103A7000F1F14C430A210022B4FBF1F1300001F0D6
:103A8000DDFD380040F2E83103F02EF8300001F09F
:103A900059FDF8BD80A90300F45A00200023F0B5B9
:103AA0001C004D1E5A006600825A365A964218D89B
:103AB0006E00365A964200D21D0001339942F1DC65
:103AC00000231A008F1E944206D0954204D056005F
:103AD000865B96FBF7F69B1901329142F3DC98B2B4
:103AE000F0BD1C00E9E7FFFF837813B90122014B09
:103AF0001A7070474C5800200379022B03D1012221
:103B0000114B1A707047042BFCD183680F4ADBB24B
:103B100013700F4AA52B12D10121116000210D4A0B
:103B200011600C480268511C0160082904D15A2B0D
:103B300002D101200849086008498B54E2E7126865
:103B4000002ADFD0EDE7C0464E5800200C59002077
:103B5000445800204058002048580020A858002011
:103B600007B50122019001A9054800F0EFFC054BC3
:103B70001A78002AFCD0002201981A700EBDC046A7
:103B8000E85900204E58002070B50E0014000025A2
:103B9000A54201DB200070BD7057FFF7E1FF013542
:103BA000F6E7FFFF10B5134B88B01A68012A1ED143
:103BB00000221A60104B04AC5A78200022809A78B8
:103BC0006280DA78A2801A79E2805A7922819B7920
:103BD0006381FDF7F1F86089A388628821880290EB
:103BE00020890190E0880090044803F067F908B04C
:103BF00010BDC04648580020A8580020F0EA000038
:103C00000279034B012A01D11A7070470222FBE7A7
:103C10004D58002007B56B460122D91D08700723B7
:103C2000044800F03FFA044B1A78012AFCD1002224
:103C30001A7007BD185A00204D5800200A000723AB
:103C4000010010B5044800F02DFA044B1A78012A3F
:103C5000FCD100221A7010BD185A00204D580020C7
:103C600010B50A4C002240F20051200000F076FF0F
:103C7000002240F20011200000F070FF01220F210D
:103C8000200000F06BFF012010BDC046305900201D
:103C900013B5040069460C4802F0B3FA40F2E8316B
:103CA000E403B4FBF1F1084802F0BFFB064802F060
:103CB00099FB064800F0B8FE6B461B7913B9024821
:103CC00002F092FA13BDC04690590020905A00208D
:103CD000F0B504000F00150085B005201E00FFF7A9
:103CE000D7FF3900200002F0A3FC2900200002F0D9
:103CF00035FD0025200002F0EFFB00230D4A137074
:103D00001378002BFCD001AB6A003100D2182000E0
:103D100002F0EBFB0135200002F0E3FB052DE9D1B9
:103D2000200002F039FC290001A8FFF7B7FE05B01A
:103D3000F0BDC0464C58002010B50121474802F0A4
:103D400039FA0421454802F035FA4549454800F062
:103D500071FC4549454800F05BFE4549454802F085
:103D60007DFA4549454801F0B7FCFDF727F944497C
:103D7000444800F0D7F9444B9A68920709D45B682D
:103D80009B0706D4414BDB6F9B0702D54048FFF7EA
:103D9000E5F93F4C2000FFF7DFF8FEF7FDFF642256
:103DA00041F658301100FFF737FE40F22C10FFF7B4
:103DB0006FFF00220121374800F0D0FE3649374816
:103DC00001F0FEFA3649374801F0FAFA354801F0B9
:103DD0003DFB324801F03AFB3349344801F0F0FA38
:103DE000324801F033FB0623E05EFCF757FD082361
:103DF000E05EFCF759FD00220121264800F0AEFEEE
:103E00002B492C4801F0B2F8202101220D20FDF7AA
:103E10007BF802210E20FDF78EF860B100210E2004
:103E2000FDF758F82448FCF76BFF2348FCF740FFE8
:103E30002148FCF7C1FF60210F20FDF74BF8FEF78A
:103E400029FFFFF7AFFE1D4B1B689B07F7D4074800
:103E500000F0EAFD1A4B1860F1E7C046385900201F
:103E6000E8EC0000E859002020ED0000905A002006
:103E700090EC00009059002040EC0000F45A002023
:103E800010EC0000185A0020FC0804400808044008
:103E9000705800203059002090EB00001C5B00207F
:103EA000B8EB00002C5B0020A4EB0000B45900200C
:103EB000E0EB0000505A002014590020B0080440E4
:103EC0002C59002010B518B90122054B1A7010BDED
:103ED0000228FCD1034B0448596800F0E5FEF6E7E0
:103EE00090C07E4014EB00003059002010B5FFF761
:103EF00023FF002010BDEFF30380103840B270475D
:103F0000F7B5FF27019283080A4A03269B009B18F6
:103F10003A0040F200350640F6008901B2403940CF
:103F2000B1405C598000944321435951019A024B9E
:103F30001A50F7BD00E100E0805B00201F2243091A
:103F400010401E3A8240044920339B005A50BFF370
:103F50004F8FBFF36F8F704700E100E0F7B51E0091
:103F600008AB1D78836801911B7840219C46674609
:103F700004000B4008200F4248D101996361A361FE
:103F8000631CE1602261E661DD7763685869A0B96E
:103F90006368651C1A69EB7F9C46002A3BD1A168C7
:103FA000EB7FCA7A088A4024D2B280B20F2B5DD848
:103FB000072B5DD96024A2435BE04368A6611968C2
:103FC00040F2300CCB780F2D04D96546AB43103D41
:103FD0002B4303E0072D1AD86546AB430C25CB7065
:103FE0008B78AB439C46082367463B438B70B3B248
:103FF000CB818A6022B98B78AB438B70264B8B6068
:10400000836800685B6898470028C1D0FEBD65469C
:10401000AB431025DCE767465368666119683020BA
:10402000CB780F2F03D983431038034302E0834337
:10403000072F19D80C20CB70CB78B6B283439C469F
:10404000082367463B43CB70019BCE814B6023B96D
:10405000CB788343CB70114B4B60936810685B68DF
:10406000984700289BD0D1E71020DEE7A243202408
:1040700022430F2B02D901339B08053B084C1B023E
:1040800020400343D2B29BB2CA720B8240230A780B
:10409000002013430B70B9E75058002054580020FB
:1040A000FFF0FFFF07B5009313000022FFF756FF54
:1040B0000EBDF0B50500806A85B08C4601AC90B1AC
:1040C00023000200C2CAC2C36B681B780360634648
:1040D0000371EB6A83606B6A9847AB6A0BB107CCDC
:1040E00007C305B0F0BD2000EEE7FFFF030010B5E9
:1040F0000949C0339B005A58084C22405A501F228D
:104100000123024093404009054A8000801840F294
:1041100080128350036010BD00600040FFFFFEFF6F
:1041200000E100E0F0B50B78764A1B020E6989B019
:104130009B1807000C0001938EB9636903BB00252F
:10414000A369714A7B62E3697C60FB622378BD628C
:104150009B181B02BB60617A39B3019528E080226D
:10416000716812050B6830681A60019A9A60B3682A
:104170001B68984705000028DFD0280009B0F0BD73
:104180008020596800030A681060019850609A689E
:1041900018681268904705000028D0D0002EECD097
:1041A000B36830681B6A9847E7E710230825019336
:1041B000E27A637B52001B031A43A37A1A43236AF1
:1041C0001878002800D094E0B0305C782843E501EE
:1041D000A843650064012C4304430594DC78987877
:1041E00040F2000CA0400690702082431879240110
:1041F00028B140F2200C022801D140F2300C58794D
:1042000028B1012877D00120019D054301959879B7
:104210000790187A8007000F20431043029000296E
:104220006BD14EF200020100114302915A7A0392BF
:104230009A7A0492DA7AEFF31086012181F31088DA
:104240007D6832482D784468290013256D1A0121B4
:10425000A9408C434460416886F31088B968002502
:10426000C8786846007DCD7008706846007ED2B27E
:1042700048706046C0B28870DB7902248B726B464E
:104280001B7B0B736B461B7C4B736B461B798A73D2
:10429000CB736B461B893A000B82079B0131CB77AE
:1042A0007B681C5799792000FFF72AFE2000012423
:1042B000FFF71CFF7B683A001C5759792000FFF775
:1042C0001FFE20000424FFF711FF7B683A001C57F3
:1042D000197A2000FFF714FE2000FFF707FF0320E4
:1042E0007B683A00D9791856FFF70AFE084B3B6005
:1042F00043E7B12069E7032086E700220492039296
:1043000099E7C0460420074020074000FC6F0440A6
:104310004950535210B5FFF7EEFD03001A49C03360
:104320009B005A58194C800022405A50184BC258D2
:104330009369D1698B420BD11F215368DB785BB243
:104340005A090B401E3999409300124A995010BDEA
:104350001169906831B94168D1690133936199421B
:10436000F5D1E9E7541CE47F0F2C03D94468980089
:104370004450F1E7072C02D80079C854ECE7848850
:1043800058000C52E8E7C04600600040FFFFFEFF07
:10439000805B002000E100E010B5FFF7ACFD0300FA
:1043A0002049C0339B005A581F4C800022405A506D
:1043B0001E4BC4586268136A5BB15B78012B08D14D
:1043C000E1696069013981420ED103201056FFF77F
:1043D0008DFE6369E269934205D0E268A16882B903
:1043E0004A600133636110BD11690029F1D01F20BB
:1043F000D27852B25109024093408A000C4953507E
:10440000E7E7601CC07F0F2802D998008258E7E7D1
:10441000072802D8D25C0A71E3E75800825A8A80E2
:10442000DFE7C04600600040FFFFFEFF805B00202A
:1044300000E100E010B5FFF75EFD03000E49C03358
:104440009B005A580D4C22405A500D4B8200D458B4
:10445000A368DB789B0703D563685B7A012B0AD1DD
:10446000FFF76CFD4021A268200013788B43137086
:104470003F39FFF71EFE10BD00600040FFFFFEFF4A
:10448000805B002070B5FFF736FD4021134B8200A2
:10449000D5580400AB681A788A4300211A70DA787C
:1044A000D970D6B2130703D528000531FFF701FEF6
:1044B000F30703D504212800FFF7FBFD14231E405A
:1044C0009E4203D108212800FFF7F3FD044AC034BF
:1044D000A400A35803490B40A35070BD805B00208B
:1044E00000600040FFFFFEFFEFF30380103840B292
:1044F0007047FFFF030010B50949C0339B005A58AD
:10450000084C22405A501F22012302409340400988
:10451000054A8000801840F280128350036010BD6D
:1045200000600040FFFFFEFF00E100E01F224309A2
:1045300010401E3A8240044920339B005A50BFF37A
:104540004F8FBFF36F8F704700E100E030B57B25E0
:10455000046AA3782B40A37083789B079B0FD21A21
:1045600002618022CB18C360A3781343A3708378C1
:104570007D3A1340022B06D14FF600620B8813439D
:10458000E381002030BD0B78E370FAE7F8B5140042
:10459000060010000D00FFF7C9FF23000F49C033CC
:1045A0009B005A580E480327024040F200305A50F0
:1045B0000C4AA3089B009B181A5827401100FF22A1
:1045C000FF00BA4091430A00FF21AD010D40BD40FC
:1045D00015431D50044BA400E650F8BD0060004098
:1045E000FFFFFEFF00E100E0805B0020F0B505006A
:1045F000806A87B08C46019202ACC8B123000600E5
:1046000086CE86C336681E60EB691B7803606346FE
:104610008360019B0371EB6AC3606B6A9847AB6A66
:1046200023B107CC07C31A002368136007B0F0BD9D
:104630002000E9E7F8B5614A0B780D009B185B0193
:104640000362002303704A69C16142628A690321DF
:10465000C262827883628A430133134383706B782A
:10466000040023B9827802338A43134383700B22F8
:104670002000AA56A97AFFF789FF05222000AA5632
:104680002979FFF783FF07222000AA56A979FFF7AF
:104690007DFF09222000AA56297AFFF777FFEFF362
:1046A0001086012181F3108880202F780006F840C1
:1046B000434B5A6882435A605B6886F31088002235
:1046C000236A28789A701A715A729A72DA725A8327
:1046D00040F20722C2400A4201D04022DA74062288
:1046E0001A7708B9374A9A82AA78E9786878120165
:1046F000C9000A43032847D140210A43B231D2B24C
:10470000C9B21A70997102212026FF20ED692A7B17
:1047100052000A405A736A78A978D201490131409F
:1047200002400A4300212E781972B11E012930D8A7
:104730005870022E01D110210A43D2B20027052061
:10474000DA71E369E76027616761A7611856FFF7CF
:10475000D1FE0B20E3691856FFF7CCFE0720E36972
:104760001856FFF7C7FE0920E3691856FFF7C2FE87
:1047700003231E406D331E43236A38009E706B89ED
:104780002381114B6360F8BDF2210028B7D11039A5
:10479000B5E703276968D2B2DA718A7848785A7027
:1047A0001A783840BA4302431A70CA789A740A7861
:1047B0005C21D8790A4088430243BFE700380002F1
:1047C000FC6F044000F8FFFF5549435370B5FFF7F5
:1047D0008BFE03001B49C0339B005A581A4C8000C3
:1047E00022405A50194BC058C3691B69FBB9016973
:1047F00059B97F22016A8B781A40042313438B70C6
:104800000021436AC160CBB970BD03248378056A77
:10481000C2681C40022C0ED14FF600661488344347
:10482000EC819B079B0FC91AD3180161C360036910
:10483000002BE9D1DDE71478EC70F2E78022FFF776
:10484000D5FEE1E700600040FFFFFEFF805B002037
:1048500013B5FFF749FE03001A49C0339B005A58AD
:10486000194C800022405A50184BC4580323A27898
:10487000216A1340022B09D1098AC905C90DA36910
:10488000019133B9636A0422C3B913BD4979C9B22E
:10489000F5E7920701A96069920F02F0FDFAA1788D
:1048A00063698907890F5B186361A369591AA1615C
:1048B0000029EAD1636A002BE7D001222000FFF72C
:1048C00095FEE2E700600040FFFFFEFF805B0020F6
:1048D00010B5FFF709FE7B210A4B82000400D05877
:1048E000026A93780B409370436A1BB10222002145
:1048F000FFF77CFE044AC034A400A35803490B40D0
:10490000A35010BD805B002000600040FFFFFEFF51
:1049100070B5FFF7E9FD154B82000400D058032263
:104920008378056A1340022B1CD1298AC905C90D59
:1049300038222B791A40DB0604D52B7FDB0701D404
:1049400040231A4338262B79B3432B71436A0BB1AA
:10495000FFF74CFE064AC034A400A35805490B409B
:10496000A35070BD6979C9B2E2E7C046805B002000
:1049700000600040FFFFFEFF044A1378DB06FCD412
:10498000034A1378DB06FCD47047C046A0E0014020
:10499000AAE0014070B50400012002F027F9FFF7FA
:1049A000EBFF22781300F2B100231449022A14D13C
:1049B00060692269124B1A6002435042424140F240
:1049C0000020E37EA57E5B0013430A5A520A52027E
:1049D0002A430A52207E0B4A107040F2A012A068AF
:1049E000885048F20002084992B28A81074ADBB235
:1049F0000120137002F0D4F8002070BD0060004068
:104A000098E0014094E0014000E0014092E0014064
:104A100010B5040008006160FFF7BCFF08B9014B46
:104A2000236010BD4D504C5270B50600FFF7A4FF37
:104A3000012002F0DBF8174B174C9B89DB0B012B95
:104A400012D1164BDB7F2278DBB2D20709D50525C0
:104A5000DBB9134B1B78012B17D1124B1B78012BA1
:104A600013D1002002F0C2F873681B78022B04D126
:104A70002278823B134323702378BFF34F8F30BFDC
:104A80007F220025237813402370012002F088F84C
:104A9000280070BD00E0014092E0014007E00140C5
:104AA00038E0014032E00140EFF31080012383F34E
:104AB0001088064B196819B9054AD1704031D17078
:104AC0001A6801321A6080F3108870477C5B0020FE
:104AD000000D0440EFF31081012383F31088074B8E
:104AE0001A6812B11A68013A1A601A681AB9044BA6
:104AF000DA708032DA7081F3108870477C5B0020B6
:104B0000000D044003000020186070470B00090AE4
:104B1000DBB20901C918044B8900CB5800209B0760
:104B2000DB0F13707047C04600080440034B090AAE
:104B30004901C9184B6800201380704700000440E9
:104B40000548090A49010918180090430004134058
:104B5000034300208B607047000004400123C8B26B
:104B6000834000209BB20AB118000023044A090ABE
:104B700049011B040343891800208B607047C0461D
:104B8000000004400648090A49010918180010B538
:104B90000C6810402043934398430860002010BDE8
:104BA00000000440044B090A4901C9184B68002061
:104BB0001B0C13807047C0460000044010B5084825
:104BC0000B0A5B011B185C680123C9B28B40240CE3
:104BD00099B223405B1A59424B410020137010BD1B
:104BE000000004400548090A4901091818009043CB
:104BF0000004134003430020CB60704700000440D2
:104C0000062070470123C8B2834010B598B2002433
:104C1000012A01D0040000200A4B090A4901C918E1
:104C2000CB682404012A07D14FF6FF7203431443D3
:104C300023400020CB6010BD034A234310430340B0
:104C4000F7E7C046000004400000FFFF030A70B50C
:104C5000C0B2084D1B01CA0307D51A189200AE58FE
:104C6000054C26400C40AE50AC501B189B00E95040
:104C700070BDC04600080440FFFFFEFF70B5050090
:104C80000024FFF711FF2B88A34202D8FFF722FF71
:104C900070BD6A68E300D318988819680134FFF77B
:104CA000D5FFA4B2EFE7FFFF10B5034B0360080088
:104CB000FFF7E4FF002010BD54524F5010B508001C
:104CC000FFF7DCFF002010BD70B515000C00FFF7EA
:104CD000EBFE29002000FFF7B9FFFFF7FBFE0020E5
:104CE00070BDEFF30380103840B27047F7B5FF276F
:104CF000019283080A4A03269B009B183A0040F25F
:104D000000350640F6008901B2403940B1405C5997
:104D10008000944321435951019A024B1A50F7BD28
:104D200000E100E0805B0020030010B50949C033BA
:104D30009B005A58084C22405A501F22012302401F
:104D400093404009054A8000801840F28012835049
:104D5000036010BD00600040FFFFFEFF00E100E0C7
:104D60001F22430910401E3A8240044920339B0011
:104D70005A50BFF34F8FBFF36F8F704700E100E0D1
:104D80004160027200207047F7B50400806B6D46E9
:104D900080B12B000200C0CAC0C3E36B0171036085
:104DA000636B9847A36B0BB106CD06C300232B346E
:104DB0002370F7BD2800F0E773B501002B4B2C4A98
:104DC0001B6A2C31134002690193019C019E137CE4
:104DD0000D78DBB28DB92405240F360EA41BA34039
:104DE0009B080BB9082076BD5478E4091CB1013B3F
:104DF000F7E70870F7E7B323D371040000232834E2
:104E0000237084690362C461C41DE57F0134E577C2
:104E100023342370A370E370237163710468656A9F
:104E20002B786D78013B5E4273416D0004332B4358
:104E30000125DBB2D37053792B4353710F23E35613
:104E4000002B06DB1F245A0923409D409300094A8A
:104E50009D50BF2203690020DA710A78D4B2002A7B
:104E6000C7D1023220005A70BDE7C04600E00140C1
:104E7000000F000F00E100E010B504002A34237099
:104E80008261027A4161012A08D10021831DD9770C
:104E90004368411D5B00CB77C31DDA770300002216
:104EA00029331A70FFF788FF10BDFFFF1F2370B56D
:104EB00002690C00016813704033137005008033E1
:104EC000486A13700679FF3B1E43F6B21674C67823
:104ED000496833437026DBB2537483781B01334037
:104EE000683E3343937003784078013B5E427341E0
:104EF0004000043303431C48DBB2D370F7238142E4
:104F000000D0803B5371002311269371B333D371CA
:104F1000A6572A00617B3000FFF7E8FE30000F261D
:104F2000FFF702FFA6572A00617B3000FFF7DEFE85
:104F300030001026FFF7F8FEA6572A00617B3000EC
:104F4000FFF7D4FE30000E26FFF7EEFEA6572A002C
:104F50003000617BFFF7CAFE3000FFF7E5FE9F22BD
:104F60002B691A7070BDC04640420F00F8B500258D
:104F70000B78194A01609B181B0203618B680400BF
:104F800043600B7B0372CB6943630B6A8563C36326
:104F9000EFF31086012383F310880F780F4ABC4685
:104FA00009276346FF1A0123BB40506898435060AD
:104FB000536886F310882000FFF778FF2300293319
:104FC0006561A561E56125621D705D709D70DD7094
:104FD000034B2800E360F8BD30054000FC6F04403F
:104FE0004349495270B50500C36904002C352BB9FB
:104FF0002B781BB903002B331B7883B131B100230D
:10500000226920002168D371FFF750FF0022E31DC1
:10501000E261D97F21331970A36923622A70B32218
:105020002369DA7170BD10B50121FFF7DBFF0020A5
:1050300010BD10B504002A3423708261027A4161E8
:10504000012A09D10021831DD9774368411D5B00E6
:105050001343CB77C31DDA770300012229331A707B
:10506000FFF7AAFE10BDFFFF37B5FFF73AFE3E4A35
:10507000C030800083583D490B408350FFF731FE1C
:105080003B4B8000C45821002D310B78E569CBB92A
:10509000A2692369012A03D94022187902431A71AF
:1050A000012D07D11022187902431A7108221879AC
:1050B00002431A716A46DB7CDBB2D371D3790123D8
:1050C0000B7037BD002DFCD0032D17D14023226972
:1050D00011790B4313712369216ADB7C6269535494
:1050E000236A01332362E369013BE361002BE8D1CA
:1050F0004021226913798B431371E2E7022D09D114
:105100001022236919790A431A71082219790A436E
:105110001A71E0E7012DDED123002A331B78DBB1C1
:105120000F2023681856FFF71BFE80222369524286
:10513000D9790A43DA71102219790A4308211A71C0
:105140001A798A431A7104225A705A79AA435A71F9
:1051500023002C331D70BEE7082123695A7A8A4345
:105160005A725970B7E7C04600600040FFFFFEFF6B
:10517000805B002070B5FFF7B4FD2F4CC03080007D
:1051800003592E4D2B400351FFF7ABFD2C4B8000F4
:10519000C35818000830C27FAAB11C00DD1DED7F86
:1051A00028342178032D05D1022903D11D00303583
:1051B0002D783DB15D1DED7F1B690131013A9D7474
:1051C0002170C27770BD1A0029321278002AF9D1F5
:1051D000D9691A6921BB7F20D1790140D171C021E1
:1051E000D079C00910B101390029F9D11B681B7CA5
:1051F0005BB21900C0318900605805406550002B32
:1052000009DB1F20590903401E3898400B000D4947
:1052100060339B0058504023D1790B43D371D1E7C1
:10522000186A5E690139365C013096741862D9617A
:105230000029C7D1CFE7C04600600040FFFFFEFF56
:10524000805B002000E100E010B5FFF74AFD234B32
:105250008000C458230029331B7843B1230008334E
:10526000DB7F012B03D1230030331B78CBB1E36903
:10527000BBB923002A331B784BB30F202368185681
:10528000FFF76EFD802223695242D9790A43DA7111
:10529000042201215A705A798A435A7123002C330F
:1052A000197040212269D3798B43D371C023D179FE
:1052B000490602D5013B002BF9D1FFF712FD084A40
:1052C000C0308000835807490B40835010BD08212F
:1052D00023695A7A8A435A725970E2E7805B002048
:1052E00000600040FFFFFEFF70B5FFF7FAFCE02210
:1052F000304B8000C4582369597A5A72DD3AC8B2DB
:105300000A40C90635D5597849060DD40125230030
:1053100029002B331D702000FFF764FE44E00125B7
:10532000002941D00021F6E7002AEFD15A78520631
:10533000D20FD1B201291ED120002B3002700820DB
:105340005A7A82435A7222685870526A1278013A25
:10535000504242410232DA705A790A435A71FFF7D9
:10536000C0FC154AC0308000835814490B4083505C
:1053700070BD002ACAD1082201001140104206D196
:1053800022002C321278002AE9D04207E7D5220009
:105390002B321278002AC2D12200293215786A42B3
:1053A0005541B3220235DA7129002000FFF7ECFCE9
:1053B000D5E7C046805B002000600040FFFFFEFF95
:1053C000F7B502228A561D4C93001D19270040F2A2
:1053D0000034027101932B598E68009300232B51E6
:1053E0008660CE68C6600E784671BB550B79CF7863
:1053F0001B013B434F79DBB2FF013B430F4FDBB255
:10540000BB55009B2B51002A13DB03269308324027
:10541000B2404978FC368901314096409140084DB0
:105420009B005B191D59019AB5430D431D51054B56
:10543000D050054B03600020FEBDC0460060004018
:1054400000E100E0805B002055434900042310B5D3
:10545000C3560B481A00C03292001158094C214023
:1054600011501F21012219408A405B0906499B0007
:105470005B1840F2801100205A501A6010BDC046DF
:1054800000600040FFFFFEFF00E100E004221F215A
:10549000825653090A401E3991400A0020330449BC
:1054A0009B005A50BFF34F8FBFF36F8F00207047A0
:1054B00000E100E073B5EFF30384103C114B64B2DC
:1054C000A200D258104D517901266B5C9B079B0FAF
:1054D000032B07D02300C0339B0058590B4E30409C
:1054E00000265851936823B1D26868460191009212
:1054F00098472EB1C034A4002B59044A13402B51B5
:1055000073BDC046805B002000600040FFFFFEFFCF
:10551000030010B50849C0339B005A58074C22407D
:105520005A501F22430910401E3A824004496033FA
:105530009B005A5010BDC04600600040FFFFFEFFB8
:1055400000E100E08368C26800209A6070478368C9
:10555000C26800205A60704710B544688368247898
:105560004A1E9A661CB94908013959659965D96A74
:10557000C90705D45A66AA22D2031A64C268DA603F
:10558000002010BDF7B5041E019221DBFF27114A50
:10559000830803269B009B183A0040F20035264002
:1055A000F6008901B2403940B14058599043014357
:1055B000019A5951084BA1002000CA50FFF7A8FFDB
:1055C0001F20012263090440A24002499B005A5057
:1055D000F7BDC04600E100E0805B0020F0B54E4220
:1055E0004E4185686C6E01340EB9A1421FD3DB07B2
:1055F0000FD46B6BDB064068DB0E007803280BD9F9
:1056000001201B094340034069B99BB90223536041
:10561000F0BD6B6BDB02EEE70C200340043B58420D
:105620004341DBB2F0E7002BF0D10323EFE7013970
:105630001160EDE7002CE9D0F7E7FFFF0323F0B599
:10564000134085B0019301235B42029300230600BF
:1056500003931500130002AA0F00FFF7BFFFB36802
:1056600003999C461C6B59B902221300280700D5E8
:1056700093180298154219D09B006344D8641865AA
:10568000019B012B21D0124B1C400B041C43022D0B
:1056900013D129B101233900300002AAFFF79EFF80
:1056A0000C4B1C40039B1B061C4309E0019A9A18F3
:1056B0001232920062445060E2E7019B002BEFD16E
:1056C0000020B3681C6305B0F0BD022DE1D0E7E710
:1056D000FFFFFCFFFFFFFFFC0122F0B50E000B7C7B
:1056E00011009940040087B0C1604660002B00D1D2
:1056F000BFE00274644AF5699B181B02A3607369DA
:105700006361B369E3610023A361EFF31082009248
:10571000012282F31088327C5C49100042424241EF
:1057200040F2200C60465242CF680240413A3A4073
:10573000CA60CA68009A82F310884AF20051A268CF
:105740001160D362D3639364307A7168C005D0620C
:1057500080200006106150619061A86953629362D5
:10576000D061E8694F1E1062976657660122524267
:1057700004923278EF6A0593002A00D07BE0490852
:1057800001390491049AA3685A659A65059A11042F
:1057900012061143EA6A009101926ABB32780292C2
:1057A0002A7892B1697802988A0103920A01944694
:1057B0000922022801D001B9033A1743039A17437B
:1057C0006246174340F200121743AA78A2B1E97863
:1057D0008A01944660460A010243029840F2090C8D
:1057E000022802D009B940F2060C61460A431204AD
:1057F00017438022520417431900002288319A630C
:105800000A60019A3AB96A1CA91CD27FC97F520367
:1058100049070A431743AA22D2031A643278012A9D
:1058200002D10022DA641A65E2680099DA60032284
:105830000A435F631A63012212200A431A63717CD0
:1058400022003056FFF79EFE1F20EB1CD97F6B1DF8
:1058500022001856FFF796FE1F202B1D0635D97F14
:1058600028562200FFF78EFE0020094B236007B068
:10587000F0BD03743EE7012A00D883E72000F168F9
:1058800004AAFFF7ABFE7DE780074000FC6F0440F1
:1058900054504700030010B50949C0339B005A58C3
:1058A000084C22405A501F220123024093404009D5
:1058B000054A8000801840F280128350036010BDBA
:1058C00000600040FFFFFEFF00E100E00023112226
:1058D000036043689A56130021330DD01F215309EA
:1058E0000A401E3991400A00203304499B005A5057
:1058F000BFF34F8FBFF36F8F0020704700E100E0D0
:105900004143032903D9890801390029FCD1704793
:1059100043F6B07370B5114A114D8168EA52040024
:105920000620FFF7EDFF40F28013A522EF21EA5099
:105930000C4B953A5A7059705A705B78934200D16B
:10594000C0460320A168FFF7DBFF63681A781AB12D
:1059500011201856FFF79EFF70BDC04680AAFFFFBA
:1059600000C07E40FFC07E40304B70B51A68040016
:1059700013002F482F4D016A4901490F8B40CB403E
:105980002D49E3608B4207D8AB4205D02B498B42AF
:1059900002D02B498B4246D1006A4001400F824021
:1059A0001100284AC14028489B18B3FBF5F28342F6
:1059B00035D8244B0620C918B1FBF5F140F28353CA
:1059C0004B43B3FBF0F3236140F276334B43B3FB1D
:1059D000F0F3636158234B43B3FBF0F3A3611B4B1C
:1059E000E2604B43B3FBF0F3E361194BA1604B431F
:1059F000B3FBF0F32362174B174A4B43B3FBF0F3AF
:105A0000636243F6C0730024D454144B1A78012AFD
:105A100003D001221A70FFF773FF200070BDD30777
:105A2000C7D50132C5E740F2F614F6E7085C00205E
:105A300000E0014040420F00FF083D0080841E004E
:105A4000C0C62D003F420F003F8AF701B86A05002B
:105A5000D066050068ED220000C07E4090C07E4008
:105A600044F6003313B5A522019340F28013F721C9
:105A70000F4CE2500F4B9D3A5A7059705A705B7838
:105A8000934200D1C04601680620FFF739FF43F674
:105A9000B073094AE252E25A90B202B916BD019AB5
:105AA0001AB1019A013A0192F5E71420F6E7C046CF
:105AB00000C07E40FFC07E4000AAFFFF030000221E
:105AC000343310B51A7043F6B073094A0400D35A40
:105AD0000BB9FFF71DFF01212000064B08309A6A21
:105AE0000A439A629A6A8A439A62FFF7B9FF10BD25
:105AF00000C07E40FCC07E40F7B5174D1C002E0054
:105B000001912B6B5B0617D57F27144B5D7D3D40C4
:105B10005D7500255D750191336B5B0612D440F213
:105B2000F0130F49C95813000B400A4202D0FFF787
:105B3000C5FF23001800FEBD019B4BB1019B013B3B
:105B40000193DEE7019B1BB1019B013B0193E3E75E
:105B5000FFF7B4FF1423EDE7FCC07E40FFC07E409A
:105B600000C07E4010B51823122241690400FFF7DF
:105B7000C3FFB8B9A26A531CA362E36A591CE1626D
:105B8000216B481E206368B107495B180749180C50
:105B90009BB248824B815278054B08205A63812280
:105BA000044B5A7510BDC0460100F0BDFEC07E40DA
:105BB000FCC07E40FFC07E4070B50025040034303C
:105BC000057023636368E2621B78A1620BB1012355
:105BD00003702000FFF79CFE0121114AA06A53794F
:105BE0008B4353710F49E36A5B180F491D0C9BB23D
:105BF0004D824B8101780D4B0025596381235375EC
:105C000063681B7853B92000FFF7ACFF0500082834
:105C1000F9D018B920000830FFF722FF280070BD26
:105C2000FFC07E400000F0BDFEC07E40FCC07E4054
:105C3000F8B51E0003001500002234331A704268C4
:105C4000040012780F000AB103221A702000FFF737
:105C50005FFE1B4B1B4AF918012750796B1EB84396
:105C6000507119480F0C47825B18184F89B2418157
:105C7000190C9BB2796243838323537563681B7845
:105C800023B10223002533702800F8BDA16940F23A
:105C9000F813694310222000FFF72EFF050040B9DA
:105CA0002000FA6A08301207D20F3270FFF7D8FED0
:105CB000EAE70828E8D02000FFF700FFE4E7C04645
:105CC0000000F0BDFFC07E40FEC07E40FCC07E40B4
:105CD00070B50400FFF71CFEE3683F2040F2D812C5
:105CE0000A491F2B0CD9203B5B081F338D580340FA
:105CF000854320002B438B500830FFF7B1FE70BD69
:105D00001F25013B2B408D58F2E7C04600C07E4066
:105D1000F8B50B7804004160CBB111200856134B45
:105D2000032582089200D2180B7CFF2140F2003735
:105D30000540ED009B010B40A940AB40D6598E4376
:105D40001E430B4BD6518200D450FFF7A3FD230016
:105D50000022343320001A70FFF706FE28B9200015
:105D6000FFF7B6FF08B9034B2360F8BD00E100E080
:105D7000805B00204E45504F030070B51500002297
:105D800034331A704268890A127804008E020AB10C
:105D900002221A702000FFF7BBFD0121164A537939
:105DA0008B435371154B2563F0185679A0628E43CF
:105DB0005671AB02124E010C013B71821B18114946
:105DC00080B27081180C9BB2486273838423537530
:105DD000636800261B7863B9216A11222000694399
:105DE0001933FFF789FE060018B920000830FFF7C5
:105DF00037FE300070BDC046FFC07E400000F0BDE1
:105E0000FEC07E40FCC07E4030B585B0EFF303831A
:105E1000103B5BB21A002648C03292001158254C44
:105E20009B0021401150244A9C58230034331D7894
:105E3000012D1ED12000FFF795FE0823984330B1B5
:105E40002000FFF73BFE072302AA137003E0236B39
:105E50006BB902AB1D7020000830FFF701FE6268CD
:105E6000536823B1D26802A803920192984705B003
:105E700030BD022D0AD1192311222000216AFFF71B
:105E80003BFE0028DCD102AB1870E4E740F2F813C7
:105E900010222000A169FFF72FFE0028D0D1074B68
:105EA000DB6A1B0701D50323CEE70223CCE7C046FC
:105EB00000600040FFFFFEFF805B0020FCC07E40D2
:105EC000F7B504240191009204571C492200C03206
:105ED000920055581A4E3540555048F20005525818
:105EE000184ED205D20D2A433500F7899742FCD0CF
:105EF00008223270019E144AA40016B11659019F5F
:105F00007760009E16B11659009FB7603F2614595E
:105F1000E278B243802A0DD1A38118232B70042389
:105F20008022C3565204C0339B00C8580243CA5053
:105F30000020FEBD002AF0D1E381EEE700600040C2
:105F4000FFFFFFFE00540040004000200620704785
:105F50000620704704238022C3560449C0339B00A7
:105F600058585204024300205A50704700600040C5
:105F70000423C3560449C0339B005A5803480240C7
:105F80005A5000207047C04600600040FFFFFFFEEF
:105F90000423C3560E4A9B009B5800223F200A60F0
:105FA0004A60DA7882436AB1C1308860D889C0B269
:105FB000C860802A04D1802252020A609B894B600B
:105FC00000207047802252028A60DB89CB60F7E7AD
:105FD00000400020042230B58256074C1100C03129
:105FE00089000300054D08599200284008510020FF
:105FF00003495050186030BD00600040FFFFFFFEB5
:106000000040002030B53F21FF24C37805008B43BA
:106010002BB1C289D3B21B0222401343C381AB7898
:1060200010308B43002BF0D130BDFFFF1C4BF7B578
:106030000E0019780400A9B901251D70EFF3108036
:1060400085F31088174B184FDA693A40DA61DB693B
:1060500080F31088154F8022380000F026FF144B83
:106060005F601D7373680B251B785BB2002B15DB1B
:106070000E4F9A00D259033D01927AB923713668C6
:106080003000FFF7BFFF0423094A1570E356019D56
:106090009B00DE5118231370064B23602800FEBDC1
:1060A0005858002000E00140FFFFBFFF00400020E3
:1060B0000054004000435444F8B50423C356154C23
:1060C000C0339B001A590E00134905000A401A51AB
:1060D00048F200021B59114FDB05DB0D1343FA890F
:1060E0009A42FCD03000FFF78DFF08233B70042359
:1060F000EB560B4A9B009E5018233B7004238022D2
:10610000EB565204C0339B00E15800200A43E25092
:10611000F8BDC04600600040FFFFFFFE0054004095
:1061200000400020034B8000C35819701A788A423F
:10613000FCD17047E4EE000048F2000110B5154BA9
:10614000154A1B781268DBB28A4210D113490978CC
:10615000E1B113490978C9B112490978B1B1EE2109
:10616000C905084212D1042000F01EFC10BD1BB16D
:106170000D4B1840984204D10C4B9A4201D8032091
:10618000F2E70B4B9A42F1D80120EDE7002BEFD15B
:10619000F5E7C04640E00140085C002036E00140E1
:1061A00038E0014032E001400404000480841E0015
:1061B00000366E0110B50C00002000F017FD012123
:1061C0002000FFF7AFFF002000F0EAFC012000F004
:1061D0000DFD044B186AFFF7AFFF012000F0E0FC53
:1061E000002010BD00E0014081680A7AD207D20F7A
:1061F0000B7A9B07DB0F9A42FAD1F02300200B7237
:1062000070478068027AD207D20F037A9B07DB0FB0
:106210009A42FAD1037A9B07DB0F0B7103880020A7
:106220000B60704710B54268C160137C0A4C9B003C
:10623000195114784B1E82689BB224B9490889B25F
:106240005180918004E0012C04D00021022CF7D170
:10625000138010BD1900F3E75C580020F0B55A4ACE
:106260000B7C87B09B181B0205000C00836041600B
:10627000EFF31086012383F310880320277C534A11
:10628000C01B8340D1689943D160D36886F31088DE
:106290000023AA681372117A8907CB0F0029FADB51
:1062A000E66993723179307801910721F7780F40D0
:1062B000002800D078E0237A002B00D17AE005395D
:1062C0005940030009010F43049771788C467721E8
:1062D00060460840059068680178022916D1C168B7
:1062E000406803910138401A02906046C74378071E
:1062F00001D102980390702760463840702800D181
:1063000002996846808989B250809180B6780720CA
:106310003100014006424FD10198014311730599A4
:10632000DBB291736946097C2800517293726168EF
:10633000FFF778FF1223E356002B2BDB40F2003CE3
:106340006046234A9908890089180F580320FF26C0
:10635000627C1840C0009201324086408240604614
:10636000B7433A430A501B4A99008D501A001A4805
:10637000C03292001158194E314011501F21012294
:1063800019408A405B0912499B005B1840F280115A
:106390005A501A60002063692B61A3696861AB6180
:1063A0000F4B2B6007B0F0BD0100502800D18AE7E9
:1063B000237A88E7190086E70420019E03393043D9
:1063C0004E427141A9E7C04640084000FC6F0440BE
:1063D00000E100E0805B002000600040FFFFFEFF66
:1063E0005447410010B5040081680A7AD207D20FE1
:1063F0000B7A9B07DB0F9A42FAD163681B78012B5B
:1064000003D12000E168FFF70DFFF122A3681A72A3
:1064100062681278012A06D11A7A9207FCD5012205
:1064200052425A809A80002010BD10B58468227AAA
:10643000D207D20F237A9B07DB0F9A42FAD1FFF7DC
:10644000F1FE002010BDFFFFF0B587B0EFF303832E
:10645000103B5BB21A001D48C032920011581C4C10
:106460009B00214011501B4A9D58A9686A680B7A0D
:106470001278DBB2012A07D1F4208A7B0872E53852
:10648000D2B283430B728A732A699446B2B16869A7
:1064900003AA0192C0B11100060094CE94C19B06DC
:1064A00001D500230371AB690360E0476B6913B149
:1064B000019C07CC07C3AB681B7ADBB20F21AA682B
:1064C0000B40137207B0F0BD0198E8E70060004090
:1064D000FFFFFEFF805B00200368828A00201A8095
:1064E0007047036800201880704703681031490026
:1064F000CB5A002013807047F7B5019200282ADBA1
:10650000FF2703263A0040F200350640F6008901D5
:10651000B2403940B140104C83089B001B195C59B4
:10652000944321435951019A0C4B8100CA500300F6
:106530000B49C0339B005A580A4C22405A501F2224
:1065400001230240934040F28012034C4009800036
:10655000001983500360F7BD00E100E0805B00207C
:1065600000600040FFFFFEFF002810DB1F2101221A
:1065700001408A404309064920339B005A50BFF32B
:106580004F8FBFF36F8F0022024B8000C2507047C5
:1065900000E100E0805B002070B500254368040046
:1065A0008560C560062018565E69FFF7DDFF07208D
:1065B00063681856FFF7D8FF06203056FFF7D4FF60
:1065C00007203056FFF7D0FF23681D821D80EFF3B0
:1065D0001080012383F310886168064A0C8810211B
:1065E000091B8B40D6683343D360D36880F310888F
:1065F000280070BDFC6F044070B5C66904000D0032
:1066000088B056B120223100684600F045FC2900D0
:106610002022300000F040FC35002800A369984794
:10662000E06918B12022694600F036FC08B070BD60
:10663000CB68F0B54E6983610B69444A036200235D
:10664000C3610B8841605B029B1803608B784A79B9
:106650000D005B0311020B433179040085B08907FB
:1066600000D569E040210B43F178002900D166E0B4
:1066700040F2802003439BB240F2000C0093A382BF
:10668000022A03D1324B8900CB589C4673782A7971
:106690005B01D2031A43337801920293EFF3108720
:1066A000012080F3108810212A4BDA6803922A888F
:1066B000891A02008A401100039A8A43DA60DB6873
:1066C00087F3108847F6FF5200992368114062460D
:1066D00092B219801A826A469288DA81029A1A73F3
:1066E00031798A0706D503228A330A431A700100DA
:1066F00000F0FAF90620236832798A331A70297A71
:1067000022002856FFF7F8FE07202200697A285653
:10671000FFF7F2FE06202200317A3056FFF7ECFE3A
:10672000072022003056717AFFF7E6FE00200A4B60
:106730002061A36005B0F0BD40F2404193E7002A1C
:1067400000D098E748F2000094E7C04600C005403A
:10675000F8EE0000FC6F044043444152F0B50500E0
:106760006A6885B052690B6803924A680193160003
:106770008C68624B01981E401840029423402C689C
:1067800087B2A780B7B2A7829FB227811B0C070CE4
:10679000360CE780E6826381019B1A43C0239B0588
:1067A00000921A423ED00727554B1E6A330E3B40DB
:1067B0009C466246534B3E401B689340F34040F278
:1067C000E836B3FBF6F341F2883673434E4EB3FB23
:1067D000F6F30133BB4200D23B008026009F009AB3
:1067E0007605374032420BD040F2DE0CA4446246BC
:1067F000DFB21770029A1640771EBE41771CFF3732
:106800008026009AB60532420AD02200DBB2DF327F
:106810001370029B334200D06DE040F200231F430F
:10682000BFB26782CB681A00002B45D01A891605C3
:1068300032D52600903632805F89B7819F89F781F3
:106840001E6800966E463788BC462700664640F2B2
:10685000960C94373E80009EA444370166463F0D57
:1068600037802700009E9237360F3E705E68009694
:106870006E463788BC462700664640F29A0C983729
:106880003E80009EA444370166463F0D37802700B6
:10689000009E9337360F3E7096050DD59F7CDE7CAB
:1068A0003E432700A6373E702600DF89A836378092
:1068B0001E8A2300AA331E80230090331A800A8A7E
:1068C000103B1A80039BDB7873B11F2326889E43FD
:1068D000013310B100F080FAC3B21F36F61AB6B217
:1068E0002680A88A0643AE820020084BEB60019BFD
:1068F0002B6105B0F0BD40F2022390E7FFFFFFCF10
:1069000000E00140085C002040420F004344415237
:1069100030B5020089B0EFF30383103B0F495BB23F
:106920009B005858EFF30383103B5BB20C4CC03311
:106930009B0019590B4D294019516B469A706A46B4
:1069400043681B88138000231372036A01938369D1
:1069500013B16946FFF750FE09B030BD805B0020DF
:1069600000600040FFFFFEFF10B50020FFF7D0FFE2
:1069700010BDFFFF094B1A7882420DD0084A1278E9
:106980001AB908490A78D207FCD51A78D206FCD47D
:1069900018701A78D206FCD47047C046A0E00140B7
:1069A00036E001403CE0014010B50C4B042808D112
:1069B0001A78D206FCD401221A701A78D206FCD4B6
:1069C00010BD1A78D206D10F002AFADB19701A7896
:1069D000002AFCD1FFF7CEFFF2E7C046AAE0014053
:1069E000064B0749DA1DD27F1B6A920052585B01A1
:1069F0005B0FDA401300034A1360704700E0014068
:106A00002C410020085C002040F2FE3370B5234A80
:106A1000234C0026E25243F6C873224D224AEE541C
:106A2000224B23491A60234AD9605A6048F2000277
:106A30009A601A61FFF7D4FF40F213430922E6542B
:106A40001D4B1A7040F28043E25C2AB9012140F2EA
:106A5000C440E15400F048F8002640F28143E65477
:106A6000013BE6543000FFF785FF144B144A1E70BB
:106A70001378DB07FCD50022124BDA77124B236226
:106A8000FFF7AEFF0120FFF78FFF40F2FE330F4A02
:106A9000E25243F6C8730122EA5470BD03A5FFFF1A
:106AA00000E0014000C07E40006CDC022C41002070
:106AB0000024F40000127A00A2E0014036E0014018
:106AC0003CE0014007E001400102000100A5FFFF9A
:106AD000014B036000207047000006037047013837
:106AE0000028FCD17047FFFF4143124B70B5186876
:106AF000114D0C00B5FBF0F540F2E8320800002320
:106B0000002100F087F931B9B0FBF5F0800808B139
:106B1000FFF7E5FF70BDAD00B4FBF5F040F2E832E1
:106B20000023002100F076F90029F0D00120404236
:106B3000EEE7C046085C002000CA9A3B40F24013D2
:106B400070B5002401260A4AD55AADB22B00E340A5
:106B5000E0B2334205D0074AA3009B181B6803B17B
:106B600098470134102CF1D1034B5D8670BDC046AF
:106B7000006000403C5B0020FE60004000230649AE
:106B8000064A9A1810781A00C03292000133505009
:106B9000202BF5D17047C0460060004068EE000031
:106BA00030B5EFF31081012383F310880B4B4000C5
:106BB000C25A1AB1C25A013A92B2C2521B5A53B9BE
:106BC00040F2FE32064C074BA55A185A064B2B438F
:106BD00083439BB2A35281F3108830BD005C002038
:106BE00000E0014004EF000000A5FFFF70B5EFF3E7
:106BF0001081012383F310880A4B4000C25A52B916
:106C000040F2FE34084D094E2A5B865B32434AF25D
:106C1000005632432A531A5A013292B21A5281F361
:106C2000108870BD005C002000E0014004EF00000F
:106C30000B4A0300116810B509B90A491160032114
:106C4000106803338B430849C3188B4206D900F000
:106C50000FF90C2303600120404210BD1360FCE7D4
:106C600064580020205C00202060002000BE704797
:106C700010B500F003F8FDF739F9FEE773B5364AB1
:106C8000364B00209A60FDF71DF9FFF7BDFE6B46FD
:106C90000024DE1D347001203378FFF7A7FFEFF3E7
:106CA0001081012585F310882D4B2E489A680240EB
:106CB0009A609A6881F310882B490A68D207D20F2C
:106CC00032700A68D207D20F32700A68D207D20F28
:106CD0003270EFF3108185F3108880229868520596
:106CE00002439A609B6881F310882800FFF758FFE1
:106CF0002800FDF7E7F841F200011C4B1C4A9C807C
:106D00001A801C4A1C489A601C4ADA601C4A51844A
:106D10001C4A9D802100121A00F0C7F81A481B4A2D
:106D20001B49121A00F0B8F81A4D1B4BED1AAD10A2
:106D3000AC420ADBFFF754FE0220FDF7C3F8FFF771
:106D40001DFF0020FFF7CAFE73BD134AA3009B1866
:106D50001B6898470134EBE70000000000ED00E0FD
:106D6000FC6F0440FFFFFFEF00080440000D0040EF
:106D700000A5FFFF2060002040410020206400208B
:106D8000FE6000401C5C0020804000202C41002060
:106D9000A8EF0000284100202441002002B47146E1
:106DA00049084900095649008E4402BC7047C04654
:106DB00002B4714649084900095C49008E4402BC8E
:106DC0007047C04603B47146490840004900095E57
:106DD00049008E4403BC70471C2101231B049842C8
:106DE00001D3000C10391B0A984201D3000A08395C
:106DF0001B09984201D30009043902A2105C401813
:106E00007047C046040302020101010100000000B6
:106E100000000000F0B5CE4647464FF6FF7580B53E
:106E20000700280015400E002900140C3840994630
:106E30003B0C41435D436043634340190C0C2418F1
:106E40009C46A54203D980235B029846C4444B4626
:106E50004FF6FF707B437243250C654424040840C1
:106E6000591920188918C0BCB946B046F0BDC046B3
:106E7000014B18687047C046C040002030B5002460
:106E80000139A24201D1002005E0035D01340D5D0E
:106E9000AB42F6D0581B30BD002310B59A4200D14A
:106EA00010BDCC5CC4540133F8E703008218934250
:106EB00000D1704719700133F9E7FFFF0FB40A4B97
:106EC00013B51C6824B1A36913B9200000F094FA2B
:106ED00005AB2000049AA168019300F0C5FD16BC23
:106EE00008BC04B01847C046C040002070B505007B
:106EF0000E0018B183690BB900F07EFAAB69AC687B
:106F000013B9280000F078FA2C4B9C4220D16C6811
:106F1000636EDB0705D4A3899B0502D4A06D00F046
:106F20000AFBA3891B0701D5236943BB2100280065
:106F300000F0C6F818B301256D42636EDB0705D477
:106F4000A3899B0502D4A06D00F0F6FA280070BD5D
:106F50001B4B9C4201D1AC68DAE71A4B9C42D7D15B
:106F6000EC68D5E70136A360002B04DAA2699A42E7
:106F700016DC0A2914D023685A1C22601970A368F1
:106F80003178013B0029EDD1A360002B0FDA2800F6
:106F900022000A3100F042F80A25431CCDD1CAE78D
:106FA0002200280000F03AF8431CE8D1C3E70A2584
:106FB00023685A1C22601D70BFE7C04630EF0000F6
:106FC00050EF000010EF000010B5034B01001868EF
:106FD000FFF78CFF10BDC046C04000200EB400B5C6
:106FE0000B499CB01DAB0290069007910491094893
:106FF000094904CB0591006802A9019300F00EFC39
:107000000023029A13701CB008BC03B01847C04696
:10701000FFFFFF7FC04000200802FFFFF8B505001A
:107020000E00140018B183690BB900F0E5F9214B8B
:107030009C422CD16C68A369A360A3891B0730D53F
:107040002369002B2DD023682269F7B2981A63694F
:10705000F6B2834204DC2100280000F02FF930BB97
:10706000A3680130013BA36023685A1C22601F7093
:107070006369834204D0A389DB0706D50A2E04D1B5
:107080002100280000F01AF988B93000F8BD0A4B39
:107090009C4201D1AC68CEE7084B9C42CBD1EC6856
:1070A000C9E72100280000F00BF80028CBD001260A
:1070B0007642EAE730EF000050EF000010EF0000EA
:1070C000354B70B51D6806000C0025B1AB6913B9CE
:1070D000280000F091F9314B9C420FD16C680C23D1
:1070E000E25E93B211072CD4D90611D409230120F2
:1070F000336037331343A381404270BD284B9C4219
:1071000001D1AC68EBE7274B9C42E8D1EC68E6E79D
:107110005B0712D5616B41B123004433994202D021
:10712000300000F073FA002363632422A3899343A1
:10713000A38100236360236923600823A28913438A
:10714000A38123695BB940F2802140F20022A38928
:107150000B40934203D02100300000F017FA0C22BC
:10716000A35E01201A0099B2024003420FD0002210
:10717000A26062695242A26122690020002ABCD149
:107180000A06BAD540221343A3810138B5E7880720
:1071900000D46269A260EFE7C040002030EF000039
:1071A00050EF000010EF0000F7B58B8905000C00D0
:1071B0001A075DD44A68002A04DC0A6C002A01DC44
:1071C0000020FEBDE76A002FFAD0002241F2000144
:1071D0002E682A601A000A400B4232D0606DA389E3
:1071E0005B0705D56368C01A636B0BB1236CC01ACB
:1071F0000200216A00232800E76AB847A189431CDE
:1072000006D12B681D2B30D82B4ADA40D3072CD55A
:107210000023636023692360CB0404D5431C01D1A0
:107220002B6803B96065616B2E600029C8D023000C
:107230004433994202D0280000F0E8F9002060634E
:10724000BFE701232800216AB847431CC7D12B6838
:10725000002BC4D01D2B01D0162B01D12E60AFE71F
:107260004023A2891343A381ABE740230B43FAE7F2
:107270000F69002FA4D00A680F60D21B0192002270
:107280009B0700D14A69A260019B002B98DD3A0060
:107290002800019B216AA66AB047002806DC40232B
:1072A0000120A28940421343A3818AE7019B3F1832
:1072B0001B1A0193E8E7C046010040200B6970B536
:1072C00005000C0013B90025280070BD18B18369B2
:1072D0000BB900F091F8144B9C421BD16C680C2246
:1072E000A35E002BEFD0626ED20704D49B0502D4BC
:1072F000A06D00F020F928002100FFF755FF636E14
:107300000500DB07E0D4A3899B05DDD4A06D00F068
:1073100013F9D9E7054B9C4201D1AC68DFE7044B78
:107320009C42DCD1EC68DAE730EF000050EF00005F
:1073300010EF0000002310B5040003604360836079
:10734000818143661900C281036143618361082220
:107350005C30FFF7AAFD054B6362054B2462A36214
:10736000044BE362044B236310BDC046E17F000081
:1073700009800000418000006D80000010B50249C6
:1073800000F0B8F810BDC046BD72000070B56825A9
:107390004A1E55430E002900743100F081F90400A3
:1073A00040B100212A00016046600C30A0606832C4
:1073B000FFF77BFD200070BD10B5024800F0BBF860
:1073C00010BDC046145C002010B5024800F0B4F8AF
:1073D00010BDC046145C002010B5024800F0ABF8A8
:1073E00010BDC0460F5C002010B5024800F0A4F8A4
:1073F00010BDC0460F5C002013B50400FFF7ECFF82
:10740000A36913B1FFF7F0FF13BDA364E364236521
:10741000134B144A1B68A2620193A34201D10123BA
:10742000A361200000F020F86060200000F01CF84C
:10743000A060200000F018F800220421E0606068DD
:10744000FFF778FF01220921A068FFF773FF0222EE
:107450001221E068FFF76EFF0123A361D2E7C04667
:107460000CEF00007D730000F8B50700FFF7A4FFE4
:107470001E4B1E68B36913B93000FFF7BDFF4836D5
:10748000B4687368013B03D533680BB33668F7E71C
:107490000C22A55ED5B92000154B5830E360656617
:1074A00000F048F8FFF790FF20000822290025602F
:1074B000A560656025616561A5615C30FFF7F5FC3D
:1074C0006563A563A564E5642000F8BD6834D9E769
:1074D00004213800FFF75AFF040030600028D5D19E
:1074E000FFF772FF0C233B60EEE7C0460CEF000095
:1074F0000100FFFFF7B504000600002701914834A2
:107500006368A5680093009B013B009304D5246841
:10751000002CF5D13800FEBDAB89012B08D90E2215
:10752000AB5E013304D029003000019B984707432C
:107530006835E8E7704770477047FFFF70B50E0089
:107540001D000E23C95E140096B0002907DA00233F
:107550002B60B3891B0611D440F200430FE06A464A
:1075600000F0ACFD0028F2DB4FF200030199194056
:10757000054BC9184B4259412960EDE740230020D3
:10758000236016B070BDC04600E0FFFFF7B50226CD
:107590008B8905000C00334206D02300473323605B
:1075A000236101236361F7BD6A4601ABFFF7C6FFA4
:1075B00000990700280000F073F840B90C22A35E80
:1075C0009A05F0D4032293431E43A681E5E70E4BB0
:1075D000AB628023A28920601343A381009B2061BA
:1075E0006361019B63B128000E23E15E00F078FD2A
:1075F00030B10322A38993431A0001231343A381CB
:10760000A0890743A781CEE77D73000070B5050010
:1076100081B10C1F2368002B00DAE418280000F069
:107620009FFD1E4A136811002BB963601460280087
:1076300000F09EFD70BDA3420AD92268A0188342C3
:1076400003D118685B688218226063600C60EEE703
:107650001A005B680BB1A342FAD911685018A04216
:107660000BD120680918501811608342DFD11868C7
:107670005B68411811605360D9E7A04202D90C231E
:107680002B60D4E721686018834203D118685B68D7
:107690004118216063605460C9E7C0466858002003
:1076A000F8B50323CD1C9D43083506000C2D1DD2D3
:1076B0000C25A9421CD8300000F052FD24490A686C
:1076C0001400CCB9234F3B6823B92100300000F0EF
:1076D00077FC38602900300000F072FC431C2BD18D
:1076E0000C233000336000F043FD03E0002DE0DAAE
:1076F0000C2333600020F8BD23685B1B19D40B2BCF
:1077000003D92360E418256003E06368A2420ED128
:107710000B60300000F02CFD200007220B30231DF1
:107720009043C21A9842E6D01B1AA350E3E7536075
:10773000EFE722006468C4E70323C41C9C43A04213
:10774000E1D0211A300000F03BFC431CDBD1C7E73D
:10775000685800206C580020F0B58E6885B007008E
:107760000C00039201939E423CD840F280438A89E8
:107770001A4234D00325096923685B1A02936369AE
:1077800002985D43EB0F5D19019B6D1001331B18CF
:10779000AB4200D91D00530532D529003800FFF750
:1077A0007FFF060048B90C233B6040230120A289DB
:1077B00040421343A38105B0F0BD029A2169FFF74F
:1077C0006BFBA389144A1A4080231343A381029BB5
:1077D0002661F61826606561019EED1AA560019B81
:1077E0009E4200D9019E32000399206800F0A5FC5A
:1077F000A36800209B1BA36023689E192660DAE71C
:107800002A00380000F0BCFC06000028DFD1380058
:107810002169FFF7FBFEC6E77FFBFFFFF0B5A1B0D4
:1078200003901D008B890F0016001B060FD50B69F6
:107830006BB94021FFF734FF3860386128B90C2359
:10784000039A0138136021B0F0BD40237B6100230F
:1078500008AC6361203363761033A3760795350057
:107860002B780BB1252B47D1AB1B0593B5420CD020
:10787000320039000398FFF76FFF431C00D1B0E0DE
:107880006269059B9446634463612B78002B00D1A9
:10789000A7E0012200235242626004A95432521828
:1078A0006E1C2360E360A3601370A365052231782A
:1078B000544800F037FC751C00BB2268D30604D581
:1078C000532304A95B1820211970130704D55323EF
:1078D00004A95B182B21197033782A2B17D0350097
:1078E000002140F20A0C0126E3682A78681C303A2D
:1078F000092A4BD989B917E00135B1E7414B226814
:10790000C01A0123834013432E002360CEE7079B58
:10791000191D1B680791002B01DB0B9304E05B42F0
:10792000E3600223134323602B782E2B0AD16B785C
:107930002A2B34D1079B02351A1D1B680792002B96
:107940002ADB0993304E03223000297800F0EAFB4D
:1079500030B14023801B83402268013513432360EC
:107960002978062229486E1C217600F0DBFB0028CE
:107970003FD0274B4BBB0722079B0733934308336A
:1079800007936369049A9B18636168E761464B43F8
:10799000050031009B18A8E701235B42D1E70023D3
:1079A00040F20A0C1A000126013563602978681C30
:1079B0003039092903D9002BC4D00992C2E76346A4
:1079C0005A43050033005218F0E707AB00933A0022
:1079D0002100104B039800E000BF0490049B01338A
:1079E000CFD1BB890D985B0600D42CE70120404223
:1079F00029E707AB00933A002100064B039800F0FB
:107A0000D3F9EAE770EF000076EF00007AEF0000AC
:107A10000000000059770000936810B5013B9360A7
:107A2000002B04DA9469A34207DB0A2905D0136806
:107A3000581C10601970080010BDFFF7EFFA010024
:107A4000F9E7F8B506000F001400D518AC4201D1D3
:107A5000002007E021783A003000FFF7DDFF013415
:107A6000431CF3D1F8BDFFFFF0B5A1B007000C0037
:107A70001E00039218B183690BB9FFF7BDFC8B4B55
:107A80009C421AD17C68636EDB0705D4A3899B05F1
:107A900002D4A06DFFF74FFDA3891B0701D5236911
:107AA000E3B921003800FFF70BFBB8B1636EDB07C9
:107AB0000DD50120404221B0F0BD7D4B9C4201D14B
:107AC000BC68E0E77B4B9C42DDD1FC68DBE7A38927
:107AD0009B05EED4A06DFFF72FFDEAE7002308AD6C
:107AE0006B6120336B761033AB760796039E337849
:107AF0000BB1252B4DD1039BF31A0593039B9E429B
:107B00000DD0059B21003800039AFFF79AFF431C14
:107B100000D1B3E06A69059B944663446B61337896
:107B2000002B00D1AAE00122731C039300235242D0
:107B30006A6004A9543252182B60EB60AB6013707A
:107B4000AB65039B052219785B4800F0EBFA039BB9
:107B50005E1C00BB2A68D30604D5532304A95B1816
:107B600020211970130704D5532304A95B182B2176
:107B70001970039B1B782A2B16D0002140F20A0CA7
:107B8000EB68039E3278701C303A092A4CD989B9C7
:107B900017E00136ABE7484B2A68C01A012383403F
:107BA00013432B600396CCE7079B191D1B680791B5
:107BB000002B01DB0B9304E05B42EB6002231343D9
:107BC0002B6033782E2B0AD173782A2B35D1079B63
:107BD00002361A1D1B680792002B2BDB0993032228
:107BE0003178364800F09EFA38B1344B2A68C01A12
:107BF00040238340134301362B603178731C0622E7
:107C00002F480393297600F08DFA002845D02D4B9C
:107C100043BB0722079B07339343083307936B69E2
:107C2000049A9B186B6161E761464B430600012192
:107C30009B18A7E701235B42D0E7002340F20A0C20
:107C40001A0001366B603178701C3039092903D96C
:107C5000002BC4D00992C2E763465A4306000123B1
:107C60005218F0E707AB0093220029003800164BAA
:107C700000E000BF0490049B0133D0D1636EDB07AA
:107C800005D4A3899B0502D4A06DFFF755FCA389F9
:107C90005B0600D50DE70D980DE707AB00932200BA
:107CA00029003800084B00F07FF8E3E730EF0000D0
:107CB00050EF000010EF000070EF000076EF0000C2
:107CC0007AEF000000000000437A0000F7B51500CD
:107CD00001938A680B690C000090934200DA13004C
:107CE00022002B60433212780AB101332B602368E3
:107CF0009B0602D52B6802332B60226806231700EF
:107D00001F401A4227D0230043331B785A1E934149
:107D10002268920630D4220001990098089E4332CE
:107D2000B047431C25D0062320682A68E168002557
:107D30000340042B03D18D1AEB43DB171D40A368CE
:107D40002269934201DD9B1AED180027BD4220D124
:107D5000002010E00137E3682A689B1ABB42D2DD9D
:107D60002200012301990098089E1932B047431C54
:107D7000F0D101204042FEBD3020E11843310870AF
:107D800021005A1C45310978A21843320233117080
:107D9000C1E72200012301990098089E1A32B047DA
:107DA000431CE6D00137D1E7F0B50E0089B004924C
:107DB000039005930C00097E0E9A4336782907D864
:107DC000622909D8002900D1BCE0582900D184E0FB
:107DD00025004235297022E0080063381528F7D8BD
:107DE000FEF7F0FF16001F00F6FFF6FFF6FFF6FFA6
:107DF0001F00F6FFF6FFF6FFF6FFA3003400920027
:107E0000F6FFF6FFB400F6FF3400F6FFF6FF96002B
:107E1000250013684235191D1B6811602B70012362
:107E2000A1E013682068191D050609D51B681160BB
:107E3000002B02DA2D225B4232700A225E4914E0E6
:107E40001B6811604006F3D51BB2F1E71368256883
:107E5000181D10601B682F063BD56F2962D00A22BF
:107E6000554920000025433005706068A060002857
:107E700003DB04252768AF4327600BB9350060B1E9
:107E80003500B3FBF2FC60465043181A085C013D14
:107E90002870180063468242F3D9082A09D1236862
:107EA000DB0706D563682269934202DC3023013D7B
:107EB0002B70761B2661059B210000930398049B81
:107EC00007AAFFF703FF431C51D10120404209B02C
:107ED000F0BD6D06C1D59BB2BFE7230045331970D5
:107EE00035491068256808C810602F0616D5EA07BE
:107EF00002D52022154325601022002BB1D120206D
:107F0000256885432560ACE7202321680B43236067
:107F100023007821453319702849E2E76F06E6D53A
:107F20009BB2E4E7082224499BE713682568181DE3
:107F3000616910601B682F0601D5196002E06D06AB
:107F4000FBD51980002335002361B4E71368191DA0
:107F500011601D6800212800626800F0E3F808B194
:107F6000401B60606368236100233370A3E72A002D
:107F7000236904990398059DA847431CA5D023684D
:107F80009B0716D4079BE0689842A0DA18009EE78A
:107F90002200012304990398059E1932B047431C1F
:107FA00000D192E70135E368079A9B1AAB42EFDCF8
:107FB000E8E70025F7E7C04681EF000092EF0000F8
:107FC000002370B5054D040008002B60FEF730FE5D
:107FD000431C02D12B6803B1236070BD185C0020E4
:107FE00070B50C000E25495F00F0F0F8002803DBA7
:107FF000636D1B18636570BDA389024A1340A3819A
:10800000F9E7C046FFEFFFFFF8B51F008B890500B9
:108010000C001600DB0505D50E23C95E00220223E5
:1080200000F06EF8A389054A28001340A3813200AE
:108030000E23E15E3B0000F01FF8F8BDFFEFFFFFED
:1080400070B50C000E25495F00F05AF8A389421C58
:1080500003D1054A1340A38170BD41F200021343CE
:10806000A3816065F8E7C046FFEFFFFF10B50E2360
:10807000C95E00F013F810BD70B5040008001100CF
:108080001A000023044D2B60FBF77EFD431C02D138
:108090002B6803B1236070BD185C0020002370B50D
:1080A000054D040008002B6000F0AAF8431C02D123
:1080B0002B6803B1236070BD185C0020002370B5ED
:1080C000064D0400080011002B6000F0A3F8431CCB
:1080D00002D12B6803B1236070BDC046185C00203C
:1080E000002370B5054D040008002B6000F09CF8DB
:1080F000431C02D12B6803B1236070BD185C0020C3
:1081000070B50400080011001A000023044D2B6014
:1081100000F092F8431C02D12B6803B1236070BDBC
:10812000185C0020C9B28218904201D1002070472B
:1081300003788B42FBD00130F6E710B5884202D9B4
:108140008B18984203D3002307E08B5C8354013AD9
:10815000FBD210BDCC5CC45401339A42FAD1F8E78B
:1081600010B50248FFF7E7F910BDC046105C0020CB
:1081700010B50248FFF7E0F910BDC046105C0020C2
:10818000F8B507000D00160029B91100FFF788FAAD
:1081900004002000F8BD1AB9FFF738FA3400F8E7F8
:1081A00000F026F82C00B042F3D231003800FFF77F
:1081B00077FA04000028ECD029003200FEF76CFEAC
:1081C00029003800FFF722FAE3E7FFFF70B504004B
:1081D000080011001A000023044D2B6000F036F84F
:1081E000431C02D12B6803B1236070BD185C0020D2
:1081F0000B1F1B68181F002B01DA0B58C0187047A3
:1082000045F6184358220120C2F2000340421A608A
:108210007047C04645F6184358220120C2F20003B9
:1082200040421A607047C04645F618435822C2F2D1
:10823000000300201A60704745F6184358220120B9
:10824000C2F2000340421A607047C04645F6184328
:1082500058220120C2F2000340421A607047C04613
:108260004275696C7420776974682052656E657315
:10827000617320416476616E63656420466C657845
:1082800069626C6520536F66747761726520506116
:10829000636B6167652076657273696F6E20332E3C
:1082A000362E3000332E362E30000000000006033C
:1082B000F8B5C046F8BC08BC9E467047F8B5C04645
:1082C000F8BC08BC9E467047E5B08FE5AF9200E56C
:1082D000A4A7E5AF9200E7AB8BE698A500E99BA8C1
:1082E000E6B0B400E6838AE89BB000E698A5E5888E
:1082F0008600E6B885E6988E00E8B0B7E99BA8004E
:10830000E7AB8BE5A48F00E5B08FE6BBA100E88A60
:1083100092E7A78D00E5A48FE887B300E5B08FE66C
:108320009A9100E5A4A7E69A9100E7AB8BE7A78BAB
:1083300000E5A484E69A9100E799BDE99CB200E7C4
:10834000A78BE5888600E5AF92E99CB200E99C9C8A
:10835000E9998D00E7AB8BE586AC00E5B08FE99B32
:10836000AA00E5A4A7E99BAA00E586ACE887B300CC
:10837000E794B300E9858900E6888C00E4BAA5009B
:10838000E5AD9000E4B89100E5AF8500E58DAF0064
:10839000E8BEB000E5B7B300E58D8800E69CAA0012
:1083A000E69CAAE79FA500E5889DE4B88000E588E3
:1083B0009DE4BA8C00E5889DE4B88900E5889DE5D8
:1083C0009B9B00E5889DE4BA9400E5889DE585AD1A
:1083D00000E5889DE4B88300E5889DE585AB00E570
:1083E000889DE4B99D00E5889DE58D8100E58D813E
:1083F000E4B88000E58D81E4BA8C00E58D81E4B8B5
:108400008900E58D81E59B9B00E58D81E4BA9400B0
:10841000E58D81E585AD00E58D81E4B88300E58DCE
:1084200081E585AB00E58D81E4B99D00E4BA8CE57A
:108430008D8100E5BBBFE4B88000E5BBBFE4BA8C2A
:1084400000E5BBBFE4B88900E5BBBFE59B9B00E549
:10845000BBBFE4BA9400E5BBBFE585AD00E5BBBF9B
:10846000E4B88300E5BBBFE585AB00E5BBBFE4B97D
:108470009D00E4B889E58D810000000000E6B6A605
:1084800000E69CAAE79FA500E6ADA3E69C8800E471
:10849000BA8CE69C8800E4B889E69C8800E59B9B42
:1084A000E69C8800E4BA94E69C8800E585ADE69CED
:1084B0008800E4B883E69C8800E585ABE69C8800EC
:1084C000E4B99DE69C8800E58D81E69C8800E58600
:1084D000ACE69C8800E8858AE69C8800E5BA9A00AC
:1084E000E8BE9B00E5A3AC00E799B800E794B200B2
:1084F000E4B99900E4B89900E4B88100E6888A00FC
:10850000E5B7B200E78CB400E9B8A100E78B9700AB
:10851000E78CAA00E9BCA000E7899B00E8998E00DF
:10852000E5859400E9BE9900E89B8700E9A9AC00C5
:10853000E7BE8A001F1C1F1E1F1E1F1F1E1F1E1F9F
:108540004EA6999CA2988000180010244EA6999CD3
:10855000A2988082180010244EA6D99EA2988082EC
:10856000180010044EE6D99EA6A8808218001000BC
:108570000FE6D9BEA6988882188000000FEFD9BEFA
:10858000A6998C82988000000FEFDBBEA6999CA272
:10859000988000180FEFDBBEA6999CA29880001867
:1085A0000FEFDBBEA2998CA0988082180BEFDBBE88
:1085B000A6998CA2988082180FEFDBBEE6D99EA206
:1085C000988082180FEFFBBFE6D99EA6988082188C
:1085D0000FFFFFFCEFD9BEA618000000000000004E
:1085E00006140413061505140615061507170817B3
:1085F0000817081808160716CD0700006DB200000E
:108600005C1200002C190000959A0000941A0000DA
:108610004A1B0000554B0000D40A00005BF5000027
:10862000BA0400005A1200002BB900002A150000FD
:1086300094160000AA960000AA150000B52A0100B1
:1086400074090000B614000057CA0000560A000062
:1086500026150000958E0000540D0000AA1500009C
:10866000B54900006C090000AED400009C14000065
:108670004C1A000026BD0000A61A0000540B000092
:108680006A6D0000DA1200005D6901005A090000FD
:108690009A1400004BDA00004A1A0000A41A0000E5
:1086A00054BB0000B4160000DA0A00005B49000069
:1086B0003609000097F40000961400004A150000E7
:1086C000A5B60000A40D0000B4150000B66A0000B5
:1086D0006E1200002F0901002E090000960C000008
:1086E0004ACD00004A1D0000640D00006C9500009A
:1086F0005C1500005C1200002E7900002C190000AF
:1087000095FA0000941A00004A1B000055AB0000C7
:10871000D40A0000DA1400005D8A00005A0A000042
:108720002B1501002A15000094160000AAD600009F
:10873000AA150000B40A0000BA940000B6140000A4
:10874000560A000027750000260D000053EE0000B9
:10875000540D0000AA150000B5A900006C09000026
:10876000AE1400004E8A00004C1A0000261D0100C5
:10877000A41A0000541B00006ACD0000DA0A0000B1
:108780005C0900009D9400009A1400002A1A000061
:10879000255B0000A41A000052FB0000B416000084
:1087A000BA0A00005BA90000360900009614000018
:1087B0004B9A00004A150000A5360100A40D0000E8
:1087C000AC150000B6CA00006E1200002E090000B1
:1087D000978C0000960A00004A0D0000A56D00006D
:1087E000540D00006AF500005A1500005C0A0000F4
:1087F0002EB900002C150000941A00004A9D0000BC
:108800002A1B0000556B0100D40A0000DA14000096
:108810005DCA00005A0A00001A15000095BA00004F
:1088200054160000AA160000D54A0000B40A000041
:10883000BAF40000B6140000560A000017B5000094
:10884000160D0000520E0000AA9600006A0D0000EE
:10885000B56501006C090000AE1400002ECA0000CE
:108860002C1A0000161D000052AD0000521B000023
:108870006A0B00006D6500005C0500005DF40000FF
:108880005A1400002A1A000095DA0000A41600000D
:10889000D21A00005A8B0000B60A00005B450100A6
:1088A000B6080000561400002BD500002A15000061
:1088B00094160000AAB60000AA150000B60A00002F
:1088C000B7640000AE08000057EC0000560A000034
:1088D0002A0D000095CD0000540B00006A15000021
:1088E0006D8A00005C090000AE140000564A0000CA
:1088F000541A00002ADD0000AA1A0000540B0000E0
:108900006AB50000DA1400005C090000AB740000D6
:108910009A1400004BFA000052160000AA1600003C
:10892000D5CA0000B4050000CD0700003C9C0F0034
:10893000509E0F0045A00F0038A20F004CA40F005E
:1089400041A60F0036A80F0049AA0F003DAC0F004A
:1089500052AE0F0047B00F003AB20F004EB40F00F6
:1089600043B60F0037B80F004ABA0F003FBC0F00E4
:1089700053BE0F0048C00F003CC20F0050C40F0090
:1089800045C60F0039C80F004CCA0F0041CC0F007C
:1089900036CE0F004AD00F003DD20F0051D40F0049
:1089A00046D60F003AD80F004DDA0F0043DC0F0017
:1089B00037DE0F004BE00F003FE20F0053E40F00E3
:1089C00048E60F003CE80F004FEA0F0044EC0F00B0
:1089D00038EE0F004CF00F0041F20F0036F40F009C
:1089E0004AF60F003EF80F0051FA0F0046FC0F0048
:1089F0003AFE0F004E001000420210003704100033
:108A00004B06100041081000530A1000480C1000DB
:108A10003C0E10004F1010004412100038141000CB
:108A20004C16100042181000351A1000491C100096
:108A30003D1E100051201000452210003A24100065
:108A40004E26100043281000372A10004B2C10002F
:108A50003F2E100053301000473210003B341000FE
:108A60004F36100045381000383A10004C3C1000CA
:108A7000423E100036401000494210003D441000B4
:108A800051461000464810003A4A10004E4C100063
:108A9000434E1000385010004A5210003E5410004F
:108AA00052561000475810003B5A10004F5C1000FF
:108AB000455E1000396010004C62100041641000E7
:108AC00035661000496810003D6A1000516C1000B6
:108AD000476E10003C7010004F721000447410007C
:108AE000387610004C7810003F7A1000537C10004C
:108AF000487E10003D801000508210004684100017
:108B00003A8610004E881000428A1000368C100001
:108B10004A8E10003E9010005192100047941000B1
:108B20003B9610004F981000439A1000379C10009D
:108B30004B9E100041A0100053A2100048A410004A
:108B40003DA6100051A8100045AA100039AC100035
:108B50004DAE100042B0100036B210004AB4100002
:108B60003EB6100052B8100047BA10003BBC1000CF
:108B70004FBE100044C0100037C210004BC410009C
:108B800041C6100054C8100048CA10003DCC100067
:108B900050CE100045D0100039D210004CD4100037
:108BA00042D6100037D810004ADA10003EDC100020
:108BB00052DE100047E010003AE210004EE41000D0
:108BC00043E6100038E810004BEA100041EC1000BA
:108BD00054EE100049F010003CF2100050F4100068
:108BE00045F6100039F810004CFA100042FC100055
:108BF00037FE10004B0011003E021100520411001C
:108C0000470611003B0811004E0A1100430C1100E9
:108C1000380E11004C1011003F12110035141100D4
:108C2000481611003C1811004F1A1100451C110084
:108C3000391E11004D20110042221100362411006E
:108C40004A2611003E281100512A1100462C11001D
:108C50003B2E11004F301100AC3300736874343078
:108C600000000000E697A500E4B88000E4BA8C009C
:108C7000E4B88900E59B9B00E4BA9400E585AD006B
:108C80004550445F32494E36365F746573742044F4
:108C9000656D6F0D005061696E745F4E6577496D4B
:108CA0006167650D00E7A7BBE58AA800E5878F002F
:108CB000E58AA000E8BF94E59B9E00E4BF9DE5AD7A
:108CC00098002D2D00E7A1AEE5AE9A00E4B88A0029
:108CD000E4B88B00E6B58BE9878F00E4B8BBE88F7A
:108CE0009CE58D95E9A1B500E697B6E997B4E8AEA5
:108CF000BEE7BDAE00E6B8A9E6B9BFE5818FE7A73C
:108D0000BB00E794B5E6B1A0E8AEBEE7BDAE00E8B3
:108D10009C82E9B8A3E8AEBEE7BDAE00E58589E672
:108D2000958FE8AEBEE7BDAE00E681A2E5A48DE971
:108D3000BB98E8AEA400E7B3BBE7BB9FE4BFA1E6E6
:108D400081AF00E98080E587BAE8AEBEE7BDAE003E
:108D5000E5AE9EE697B6E794B5E58E8B3A2025649E
:108D60002E253033645600E58F82E88083E794B582
:108D7000E58E8B414443E580BC3A20256400E6BB88
:108D8000A1E794B5E794B5E58E8B3A2025642E25AE
:108D90003032645600E688AAE6ADA2E794B5E58EC7
:108DA0008B3A2025642E253032645600E58786E70D
:108DB00082B9E5938D3A2020257300E99FB3E987B6
:108DC0008F3A202564EFBC8500E9A291E78E873AAF
:108DD0002025642E2564204B485A002B00E5AE9ECA
:108DE000E9998500E5818FE580BC00E698BEE7A49F
:108DF000BA00E6B8A9E5BAA63A2020253032642E9A
:108E00002564E2848300E6B9BFE5BAA63A202025AE
:108E10003032642E2564EFBC85005B25732530322B
:108E2000642E25645D00E8ADA6E5918A2120E681E7
:108E3000A2E5A48DE9BB98E8AEA4E695B0E68DAEB8
:108E4000212121212100E5908CE697B6E68C89E46A
:108E5000BD8FE8AEBEE7BDAEE5928CE5878FE994A5
:108E6000AEE5B9B6E5A48DE4BD8D00E58FAFE4BBFA
:108E7000A5E5BCBAE588B6E693A6E999A4E585A878
:108E8000E983A8E695B0E68DAE005348543430200F
:108E90004F4B005248204E4F20464F554E44004104
:108EA00048543230204F4B005348543330204F4BFE
:108EB000004552520020202020E7A1ACE4BBB620A0
:108EC0003A2025732052583830323554202573000B
:108ED00031303A30303A3237004A756E2032302025
:108EE0003230323200E7BC96E8AF91E697B6E997A8
:108EF000B4203A20257320257300312E3700E8BDB9
:108F0000AFE4BBB6E78988E69CAC203A2025730025
:108F10004653502020564552203A2025642E256481
:108F20002E256400627920E69292E58DA1E4B88155
:108F3000E8BDA6003230253032642D253032642D54
:108F40002530326420253032643A253032643A25A7
:108F5000303264003132E5B08FE697B6E588B63A34
:108F600020257300E58589E6958F3A20257300E575
:108F7000AE9EE697B63A2025642E25303264560020
:108F8000E4BC91E79CA0E99880E580BC3A20256488
:108F90002E253032645600E6B3A8E6848F3AE5A465
:108FA000A7E4BA8EE99880E580BCE4BC91E79CA078
:108FB00000E794B5E9878FE4BD8EEFBC810076624F
:108FC00061743A256420566261743A25640A00325D
:108FD0003025303264E5B9B425303264E69C88250A
:108FE000303264E697A520E6989FE69C9F25732083
:108FF00025732573257300E4BB8AE5A4A9E698AF21
:10900000257300E7A6BB2573E8BF98E69C89256415
:10901000E5A4A900257325732573E5B9B42025734C
:109020002025642E25303264560043454C3A2530C5
:1090300032642E2564E28483202052483A2530325F
:10904000642E2564EFBC85004550445F32494E369E
:10905000365F536C6565700073687434303A25640C
:109060000A0053485433303A25640A0041485432C8
:10907000303A25640A0053485443333A25640A00C1
:1090800053485432303A25640A00E6938DE4BD9C7F
:10909000E8AFB4E6988E00E6ACA2E8BF8EE4BDBFB0
:1090A000E794A800E58588E68C89E4BD8FE58AA071
:1090B000E994AEE5868DE68C89E8AEBEE7BDAEE903
:1090C00094AEE8BF9BE585A500E8AEBEE7BDAEE87F
:1090D0008F9CE58D95E9A1B5003330E7A792E59027
:1090E0008EE697A0E6938DE4BD9CE887AAE58AA862
:1090F000E98080E587BA00E585B3E997AD00E5BC76
:1091000080E590AF00FFFFFF302F500BF49E000072
:109110002008105F26B30000FFFFF81FF3CFF3CF46
:10912000F7EFEFF7EFF3DFFB8001C003FE7FFFFFF8
:10913000FC3FFFFFF81FFFFFFFFFF00FF00F800164
:10914000BFFDBFFDBFFDBFFDBFFDBFFDBFFDBFFD3F
:10915000BFFDBFFDBFFDBFFDBFFDBFFDBFFDBFFD2F
:10916000BFFDBFFDBFFDBFFDBFFD8001FFFFFFFFD6
:10917000F00FF00F8001BFFDA005A005A005BFFD09
:10918000A005A005A005BFFDA005A005A005BFFD89
:10919000A005A005A005BFFDA005A005A005BFFD79
:1091A0008001FFFFFFFFF00FF00F8001BFFDBFFD4B
:1091B000BFFDBFFDBFFDBFFDBFFDBFFDBFFDBFFDCF
:1091C000BFFDBFFDBFFDBFFDBFFDBFFDBFFDA005D6
:1091D000A005A005BFFD8001FFFFFFFFF00FF00F0E
:1091E0008001BFFDBFFDBFFDBFFDBFFDBFFDBFFDDA
:1091F000BFFDBFFDBFFDBFFDBFFDBFFDA005A005BD
:10920000A005BFFDA005A005A005BFFD8001FFFFD3
:10921000FFFFF00FF00F8001BFFDBFFDBFFDBFFDE1
:10922000BFFDBFFDBFFDBFFDBFFDA005A005A005A3
:10923000BFFDA005A005A005BFFDA005A005A005D8
:10924000BFFD8001FFFFFFFFF00FF00F8001BFFDAA
:10925000BFFDBFFDBFFDBFFDA005A005A005BFFD73
:10926000A005A005A005BFFDA005A005A005BFFDA8
:10927000A005A005A005BFFD8001FFFFFFFFFFFFC8
:10928000FFFFFFFFFFFFFFFFFFFFFFFFFFFFFFFFEE
:10929000FFFFFFFFFFFFFFFFFFFFFFFFFFFFC1FF1C
:1092A000FFFFFFFFFFFFFFFFFFFFFFFFFFFFFFFFCE
:1092B000FF007FFFFFFFFFFFFFFFFFFFFFFFFFFF3D
:1092C000FFFFFFFE001FFFFFFFFFFFFFFFFFFFFF8E
:1092D000FFFFFFFFFFFFFC000FFFFFFFFFFFFFFF90
:1092E000FFFFFFFFFFFFFFFFFFF80207FFFFFFFE8B
:1092F00003FFFFFFFFFFFFFFFFFFFFFFF00FC3FFB5
:10930000FFFFF8007FFFFFFFFFFFFFFFFFFFFFF002
:109310001FE1FFFFFFF0003FFFFFFFFFFFFFFFFF29
:10932000FFFFE03FF0FFFFFFF0000FFFFFFFFFFF39
:10933000FFFFFFFFFFC07FF0FFFFFFF03C07FFFFD5
:10934000FFFFFFFFFFFFFFFF81FFF0FFFFFFE07F59
:1093500003FFFFFFFFFFFFFFFFFFFF03FFF0FFFF24
:10936000FFE0FFC0FFFFFFFFFFFFFFFFFFFE07FF64
:10937000F0FFFFFFE0FFE07FFFFFFFFFFFFFFFFFCA
:10938000FE0FFFE0FFFFFFF0FFF03FFFFFFFFFFFDB
:10939000FFFFFFFC1FFFC1FFFFFFF0FFF83FFFFFD4
:1093A000FFFFFFFFFFFFFC1FFFC3FFFFFFF0FFFCFE
:1093B0001FFFFFFFFFFFFFFFFFFC3FFF87FFFFFFD8
:1093C000F0FFFE0FFFFFFFFFFFFFFFFFFC3FFF0F60
:1093D000FFFFFFF87FFF07FFFFFFFFFFFFFFFFFC1F
:1093E0003FFE1FFFFFFFF87FFF07FFFFFFFFFFFFAD
:1093F000FFFFFC3FFC3FFFFFFFF87FFF83FFFFFF06
:10940000FFFFFFFFFFFC1FFC3FFFFFFFFC3FFFC113
:10941000FFFFFFFFFFFFFFFFFE1FFC3FFFFFFFFC03
:109420001FFFE1FFFFFFFFFFFFFFFFFE0FFE1FFF1C
:10943000FFFFFE1FFFE0FFFFFFF00FFFFFFFFF0F2B
:10944000FF0FFFFFFFFE0FFFF07FFFF000001FFF89
:10945000FFFF87FF87FFFFFFFF07FFF87FFF000089
:109460000001FFFFFFC3FFC3FFFFFFFF87FFF83FC0
:10947000F8000000003FFFFFE1FFE0FFFFFFFF8378
:10948000FFFC3FC001FFF8000FFFFFF0FFF07FFF80
:10949000FFFFC1FFFE1F001FFFFF8003FFFFF07FE4
:1094A000F83FFFFFFFE0FFFE1C00FFFFFFF001FFA2
:1094B000FFF83FFC1FFFFFFFE07FFF0803FFFFFFF8
:1094C000FE007FFFFC1FFE0FFFFFFFF03FFF000FBE
:1094D000FFFFFFFF803FFFFE0FFF07FFFFFFF81FAB
:1094E000FF803FFFFFFFFFE00FFFFF07FF83FFFF4E
:1094F000FFFC0FFF80FFFFFFFFFFF807FFFF83FF69
:10950000C1FFFFFFFE07FF01FFFFFFFFFFFE03FF9D
:10951000FFC1FFF07FFFFFFF03FC07FFFFFFFFFF1F
:10952000FF01FFFFE0FFF83FFFFFFF81F80FFFFFA4
:10953000FFFFFFFF80FFFFF07FFC1FFFFFFFC0F07A
:109540001FFFFFFFFFFFFFE07FFFF83FFC0FFFFF64
:10955000FFE0603FFFFFFFFFFFFFF03FFFFC1FFE4C
:1095600007FFFFFFF0007FFFFFFFFFFFFFF83FFF58
:10957000FE0FFF03FFFFFFFC00FFFFFFFFFFFFFFEA
:10958000FC1FFFFF07FF83FFFFFFFE01FFFFFFFF41
:10959000FFFFFFFE0FFFFF83FFC3FFFFFFFF03FF80
:1095A000FFFFFFFFFFFFFE07FFFFC1FFE3FFFFFF1E
:1095B000FE07FFFFFFFFFFFFFFFF07FFFFE0FFF3D7
:1095C000FFFFFFFC0FFFFFFFFFFFFFFFFF83FFFF1A
:1095D000F87FFBFFFFFFFC1FFFFFFFFFFFFFFFFF09
:1095E000C1FFFFF87FFFFFFFFFF81FFFFFFFFFFF37
:1095F000FFFFFFC1FFFFFC3FFFFFFFFFF03FFFFF4B
:10960000FFFFFFFFFFFFE0FFFFF83FFFFFFFFFF05F
:109610007FFFFFFFFFFFFFFFFFF07FFFF03FFFFF38
:10962000FFFFE07FFFFFFFFFFFFFFFFFF07FFFE097
:109630007FFFFFFFFFE0FFFFFFFFFFFFFFFFFFF8E0
:109640003FFF807FFFF81FFFC1FFFFFFFFFFFFFF0E
:10965000FFFFF83FFE00FFFFE003FFC1FFFFFFFF3A
:10966000FFFFFFFFFFF81FF003FFFF80007F83FF76
:10967000FFFFFFFFFFFFFFFFFC1FC00FFFFF80008A
:109680001F83FFFFFFFFFFFFFFFFFFFC0F003FFFF8
:10969000FF01C00787FFFFFFFFFFFFFFFFFFFE087F
:1096A00000FFFFFF07FC0107FFFFFFFFFFFFFFFFBA
:1096B000FFFE0003FFFFFF0FFF800FFFFFFFFFFF15
:1096C000FFFFFFFFFE000FFFFFFF1FFFE00FFFFF89
:1096D000FFFFFFFFFFFFFFFF00FFFFFFFF1FFFF880
:1096E0001FFFFFFFFFFFFFFFFFFFFF01FFFFFFFF68
:1096F0001FFFFC1FFFFFFFFFFFFFFFFFFFFF03FF39
:10970000FFFFFB0FFFFC3FFFFFFFFFFFFFFFFFFF20
:10971000FF07FFFFFFF30FFFFC3FFFFFFFFFFFFF10
:10972000FFFFFFFF0FFFFFFFC30FFFFC3FFFFFFF28
:10973000FFFFFFFFFFFFFF8FFFFFFF0387FFF87FA4
:10974000FFFFFFFFFFFFFFFFFFFF9FFFFFFE03C3C2
:10975000FFF87FFFFFFFFFFFFFFFFFFFFFFFFFFFA0
:10976000F803E1FFF07FFFFFFFFFFFFFFFFFFFFFB9
:10977000FFFFFFE00FF07FF0FFFFFFFFFFFFFFFFA6
:10978000FFFFFFFFFFFF803FF81FF0FFFFFFFFFF1E
:10979000FFFFFFFFFFFFFFFFFF807FFC07F0FFFFE2
:1097A000FFFFFFFFFFFFFFFFFFFFFFFFE03FFF00A7
:1097B000F0FFFFFFFFFFFFFFFFFFFFFFFFFFFFF0D7
:1097C0001FFF8001FFFFFFFFFFFFFFFFFFFFFFFF06
:1097D000FFFFFC07FFE001FFFFFFFFFFFFFFFFFFB1
:1097E000FFFFFFFFFFFE03FFF801FFFFFFFFFFFF8B
:1097F000FFFFFFFFFFFFFFFFFF83FFFF01FFFFFFF3
:10980000FFFFFFFFFFFFFFFFFFFFFFFFC3FFFFC3E0
:10981000FFFFFFFFFFFFFFFFFFFFFFFFFFFFFFF364
:10982000FFFFC3FFFFFFFFFFFFFFFFFFFFFFFFFF84
:10983000FFFFFFFFFFC3FFFFFFFFFFFFFFFFFFFF74
:10984000FFFFFFFFFFFFFFFFC3FFFFFFFFFFFFFF64
:10985000FFFFFFFFFFFFFFFFFFFFFFC3FFFFFFFF54
:10986000FFFFFFFFFFFFFFFFFFFFFFFFFFFFC7FF40
:10987000FFFE0FFFFFFFFFFFFFFFFFFFFFFFFFFFE9
:10988000FF87FFFFFE0FFFFFFFFFFFFFFFFFFFFF51
:10989000FFFFFFFF87FFFFFE0FFFFFFFFFFFFFFF41
:1098A000FFFFFFFFFFFFFF87FFFFFE0FFFFFFFFF31
:1098B000FFFFFFFFFFFFFFFFFFFF87FFFFFE0FFF21
:1098C000FFFFFFFFFFFFFFFFFFFFFFFFFF87FFFF20
:1098D000FE0FFFFFFFFFFFFFFFFFFFFFFFFFFFFF89
:1098E00087FFFFFE0FFFFFFFFFFFFFFFFFFFFFFFF1
:1098F000FFFFFF8FFFFFFE0FFFFFFFFFFFFFFFFFD9
:10990000FFFFFFFFFFFF8FFFFFFE0FFFFFFFFFFFC8
:10991000FFFFFFFFFFFFFFFFFF8FFFFFFE0FFFFFB8
:10992000FFFFFFFFFFFFFFFFFFFFFFFF8FFFFFFEB8
:109930000FFFFFFFFFFFFFFFFFFFFFFFFFFFFF8F97
:10994000FFFFFE0FFFFFFFFFFFFFFFFFFFFFFFFF18
:10995000FFFF8FFFFFFE0FFFFFFFFFFFFFFFFFFF78
:10996000FFFFFFFFFF8FFFFFFE0FFFFFFFFFFFFF68
:10997000FFFFFFFFFFFFFFFF8FFFFFFE0FFFFFFF58
:10998000FFFFFFFFFFFFFFFFFFFFFF8FFFFFFE0F48
:10999000FFFFFFFFFFFFFFFFFFFFFFFFFFFF8FFF47
:1099A000FFFE0FFFFFFFFFFFFFFFFFFFFFFFFFFFB8
:1099B000FF8FFFFFFE0FFFFFFFFFFFFFFFFFFFFF18
:1099C000FFFFFFFF8FFFFFFE1FFFFFFFFFFFFFFFF8
:1099D000FFFFFFFFFFFFFF8FFFFFFE1FFFFFFFFFE8
:1099E000FFFFFFFFFFFFFFFFFFFF8FFFFFFE1FFFD8
:1099F000FFFFFFFFFFFFFFFFFFFFFFFFFF8FFFFFE7
:109A0000FE1FFFFFFFFFFFFFFFFFFFFFFFFFFFFF47
:109A10008FFFFFFE1FFFFFFFFFFFFFFFFFFFFFFFA7
:109A2000FFFFFF8FFFFFFE1FFFFFFFFFFFFFFFFF97
:109A3000FFFFFFFFFFFF8FFFFFFE1FFFFFFFFFFF87
:109A4000FFFFFFFFFFFFFFFFFF8FFFFFFE1FFFFF77
:109A5000FFFFFFFFFFFFFFFFFFFFFFFF8FFFFFFE87
:109A60001FFFFFFFFFFFFFFFFFFFFFFFFFFFFF8F56
:109A7000FFFFFE1FFFFFFFFFFFFFFFFFFFFFFFFFD7
:109A8000FFFF8FFFFFFE1FFFFFFFFFFFFFFFFFFF37
:109A9000FFFFFFFFFFCFFFFFFE1FFFFFFFFFFFFFE7
:109AA000FFFFFFFFFFFFFFFFC7FFFFFE1FFFFFFFDF
:109AB000FFFFFFFFFFFFFFFFFFFFFFC7FFFFFE1FCF
:109AC000FFFFFFFFFFFFFFFFFFFFFFFFFFFFC7FFDE
:109AD000FFFE1FFFFFFFFFFFFFFFFFFFFFFFFFFF77
:109AE000FFC7FFFFFE1FFFFFFFFFFFFFFFFFFFFF9F
:109AF000FFFFFFFFC7FFFFFE1FFFFFFFFFFFFFFF8F
:109B0000FFFFFFFFFFFFFFC3FFFFFE1FFFFFFFFF82
:109B1000FFFFFFFFFFFFFFFFFFFFC3FFFFFE1FFF72
:109B2000FFFFFFFFFFFFFFFFFFFFFFFFFFE3FFFF61
:109B3000FF1FFFFFFFFFFFFFFFFFFFFFFFFFFFFF15
:109B4000E3FFFFFFFFFFFFFFFFFFFF9FFFFFFFFFA1
:109B5000FFFFFFE1FFFFFFFFFFFFFFFFFFFF1FFF13
:109B6000FFFFFFFFFFFFE1FFFFFFFFFFFFFFFFFF23
:109B7000FE1FFFFFFFFFFFFFFFE1FFFFFFFFFFFFF4
:109B8000FFFFFFFE1FFFFFFFFFFFFFFFF0FFFFFFD5
:109B9000FFFFFFFFFFFFFC1FFF3FFFFFFFFFFFF087
:109BA000FFFFFFFFFFFFFFFFFFF81FFE0FFFFFFF9D
:109BB000FFFFF0FFFFFFFFFFFFFFFFFFF01FFC03B2
:109BC000FFFFFFFFFFF87FFFFFFFFFFFFFFFFFF03B
:109BD0001FFC01FFFFFFFFFFF87FFFFFFFFFFFFFFD
:109BE000FFFFE01FFC607FFFFFFFFFF83FFFFFFF6D
:109BF000FFFFFFFFFFC11FFCF03FFFFFFFFFFC3F28
:109C0000FFFFFFFFFFFFFFFF830FFCF80FFFFFFFCA
:109C1000FFFC1FFFFFFFFFFFFFFFFF070FFCFE071B
:109C2000FFFFFFFFFC1FFFFE0FFFFFFFFFFE070F01
:109C3000FC7F01FFFFFFFFFE0FFFFE0FFFFFFFFF97
:109C4000FC0F0FFC7FC07FFFFFFFFE07FFFF0FFF32
:109C5000FFFFFFF81F0FFC7FE03FFFFFFFFF07FF45
:109C6000FF0FFFFFFFFFF03F0FFC7FF80FFFFFFF2D
:109C7000FF03FFFF0FFFFFFFFFE07F0FFC7FFE03EF
:109C8000FFFFFFFF81FFFF0FFFFFFFFFC0FF07FC8C
:109C90003FFF00FFFFFFFFC0FFFF0FFFFFFFFF8140
:109CA000FF07FC3FFFC03FFFFFFFC0FFFF0FFFFFAD
:109CB000FFFF03FF87FE3FFFE00FFFFFFFE07FFF97
:109CC00087FFFFFFFE07FF87FE1FFFF003FFFFFF79
:109CD000F03FFF87FFFFFFF80FFF87FF1FFFF00335
:109CE000FFFFFFF81FFF87FFFFFFF01FFF83FF0F3E
:109CF000FFE1C3FFFFFFFC07FF87FFFFFFE03FFF20
:109D000083FF87FF87E3FFFFFFFE03FF87FFFFFF60
:109D1000807FFFC3FFC1F01FE3FFFFFFFF81FFC78D
:109D2000FFFFFE00FFFFC1FFE0007FE3FFFFFFFF3B
:109D3000C07FC7FFFFFC03FFFFC1FFF803FFE3FF86
:109D4000FFFFFFE03FC7FFFFF007FFFFE0FFFFFF60
:109D5000FFE3FFFFFFFFF00FDFFFFF800FFFFFE0DC
:109D6000FFFFFFFFC3FFFFFFFFFC01FFFFFE003F00
:109D7000FFFFF07FFFFFFFC3FFFFFFFFFE003FFF7E
:109D8000E0007FFFFFF07FFFFFFF83FFFFFFFFFF8C
:109D90008000600001FFFFFFF83FFFFFFF07FFFFAC
:109DA000FFFFFFE000000007FFFFFFF81FFFFFFEBF
:109DB0000FFFFFFFFFFFF80000001FFFFFFFFC1F6A
:109DC000FFFFFC1FFFFFFFFFFFFE000000FFFFFF84
:109DD000FFFE0FFFFFF03FFFFFFFFFFFFFC0000789
:109DE000FFFFFFFFFE03FFFFE07FFFFFFFFFFFFF1F
:109DF000FE00FFFFFFFFFFFF01FFFF80FFFFFFFFF0
:109E0000FFFFFFFFFFFFFFFFFFFFFF807FFC01FF62
:109E1000FFFFFFFFFFFFFFFFFFFFFFFFFFFFE00070
:109E20000007FFFFFFFFFFFFFFFFFFFFFFFFFFFF39
:109E3000FFF000000FFFFFFFFFFFFFFFFFFFFFFF2F
:109E4000FFFFFFFFF800003FFFFFFFFFFFFFFFFFE7
:109E5000FFFFFFFFFFFFFFFE0001FFFFFFFFFFFF10
:109E6000FFFFFFFFFFFFFFFFFFFFFFC00FFFFFFF31
:109E7000FFFFFFFFFFFFFFFFFFFFFFFFFFFFFFFFF2
:109E8000FFFFFFFFFFFFFFFFFFFFFFFFFFFFFFFFE2
:109E9000FFFFFFFFFF0000000000000000000000C7
:109EA00000000000000000000000000000000000B2
:109EB00000000000000000000000000000000000A2
:109EC0000000000000000000000000000000000092
:109ED0000000000000000000000000000000000082
:109EE0000000000000000000000000000000000072
:109EF00000000000FFFFFFFFFFFFFFFFFFFFFF80ED
:109F0000000007C0000003FFFF0000000380000006
:109F100001FFFE0000000100000000FFFF00000044
:109F20000100000001FFFF8000000380000003FF2C
:109F3000F7C0000007C0000007DFF7E000000FE0F7
:109F400000000FDFE3E000001FF000000F8FC1F002
:109F500000003FF800001F07C0F800007FFC000071
:109F60003E07C07C0000FFFE00007C07C03FFFFFF3
:109F7000FFFFFFFFF807C01FFFFFFFFFFFFFF00716
:109F8000C00FFFFFFFFFFFFFE007C00FFFFFFFFF56
:109F9000FFFFE007C00FFFFFFFFFFFFFE007C00F5D
:109FA000FFFFFFFFFFFFE007C00FFFFFFFFFFFFF07
:109FB000E007C00FFFFFFFFFFFFFE007C00FFFFF3D
:109FC000FFFFFFFFE007C00FFFFFFFFFFFFFE007FE
:109FD000C00FFFFFFFFFFFFFE007C00FFFFFFFFF06
:109FE000FFFFE007C00FFFFFFFFFFFFFE007C00F0D
:109FF000FFFFFFFFFFFFE007C00FFFFFFFFFFFFFB7
:10A00000E007C00FFFFFFFFFFFFFE007C00FFFFFEC
:10A01000FFFFFFFFE007C00FFFFFFFFFFFFFE007AD
:10A02000C00FFFFFFFFFFFFFE007C01FFFFFFFFFA5
:10A03000FFFFF007C03FFFFFFFFFFFFFF807C07CF7
:10A040000000FFFE00007C07C0F800007FFC00005D
:10A050003E07C1F000003FF800001F07E3E00000EA
:10A060001FF000000F8FF7E000000FE000000FDF8F
:10A07000F7C0000007C0000007DFFF80000003807A
:10A08000000003FFFF0000000100000001FFFE00D0
:10A0900000000100000000FFFF000000038000003E
:10A0A00001FFFF80000007C0000003FFFFFFFFFF6C
:10A0B000FFFFFFFFFFFFFFFFFFFFFFFFFFFFFFFFB0
:10A0C000FFFFFFFFFFFFFFFFFFFFFFFFFFFFFFFFA0
:10A0D000FFFFFFFFFFFFFFFFFFFFFFFFFFFFFFFF90
:10A0E000FFFFFFFFFFFFFFFFFFFFFFFFFFFFFFFF80
:10A0F000FFFFFFFFFFFFFFFFFFFFFFFFFFFFFFFF70
:10A10000FFFFFFFFFFFFFFFFFFFFFFFFFFFFFFFF5F
:10A11000FFFFFFFFFFFFFFFFFFFFFFFFFFFFFFFF4F
:10A12000FFFFFFFFFFFFFFFFFFFFFFFFFFFFFFFF3F
:10A13000FFFFFFFFFFFFFFFFFFFFFFFFFFFFFFFF2F
:10A14000FFFFFFFFFFFFFFFFFFFFFFFFFFFFFFFF1F
:10A15000FFFFFFFFFFFFFFFFFFFFFFFFFFFFFFFF0F
:10A16000FFFFFFFFFFFFFFFFFFFFFFFFFFFFFFFFFF
:10A17000FFFFFFFFFFFFFFFFFFFFFFFFFFFFFFFFEF
:10A18000FFFFFFFFFFFFFFFFFFFFFFFFFFFFFFFFDF
:10A19000FFFFFFFFFFFFFFFFFFFFFFFFFFFFFFFFCF
:10A1A000FFFFFFFFFFFFFFFFFFFFFFFFFFFFFFFFBF
:10A1B000FFFFFFFFFFFFFFFFFFFFFFFFFFFFFFFFAF
:10A1C000FFFFFFFFFFFFFFFFFFFFFFFFFFFFFFFF9F
:10A1D000FFFFFFFFFFFFFFFFFFFFFFFFFFFFFFFF8F
:10A1E000FFFFFFFFFFFFFFFFFFFFFFFFFFFFFFFF7F
:10A1F000FFFFFFFFFFFFFFFFFFFFFFFFFFFFFFFF6F
:10A20000FFFFFFFFFFFFFFFFFFFFFFFFFFFFFFFF5E
:10A21000FFFFFFFFFFFE0000FFFE0000FFFFFFFC4F
:10A2200000007FFC00007FFFFFF800003FF8000007
:10A230003FFFFFF000001FF000001FFFFFE00000E5
:10A240000FE000000FFFFFC0000007C0000007FF85
:10A25000FF8000000380000003FFFF0000000100FA
:10A26000000001FFFF0000000100000001FFFF806F
:10A2700000000380000003FFFFC0000007C00000D3
:10A2800007FFFFFFFFFFFFFFFFFFFFFFFFFFFFFFD6
:10A29000FFFFFFFFFFFFFFFFFFFFFFFFFFFFFFFFCE
:10A2A000FFFFFFFFFFFFFFFFFFFFFFFFFFFFFF803D
:10A2B000000003FFFFFFFFFFFF00000001FFFFFFA3
:10A2C000FFFFFE00000000FFFFFFFFFFFF00000098
:10A2D00001FFFFFFFFFFFF80000003FFF7FFFFFF0D
:10A2E000FFC0000007DFF7FFFFFFFFE000000FDF08
:10A2F000E3FFFFFFFFF000001F8FC1FFFFFFFFF034
:10A3000000001F07C0FFFFFFFCF800003E07C07FF2
:10A31000FFFFF87C00007C07C03FFFFFF03FFFFF1E
:10A32000F807C01FFFFFE01FFFFFF007C00FFFFF90
:10A33000C00FFFFFE007C00FFFFFC00FFFFFE007E8
:10A34000C00FFFFFC00FFFFFE007C00FFFFFC00FF0
:10A35000FFFFE007C00FFFFFC00FFFFFE007C00FC8
:10A36000FFFFC00FFFFFE007C00FFFFFC00FFFFFA1
:10A37000E007C00FFFFFC00FFFFFE007C00FFFFFA8
:10A38000C00FFFFFE007C00FFFFFC00FFFFFE00798
:10A39000C00FFFFFC00FFFFFE007C00FFFFFC00FA0
:10A3A000FFFFE007C00FFFFFC00FFFFFE007C00F78
:10A3B000FFFFC00FFFFFE007C00FFFFFC00FFFFF51
:10A3C000E007C00FFFFFC00FFFFFE007C00FFFFF58
:10A3D000C00FFFFFE007C01FFFFFE01FFFFFF007F8
:10A3E000C03FFFFFF03FFFFFF807C07C0000F87F91
:10A3F000FFFFFC07C0F800007CFFFFFFFE07C1F075
:10A4000000003FFFFFFFFF07E3E000001FFFFFFF2B
:10A41000FF8FF7E000001FFFFFFFFFDFF7C0000026
:10A420000FFFFFFFFFDFFF80000007FFFFFFFFFFC1
:10A43000FF00000003FFFFFFFFFFFE00000001FF21
:10A44000FFFFFFFFFF00000003FFFFFFFFFFFF8094
:10A45000000007FFFFFFFFFFFFFFFFFFFFFFFFFF02
:10A46000FFFFFFFFFFFFFFFFFFFFFFFFFFFFFFFFFC
:10A47000FFFFFFFFFFFFFFFFFFFFFFFFFFFFFFFFEC
:10A48000FFFFFFFFFFFFFFFFFFFFFFFFFFFFFFFFDC
:10A49000FFFFFFFFFFFFFFFFFFFFFFFFFFFFFFFFCC
:10A4A000FFFFFFFFFFFFFFFFFFFFFFFFFFFFFFFFBC
:10A4B000FFFFF7FFFFFFFFFFFFFFFFDFE3FFFFFFF0
:10A4C000FFFFFFFFFF8FC1FFFFFFFFFFFFFFFF0742
:10A4D000C0FFFFFFFCFFFFFFFE07C07FFFFFF87F0D
:10A4E000FFFFFC07C03FFFFFF03FFFFFF807C03F43
:10A4F000FFFFF03FFFFFF807C01FFFFFE01FFFFF58
:10A50000F007C00FFFFFC00FFFFFE007C00FFFFF06
:10A51000C00FFFFFE007C00FFFFFC00FFFFFE00706
:10A52000C00FFFFFC00FFFFFE007C00FFFFFC00F0E
:10A53000FFFFE007C00FFFFFC00FFFFFE007C00FE6
:10A54000FFFFC00FFFFFE007C00FFFFFC00FFFFFBF
:10A55000E007C00FFFFFC00FFFFFE007C00FFFFFC6
:10A56000C00FFFFFE007C00FFFFFC00FFFFFE007B6
:10A57000C00FFFFFC00FFFFFE007C00FFFFFC00FBE
:10A58000FFFFE007C00FFFFFC00FFFFFE007C00F96
:10A59000FFFFC00FFFFFE007C00FFFFFC00FFFFF6F
:10A5A000E007C00FFFFFC00FFFFFE007C01FFFFF66
:10A5B000E01FFFFFF007C03FFFFFF03FFFFFF8077E
:10A5C000C07C0000F87C00007C07C0F800007CF82C
:10A5D00000003E07C1F000003FF000001F07E3E06D
:10A5E00000001FF000001F8FF7E000001FE00000D8
:10A5F0000FDFF7C000000FC0000007DFFF80000082
:10A600000780000003FFFF0000000300000001FFBF
:10A61000FE0000000000000000FFFF00000003003B
:10A62000000001FFFF8000000780000003FFFFFF24
:10A63000FFFFFFFFFFFFFFFFFFFFFFFFFFFFFFFF2A
:10A64000FFFFFFFFFFFFFFFFFFFFFFFFFFFFFFFF1A
:10A65000FFFFFFFFFFFFFFC0000003FFFFFFFFFF43
:10A66000FF80000001FFFFFFFFFFFF00000000FF71
:10A67000FFFFFFFFFF80000001FFFFFFFFFFFFC0A4
:10A68000000003FFFFFFFFFFFFE0000007FFFFFFE9
:10A69000FFFFFFF0000007FFFFFFFFFFFFF80000D4
:10A6A0000FFFFFFFFFFFFFFC00001FFFFFFFFFFF8B
:10A6B000FFFE00003E7FFFFFFFFFFFFF00007C3F2B
:10A6C000FFFFFFFFFFFFFFFFF81FFFFFFFFFFFFF81
:10A6D000FFFFF00FFFFFFFFFFFFFFFFFE007FFFFA0
:10A6E000FFFFFFFFFFFFE007FFFFFFFFFFFFFFFF91
:10A6F000E007FFFFFFFFFFFFFFFFE007FFFFFFFF98
:10A70000FFFFFFFFE007FFFFFFFFFFFFFFFFE00787
:10A71000FFFFFFFFFFFFFFFFE007FFFFFFFFFFFF60
:10A72000FFFFE007FFFFFFFFFFFFFFFFE007FFFF67
:10A73000FFFFFFFFFFFFE007FFFFFFFFFFFFFFFF40
:10A74000E007FFFFFFFFFFFFFFFFE007FFFFFFFF47
:10A75000FFFFFFFFE007FFFFFFFFFFFFFFFFE00737
:10A76000FFFFFFFFFFFFFFFFE007FFFFFFFFFFFF10
:10A77000FFFFE007FFFFFFFFFFFFFFFFE007FFFF17
:10A78000FFFFFFFFFFFFF00FFFFFFFFFFFFFFFFFD8
:10A79000F81FFFFFFFFFFFFF00007C3E0000FFFFF0
:10A7A000FFFE00003E7C00007FFFFFFC00001FF862
:10A7B00000003FFFFFF800000FF000001FFFFFF058
:10A7C000000007E000000FFFFFE0000007E00000CE
:10A7D00007FFFFC0000003C0000003FFFF80000070
:10A7E0000180000001FFFF0000000000000000FFEA
:10A7F000FF8000000180000001FFFFC0000003C0D7
:10A80000000003FFFFFFFFFFFFFFFFFFFFFFFFFF52
:10A81000FFFFFFFFFFFFFFFFFFFFFFFFFFFFFFFF48
:10A82000FFFFFFFFFFFFFFFFFFFFFFFFFF800000B5
:10A8300007FFFFFFFFFFFF00000003FFFFFFFFFF19
:10A84000FE00000001FFFFFFFFFFFF00000003FF0D
:10A85000FFFFFFFFFF80000007FFFFFFFFFFF7C0C4
:10A8600000000FFFFFFFFFDFF7E000001FFFFFFF0B
:10A87000FFDFE3E000001FFFFFFFFF8FC1F00000DC
:10A880003FFFFFFFFF07C0F800007CFFFFFFFE0750
:10A89000C07C0000F87FFFFFFC07C03FFFFFF03FD8
:10A8A000FFFFF807C01FFFFFE01FFFFFF007C00F0B
:10A8B000FFFFC00FFFFFE007C00FFFFFC00FFFFF4C
:10A8C000E007C00FFFFFC00FFFFFE007C00FFFFF53
:10A8D000C00FFFFFE007C00FFFFFC00FFFFFE00743
:10A8E000C00FFFFFC00FFFFFE007C00FFFFFC00F4B
:10A8F000FFFFE007C00FFFFFC00FFFFFE007C00F23
:10A90000FFFFC00FFFFFE007C00FFFFFC00FFFFFFB
:10A91000E007C00FFFFFC00FFFFFE007C00FFFFF02
:10A92000C00FFFFFE007C00FFFFFC00FFFFFE007F2
:10A93000C00FFFFFC00FFFFFE007C00FFFFFC00FFA
:10A94000FFFFE007C00FFFFFC00FFFFFE007C00FD2
:10A95000FFFFC00FFFFFE007C01FFFFFE01FFFFF6B
:10A96000F007C03FFFFFF03FFFFFF807C07FFFFF8A
:10A97000F87C00007C07C0FFFFFFFCF800003E07EA
:10A98000C1FFFFFFFFF000001F07E3FFFFFFFFF025
:10A9900000001F8FF7FFFFFFFFE000000FDFF7FF52
:10A9A000FFFFFFC0000007DFFFFFFFFFFF80000089
:10A9B00003FFFFFFFFFFFF00000001FFFFFFFFFF9E
:10A9C000FE00000000FFFFFFFFFFFF00000001FF8F
:10A9D000FFFFFFFFFF80000003FFFFFFFFFFFFFF00
:10A9E000FFFFFFFFFFFFFFFFFFFFFFFFFFFFFFFF77
:10A9F000FFFFFFFFFFFFFFFFFFFFFFFFFFFFFFFF67
:10AA0000FFFFFF8000000780000003FFFF00000041
:10AA10000300000001FFFE0000000000000000FF36
:10AA2000FF0000000300000001FFFF80000007801E
:10AA3000000003FFF7C000000FC0000007DFF7E0D1
:10AA400000001FE000000FDFE3E000001FF0000047
:10AA50001F8FC1F000003FF000001F07C0F800008A
:10AA60007CF800003E07C07C0000F87C00007C07FA
:10AA7000C03FFFFFF03FFFFFF807C01FFFFFE01FD1
:10AA8000FFFFF007C00FFFFFC00FFFFFE007C00F81
:10AA9000FFFFC00FFFFFE007C00FFFFFC00FFFFF6A
:10AAA000E007C00FFFFFC00FFFFFE007C00FFFFF71
:10AAB000C00FFFFFE007C00FFFFFC00FFFFFE00761
:10AAC000C00FFFFFC00FFFFFE007C00FFFFFC00F69
:10AAD000FFFFE007C00FFFFFC00FFFFFE007C00F41
:10AAE000FFFFC00FFFFFE007C00FFFFFC00FFFFF1A
:10AAF000E007C00FFFFFC00FFFFFE007C00FFFFF21
:10AB0000C00FFFFFE007C00FFFFFC00FFFFFE00710
:10AB1000C00FFFFFC00FFFFFE007C00FFFFFC00F18
:10AB2000FFFFE007C00FFFFFC00FFFFFE007C01FE0
:10AB3000FFFFE01FFFFFF007C03FFFFFF03FFFFFF9
:10AB4000F807C07FFFFFF87C00007C07C0FFFFFF15
:10AB5000FCF800003E07C1FFFFFFFFF000001F07E9
:10AB6000E3FFFFFFFFF000001F8FF7FFFFFFFFE095
:10AB700000000FDFF7FFFFFFFFC0000007DFFFFF50
:10AB8000FFFFFF80000003FFFFFFFFFFFF0000004B
:10AB900001FFFFFFFFFFFE00000000FFFFFFFFFFC0
:10ABA000FF00000001FFFFFFFFFFFF80000003FF29
:10ABB000FFFFFFFFFFFFFFFFFFFFFFFFFFFFFFFFA5
:10ABC000FFFFFFFFFFFFFFFFFFFFFFFFFFFFFFFF95
:10ABD000FFFFFFFFFFFFFFFFFFFFFFFFFFFFFFFF85
:10ABE000FFFFFFFFFFFFFFFFFFFFFFFFFFFFFFFF75
:10ABF000FFFFFFFFFFFFFFFFFFFFFFFFFFFFFFFF65
:10AC0000FFFFFFFFFFFFFFFFFFFFF7FFFFFFFFFF5C
:10AC1000FFFFFFFFE3FFFFFFFFFFFFFFFFFFC1FF9E
:10AC2000FFFFFFFFFFFFFFFFC0FFFFFFFFFFFFFF73
:10AC3000FFFFC07FFFFFFFFFFFFFFFFFC03FFFFFE2
:10AC4000FFFFFFFFFFFFC03FFFFFFFFFFFFFFFFF13
:10AC5000C01FFFFFFFFFFFFFFFFFC00FFFFFFFFF52
:10AC6000FFFFFFFFC00FFFFFFFFFFFFFFFFFC00F52
:10AC7000FFFFFFFFFFFFFFFFC00FFFFFFFFFFFFF13
:10AC8000FFFFC00FFFFFFFFFFFFFFFFFC00FFFFF32
:10AC9000FFFFFFFFFFFFC00FFFFFFFFFFFFFFFFFF3
:10ACA000C00FFFFFFFFFFFFFFFFFC00FFFFFFFFF12
:10ACB000FFFFFFFFC00FFFFFFFFFFFFFFFFFC00F02
:10ACC000FFFFFFFFFFFFFFFFC00FFFFFFFFFFFFFC3
:10ACD000FFFFC00FFFFFFFFFFFFFFFFFC00FFFFFE2
:10ACE000FFFFFFFFFFFFC00FFFFFFFFFFFFFFFFFA3
:10ACF000C00FFFFFFFFFFFFFFFFFC00FFFFFFFFFC2
:10AD0000FFFFFFFFC01FFFFFFFFFFFFFFFFFC03F71
:10AD1000FFFFFFFFFFFFFFFFC07C0001FFFC000102
:10AD2000FFFFC0F80000FFF80000FFFFC1F00000C7
:10AD30007FF000007FFFE3E000003FE000003FFF06
:10AD4000F7C000001FC000001FFFF7C000000F8009
:10AD500000000FFFFF8000000700000007FFFF005A
:10AD600000000300000003FFFE00000000000000E0
:10AD700001FFFF0000000300000003FFFF80000050
:10AD80000780000007FFFFFFFFFFFFFFFFFFFFFF40
:10AD9000FFFFFFFFFFFFFFFFFFFFFFFFFFFFFFFFC3
:10ADA000FFFFFFFFFFFFFFFFFFFFFFFFFFFFFF8032
:10ADB00000000780000003FFFF0000000300000008
:10ADC00001FFFE0000000000000000FFFF00000087
:10ADD0000300000001FFFF8000000780000003FF68
:10ADE000F7C000000FC0000007DFF7E000001FE021
:10ADF00000000FDFE3E000001FF000001F8FC1F034
:10AE000000003FF000001F07C0F800007CF80000C1
:10AE10003E07C07C0000F87C00007C07C03FFFFFBD
:10AE2000F03FFFFFF807C01FFFFFE01FFFFFF00725
:10AE3000C00FFFFFC00FFFFFE007C00FFFFFC00FF5
:10AE4000FFFFE007C00FFFFFC00FFFFFE007C00FCD
:10AE5000FFFFC00FFFFFE007C00FFFFFC00FFFFFA6
:10AE6000E007C00FFFFFC00FFFFFE007C00FFFFFAD
:10AE7000C00FFFFFE007C00FFFFFC00FFFFFE0079D
:10AE8000C00FFFFFC00FFFFFE007C00FFFFFC00FA5
:10AE9000FFFFE007C00FFFFFC00FFFFFE007C00F7D
:10AEA000FFFFC00FFFFFE007C00FFFFFC00FFFFF56
:10AEB000E007C00FFFFFC00FFFFFE007C00FFFFF5D
:10AEC000C00FFFFFE007C00FFFFFC00FFFFFE0074D
:10AED000C00FFFFFC00FFFFFE007C01FFFFFE01F15
:10AEE000FFFFF007C03FFFFFF03FFFFFF807C07C08
:10AEF0000000F87C00007C07C0F800007CF800002F
:10AF00003E07C1F000003FF000001F07E3E0000033
:10AF10001FF000001F8FF7E000001FE000000FDFB0
:10AF2000F7C000000FC0000007DFFF8000000780AF
:10AF3000000003FFFF0000000300000001FFFE000F
:10AF400000000000000000FFFF0000000300000000
:10AF500001FFFF8000000780000003FFFFFFFFFFED
:10AF6000FFFFFFFFFFFFFFFFFFFFFFFFFFFFFFFFF1
:10AF7000FFFFFFFFFFFFFFFFFFFFFFFFFFFFFFFFE1
:10AF8000FFFFFFFFFF80000007FFFFFFFFFFFF0045
:10AF9000000003FFFFFFFFFFFE00000001FFFFFFB7
:10AFA000FFFFFF00000003FFFFFFFFFFFF80000027
:10AFB00007FFFFFFFFFFF7C000000FFFFFFFFFDFEE
:10AFC000F7E000001FFFFFFFFFDFE3E000001FFFCF
:10AFD000FFFFFF8FC1F000003FFFFFFFFF07C0F83A
:10AFE00000007CFFFFFFFE07C07C0000F87FFFFF32
:10AFF000FC07C03FFFFFF03FFFFFF807C01FFFFF48
:10B00000E01FFFFFF007C00FFFFFC00FFFFFE007CB
:10B01000C00FFFFFC00FFFFFE007C00FFFFFC00F13
:10B02000FFFFE007C00FFFFFC00FFFFFE007C00FEB
:10B03000FFFFC00FFFFFE007C00FFFFFC00FFFFFC4
:10B04000E007C00FFFFFC00FFFFFE007C00FFFFFCB
:10B05000C00FFFFFE007C00FFFFFC00FFFFFE007BB
:10B06000C00FFFFFC00FFFFFE007C00FFFFFC00FC3
:10B07000FFFFE007C00FFFFFC00FFFFFE007C00F9B
:10B08000FFFFC00FFFFFE007C00FFFFFC00FFFFF74
:10B09000E007C00FFFFFC00FFFFFE007C00FFFFF7B
:10B0A000C00FFFFFE007C00FFFFFC00FFFFFE0076B
:10B0B000C01FFFFFE01FFFFFF007C03FFFFFF03F93
:10B0C000FFFFF807C07C0000F87C00007C07C0F898
:10B0D00000007CF800003E07C1F000003FF00000D7
:10B0E0001F07E3E000001FF000001F8FF7E00000E3
:10B0F0001FE000000FDFF7C000000FC0000007DFF7
:10B10000FF8000000780000003FFFF000000030035
:10B11000000001FFFE0000000000000000FFFF0033
:10B1200000000300000001FFFF8000000780000016
:10B1300003FFFFFFFFFFFFFFFFFFFFFFFFFFFFFF1B
:10B14000FFFFFFFFFFFFFFFFFFFFFFFFFFFFFFFF0F
:10B15000FFFFFFFFFFFFFFFFFFFFFFFFFFFFFFFFFF
:10B16000FFFFFFFFFFFFFFFFFFFFFFFFFFFFFFFFEF
:10B17000FFFFFFFFFFFFFFFFFFFFFFFFFFFFFFFFDF
:10B18000FFFFFFFFFFFFFFFFFFFFFFFFFFFFFFFFCF
:10B19000FFFFFFFFFFFFFFFFFFFFFFFFFFFFFFFFBF
:10B1A000FFFFFFFFFFFFFFFFFFFFFFFFFFFFFFFFAF
:10B1B000FFFFFFFFFFFFFFFFFFFFFFFFFFFFFFFF9F
:10B1C000FFFFFFFFFFFFFFFFFFFFFFFFFFFFFFFF8F
:10B1D000FFFFFFFFFFFFFFFFFFFFFFFFFFFFFFFF7F
:10B1E000FFFFFFFFFFFFFFFFFFFFFFFFFFFFFFFF6F
:10B1F000FFFFFFFFFFFFFFFFFFFFFFFFF87FFFFFE6
:10B20000FC3FFFFFFFFFF03FFFFFF81FFFFFFFFFC7
:10B21000E01FFFFFF00FFFFFFFFFC00FFFFFE00782
:10B22000FFFFFFFFC00FFFFFE007FFFFFFFFC00FA3
:10B23000FFFFE007FFFFFFFFC00FFFFFE007FFFF7B
:10B24000FFFFC00FFFFFE007FFFFFFFFE01FFFFF53
:10B25000F00FFFFFFFFFF03FFFFFF81FFFFFFFFFB3
:10B26000F87FFFFFFC3FFFFFFFFFFFFFFFFFFFFF38
:10B27000FFFFFFFFFFFFFFFFFFFFFFFFFFFFFFFFDE
:10B28000FFFFFFFFFFFFFFFFFFFFFFFFFFFFFFFFCE
:10B29000FFFFFFFFFFFFFFFFFFFFFFFFFFFFFFFFBE
:10B2A000FFFFFFFFFFFFFFFFFFFFFFFFFFFFFFFFAE
:10B2B000FFFFFFFFFFFFFFFFFFFFFFFFFFFFFFFF9E
:10B2C000FFFFFFFFFFFFFFFFFFFFFFFFFFFFFFFF8E
:10B2D000FFFFFFFFFFFFFFFFFFFFFFFFFFFFFFFF7E
:10B2E000FFFFFFFFFFFFFFFFFFFFFFFFFFFFFFFF6E
:10B2F000FFFFFFFFFFFFFFFFFFFFFFFFFFFFFFFF5E
:10B30000FFFFFFFFFFFFFFFFFFFFFFFFFFFFFFFF4D
:10B31000FFFFFFFFFFFFFFFFFFFFFFFFFFFFFFFF3D
:10B32000FFFFFFFFFFFFFFFFFFFFFFFFFFFFFFFF2D
:10B33000FFFFFFFFFFFFFFFFFFFFFFFFE033E033F3
:10B34000FFFFFFFFFFFFFFFFF7FFC7FF8FFFB7FF05
:10B35000C7FF8FFFBFFFFFFFFDDFFC03E003E1DF5F
:10B36000FC03E003E1DFFFFFF1E7E0E3EEFBC000F9
:10B37000C000E303F387F0FFE073E043F00FF8074A
:10B38000E103E703FF87FF87F003E03BEE0BE043B9
:10B39000F103FF1BFF73FFFFB7FF87FF8FFFFFFF67
:10B3A000FFFFFFFFFFFFFFFFFFFFFFFFF81FE007AB
:10B3B000C7E39FF9BFFDFFFFBFFD9FF9C7E3E007AC
:10B3C000F81FFFFFFFFFFDBFFDBFFC3FF00FF00FB9
:10B3D000FC3FFDBFFDBFFFFFFF7FFF7FFF7FF80F3B
:10B3E000F80FFF7FFF7FFFFFFFF6FFF0FFF1FFFF8A
:10B3F000FFFFFFFFFFFFFFFFFF7FFF7FFF7FFF7F5D
:10B40000FF7FFF7FFF7FFFFFFFF3FFF3FFF3FFFFF0
:10B41000FFFFFFFFFFFFFFFFFFF9FFE1FF07FC1F3B
:10B42000E0FFC3FFDFFFFFFFF80FF007E7F3EFFBDD
:10B43000E7F3F007F80FFFFFFFFFF7FBF7FBE00371
:10B44000E003FFFBFFFBFFFFF1F3E1E3EFCBEF9B3B
:10B45000EF3BE073F0F3FFFFF3E7E3E3EF7BEF7B1A
:10B46000EE3BE083F1C7FFFFFF9FFE1FFC5BF1DBBC
:10B47000E003E003FFDBFFFFE067E063EEFBEEFBD2
:10B48000EE73EF07EF8FFFFFF80FF007E673EEFBA9
:10B49000E6FBF603FF07FFFFE7FFE7FFEF83EE039F
:10B4A000E87FE1FFE7FFFFFFF1C7E083EE3BEF7BC3
:10B4B000EE3BE083F1C7FFFFF07FE037EFB3EFBB78
:10B4C000E733F007F80FFFFFFFFFFFFFFCF3FCF38C
:10B4D000FCF3FFFFFFFFFFFFFFFFFFFFFEF8FEF89B
:10B4E000FFFFFFFFFFFFFFFFFF7FFE3FFC9FF9CF46
:10B4F000F3E7E7F3EFFBFFFFFDBFFDBFFDBFFDBFC0
:10B50000FDBFFDBFFDBFFFFFEFFBE7F3F3E7F9CFA3
:10B51000FC9FFE3FFF7FFFFFF1FFE1FFEDF3EF1325
:10B52000EE13E0FFF1FFFC1FF007E003E80BE80B70
:10B53000E00BF003F817FFFBFFC3FC03E03BE0BFA9
:10B54000F81BFF03FFE3EFFBE003E003EEFBEEFB82
:10B55000E073F107FF8FFC1FF007E3E3EFFBEFFB66
:10B56000EFF3E3E7E3EFEFFBE003E003EFFBEFFBD9
:10B57000E7F3F007F80FEFFBE003E003EEFBE83B37
:10B58000E83BE7E3F7E7EFFBE003E003EEFBE83F30
:10B59000E83FE7FFF7FFFC1FF007E3E3EFFBEFBB3C
:10B5A000E383E387FFBFEFFBE003E003EF7BFF7F75
:10B5B000EF7BE003E003FFFFEFFBEFFBE003E003C3
:10B5C000EFFBEFFBFFFFFFFCFFFCEFFEEFFEE000F9
:10B5D000E001EFFFEFFFEFFBE003E003EC7BE81B94
:10B5E000E383E7E3EFFBEFFBE003E003EFFBFFFBAD
:10B5F000FFFBFFF3FFF3EFFBE003E003E003E003F7
:10B60000E003E003EFFBEFFBE003E003F0FBFC1FD4
:10B61000EF07E003E003F80FF007E7F3EFFBEFFBC2
:10B62000E7F3F007F80FEFFBE003E003EF7BEF7FBA
:10B63000EF7FE07FF0FFF80FF007E7E3EFEBEFE3DA
:10B64000E7F1F005F80DEFFBE003E003EEFBEE3F62
:10B65000EE0FE0C3F1F3FFFFF1E3E0E3EE7BEF7BFE
:10B66000EF3BE383E3C7E7FFE7FFEFFBE003E00324
:10B67000EFFBE7FFE7FFEFFFE007E003EFFBFFFB78
:10B68000EFFBE003E007EFFFE1FFE01FEE03FF83C6
:10B69000EC0FE07FE3FFEFFFE03FE003E003E003B8
:10B6A000E003E03FEFFFEFFBE7F3E1C3E80BFE3F12
:10B6B000E80BE1C3E7F3EFFFE3FFE0FBEC03EC0390
:10B6C000E0FBE3FFEFFFF7FBE7E3EF83EF1BEC7B30
:10B6D000E0FBE3E3EFE7FFFFFFFFFFFF80018001F7
:10B6E000BFFDBFFDBFFDFFFFDFFFC3FFE07FFC1F0E
:10B6F000FF83FFE0FFFCFFFFBFFDBFFDBFFD80013B
:10B700008001FFFFFFFFFFFFFFFFDFFF9FFFBFFF86
:10B710009FFFDFFFFFFFFFFEFFFEFFFEFFFEFFFEBE
:10B72000FFFEFFFEFFFEFFFFBFFFBFFF9FFFDFFF2C
:10B73000FFFFFFFFFFFFFFFFFF67FE43FEDBFE9300
:10B74000FE03FF03FFFBF7FFF003F003FE73FEFBB6
:10B75000FE73FF07FF8FFFFFFF8FFF07FE73FEFBE8
:10B76000FEFBFE73FF77FFFFFF07FE03FEFBFEFB02
:10B77000F6F3F003F003FFFFFF07FE03FEDBFEDB43
:10B78000FEDBFE13FF17FFFFFEFBFEFBF803F003DB
:10B79000F6FBF2FBFBFFFFFFFF29FE00FED6FED605
:10B7A000FE16FE30FEF9F7FBF003F003FE7BFEFF12
:10B7B000FEFBFE03FF03FFFFFEFBE6FBE603E603E3
:10B7C000FFFBFFFBFFFFFFFFFFFCFFFCFEFEE6FEB3
:10B7D000E600E601FFFFF7FBF003F003FF9BFE0B23
:10B7E000FE63FEF3FEFBFFFFF7FBF7FBE003E00366
:10B7F000FFFBFFFBFFFFFEFBFE03FE03FEFBFE0362
:10B80000FE03FEFBFE03FEFBFE03FE03FE7BFEFFCC
:10B81000FEFBFE03FF03FFFFFF07FE03FEFBFEFB35
:10B82000FEFBFE03FF07FEFEFE00FE00FE72FEFBB7
:10B83000FE73FF07FF8FFFFFFF8FFF07FE73FEFB07
:10B84000FE72FE00FE00FEFBFEFBFE03FE03FE7B1F
:10B85000FEFBFE7FFE7FFFFFFF33FE13FEDBFEDB02
:10B86000FEDBFE43FE67FFFFFEFFFEFFF807F80367
:10B87000FEFBFEF3FFF7FEFFFE07FE03FFFBFFFBF1
:10B88000FEF3FE03FE03FEFFFE3FFE0FFEC3FEC3FC
:10B89000FE0FFE3FFEFFFE7FFE0FFE83FEC3FE0F88
:10B8A000FE03FE83FE1FFFFFFEFBFE73FE03FE8B07
:10B8B000FE03FE73FEFBFEFFFE7EFE1EFE80FFE12A
:10B8C000FE87FE1FFE7FFFFFFE7BFE73FEC3FE8B27
:10B8D000FE3BFE73FEF3FFFFFFFFFFFFFFFFFF7F57
:10B8E000C0038081BFFDFFFFFFFFFFFFFFFF0000E0
:10B8F0000000FFFFFFFFBFFDBFFD8081C003FF7F92
:10B90000FFFFFFFFFFFFFFFFBFFF3FFF3FFFBFFF47
:10B910009FFF9FFFBFFF00661FFFFFFFDDFF9D82B0
:10B920002D826DAB6DAB6DA801A801AB6DAB6D83C6
:10B930006D836DFF7DFFFDFFFF00671FFFEEDFECF6
:10B940000009000BDB6FDB6700020008DFE180030A
:10B95000800FBBBDBBBC80008001FFFF0065E5FF21
:10B96000FFFFFFFFFF80008000BEFDBEFDBEFDBEED
:10B97000FDBEFDBEFD80008000FFFFFFFFFFFF005A
:10B980002103F3FFEDFFEDFFF3FFFC1FF807F1C705
:10B99000E3E3E7F3E7F3E7F3E7F3F3E7FFFFFFFFA3
:10B9A000FFFF00FF05FFFFFFFFFFFFF1FFEEFFEED0
:10B9B000F3EEC3F107FC1FF047E1BBE7BBFFBBFFA2
:10B9C000C7FFFFFFFF00519CFBF7E3E7E7CFEF9FC7
:10B9D000EF00EC00E0F900FB0C3FEF1FEF8FEF27CB
:10B9E000EA73E2F9E7FDFFFD005386FFFEFFF880F2
:10B9F000018006BDFCBDF9BDE3BD87A01FA07FBDD2
:10BA0000FDBDFCBDFCBC01BC03BFFF0095F0FFFF0A
:10BA1000E00060001BF79B77FB77BB77B807B807A0
:10BA2000BB77BB77BB75BBF480008001FFFF00676D
:10BA30002AFEFBFEFBEEF3EEE7EECFEE9FEE3F00BD
:10BA4000000000EE3FEE9FEECFEEE7EEF3FEFBFED2
:10BA5000FB0077E5FB7EE37C07710F43E00FE00F0F
:10BA6000EF41EF71FF7FC003C003DFF7DFF7C003D3
:10BA7000C003FFFF006B63FFFDBFFDBFFDBC01BC4A
:10BA800001BFFDBFFD80018001BEFDBEFDBEFDBE4C
:10BA9000FDBEFDBFFDFFFD0051ACFFBFFBBFF33F8F
:10BAA000E77FC67B12DB18DBDDD9DDCDD8ECD2E633
:10BAB000C677CF7FFF3FFFBFFFBF00814AFFFE80F9
:10BAC000008001BBBE80008000EDFFED00010001A1
:10BAD0006DED6DED6D016D0100ED00EDFF0067088E
:10BAE000FFFEFFFCFFF18003800FBBBFBBBFBBBFEE
:10BAF000BBBFBBBFBBBDBBBC80008001FFFFFFFF66
:10BB000000521DEFBFEF3F6E7F2800A000E61EEE43
:10BB10009CDFF9DFE3C007C01DDFFCDFFCC001C014
:10BB200003FFFF005EFFFBFFFBFFFBFFFBFF0000CF
:10BB30000000FBFDFBFDFBFDFBFDFBFD000000002D
:10BB4000FBFFFBFFFBFF004E00FE7FFE7FFE7FFE44
:10BB50007FFE7FFE7FFE7FFE7FFE7FFE7FFE7FFEFD
:10BB60007FFE7FFE7FFE7FFFFF004E8CFFF3FFF323
:10BB7000E7F3E7F3E7F3E7F3E7F3E7F3E7F3E7F3F5
:10BB8000E7F3E7F3E7F3FFF3FFF3FFFF004E09FFEF
:10BB9000F9CFF9CE79CE79CE79CE79CE79CE79CE6C
:10BBA00079CE79CE79CE79CE79CFF9FFF9FFFF0042
:10BBB00056DBFFFFC001C001DFCBDF1BC03BC0FB7A
:10BBC000DFFBDFFBC07BC03BDFBBDFBBC001C001D5
:10BBD000FFFF004E94FFFDBFFDBDFDBDFDBDE1BCFF
:10BBE00001801D81FDBDFDBDFDBDFDBC01BC01BFD2
:10BBF000FDBFFDFFFD00516DFBFFFBFDFBF9FBF3FE
:10BC0000FBC7FB0F7B3F3BFF8BFFCB7FFB3FFB9FCC
:10BC1000FBC7FBE1FBF9FBFF004E03FEFFFEFFFE4F
:10BC2000FFFEFFFEFFFCFF00030001FDFDFDFDF92F
:10BC3000FDFBFDFBFDFBE1FBE1FFFF00516BFFFFA7
:10BC4000FFFEFFF8FFE1FF07C01FC0FFFFFFFFFF80
:10BC500081FF803FFE0FFFC3FFF1FFFCFFFE004EA0
:10BC60005DFFFEF7FCF7F9F7E3F707001F00FFF7AA
:10BC7000FFF7FFF7FFF003F001FFFDFFFDFFE1FF1E
:10BC8000E1005341FCFFFCFFFCFFFCFFFCFFFCFF5D
:10BC9000FCFF00000000FCFFFCFFFCFFFCFFFCFFC2
:10BCA000FCFFFFFF009F20FFFFFFFF81008100AD31
:10BCB0006C2D256DB7FD00FD00AD6CAD25ADB781D8
:10BCC000038101FFF0FFF000725BFFBFFDBFF9BF12
:10BCD00083BF87BFF7BFF7BF00000000F7BFF7BF04
:10BCE000F7BFF7BFF7BFFFBFFFBF00864EFFFEFFE6
:10BCF000F8E001E006EDFCEDF9EDC300C7005FA937
:10BD00005FAB41AB40AC7EA478E7F8FFFF00515435
:10BD1000FDFEF9FEF01CE0190BB31BA7DB8FD81F4B
:10BD2000D801D380C3AECBA2F812F81EFFF8FFF8FB
:10BD3000009F99F7FEF7FCF7F9F7E3F787001D007E
:10BD400079F7F3F003F001779D173D947DF4FDF74B
:10BD5000E1F7E10086C7FFFBE039E03900030007A7
:10BD6000E067E063E3F3E403EC016F9D0F3D8E7D3C
:10BD7000EAFDE3E1E7E1009A6CFFEFBFEFBFEFB050
:10BD8000EFB0EFBEEFBEEFBEEFBEEFBEEF80ED80D7
:10BD9000ECFEFCFE01FE03FFFF007F8AFFEFEFEFEA
:10BDA000EEEFEEEF6EEF0EEF8EEFE000E000CEEF85
:10BDB0000EEF2EEFEEEFEEEFEFEFFFEF007334BB81
:10BDC000DD939CC73CC0019003B9FFE00000001761
:10BDD0005EB05CB0D1B603860386D1F6DCF7DE0038
:10BDE0009E21EFFBEDF3ECC7EE0FEC1FE0C7E3E79E
:10BDF000FFF7C037803717B755B5DCB4C0B4C18181
:10BE0000FF830072D7FDEFB9CD939CC73CC0019072
:10BE100003B3FFC40F0C0F2DDFEC0DEC0CEFFCE0B7
:10BE200001E003FFFF00732ABBDD939CC73CC00108
:10BE30009003BBDFDB9FDB00DA00006D016DD36D8B
:10BE4000C3008B009BFFFBFF007532FFFFFFFF80ED
:10BE50001F801FBBBFBBBFBBBF80008000BBBFBB81
:10BE6000BFBBBF801F801FFFFFFFFF004E59FFFFBA
:10BE7000BFFFBFE3BF81BF1DBE7DBCFDB9FDB3FDEC
:10BE8000A7FD8FFD9FFDBFFDFFE1FFE1FFFF004E1E
:10BE900019BFFFB800B800BBFFBBEFBBCFBB1F8013
:10BEA0003F807FBB3FBB8FBBCDBBFCB800B801BFA1
:10BEB000FF004E01FFFFBFFFBFFFBFFFBFFFBFFD82
:10BEC000BFFC80008001BFFFBFFFBFFFBFFFBFFF00
:10BED000BFFFFFFF00620AFFFEFFF8E001E007EF8F
:10BEE000FEEFFEEFFCEFFD01F90033EE076FC72F09
:10BEF00013AC39ECE0EFE0005DF2FFFFFFFFB803A9
:10BF0000B801BEFDBEFDBEFDBEFDBEFDBEFDBEFD5B
:10BF100080FD80FDFFE1FFE1FFFF005E9AFFFDFF76
:10BF2000F1C002C00EDB6CDB6DDB695B6310079058
:10BF300007DB63DB69D80DD80CDF7EDF7E008F9BCB
:10BF4000FDFFFDDFDDDFDDDFD5DFD1DF59DF1C00E9
:10BF50009C00D9DFD1DFD5DFDDDFDDDFFDDFFDFFD9
:10BF60000058ECFEFFFEFFDEFDDEFDDEFDDEFDDE49
:10BF7000FDC0018001BEFDBEFD3EFD3EFDBEFDFEDD
:10BF8000FFFEFF007678FEFFAEDEA4DEB1DCB2DDA0
:10BF9000A6D98ED39E073E070ED786D332D961DC51
:10BFA000CCDEDEDFFEFF005B50FEFFBEFFBEFFBE4D
:10BFB000FFBEFFBEFDBEFCB800B801B2FFA6FF8EFB
:10BFC000FF9EFFBEFFFEFFFEFF004E11FFFDFFFDC7
:10BFD000BEFDBEFDBEFDBE01800180FDBEFDBEFDFD
:10BFE000BEFD80018001FFFDFFFDFFFD005BC5F789
:10BFF000FFC7FFCFFFD406D404D5B155B3100790C7
:10C0000007D5B3D5B1D404D406D7FFC7FFCFFF00FF
:10C01000536FFFFF801F801EBFDC3F914003400F26
:10C02000FFFF80008000BFDFBFCFBFCF801F803FFA
:10C03000FFFF008FB0FFFDFFF18003800FB6FFB65A
:10C0400000B600B6F9B63BB61FB6CFB6C7B693B6C4
:10C05000B9BEFDFFFD005DF3FFFFFFFF8003800120
:10C06000BEFDBEFDBEFDBEFDBEFDBEFDBEFD80FD36
:10C0700080FDFFE1FFE1FFFF005348FFBFFDBFF977
:10C08000BFE3BF07BF0FBFEFBFE000E000EFBFEFB0
:10C09000BFEFBFEFBFEFBFFFBFFFBF007533FFFFB5
:10C0A000FFFFE007E007EEEFEEEFEEEF000000002D
:10C0B000EEEFEEEFEEEFE007E007FFFFFFFF00918E
:10C0C00049BFFFB000B000B72DB66D80ED81EDB770
:10C0D000EDB7ED80ED806DB76DB76DB000B000BF0E
:10C0E000FF00620CFFFEFFF8E001E007EF7FEF7F4B
:10C0F000EF7FEF7EEFFC007900136F872F83AC1981
:10C10000EC60EFE0004EA5FFFFEFF6EF76EE66EC99
:10C110006CE94D6359271BAF33EE67ECC7ED93EF26
:10C1200039EF7CEFFEFFFF005E74FFDFFBDFE3DF34
:10C13000041F1C1FDDDFDDDFDDDFC000C000DDDF31
:10C14000DDDFDDDFDDDFDFDFFFDF007EE7FBBBF311
:10C1500019C21908B331B7F7B780018001E59DF521
:10C160003D00010001F53DE59DEDDDFFFD007EEDAB
:10C17000FBBBF319C21908B339B7E3B7E3A6DBAECB
:10C18000DA8CDA4903630207DA07DAE3D8E8F9EC74
:10C19000008BBEFDFFFDFFBDFF8C03CC02FDE6F86A
:10C1A000EC823D8609BEC3BEE38689821DFA7CFB14
:10C1B000FEFBFE007F6EFFFD17FD17FD54015401CD
:10C1C00015551555415541551555155554015401F1
:10C1D00017FD17FDFFFD0052A0F7FEF7FCF7F10079
:10C1E00003000DF7FCF000F001FFFFE001E001EFBC
:10C1F000FBEFFBE001E001FFFF0051CFFFBFBFBF3E
:10C200008F01CC00FCFCE001E003ED87ED86ED84BE
:10C21000ED81001300036F812E10AE70004E0AFFF7
:10C22000FDFFFDFFFDFFFDFFFDFFFD00010001FD26
:10C23000FDFDFDFDFDFDFDFDFDFDFDFFFDFFFD0027
:10C240004E0BBFFFBFFFBFFFBFFFBFFFBFFF8000A1
:10C250008000BFFFBDFFBCFFBE7FBF1FBF9FBFFFF2
:10C26000BFFF007A7AF7FFC7FDCDFDD97DD37DD71B
:10C270007D5F7D1F019F01DF7DD77DD37DD97DD57A
:10C28000FDC7FDCFFF009009FDFFFDFDBDF98C034B
:10C29000CC03F5F185C58C0DEC3D01FD000DEC05E1
:10C2A000EDF5EDC5FDC5FFFD0062E9F7BDF7BC008A
:10C2B000000001F77FBEF79EB78CB7A5B7B000B0FE
:10C2C00000A5B78CB79EB7FEF7FEFF0079FBDBEF4A
:10C2D000DB8FDA1F800000003B1FBB9FF76EE76E0D
:10C2E000C64C108D1921D233C6A7CF8FFF9F0052A5
:10C2F000A8FDF7DDC3DC03DC37DDD7DDC2DDE0F50B
:10C30000F1F783000F007DF7FCF7FCF001F003FF6D
:10C31000FF004FDDFF7FFE7FF8FFE00000001F738E
:10C320008367834FBB1FB800B800BB1F834F836771
:10C33000FF73FFFB005B58DFBFDF3FDE7FD800C02D
:10C340000007BF1BBFDBBDDBBCDB00DA01D8BFD9F8
:10C35000BFDBBFDFBFDFBF0053D6BFEFBFE7800744
:10C36000800FB6EFB6CF800080009FDE80DCC01962
:10C37000DF03DF03C019C0FCFFFE006D88F7DFF1AB
:10C38000DFB9C18F01CC3FFCFFB8008800CB6F0341
:10C390006F036DEB6C88009801FFFFFFFF008FDBE0
:10C3A000FDFFFDFDBDF98C03CC03FEF9EEF5EEC5F6
:10C3B000000D003DEEFD00050005EEFDEEFDFEFD6D
:10C3C000005165FFFEFFFCFFF9FFF3FFC77F0F3849
:10C3D0003F80FFC0FFF83FFF0FFFC3FFF1FFFCFFEF
:10C3E000FEFFFE00540CFFFFFFFF80008000B7FF40
:10C3F000B607B607B6EFB6EFB6EFB607B605B7FCA9
:10C4000080008001FFFF0065F6FFFFC003C003DE70
:10C41000F7DEF7C003C003F7FFF77FF71FF79DF7BD
:10C42000FC00000001F7FFF7FF006309F7BFF7BD4D
:10C43000F73C00000001F2FFE2FEE6DEEE0C6829A8
:10C4400008E38EE3EE09EA1CE2FEE6FF004F4FFF31
:10C450007FFE7FF8FFE00000000F7DEF7DEF7D6F36
:10C460007D2001A001EF7DEF7DEF7DEF7DFFFD00E1
:10C47000548CFBF7DBE7DB8FDA1F800000003B1FEB
:10C48000BB9FFBFFE003E003EFF7EFF7E003E00300
:10C49000FFFF00952EFD7FF17F00010801DB71DABF
:10C4A00011D883C003C619D55DD55D00050005C14F
:10C4B0005DC15DF7DD005E76FFBFF7BEF7BC77B10B
:10C4C0001003900FF7BFF7BFF7BFF7BFD000100002
:10C4D00037BFF7BFF7BFFFBF00590DFBFEF3F6E70D
:10C4E000F60064104DD505D511D55BD55BD551D57A
:10C4F00045D04DD05CDFFEDFFEFFFE004F4DFF7FDD
:10C50000FE7FF8FFE000000017FDF67DF605778559
:10C5100017FD97F1F781F40DF47DF7FDFFFD005352
:10C52000EFFFFFBFFFBFFFB00FB00FB7DFB7DFB048
:10C530000FB00FBFFDBFFC80008001BFFFBFFFBF7A
:10C54000FF004EE5FFFFFFFFC003C003FFE7BFCEC4
:10C550009FDCC7F9E7F3FFC7FE0F002F01E7FFF3EA
:10C56000FFF8FFFC005F3ABFFFB83DB83CBBBC839F
:10C57000818381FE1D861D86DDB6DDB001B001B66A
:10C58000DD86D58610FE18005236FDFFF5FF858347
:10C590008D83EDBF00000000EDB3ED83ED87E00F6C
:10C5A000E00DFFFC00000001FFFF0064E6F7BDF7AF
:10C5B000BC00000001F66FC44DC009D22B582E18E4
:10C5C000A090A0D02FDA2BD089C1CDCFEF009664F8
:10C5D000FFFF80008000A1CF840B9A13F347E34D47
:10C5E000CB7C18001801CB5FE34FF363FB73FBFFB9
:10C5F000005168FEFFFEFDFCFDF9DDF1DDE5DDCD5E
:10C60000DD1C011C01CDDDE5DDF1DDF9DDFCFDFE0C
:10C61000FDFEFF0090E8FDFFDDFFD581518119BBD4
:10C620009DBBD9BBD181D581DDFF80008000BBE7F8
:10C63000A0E7840F9F1F006570F6BEB4A69184D357
:10C6400011003900B1D384918EB4FEF0FC00310E9C
:10C6500003EF03E031E0FCEFFE00636EF7BDF7BCD3
:10C6600000000001F67EF6F880018007B6C0B6C073
:10C67000B01DB01DB6DD86C086C0FEFF003010FFC5
:10C68000FFFFFFFFFFFFFFFFFFFFFFFFFF800180B6
:10C69000018001800183C18FF19FF9BFFDFFFF0081
:10C6A0003011FFFFFFFFBFFD9FF98FF183C18001B4
:10C6B000800180018001FFFFFFFFFFFFFFFFFFFF01
:10C6C000FFFF0095F4FFFFF80098008FFFEC07FCD8
:10C6D00003D9BBDBBBDBBBDBBBD9BBDC02DC02DFD2
:10C6E000FEC000E001005468FFFEE000C001DEFF74
:10C6F000D683D683D6BBC0BBC0BBD6BBD6BAD68288
:10C70000D682C000C000FFFF00683CFFFFF79FF427
:10C710001FC000C000F45FF31FE3A0C700D25ED8C3
:10C72000DEDCDED85EC300E780FFDF005F0FFFFFC7
:10C73000F77EF77EF77EF77CF701F701F779F77B55
:10C74000C07BC00FD703C7F1C7FCE7F0F7F0005C70
:10C750000FFFFBFFE3FF07F81FF8FEFFFEFFFEC021
:10C7600000C000FFFFFFFFFFFFF9FFF81FFE03FF00
:10C77000E3006B22FFFFEFFDEDF9EC73EE07EE0F28
:10C78000E001E0F0C0F8C1E1E007E01FEF87EC61F5
:10C79000E078F3FE008FCEFFFFFDFECDFCC401F676
:10C7A00001E00CC006DFE6DFEEC000E000CFF6DF00
:10C7B000F6C006E006FFFE004F7FFFBFFE3FC00051
:10C7C000C000EC3EEC0EE9C6EBD0EBD18001800C52
:10C7D000EBDEEBDEE9DEEC1EEC3E007528FFFFFF32
:10C7E000F9C001C007DDDFDDDFDDDFC001C001DD35
:10C7F000DFDDDEDDDEDDDEC000C000FFFF004E3B22
:10C80000FFFEFFFEFBDEFBDEFBDEFBDEFBDEC80029
:10C81000C800FBDEFBDEFBDEFBDEFBDEFBFEFFFE1D
:10C820000083DCFFFFEFDEEDDCECDDCC19CD1BED92
:10C83000D3EC81EC01E9478393831BE859E8DDEFF2
:10C84000DCEFDE005355FFFFFFF7F017F017D6D7E8
:10C85000C6D7E6D7F000F000F6D7E6D786D796D74A
:10C86000F017F837FFF7009875FFFFDFFEDC1ED8E2
:10C870001ED3FCD7F9D7F3C707C70FD7F7D7F3D71E
:10C88000FBD3F9D80CDC0EDFFF008FD4FFFFFEFED8
:10C89000CEFCC601F601FF81C004C078DAFADA32B4
:10C8A000DB06DBCEDB06D832F8FAFFFE0056DEFFF1
:10C8B000FFE001C000DFFEDC0ED806DBF6DBF6DBB6
:10C8C000F6DBF6DBF6D806DC0EDFFEC000E001008A
:10C8D0007535FFFFF00FF00FE6EFEEEFEEEFEEEF46
:10C8E00080008000EEEEEEEEEEEEE6EEF00EF008EA
:10C8F000FFF9006C60FFFFFEFEEEF8E671E667F6FA
:10C90000EFE000E000F9FEC00EC00EF3EEF7EEE738
:10C91000CEE000F0300094C3FBFFF3DFC6DFCE00B3
:10C92000EE00EEDCEC9DF9B7F3B3C3BBC9B9CCB8EC
:10C93000C6B2F3A7F98FFD9F0058F0FFFFFFFFEF8E
:10C94000F8EB00EA07EAEFEAEFEAEF820F820FEA7C
:10C95000EFEAEFEAEFEA0FEB1FEFFF004F20FFBF18
:10C96000FF3FF800C000C6FFF6FFF6FFF637C01322
:10C97000C09BF6B9F6B8F6B2F6A6F68FFEDF0061F8
:10C980001FFFFFFF9EE010E071E811E810E9DEE90B
:10C99000CEE800860080CEE818E838C893C310F7C8
:10C9A0001C005668FFFFFEDFC2C0C2C0DA8EDA2E5E
:10C9B000C260C0E0E4F1C260DA2ED8AED88EC2C048
:10C9C000C2C0FEDF0053C2FFDFFDDFF5DFF5DAE5B1
:10C9D0008AC52A944AB0DAF192F4B4D465C529E143
:10C9E000B3F193FDD7FDDF008003FFFFFDDFEDDF37
:10C9F000EDDFED9FEDBEED8E810E802EECAFECAF46
:10CA0000E9AEE1AEE5A0CDB1DDFF00538BFFFFE065
:10CA100000C000DFFFDFFEDF7EDF7EDF7ED000D0E4
:10CA200000DF3EDF0EDF42DF72DFFEFFFF007CFB38
:10CA3000FFFFFFFEDFB8DDB1D907D10EC43ECC80C9
:10CA4000DC80D9BFD39FD3879623BE10FF9CFFFF06
:10CA5000007EDFFFFFFCE6F0C6C204CC2DF8ECEB55
:10CA6000ECEE68E801E107C77FCF00E900E87EEE61
:10CA700030EFB0004FE1FFFFFE7FF00080008FFF3E
:10CA8000ED60ED60ED6EED6ECD6ECD6EED6EED6E2A
:10CA9000ED60ED60EFFF00606FFFFFFFFDE031E054
:10CAA00033EAB1EAB0EABE8ABE8AA2EAA2EABEEAE4
:10CAB000B0EAA0E027E031FFF9006062FF9FF01FBD
:10CAC000F07F80008000E038EE018006803CEC3989
:10CAD000EFE3E807E807EE01EC18EDFE009ED8FF53
:10CAE000FFC361C161C561C001C013C143C142C17F
:10CAF00050FDF1FD83800F8007CDC3E5F8F5FC0004
:10CB00008BA4FFFFFDFFDDFFCC01E601F7F2FFF490
:10CB1000FFF9FFE3FF07801F800FFF87FFF1FFF89A
:10CB2000FFFC006E05FFFFDDFEDCF8CE41EE07EAFC
:10CB3000A9EA81EA17EA5780578057EA56EA56EA87
:10CB400000EA80EEFF005C4FFFFFFFF1C001C00F65
:10CB5000D6EED2ECD001D403D6EFD6EFD6EFD0008C
:10CB6000D000D6EFC6EFC7EF005E55FFFFDFB7D8A6
:10CB7000B7D020D52085078517D517D500D52085B6
:10CB8000168506D520D020D8B7DFB700504FFFFF5D
:10CB9000FF3FF800C000C7C1E001E000ED00ED6F0D
:10CBA000CD00CD00ED00ED00ED6EE100F300005092
:10CBB0003CFFBFFE3FE00080008FFEEEA8EC00EDE2
:10CBC00056ED5681568156ED56ED56EC00EC00EFD1
:10CBD000FE005B9EFFFFF7DEE7DEEDDEECDEEA1C2B
:10CBE000E919ECD3CE87C807E857EFD3EFD9EFDDCB
:10CBF000E3DCE3DE009645FFFFC000C000D0EFC0DD
:10CC00000FCD03DDC3DD0EDD3EDDFEDC00DC00DD2F
:10CC1000FFDD8FDD83DDF3005F00FFFFFF7FDF7E41
:10CC2000DF78C001C007DF7FDF7FDF7FDF7FDF7F4F
:10CC3000C000C000DF7FDF7FFF7F00542FFFFFFFBA
:10CC4000E1E001E001EE80EEBEEEBE8EBE8EBEEEF5
:10CC5000BEEEBEEEBEEEBEE080E180FFFF008702CA
:10CC6000FFFFF01EC002C000F005F010F6A8E6AB12
:10CC7000CCABC5ABD000D800D1ABC4ABEEABFEABF8
:10CC8000009E23FFFFE003C001DFFDC001E003E0E1
:10CC90001BE01BC3DBCBDBE8DAEC5AE05AE0DBFF3E
:10CCA000C0FFC00072B6FFFBF7F3F3E3F98F80001B
:10CCB0008000FBFCFBF8FBE3C007C01FFA0FCB872B
:10CCC000C3F1F3F8FBFE006001FF7FEF7CEF40EE65
:10CCD00043EEFFECC0E9C0C0FEC44EE342E9F2EC13
:10CCE000F0EED0EE47EF61EF79005173FFFFFF7E6A
:10CCF000F77EF77CD779C77BE763F007F01FF70F64
:10CD0000E767C773D779F77CF77EFF7E0095EDFF65
:10CD1000FFF001F001CDEFCDEFFDCFDD9BDD3BCC92
:10CD20007BC003D003DDFDDDFDC001C001FFFF00BE
:10CD300097F3FFFFEEFFEEC1EE80E2B6E0B6ECB691
:10CD40008EB68EB6EEB6E8B6E0B6E680EE80EEFFC2
:10CD5000FEFF0091CFFFFFFDFEC58AC10AC94AC987
:10CD60004AC94AC94AC900C900C94AC94AC14AC1CF
:10CD70000AFD8AFDFE00622AFFFFFB3FF800E80083
:10CD8000EAD6C0D6C000EA00EAD6EAD6FAF4C0185D
:10CD9000C003CB00EB38FBF0006B62FFFFFFFEFF30
:10CDA000FEF000F000FFFEFFFEFFFEC000C000FE30
:10CDB000FEFEFEFEFEFEFEFFFEFFFE008B66FFFF98
:10CDC000F9FFE0DD84C084C2E4C284428742E0020D
:10CDD000E002C642C0C2E1C2E0C0EEC4FEFF0054A1
:10CDE0004AFFFFFD7FF961C340C75EF75EF75EC093
:10CDF0005EC05EF75EF75EF75EF75EF740F761FFD5
:10CE00007F006E29FFFFDDFCCCE0C602E700C0C05A
:10CE1000C0DEDAC0DAC0DADEDAC0DAC0DA5EC0401C
:10CE2000C0C0FFFE006E7FFFFFFDFCDCA0C602E776
:10CE30001EC086C0C2DA00DA00DAFEDA00DA00DAF2
:10CE4000F6C0C6C0CEFFFE005EA6FFFEF000E0000A
:10CE5000EBDEEBDEE0CEE044EB51CB59CB59EB51AE
:10CE6000E054E046EBCEEBFEEFFE00949FFFFFF2B6
:10CE7000DFC2DFCE00EE00EEDCEEDDF00FF00FF7EC
:10CE8000EFC000C000F7EFF7EFF00FF00F008001E8
:10CE9000FFEFFEEFEEEFEECFEEC0EE80EEB680A637
:10CEA000802EEE6EECCEE8DEE0DEE29EEEB0FEF12D
:10CEB000005316FFFFFF7FFC7FE00080009FBFFF55
:10CEC000BFFF3FC001C000FEFEFCFEF9FEF3FEF70F
:10CED000E0FFE0006BCFFFFFFBBFF3BFE403C8013F
:10CEE000DBBDD99DD98DD8A4DA34DB35DBBCDBA022
:10CEF000D801D81DDFBF004E2AFFFFFEFFFCFFFD5B
:10CF0000FFF9FFF3FFE7FFCFFFDC00CC00E7FFF303
:10CF1000FFF9FFFDFFFCFFFEFF007EA6FFFFFCEE1A
:10CF2000F08CC20DC86DF8CDF9DDE1FF86FF8E1ED5
:10CF3000EF0EEFEEEFFEEFFEE000E001004E3AFFF5
:10CF4000FFFBFEFBFCDBFDC3F1E3C3800F803FFB77
:10CF5000FEFB3EFB0EFBC6FBF6F800F801FFFF00F0
:10CF600059CBFFFFF71EC00CC0E1F7E3F001F01D45
:10CF7000FCE1F8C0E2DEC6DEDEDEFEDEF2DEF0C0A0
:10CF8000FC41005230FFFFDFDEDDDED0DEC2DECE50
:10CF900000DE00D2DED0DCDCDDC00DE00EFFFEFFE7
:10CFA000FE80008000005B8CFFFFE3BEE3BEEDBCB3
:10CFB000EDBDED81ED838DBF8DBFEDBFED80ED80CB
:10CFC000EDBEEDBEE1B0E1B0006210FFFEF900F091
:10CFD00001F6F7F6F3F6FAF600F605F7F9C033C0F6
:10CFE00007F783F619C67CC3F0F3F00079D2FFF798
:10CFF000DDC7DD0FC000C000DD1FDD1EF03EF0FE0E
:10D00000FFFE80048001FFF3F187F00FFE7F0054E4
:10D010000EFFFFFFF9E001C007DDFFDD00DD00DDF1
:10D020007EDD7EDD7EDD7EDD7EDD7E9D00BD00FF62
:10D03000FF00786CFFBFDE03D001C0FDCEFDDE0136
:10D04000D800D00ED6C6D6D0C001C001D6DDD6DC01
:10D05000D01ED83E004EF6FFFFFE7FF00080008F0E
:10D06000FFFCDFE0DFE3DFFBDFFBDF80008000FBB6
:10D07000DFFBDFFBDFFBDF007248FFFFC001C00109
:10D08000FDBFC1BFC181FDC0E000C002DC3CDD09C5
:10D09000DDC3DDC3DD09DC3CDCFE00672CFFFFEFF8
:10D0A000F7EFE7EFC7EF97EE37EC7780008000E807
:10D0B000F7EC77EF37EF97EFC7EFE7EFF7006CE8A4
:10D0C000FFFFDDFECCF8EE41EF47F79EF7BEF7BE5F
:10D0D000F7BED000C000E7BEF7BEF7BEF7BEF7BE92
:10D0E00000610FFFFFFBFDDA01DA03CAA1C2A0D283
:10D0F000AE9AA29AA0DAACD2ACC2ACCAA3DA01DA78
:10D1000008FBFC004E0DFFFFDFDFDFDFDF9FDF3FAF
:10D11000DE7FDCFFD000C000CDFFDCFFDE7FDF3F25
:10D12000DF9FDFCFDFEF004F1AFFFFFDFFFDBFF9ED
:10D13000BCF1B0F5A2E58ECD9EDDBECDBECDBEE587
:10D14000BEF1B0F9B0FDBEFDFF00518DFFEFDFEF86
:10D15000D800D000D76FD76FD76FC00FC00FD76F71
:10D16000D76ED76ED76ED000D800DFEF00663EFFD7
:10D17000FFFFFEC0BEC006DB42DB00DB00DB7EDB68
:10D180007EDB00DB00DB7ADB42C006C0BEFFFE00B8
:10D19000793AFFFFFDFDDDF1DDC3DD0FDD3EDDFE94
:10D1A000DDFEDC00DC00DDFFDD7FDD1FDD87DDE196
:10D1B000FDF9006B64FFFFFFFEF000F000FFFCC014
:10D1C00001C001FBF9FBFBC001C000FCFEF9FEF34E
:10D1D000FEF3F8F7F0005BD2FFFBE3BBE2B3EAA794
:10D1E000EA8FE01BE0298AAD8AA4EAB6E036E01FA8
:10D1F000EA8FEAA7E2B3E3BB005927FFFFFBFEFB80
:10D20000FEFBFCFBF9FBE3FB87C01FC07FFA1FFBA3
:10D2100087FBE3FBF9FBFCFBFEFBFE007ACBFFFF89
:10D22000FFFEFBFEF87EF802FB80FBFCCBFEC3FE9C
:10D23000F3FEFBFCFA00FA02FBFEFBFEFFFE0066BB
:10D2400025FFEFFEEFDECFDAC0DA80DA16D856809F
:10D25000D682D6DAD6DA56DA16DA80DA80DECFFE71
:10D26000EF0096E8FFFFDC00D800D9DFD8C7DA630B
:10D27000DB31C000C000D9DFD8CEDA66DB32DBBAE2
:10D28000D800DC01006C34FFFFFBFBFBF3FBE7FB8A
:10D29000CEFB8EF83EF87EC000C001FE3FFC8FF949
:10D2A000C7F3F3F7FBFFFB0060CAFFBFF03FF07F5F
:10D2B000C000C000E07DEC79E822EBA6ABBE8B801D
:10D2C000CB80EBBFE827E821EFF90086F0FFFFED08
:10D2D0007EED46ED02801A805AE9DAEB00EA00C0E2
:10D2E000DAC0DAECDAE0DAE000FC04FC7E00520698
:10D2F000FFFFFEFEFEFEFCFCF0F9C2E3CE07FE1FC0
:10D30000FEFEBEFE8EFEC6FEF200F801FCFFFE7FB2
:10D3100000660EFFFFE007C007DEF7DEF7DEF6C0AF
:10D3200004E009C003C007DDDFDDDEDDDEDDDEC0D9
:10D3300000C000008C37FFFFF7BFF73FE700EE00AB
:10D34000CCBE9DBEB9BEF3BEF3BED9BEDCBECE0020
:10D35000E740F73FFFBF00590FFFFBFFFAD072C055
:10D3600036CAA6CA86CA82CAA8CAADCAADCAA8CADF
:10D37000A2CAA6C026D07EFFFE006EE1FDFFDDFC46
:10D38000CCE0E603E700ED00C573C403EC0FED67E6
:10D39000ED73C402C406ED62ED00EF80008292FFDF
:10D3A000FFEF7FEF7FEF018100817EEF7EE97EE876
:10D3B0007EEE7EEF7E817E817EEF7EEF7EEF7E00D1
:10D3C00079CDFDFFDDCFDD0FC000C000DD1FFDDF2B
:10D3D000F80FF00FF7EF80008000F7EFF7EFF00F96
:10D3E000F80F0081F3FFFFDFFEDEEEDCEED8EED2B9
:10D3F000EEC6EECE00DE00DEEED6EED2EED8EEDCED
:10D400006EDE2EFFBE006691FFF7FFB7C2B7C2B552
:10D41000D2A0D2AAD2AAD00AD00AD28AD2AAD22A1A
:10D42000D22AC020C0B0FFBF0079CBFFF7DDE7DD17
:10D430008FC000C000DC3FDD8EFC4CE071E3C3C058
:10D440000FC01FFF87FC63E078E3FC005904FFFF77
:10D45000FF3EFC3C807D8009F783F7C3F419F03D63
:10D46000FBFCC406C006F8FEFC7EFF3EFFBE007655
:10D470007DFFFFFFFFF000E000EFBEEFBEEFBECF8D
:10D48000BECFBEEFBEEFBEEFBEEFBEE000F000FFCE
:10D49000FF009732F7FFE738ED18C95EC940C94071
:10D4A000C914C004C0A8CC20C806C946C946CD00CE
:10D4B000E328E3FF00971CFFFFE1BBC0B3CA87CAA4
:10D4C00000CA00CAA3C0B3C080CA80CAAACAAACA76
:10D4D000AACA80E080E1FF00964DFFFFC000C000B7
:10D4E000D8EFC00FC30FF303E623C6BBC0BBD80001
:10D4F000D800C0BBC6BBDE3BFF3B0096EAFFFFF88F
:10D50000FFD0DED55ED55AD55AD55AD51AC01AC025
:10D510005AD55AD55AD55AD540D1C0F1FF0079BB5A
:10D52000FFFFDFE0D0C0D05FDE5BD443D503911BAB
:10D530009B5BD14AD542D552DF5BD05ED0C0DFE1E4
:10D54000008FD8FFFFFDFECDF8C401F603DFE9DF51
:10D55000CCDF9EDE3ED800C000C5FEDC7EDE1EDFD6
:10D560008EDFEE006709FF7FEE7FEEFFEC00E80044
:10D57000E1B7C5B78DB7ADB7EDB7EDB6EDB6EDB662
:10D58000EC00EC00EFFF005929FFFFFEFEDEFEDE9F
:10D59000FCDEFDDEF9DEE3C087C01FDE1FDEC7DE76
:10D5A000E3DEF9DEFDDEFCFEFE004ECAFFFFFDBF3E
:10D5B000FDBFF9BEF3BEF7BEE3BEC9BEDDBECCBC47
:10D5C000E6BDF7B9F3B3F987FD8FFDFF00662FFFC6
:10D5D000FEFF7EFF7CC141C043D673D679D600D60C
:10D5E00000D66ED66ED66EC06EC16EFF6EFF7E0028
:10D5F000786EFF7FDE7FC001C001DDFDDC01DA0057
:10D60000D000C0038B6F9801D001C36ECB6EF800C1
:10D61000FC00005B9AFFFFF1FCE1F0EC03EC07ED8E
:10D62000F3EDF98C018C00EDDEEDDEEDDEEDDEEDEF
:10D63000DEE1DEE3FE005149FFFFFEFEFEFEEEFCF2
:10D64000E0F1F003FE0F80FF80FFFE00FC00F8FE1B
:10D65000E2FEC6FEDEF0FEF100654FFBBFF383C0C5
:10D6600001881DA88CE824EB34E800E800F0BC80B9
:10D67000398F03EF03E011E0FCEFFE009000FFFFA5
:10D68000FEFECEFCC601F601FFFCC002C002D67A47
:10D69000D632D696D6CED6C6C092C0BAFFFE0051BC
:10D6A000FAFFFFF0C0F040FF7EFF7EFF7EFF7EC0EE
:10D6B00000C000FF7EFF7EFF7EFF7EF07EF040FF19
:10D6C000C00095F9FFFFF000F000CBFFCB07FB0790
:10D6D000DB7FD001D001DB7FDB7BDB02DB06CBFE17
:10D6E000E000E000008F6FFFFFEF7BE83BE033845A
:10D6F000008C00EF77EF76E8F480F187C3E00FE06D
:10D7000007EE61E078E1FE006492FFFFF7DEC00003
:10D71000C000E53FE500C100C156C156C100ED00A3
:10D72000C03C8001A003E009EFFC005361FFFFFE55
:10D73000FFFEFFFEFFFEFFFEFFFEFF80008000EE0B
:10D74000DFEECFEEEFEEE7EEF7EEF7FEFF004E0175
:10D75000FFFFDFFFDFFFDFFDDFFCDFFEDFFEDFFEC1
:10D76000C000C000DFFFDFFFDFFFDFFFDFFFDFFF05
:10D77000008F66FFFFEFF7EFF7EE77E877C177C727
:10D7800077EF77EC00EC00EF77EF77EF77EF77EF5D
:10D79000F7FFFF007F16FFFFFCEDF08DC209C86B9D
:10D7A000F9E8F000E001ED018D6F8D01ED01ED0074
:10D7B000ED00E100F300008BD1FFFFFDFFDC03CCA7
:10D7C00001EFF1FEF3DEB7DEB7C4B7C1B7D000D8C2
:10D7D00000D1B7C4B7CEB7FEF7004E8EFF7FFF7FF4
:10D7E000DF7FDF7FDF7EDF7EDF7EDF7CC000C00388
:10D7F000DF7FDF7FDF7FDF7FDF7FFF7F009600FF40
:10D80000FFB0009000CF9FEE01C801D979D97BD835
:10D8100013DE07DAC3D898DCB0DEF0C000E0000009
:10D820004F11FFBFFE3FF800C000C3F7FBE7FBCF7F
:10D83000FB1FF83F80008000FA3FFB1FFBCFFBE798
:10D84000FBF7007720FFFFC001C000DDDEC000C095
:10D8500001C001C000DDBCDDBDDC39DC03DD81D9E8
:10D86000B8C1B0E7B0006D4BFDFFDDFCDCF0CEC30E
:10D87000EFCEC00CC001D003D007C001C008E00E3D
:10D88000E00EFFFEC000C0000051C6FFFFE7F9E157
:10D89000E1F987FD9FF091C000C76EF76E976E802B
:10D8A00000E000F76EF76EF76EF76E0070B9FFFFDD
:10D8B000FFFEFC00FC01FDEFFDE3D1E0C1ECEDEF6C
:10D8C000EDE3EDE0EDECEC0FEC03EFF0EFFC0054DA
:10D8D000CDFFFFE003E003EFFBE003E003F000F027
:10D8E00000F607C60786F7B6F6F606F606F000F06D
:10D8F00000009891FFFFFEE7E006E01EC00CC001AB
:10D90000EE03EE0EC80CD809DBE1C207C21BDBF93F
:10D91000D80CD80E007387FFFFE7D7E397E937EC01
:10D9200037EE57E89780008400ED97EC97E857EBC7
:10D9300037E397E7D7FFF7005148FFFFFC7EF87EFB
:10D94000E17CC779D703F707C07FC07FF700F700F6
:10D95000F77EF77EF77EF770FF700065E0FFFFFE51
:10D96000FEDEFCDEF9DEF1DEC3DE0FC03FC001DE0D
:10D9700000DEFEDEFEDEFEDEFEDEF0FEF00064CD4A
:10D98000FFFFFBDEE000E000FB9FFA2EE42CC1ADC0
:10D99000D9A9D823DA00D800D823C1A9E42CFC2EB9
:10D9A000004F5CFFFFFE7FF801C001C77FF87FC01A
:10D9B000FFC7FFE000E000EEF7EEF7EEF7EEF7EE60
:10D9C000F7EFF70081EAFFFFFFFFF000E000EEEE67
:10D9D000EEEEEEEECEEECEEEEEEEEEEEEEEEEEEEA7
:10D9E000E000F000FFFF0065F6FFFFFFFFFCFFFF18
:10D9F000F8FFFC01FFF81BFFF99BFFFBB7FFFBEEF5
:10DA0000FFF000FFF8007FFBBFFFFF2F7FFF63BF2A
:10DA1000FF77BFFF7F9FFE7F9F80000F80000FFE7C
:10DA20007FFFFE7FFFFE7FFFFE7FFFFF7FFFFFFF89
:10DA3000FF007CFBFFFFFFFFFFFFFFFFFFFFBFCFEC
:10DA4000FF3F8FFE7F9FFC4D3FF8C9FFF39BEFE741
:10DA500013EFCE03CF8C000F990007F313FFE727D6
:10DA6000FFEEDF7FFDDF3FFFD73FFFE39FFFFFFFBD
:10DA7000FFFFFFFFFFFFFFFFFFFFFFFF00660EFF3F
:10DA8000FE7FFFFE7FFC00FFFC01FFFC19FFFB1285
:10DA9000FFFBB6EFF9E06FF8004FF8FF9FFFFE3F86
:10DAA000FFF0FFF803FFF807FFF667DFF66FDFF719
:10DAB000FFCFF0000FF00007F7FFFFFFFFFFFFFFB2
:10DAC000FFFFFFFFFFFFFF00606FFFFFFFFFFFDFB4
:10DAD000FFFF9FFFFF1FFEFEFFFCFFFFF9FFFFF0B0
:10DAE000023FE04B9FCA93CF8696C7D6B667F7F63C
:10DAF00067F3F2E7F003E3F00063FFFF83FFFFE368
:10DB0000FFFDFFFFFCFFFFFC7FFFFE3FFFFFFFFF6E
:10DB1000FFFF006C60FFFFFFFFA07FFF8F9FF99F5B
:10DB20001FF1FE3FF8F0FFFCF7FFFF87FFFF80FFCC
:10DB3000FFC67FFFCF3FFE019FC0039FC03B9FFFFB
:10DB4000739FFE019FFE079FFE1F9FFF7F9FFFFFAA
:10DB50009FFFFF1FFFFE1FFFF01FFFFE3F0079FB2F
:10DB6000FFFEFFFF9EFFFF3DFFFF3BFFF733FFF789
:10DB700007FFF6001FEE001FEE0FF7EE4FF7FEFF58
:10DB8000E7FDEDE7F9C9CFF0938FE6231FE6407F6D
:10DB9000E00C7FF1987FF3C3FFFFE7FFFFEFFFFF8C
:10DBA000FFFFFFFFFFFFFFFF0083DCFFFFEFFFFF33
:10DBB000EFFFFBCFFBF9CFF9F99FF9AB3FC3AB7F89
:10DBC000C12AF7D170F7F651F3F6C003F4A003F0C1
:10DBD000C1FFC484FF0426FF2766FF6F673FEFE79E
:10DBE0009FFFF78FFFFF8FFFFFCFFFFFCFFFFFEFFD
:10DBF000FFFFFF004E3BFFFFEFFFFFEFFFFFEFFFD9
:10DC0000FFEFFFFFCFFFFFCFFF99DFFF98DFFF9907
:10DC1000DFFF99DF8F001F87001FC7001FFF339FA3
:10DC2000FF339FFE739FFE779FFFFF9FFFFF9FFFC6
:10DC3000FF9FFFFFEFFFFFFFFFFFFFFFFFFF00530F
:10DC400055FFFDFFFFFCFFFFFDFFFFFDFFFFFDFF99
:10DC5000EE79FFE419FFCDE9FFCD0BFFDD0BFFF8F7
:10DC60000003F00003E04BFFC24BFF8BCBFF180B10
:10DC7000FF3C3BFFFCFBFFFFFBFFFFFBFFFFFBFF4E
:10DC8000FFFDFFFFFFFFFFFFFF008BBEFFEFFFFF6A
:10DC9000EFFFFFCFFFFFC01FE3803FE38E7FF1FC6C
:10DCA000FFFFFFBFFFDFBFFFA7BFF0233FF0213F14
:10DCB000E7D87FEFDCFFE840FFE0027FE72F7FFF40
:10DCC0003F1FFFBF9FFFFF9FFFFF9FFFFFDFFFFF84
:10DCD000DFFFFFDF009875FFFFFFFFFFFFF3FFFF90
:10DCE000F3FFFFF3FFEFF700CFE700CFE73F9FE63B
:10DCF0007E1FE080FFE083FFE2FEFFE6FE7FC63F7F
:10DD00003FC6001FC6008FC7FF87C7FFCFC7FFFFF3
:10DD1000F7FFFFFFFFFFFFFFFFFFFFFFFFFFFF001A
:10DD20009E23FF3FFFFE1FFFFECFFFFECFFFFE1F24
:10DD3000FFFE1F7FFE7F7FFFFE7FFFFE7FFC027FD7
:10DD4000F802FFE27AFFC578FF8D24FFDDE4FFFCD7
:10DD500004EFFC16EFFDF7E7FFF7C7FFF78FFFF0C3
:10DD60003FFFF9FFFFFFFFFFFFFF00590DFFFFFF20
:10DD7000FFFFFFFFFFDFFFFF9FFDFF9FF9F7BFF3EF
:10DD8000F36FE7F6EFCE24EF86005FA6021FE6A34F
:10DD90003FED2A3FCDE83FCDE09FCC01DFCC3DEF0A
:10DDA000DFFFE7FFFFE3FFFFF3FFFFF3FFFFF3FFFB
:10DDB000FFF3FFFFF30095F9FFFFFFFFFFFFFFFFFA
:10DDC000FFFF001FFF001FE30FFFE1A1FFF9A7FF07
:10DDD000FB2FFFF8001FFA001FFB5CFFF75CBFF78B
:10DDE00040DFF767DFF3FFCFF07FCFF00007F000F1
:10DDF00007FFFFFFFFFFFFFFFFFFFFFFFFFFFFFF2B
:10DE00000095F4FFFFFFFFFFFFFFC03FFFC03FF1A2
:10DE1000CFFFF9FFFFFDFFFFFF83FFFF81FFF34906
:10DE2000FFF749FFF779FFF701FFEF00FFEF7FEF03
:10DE3000EFFFEFEFFFEFE01FEFF00007FB8007FFC2
:10DE4000FFFFFFFFFFFFFFFFFFFFFF0091CFFFBFBF
:10DE5000FFFFBFFFFF3FFFFF7FFFFF7FFFFF7FF75A
:10DE6000C767F7C361AF916CAF84CAAFA4C20FAAF2
:10DE7000C00FBAC40FB2C12F82D92F8EC12FDEC3FB
:10DE8000EFFECFEFFEFFE7FE7FFFFE7FFFFFFFFF0E
:10DE9000FFFFFFFFFFFF008702FFF3FFFC73FFFCA4
:10DEA00033FFFC87FFC007FFEC2FFFFD0EFFFCCE0A
:10DEB000FFFCBEFFFBB1FFF315FFE315FFC885FFB5
:10DEC000890003C10003E4ABFFEEABFFFF7BFFFF64
:10DED0001BFFFF9BFFFF9FFFFF9FFFFFDFFFFFDF9A
:10DEE000FF009ED8FFFFEFFC7F4FFC1F7FFD4D7FA3
:10DEF000FB4A1FF800FFF8003FFA92BFFA107FF8C4
:10DF0000155FF84F9FFDCF1FFFCC3FC001FFC0033F
:10DF1000FFDF89FFFF9CFFFFBE7FF9FF1FFCFF9F14
:10DF2000FFFF8FFFFFCFFFFFCFFFFFEF004FE1FFAE
:10DF3000E7FFFFCFFFFF8FFFFF1FFFFC001FF8C0B1
:10DF40001FF1CFFFC2FFFFC6FFFFECFF7FFCB31F37
:10DF5000FC970FFCB6CFCDB6CF8D26CFC126DFF113
:10DF6000261FF9261FF9F61FF9FF7FF9FFFFFDFFB6
:10DF7000FFFFFFFFFFFFFF006E29FFFFFFFF807F16
:10DF8000FF0FBFFB9F1FE1FE3FF1F85FFDE19FFF29
:10DF9000FFBFF9F03FF8303FF813BFF0903FF49720
:10DFA0003FF4003FF5003FF7073FF0043FF0203F0C
:10DFB000F8F03FFFF33FFFFF1FFFFF1FFFFFDFFFF3
:10DFC000FFFF008BF4FFC7FFFFCFFFFFCFFFFF80F6
:10DFD0003FFF871FE3DE3FE3FCFFFBFFFFFFFFDFA9
:10DFE000FF3F1FF70E3FF200FFE663FFECC7FFF8AD
:10DFF000C81FF00B8FE60FCFCE1FCF9E7FCFFFFF46
:10E00000CFFFFFCFFFF80FFFFE0FFFFFFF00949F32
:10E01000FFE7FFFFC7FFFF8BFFFF7BFFFEB3FFF9AB
:10E02000803FF3033FC1267FCD6CFFFD19FFFF0743
:10E03000FFFF03FFFF77FFFF77FFC00003C0003F34
:10E04000DEE7FFFEE7FFFE07FFFE07FFFF3FFFFFE4
:10E050007FFFFFFFFFFFFFFF00654FFFFB7FFF7AA2
:10E060007FFE707FF8C05FE0C25FC6104FDC804F5C
:10E07000FCB60FFC803FF9823FFFB7BFFE373FF091
:10E08000233F81107FCF38FFFF00FFFE067FFE7F1A
:10E090001FFE7F1FFFFF9FFFFF8FFFFFCFFFFFCF01
:10E0A000FFFFCF007535FFFFFFFFFFFFFFFFFFFF03
:10E0B0000FFFFF07FFFF79FFFED9FFFEC9FFFE013B
:10E0C000FFE0007FE0003FFD9B9FFD93CFFDFDCF74
:10E0D000FCF1CFFC03CFFE07CFFE7FCFFFFFCFFFCA
:10E0E000FF8FFFFF0FFFF81FFFFF1FFFFFFF007FE6
:10E0F0006EFFFFF7FFFFF7FFFFF7FFFFEFE7FFEF11
:10E10000E19FEFECBE0FECB01FE1A55FE0155FCC27
:10E11000155FD857DFC15FDFC9401FD9401FD97FC6
:10E120009FC37F9FE7FF9FEFFF9FFFFF8FFFFFCF03
:10E13000FFFFEFFFFFFFFFFFFF004F4EFFF7FFFF67
:10E14000EFFFFF8FFFFF1FFFFC001FF0C01FC3FF8B
:10E15000FFC7FFFFFBF07FF8007FF80E7FF99CFF01
:10E16000F19DFFF3B8FFF03E7FE60FFFEF61FFFE8A
:10E170007C7FFE7F3FFE7F9FFFFFCFFFFF0FFFF003
:10E180000FFFFFFF005149FFFFFFFFFFDFFFEF9F82
:10E19000FFE7BFFFEF3FFECE3FFE4CFFFCC9FFFD98
:10E1A000C3FFFD87FF800FFFC0181FDC980FFDBB6A
:10E1B000CFF93FE7F33FE7E73FE7FFBFE7FFFFE7C1
:10E1C000FFFFE7FFFFC7FFFE07FFFE07FFFFF700A8
:10E1D00064CDFFFE3FFFDE3FFF8C7FFF98EFFF998E
:10E1E000EFFE0007E00007E72DFFFF1DCFFF8D2F9B
:10E1F000F3A4EFF189EFF68007F6B007E49BFFF098
:10E200000BFFF36AFFF70A7FFF0B1FFFBB1FFFFB2C
:10E21000BFFFF9FFFFFFFFFFFFFF006062FFEFFF9F
:10E22000FF8FFFFF87FFC00007C00007CE3EFFFE45
:10E230007CFFFEF9EFFFF1EFFEE7CFFC879FFC13B9
:10E240001FF8667FC0E0FF0180FFF9E4FFF9E73FB8
:10E25000F9CF0FFF8F8FFFCFCFFFFFC7FFFFE7FF84
:10E26000FFEFFFFFFF00FF01FFFFFFFFFFFFFFFFCB
:10E270007FF0FF3FE0033FF01FBFFFFFFFFFFFFF07
:10E28000FFFFFFFFFFFFFFFFFFFFFFFFFFFFFFFF9E
:10E29000FFFFFFFFFFFFFFFFFFFFFFFFFFFFFFFF8E
:10E2A000FFFFFFFFFFFFFFFFFFFFFFFFFFFFFFFF7E
:10E2B000009000FFFFFFFFFE7FFFFE7FF9C27FF8A7
:10E2C000C87FFCFE7FFFFE7FFFFF7FFFFF7FE00038
:10E2D0007FE01C3FE03DBFE4B1BFCDB79FCE679F5D
:10E2E000C063CFC3CBC7CF98C7FF98C7FFFFC7FF97
:10E2F000FFC7FFFFC7FFFFEFFFFFEF00504FFFEF2C
:10E30000FFFFCFFFFF9FFFFF001FFC007FF0CF7FCD
:10E31000C1FEFFC7FDFFEFF3FFFFC03FFC00FFFCA6
:10E3200012FFFDB03FCD30FFCB25FFEB241FF821BE
:10E33000DFF82DCFF8EFCFFFE00FFFE01FFFE3FF87
:10E34000FFFFFFFFFFFF007EDFFFDFFFFFDBBFFF01
:10E350009B3FFE027FFC067FF194FFF325FFFEFF4B
:10E36000DFFFEF9FFE673FFEC4FFFE01FFCE0FFF02
:10E37000C45FFFE4903FFDBBCFF96FEFFD8FEFFF70
:10E38000FFEFFFFFEFFFFFEFFFFE0FFFFE0FFFFFAF
:10E39000FF008BA4FFE7FFFFE7FFFFC01FFFC31FC6
:10E3A000F9C73FE1CE7FF9FCDFFDFF9FFFFF1FFFB5
:10E3B000FE3FFFF8FFFFC1FFF007FFF007FFF3E3A9
:10E3C000FFFFF3FFFFFCFFFFFE3FFFFE1FFFFF1FEE
:10E3D000FFFF9FFFFF9FFFFFDFFFFFDF004F5CFF9F
:10E3E000F7FFFFE7FFFF8FFFFF1FFFFC003FF0C0BD
:10E3F0007FC1DFFFC7EFFFDF8FFFFF1FFFFE3FFF84
:10E40000F07FFFE300078700078E06FFDE66FFFE52
:10E410004CFFFECCFFFCCCFFFCFCFFFFFEFFFFFF30
:10E42000FFFFFFFFFFFFFF0051FAFFFFFFFFFFFFAE
:10E43000FFFFFFFF0F1FFF276FFF63EFFFE7CFFF18
:10E44000E7CFFFEFDFFFC71FE0001FE0001FEFCFA8
:10E45000DFFFDFDFFFDFDFFFDFDFFE1F9FFC1E1FB1
:10E46000FE3E1FFFFE7FFFFFFFFFFFFFFFFFFFFFDF
:10E47000FFFF006E7FFFFFFFFFC0FFFF8F3FE39FA7
:10E480001FE1FF3FF9FCFFFFE39FFFDDBFF1FDBF91
:10E49000F07BBFE7203FE4203FED3F3FED707FED95
:10E4A000207FE4213FE07B3FE1F33FF7E73FFFFFC1
:10E4B0003FFFFFBFFFFFFFFFFFFFFFFFFFFFFF80EB
:10E4C000008000C001C001E003F007F007F80FF87A
:10E4D0000FFC1FFC1FFE3FFF7FFF7FFFFFE7C7878B
:10E4E000070787C7E7FFFFFEFFE7DFFEFFB03FF349
:10E4F00007E7C467F467F4E7C4F307B03FFCFFE73E
:10E50000DFFEFFFFFFFFFFFFFFFFFFFFFFFFFFFF3C
:10E51000FFFFFFFFFFFFFFFFFFFFFFFFFFFFFFFF0B
:10E52000FFFFFFFFFFFFFFFFFFFFFFFFFFFFFFFFFB
:10E53000FFFFFFFFFFFFFFFFFFFFFFFFFFFFFFFFEB
:10E54000FFFFFFFFFFFFFFFFFFFFFFFFFFFFFFFFDB
:10E55000C1FFFFFFFFFFFFF81C1FFFFFFFFFFFE3EF
:10E56000FFE3FFFFFFFFFF9FFFF9FFFFFFFFFF7FBD
:10E57000FFFE7FFFFFFFFEFFFFFF3FFFFFFFFDFFEF
:10E58000FFFF9FFFFFFFFBFFFFFFCFF5FFFFF3FF45
:10E59000FFFFE7F57FFFF7FFFFFFF3F97FFFF7FFCF
:10E5A000FFFFF9F9FFFFEFFFFFFFFDFAFFFFEF1F8E
:10E5B000FFFFFCF9FFFFEE0FFFFFFEF3FFFFEECFC3
:10E5C000FFFFFEE3FFFFEE1FFFFFFF23FFFFEFBF95
:10E5D000FFFFFF4BFFFFC7FFFEFFFF1BFFFF17FF04
:10E5E000FCFFFF33FFFE7BFFF9FE7FBFFFFCFBFF5D
:10E5F000F3FF3FBFFFF80DFFE7FFBFBFFFFFEC7F5B
:10E600008FFF9FBFFFFFEB807FFFDFBAFFFFE7F7C2
:10E61000FFFFDFBF5FFFE7F7FFFE9FBDDFFFFFF7F5
:10E62000FFFE5FBCBFFFFFF7FFFEDF3C7FFFFFF396
:10E63000F7F0DF7CFFFFFFF3F7F5DF79FFFFFFF374
:10E64000F7A7DF43FFFFFFFBFB8FDE2BFFFFFFF38F
:10E65000F83BBED9FFFFFFF3FDDBBEBDFFFFFFF3BD
:10E66000FCDFBC7DFFFFFFF7FE6E79FBFFFFFFE7DE
:10E67000FFB47BFFFFFFFFEFFFC8F7FFFFFFFFDFE8
:10E68000FFF9EFFFFFFFFFDFFFFF9FFFFFFFFFBF70
:10E69000FFFF3FFFFFFFFFBFFFFC7FFFFFFFFFBF4D
:10E6A000FFF1FFFFFFFFFFCFFF87FFFFFFFFFFE04F
:10E6B000001FFFFFFFFFFFFF03FFFFFFFFFFFFFF45
:10E6C000FFFFFFFFFFFFFFFFFFFFFFFFFFFFFFFF5A
:10E6D000FFFFFFFFFFFFFFFFFFFFFFFFFFFFFFFF4A
:10E6E000FFFFFFFFFFFFFFFFFFFFFFFFFFFFFFFF3A
:10E6F000FFFFFFFFFFFFFFFFFFFFFFFFFFFFFFFF2A
:10E70000FFFFFFFFFFFFFFFF001010F016B9000032
:10E7100000181825E6D900002A2A20525F464C41ED
:10E7200053485F4C505F4F70656E204150492066E2
:10E730006F7220466C6173685F4C50206661696C33
:10E740006564202A2A200D00486561643A307825E6
:10E75000580A0049735F636F6E6669673A25640AF9
:10E7600000486F75725F31323A25640A0043454CA8
:10E770004F66667365743A25640A0052484F6666B0
:10E780007365743A25640A00564241545F4D494E00
:10E790003A25640A00564241545F4D41583A256477
:10E7A0000A00564241545F5245463A25640A0056D3
:10E7B0004241545F504F5745524F46463A25640AEE
:10E7C000004C4F575F4C494748543A25640A004370
:10E7D0004845434B5F4C494748545F4F4E3A256488
:10E7E0000A00424545505F4F4E3A25640A004245B3
:10E7F00045505F4652455155454E43593A25640AA6
:10E8000000424545505F564F4C554D453A25640AE8
:10E81000002A2A20525F464C4153485F4C505F42C9
:10E820006C616E6B436865636B2041504920666F75
:10E830007220466C6173685F4C50206661696C653C
:10E8400064202A2A200D00426C6F636B202564200F
:10E85000697320626C616E6B200D0A00426C6F63FD
:10E860006B202564206973206E6F7420626C616E6A
:10E870006B200D0A00466C61736820697320636F1A
:10E880006E6669677572656420666F722042474FD5
:10E89000206D6F64652E20526573756C74206973EA
:10E8A0002072657475726E656420696E2063616C98
:10E8B0006C6261636B2E200D002A2A20525F464C49
:10E8C0004153485F4C505F45726173652041504928
:10E8D00020666F7220466C6173685F4C50206661E1
:10E8E000696C6564202A2A200D00457261736520D9
:10E8F0005375636365737366756C200D00525F46D4
:10E900004C4153485F4C505F457261736528292024
:10E910006661696C656420746F206572617365203F
:10E92000256420626C6F636B0D0A002A2A20525FF7
:10E93000464C4153485F4C505F57726974652041A3
:10E94000504920666F7220466C6173685F4C50209E
:10E950006661696C6564202A2A200D00577269740B
:10E9600065207375636365737366756C200D002A8B
:10E970002A20525F464C4153485F4C505F436C6FB6
:10E9800073652041504920666F7220466C61736840
:10E990005F4C50206661696C6564202A2A200D0056
:10E9A000A5AA00000000000000002201A201180139
:10E9B00003078F00000000001E000100652D50615C
:10E9C00070657220627573790D00652D50617065F8
:10E9D0007220627573792072656C656173650D00D4
:10E9E0000008000000026028280000010014000058
:10E9F00000010012120000010000000000000000F1
:10EA000000000000000000000000000000190100EC
:10EA10000001400800000002902828000001401476
:10EA200000000001A0121200000100000000000020
:10EA300000000000000000000000000000190100BC
:10EA40000001400800000002902828000001401446
:10EA500000000001A01212000001000000000000F0
:10EA6000000000000000000000000000801901000C
:10EA70000001800800000002902828000001801496
:10EA80000000000150121200000100000000000010
:10EA9000000000000000000000000000401901001C
:10EAA0000001800800000002902828000001801466
:10EAB00000000001501212000001000000000000E0
:10EAC000000000000000000000000000001901002C
:10EAD0000001457863656564696E672064697370D9
:10EAE0006C617920626F756E6461726965730D0087
:10EAF0003230253032642D253032642D2530326499
:10EB000020253032643A253032643A253032642090
:10EB10004F4B0A003059002040ED000088EE000005
:10EB200000000000000014DF02FF0000E93A0000CE
:10EB30000000000038EB0000000102000200DFDFEF
:10EB4000FFFFFFFF010000000000000000000000C8
:10EB5000000000000000001800000000000014DFAA
:10EB600002FF0000E93A00000000000070EB000026
:10EB7000000102000000DFDFFFFFFFFF04000000D4
:10EB8000000000000000000000000000000000186D
:10EB900000020000030100005D0F00000000000003
:10EBA000000000000202020003000000510F0000FC
:10EBB0000000000000000000030203020300000048
:10EBC000690F0000000000000000000001000000CC
:10EBD0008931000000000000000000000112000068
:10EBE00000000000801A0600380000000102080141
:10EBF0000A0B00000000000000000000E90B00000C
:10EC00000000000008EC00000101000A0AFFFFFFFD
:10EC1000000C090E0F0202020200000001000000B9
:10EC2000B8EC0000D0EC0000013C00000000000047
:10EC300034EC0000000100000000000000000000B3
:10EC400002000000C05D000000000000E02E000097
:10EC500007FFDF00000000000000000060EC000083
:10EC600001010000000000000000000000000000A2
:10EC70000000000000000000000000000000000094
:10EC80000000FFFFDFDF00000000000000000000C8
:10EC900000000000CC0C0000000000006606000030
:10ECA00001031000850F000000000000B0EC000020
:10ECB00040000701000000FFAC590020C4EC000038
:10ECC000C0EE00009C400020CCEC000009FFFFFFDC
:10ECD000485A0020DCEC0000C0EE0000AC400020F0
:10ECE000E4EC00000CFFFFFF090200000204020533
:10ECF000020602070000000000000000F93A0000D0
:10ED00000000000008ED000000010000BC400020F1
:10ED10000F00FFFF00000000FFFF0000FFFFFFFFEC
:10ED200001000000000000000D00001000000000C5
:10ED300000000000000000000000000000000000D3
:10ED40002400000048ED00000080000000000000EA
:10ED5000050000000100000000800000020000002B
:10ED6000040000000A000000040000000B00000086
:10ED7000040000000C000000050000000D00000071
:10ED8000000000000E000000040000000F00000062
:10ED90000400000000010000000001060101000065
:10EDA0000000010602010000040000000301000051
:10EDB0000400000004010000000001000801000040
:10EDC0000000010509010000000001050A01000022
:10EDD000000001010B0100000000010C0C0100000B
:10EDE000040000000602000004000000070200000A
:10EDF0000400000008020000004000000C020000B7
:10EE0000104000000D02000000000100000300009F
:10EE100004000000010300000000010302030000E1
:10EE20001040000000040000100000000104000079
:10EE300000000107070400000000010708040000AB
:10EE400004000000090400000400000000050000A8
:10EE5000040000000D090000040000000E0900007D
:10EE6000040000000F090000010801011E1C1E1A09
:10EE70000A11060614001110050002000700000028
:10EE80000000000000000000A94C0000054B00003D
:10EE9000BD4C0000C94C0000BD4B0000054C0000FB
:10EEA000014C00000D4B00005D4B0000854B000045
:10EEB000A54B0000E54B00002D4B0000414B00002E
:10EEC0002D600000B9600000C15E0000555F0000C9
:10EED000715F00004D5F0000515F0000915F000016
:10EEE000D55F000036E0014038E0014090E4014089
:10EEF00032E0014080E401400A0900000A090000F4
:10EF00003F0B00000100020008001000C440002078
:10EF100000000000000000000000000000000000F1
:10EF200000000000000000000000000000000000E1
:10EF300000000000000000000000000000000000D1
:10EF400000000000000000000000000000000000C1
:10EF500000000000000000000000000000000000B1
:10EF600000000000000000000000000000000000A1
:10EF7000232D302B2000686C4C00656667454647A2
:10EF80000030313233343536373839414243444525
:10EF90004600303132333435363738396162636494
:08EFA000656600FF000000009F
:10EFA80001000000A4910000DA9100001092000016
:10EFB800469200006E910000010000000000101849
:10EFC8000000000000000000000000000000081021
:10EFD80000000000000000000000000050000C00CD
:10EFE800C44000200000000030EF000050EF000097
:10EFF80010EF00000000000000000000000000000A
:10F0080000000000000000000000000000000000F8
:10F0180000000000000000000000000000000000E8
:10F0280000000000000000000000000000000000D8
:10F0380000000000000000000000000000000000C8
:0CF04800000000002D0500000105000084
:020000040101F8
:10001800FFFFFFFFFFFFFFFFFFFFFFFFFFFFFFFFE8
:0C002800FFFFFFFFFFFFFFFFFFFFFFFFD8
:0400000300006C711C
:00000001FF
