:10000000906300207D670000216600007967000092
:100010007967000079670000796700007967000060
:1000200000000000000000000000000079670000F0
:100030007967000000000000796700007967000020
:10004000514E0000AD4A0000514E0000514E0000DC
:10005000E53D0000513D0000853E0000CD3E000022
:1000600071490000293700009D4B0000614C0000E1
:100070008D360000000000000D38000085380000BB
:100080007D5C0000000000005955000000000000E9
:10009000F16300000000000000000000000000000C
:1000A0000000000000000000000000000000000050
:1000B0000000000000000000000000000000000040
:1000C000FFFFFFFFFFFFFFFFFFFFFFFFFFFFFFFF40
:1000D000FFFFFFFFFFFFFFFFFFFFFFFFFFFFFFFF30
:10040000FFFFFFFFDFCEFFFFFCFF0F00FFFF0F002E
:10041000FCFF0F00FFFF0F00FCFF0F00FFFF0F00AE
:10042000FCFF0F20FFFF0F20FCFF7F40FFFF7F40FE
:10043000FCFF0D40FFFF0D40FFFFFFFFFFFFFFFF31
:10044000FFFFFFFFFFFFFFFFFFFFFFFFFFFFFFFFBC
:10045000FFFFFFFFFFFFFFFFFFFFFFFFFFFFFFFFAC
:10046000FFFFFFFFFFFFFFFFFFFFFFFFFFFFFFFF9C
:10047000FFFFFFFFFFFFFFFFFFFFFFFFFFFFFFFF8C
:10048000FFFFFFFFFFFFFFFFFFFFFFFFFFFFFFFF7C
:10049000FFFFFFFFFFFFFFFFFFFFFFFFFFFFFFFF6C
:1004A000FFFFFFFFFFFFFFFFFFFFFFFFFFFFFFFF5C
:1004B000FFFFFFFFFFFFFFFFFFFFFFFFFFFFFFFF4C
:1004C000FFFFFFFFFFFFFFFFFFFFFFFFFFFFFFFF3C
:1004D000FFFFFFFFFFFFFFFFFFFFFFFFFFFFFFFF2C
:1004E000FFFFFFFFFFFFFFFFFFFFFFFFFFFFFFFF1C
:1004F000FFFFFFFFFFFFFFFFFFFFFFFFFFFFFFFF0C
:1005000010B544F24014C2F20004237863B940F2FB
:100510000003C0F200032BB14CF6A400C0F20000AF
:1005200000E000BF0123237010BDC04640F200036D
:10053000C0F2000310B54BB144F244114CF6A400D4
:10054000C2F20001C0F2000000E000BF10BDC046D2
:100550000139C9B230B50B293AD84900C9B20E2ABF
:100560001AD9244A013184186200121948F2300461
:10057000C0F20004A446C9B26244CD08545D07220B
:100580000A40944048F2D002C0F20002525C1A7055
:1005900024061FD4012030BD164ACC0885186A00F5
:1005A000521948F23005C0F20005AC466244145DB1
:1005B00007220A40944048F2D002C0F20002525C86
:1005C0001A702406E6D5122906D0013A1A70E1E71E
:1005D0000020E0E7012907D140F2FB718842F4D8FE
:1005E000013201201A70D6E70B29F5D01529F3D076
:1005F000EBE7C04630F8FFFFF0B5DE4657464E4603
:100600004546E0B5541E83B00B2C00D9B7E05D1E03
:10061000ECB21E2C00D9B2E05E4C0C19C72C00D9EC
:10062000ADE05D4C00910F1948F21844BFB2C0F222
:100630000004BF00E659B0464E023343560133432F
:10064000984508D9554BCF18BFB2BF00E35998461B
:100650004B1E9BB200930C23093292FBF3F640F23F
:100660000A097400A419A400141BE2B2B2FBF9F247
:1006700040F20F0C8A1A41464E0961460E40310085
:10068000093191FBF3F35E00F6184346B6008E1B6A
:10069000D902F3B2B3FBF9F3090DC91A48F2E80322
:1006A000C0F20003DB59674692B201935B0B1F4017
:1006B000D3009B18DB009B18BC469F00BA469708E6
:1006C0005344BA46534440F2640AB2FBFAFB5F4615
:1006D00040F2901BB2FBFBF2DB1B9B18E2001419EB
:1006E0002201A4186400053494FBF9F489B2CA000D
:1006F0005218D2001B1952185D199300D2188B089A
:10070000D218B1FBFAF3B1FBFBF1D21AF3009E1938
:100710003301F618760051181F234246053696FB22
:10072000F9F613408919013B0135CB18EB1A0C245B
:1007300001210125019F9BB22A00A2403A40E240DC
:10074000013A564272411D32934206D901319B1A39
:10075000C9B29BB2013C0E29EED100220270624662
:1007600042B1614506D90132914201D101220270A4
:100770000139C9B24370009B8170838003E000237C
:1007800083800380837003B0F0BCBB46B246A946A9
:10079000A046F0BD30F8FFFF33F8FFFF32F8FFFF4F
:1007A00083880C20B3FBF0F2500080188000181AE8
:1007B000C0B2704783880A20B3FBF0F29000801823
:1007C0004000181AC0B2704783880C20B3FBF0F2C7
:1007D000500080188000181AC0B2704710B5044C41
:1007E0000419322C02D8FFF7B3FE10BD0020FCE73D
:1007F00030F8FFFFF0B5CE46474680B59946364BF8
:100800000700C3180E00150083B0322B2FD86B469B
:100810000733FFF79DFE50B3741E6400E4B20E2D43
:1008200001D90134E4B26B46DA79AA4234D02ED829
:100830000134E4B20E2D21D948F22403C0F20003A2
:10084000F318013B1B789846022E29D00136F1B2ED
:100850000D2900D10C396B46012207333800FFF710
:1008600077FE6B46DA79551B4544EDB211E0FF2463
:10087000200003B0C0BCB946B046F0BD6B460F22A5
:10088000073331003800FFF763FE6B46DA79551BFA
:10089000EDB24B461D70EBE700234A461370E7E7C5
:1008A000BB0716D16423B7FBF3F25343FB1A9BB289
:1008B0005BB99133FF33B7FBF3F293009B189A00B7
:1008C0009B181B01FB1A9BB21BB942460132D3B2E3
:1008D00098460321BFE7C04630F8FFFF48F24C734B
:1008E00070B5C0F2000382B01B8845F6E41501AC78
:1008F00023800023C2F2000503222100207006009D
:100900002800A37003F002FE00F002F940F2E83183
:10091000052005F057FE002302222100280003F0E5
:10092000DBFD00F0F5F840F2E8310A2005F04AFE60
:100930005020404200230322210006432800267055
:1009400003F0E4FD00F0E4F802B070BD10B5827869
:10095000437812021A4344F2800352BAC47892B226
:100960001202144324096201121B92001219C2F2EE
:1009700000031B88D200120DD21812B20A8003792C
:10098000C4781B0223435BBA9CB2437924022343FD
:100990001B03180BDB091B1A9B001B1844F25C108D
:1009A000C2F2000000881B01F5381B0DFF381B1830
:1009B0004B8040F2E8339A4200DD0B8010BDC04608
:1009C000002370B584B003220021050003A8029320
:1009D00005F0D7FF382000F0BDF8012410B9200041
:1009E00004B070BD45F6E41001223821C2F20000C7
:1009F00003F0EAFC45F6E41001AE002301223100C9
:100A0000C2F2000003F068FD00F082F8182332788B
:100A10001340182B0DD01B20FFF760FF1C20FFF7A1
:100A20005DFF1E20FFF75AFF40F2E8310A2005F073
:100A3000C9FD48F2487345F6E410C0F200031A8875
:100A4000310032809B780322B370C2F20000002391
:100A500003F05CFD00F05CF840F2E831502005F056
:100A6000B1FD642407E0013CA4B29CB140F2E8313E
:100A7000012005F0A7FD45F6E41000230122310016
:100A8000C2F2000003F028FD00F042F80023F35604
:100A9000002BE8DB45F6E4100023072202A9C2F28E
:100AA000000003F019FD00F033F8012823D00E26D2
:100AB000FF23312002A96E440A780824534003E042
:100AC000013CE4B2DBB24CB15AB25B00002AF7DA67
:100AD000013C4340E4B2DBB2002CF5D101318E423F
:100AE000EAD16A46927B9A4200D078E7290002A8B0
:100AF000FFF72CFF73E7002471E7C04644F282033E
:100B00000122C2F200031A7008B102791A7070470C
:100B100070B544F282050123C2F200052B702B78D8
:100B2000012B0CD140F2F41400E05CB10121012052
:100B300005F048FD2B78013C012BF6D014B1287844
:100B4000C0B270BD45F6E410C2F2000003F0ACFE86
:100B5000F5E7C04630B583B06B4645F6E414DD1DBD
:100B60000023C2F200040100012220002B7003F0D8
:100B70002BFC002301222900200003F0ADFCFFF72D
:100B8000C7FF0138431E9841C0B203B030BDC04614
:100B900003793B2B01D93B23037143793B2B01D9CB
:100BA0003B234371C378172B01D91723C370837973
:100BB000062B01D90623837183781F2B11D91F239C
:100BC000837043780C2B07D90C2343700378632B75
:100BD00001D9632303707047002BF7D101334370B1
:100BE000F4E7002BEDD101338370EAE710B5040080
:100BF00045F6E410002382B001223221C2F2000047
:100C00000093019303F0E0FB45F6E410002301227A
:100C10006946C2F2000003F079FCFFF779FF012872
:100C20005AD045F6E410002308226946C2F20000BB
:100C300003F052FCFFF76CFF6B4618780F21030995
:100C40009A009A186B4608405200121862715B783D
:100C50001A09900012180B405200D2186B462271EC
:100C60009A78130998001B185B0011405B18E37019
:100C70006B46DB78202B35D8012B31D9202B2FD890
:100C80001F4A9B00D3589F460223A3716B461A79D3
:100C9000130999005B180F215B000A409B18A37091
:100CA0006B465B791A09900012180B405200D2185B
:100CB0006B4662709B791A09900012180B40520023
:100CC000D2186B462270DA79130998001B1800209D
:100CD0005B0011405B18E37102B010BD0123D4E743
:100CE0000023D2E7403B5A1E934105225B429343C7
:100CF0000633CAE70523C8E70323C6E70423C4E78E
:100D00005087000000230A2270B582B00093447916
:100D1000B4FBF2F5B5FBF2F18B005B185B00A900A8
:100D2000EB1A4919DBB24900611A1B010B436946F2
:100D30004B700479B4FBF2F5B5FBF2F18B005B1854
:100D40005B00A900EB1A4919DBB24900611A1B01CB
:100D50000B4369468B70C478B4FBF2F5B5FBF2F136
:100D60008B005B185B00A900EB1A4919DBB2490044
:100D7000611A1B010B436946CB708478B4FBF2F512
:100D8000B5FBF2F18B005B185B00A900EB1A491967
:100D9000DBB24900611A1B010B4369464B71457870
:100DA000B5FBF2F6B6FBF2F39900C9184900B3009F
:100DB000711A9B19C9B25B00EB1A090119436B4602
:100DC00099710378B3FBF2F0B0FBF2F291008A184C
:100DD00052008100821A0918D2B24900591A120130
:100DE0000A436946CA716A1E012A42D940F2D0728A
:100DF00099186A1C53009A18052392FBF3F36D00AF
:100E00002C191B198A105B189B186422524291FB03
:100E1000F2F29B1840F2901291FBF2F18A3A5B18C1
:100E2000FF3A93FBF2F0C100091A5B1A013393FBFE
:100E3000F2F2D1008A1A9B1A012245F6E4109A4078
:100E40006B4632211A71C2F20000012203F0BCFA93
:100E500045F6E410002308226946C2F2000003F0C0
:100E600055FBFFF755FE013843425841C0B202B06E
:100E700070BD40F2CF720C359918BAE730B583B027
:100E80006B46D87145F6E41001220C00C2F2000056
:100E90003221DD1D03F098FA45F6E410002301220B
:100EA0002900C2F2000003F031FBFFF731FE0128F8
:100EB0000ED045F6E410002301222100C2F200000A
:100EC00003F00AFBFFF724FE013843425841C0B249
:100ED00003B030BD10B545F6E41482B06B46C2F2E3
:100EE00000041871597101223221200003F06CFABC
:100EF0000023022201A9200003F008FBFFF708FEEF
:100F0000013843425841C0B202B010BD70B582B042
:100F10006B460D00D91D04001600FFF7AFFF60B946
:100F20006B46D979A9432EB92000D971FFF7D2FFBA
:100F300002B070BD6B462943F6E70120F8E7C046D2
:100F400010B582B06B460C00D91DFFF797FF20B992
:100F50006B46D879204002B010BDFF20FBE7C046A9
:100F6000F0B5002485B0182340F2281200210700B4
:100F70000094002001F03AFC08254CF2742008236C
:100F80000022A4210095C0F20000019401F0E0FBD2
:100F90004CF2742008230022D4210095C0F20000F6
:100FA000019401F0D5FB4CF274200823002240F29A
:100FB00004110095C0F200004CF29C2548F69016F2
:100FC000019401F0C5FB48F2F073C0F20005C0F2D5
:100FD0000006002200210520C0F2000302940195C2
:100FE000009601F047FC48F60003002208219820F3
:100FF000029401950094C0F20003012F28D001F063
:1010000039FC48F6080300220821D020C0F2000372
:1010100002940195009401F02DFC48F60C03002287
:10102000082140F20010029401950094C0F20003E0
:1010300001F020FC48F6100300227821C820029419
:1010400001950096C0F2000301F014FC05B0F0BD5C
:1010500001F010FC48F6080300220821D020C0F25D
:10106000000302940195009401F004FC48F620036B
:1010700000220821F420029401950094C0F200039C
:10108000D6E7C04644F294030122C2F200031A706C
:101090007047C04645F262730122C2F200031A7023
:1010A0007047C04644F294030122C2F200031A7052
:1010B0007047C04645F263730122C2F2000340F656
:1010C00000011A7040F20413C4F20401CA5845F634
:1010D00000039207C2F20003D20F5A7084228A588A
:1010E0009207D20F1A7040F200128A589207D20F5C
:1010F0009A70704748F6280010B5C0F2000082B020
:1011000005F0CEFC01F0EAFD48F6440044F260141C
:10111000C0F2000005F0C4FCFF23C2F2000440F25C
:1011200028129821200000930F3301F017FA2000B5
:1011300001F038FAFF2001F0CDFA02B010BDC04630
:10114000F0B5DE4657464E464546E0B5050045F645
:10115000E00089B001220A21C2F2000003F022F867
:101160004CF294424CF2704145F61C100223C0F23E
:101170000002C0F20001C2F2000001F0C7FD45F21A
:101180005876070045F6E00000220A21C2F200006E
:10119000C2F2000603F006F83378002B00D1C6E156
:1011A00040F2EF639F4200DD33E245F6E0000122AA
:1011B00040F20941C2F2000002F0F4FF4CF25C423E
:1011C0004CF2384145F6F8000023C0F20002C0F2AC
:1011D000000145F26474C2F2000001F097FDC2F212
:1011E0000004208045F6E000002240F20941C2F2EE
:1011F000000002F0D7FF00233370002D00D0C6E1BD
:10120000FF2001F067FA01F0A7F844F26010012115
:10121000C2F2000001F054F9228848F65C00950003
:10122000AD186B01ED1840F6FF736D0095FBF3F5FB
:1012300045F608046D00C2F200042900C0F2000067
:1012400005F0A8FB45F25C772000FFF7CFFC40F2E9
:10125000D07C2178C2F2000738006144A37862781C
:10126000FFF7CAF978786378C100091A47F68C60ED
:10127000C0F200008446614422780491B87840F2BC
:10128000000AC100091A47F67070C0F200008446D7
:1012900047F66870C0F200006144844648F2D4709A
:1012A00003913978C0F200008900614484460291BC
:1012B000A17945F26870890061440191A1784CF2EE
:1012C0009C29009148F67001C2F20000C0F20001B2
:1012D00005F0F0FB534648F69018C0F2000902935F
:1012E0004B46C0F2000801934346009345F26873F1
:1012F000012200210820C2F200031F2701F0BAFAE0
:10130000534640F2D07C6F4420783B70A2783B007B
:1013100060446178FFF762FA48F698003978C0F2C5
:10132000000005F037FB40F2D07C20783B00A2782B
:1013300061786044FFF75EFA3B78C200121A002B16
:1013400000D04DE147F6B453C0F200039C4648F686
:10135000A00145F2CC706244C0F20001C2F200006C
:1013600005F0A8FB45F25C70C2F20000FFF722FA1C
:10137000070045F25C70C2F20000FFF725FA8246D2
:1013800045F25C70C2F20000FFF70AFA47F65C62B1
:101390005346C0F2000247F6CC719446C0F20001F9
:1013A0009B0063448C466421BA0095FBF1F77943B6
:1013B000691A039145F2CC71C2F20001019147F61E
:1013C000F471C0F2000162448C46800060440090D9
:1013D00048F6C00145F2687002970027C0F200018C
:1013E000C2F2000005F066FB102340F22812102123
:1013F0000020009701F0FAF94B4601934346009311
:1014000045F26873012210210820C2F200030297FE
:1014100001F030FA48F6D80145F268702379E27895
:10142000C0F20001C2F2000005F044FB48F6881348
:10143000C0F20003009345F6100A45F268730222D9
:10144000C2F2000A2821C2F2000314200297019779
:1014500001F010FA5046FFF7B3FA534602229B5EA2
:1014600052460021515E8A460A2193FBF1F2900018
:101470008446944460469AFBF1F140001B1A1BB26B
:10148000D8171B184340880084468C4460469BB2A2
:101490009B4653464000181A00B209B201900091D1
:1014A00045F2687048F6E4015B4612B2C0F20001F2
:1014B000C2F2000005F0FEFA4B460193434600934A
:1014C00045F26873022285213220C2F2000302979E
:1014D00001F0D0F933784CF27C200193102385225F
:1014E000009340F20E11C0F2000001F031F940F219
:1014F000A1139D424EDC613B9D4200DC84E04D33F4
:101500009D4200DDB5E0143B9D4200DDB3E0133B9E
:101510009D4200DDB1E0143B00209D423EDD0023F2
:1015200044F284029B00C2F20002985836E045F66D
:10153000E000012240F20941C2F2000002F032FE56
:101540004CF25C424CF2384145F6F8000023C0F200
:101550000002C0F2000145F26474C2F2000001F022
:10156000D5FBC2F20004208045F6E000002240F2E4
:101570000941C2F2000002F015FE40F2EF620123C1
:1015800097423EDDDBB23370002D00D138E600F02B
:1015900041FF3AE648F6D010C0F200000023019364
:1015A0001033102240F20A1100930B3301F0D0F8EF
:1015B00044F260100021C2F2000000F081FF00F050
:1015C0005FFE00F0BDFF237962791343002B49D001
:1015D000012009B0F0BCBB46B246A946A046F0BD0A
:1015E00047F6B451C0F200018C4645F2CC7048F683
:1015F000AC016244C0F20001C2F2000005F05AFAE8
:10160000B0E60023DBB2BEE748F69810C0F2000057
:10161000C4E740F2EF6740F6B83001F0DFFB45F673
:10162000E00001220A21C2F2000002F0BBFD4CF2F0
:1016300094424CF2704145F61C10C0F20002C0F218
:1016400000010223C2F2000001F060FB040045F635
:10165000E00000220A21C2F2000002F0A3FDBC4219
:10166000D9D8A2E59622642142F2283001F03AFA54
:10167000AEE7032354E7022352E7012350E7C046B5
:10168000F0B5CE46474645F2627380B5C2F200031C
:101690001A7887B0EAB944F29403C2F200031A78C8
:1016A00022B907B0C0BCB946B046F0BD45F6040447
:1016B0000022C2F2000420881A70FFF741FD23883F
:1016C00010B101339BB223803C2BEAD90023238045
:1016D000E7E745F6E000002501220A21C2F20000FA
:1016E0001D7002F05FFD4CF294424CF2704145F6E1
:1016F0001C100223C0F20002C0F20001C2F200007E
:1017000001F004FB040045F6E00000220A21C2F2C9
:10171000000002F047FD48F604102100C0F200006E
:1017200005F038F96B4645F60804DD7540F2D07CCB
:101730001723C2F200042078A278617860446B44D9
:10174000FFF758F86B46DA7D47F6B453C100C0F294
:1017500000039C46091A48F610106144C0F20000CC
:1017600005F018F940F600038422C4F204039B58E4
:101770009B0700D58FE745F64010C2F2000004F049
:101780000FF945F68C20C2F2000003F04DFB45F640
:1017900000000322FF21C2F2000005F0F2F8200051
:1017A000FFF724FA2000FFF7F3F900F0D5FDFF2042
:1017B00000F090FF45F6000644F26010C2F2000609
:1017C000C2F2000000F0ACFE00F05AFD00F022FE74
:1017D000B378012740F200080025002B00D090E0EC
:1017E0000133B3700C2D00D8CBE201235B42994644
:1017F000002548F624102900C0F2000005F0CAF8C0
:10180000002744F2601040F200080121C2F20000FB
:1018100000F056FE434640F228125421482000931F
:10182000103300F0E3FF434640F228128821D42011
:101830000093103300F0DAFF617963782278039126
:10184000217945F268700291E178C2F200000191BD
:10185000A178009148F63011C0F2000105F02AF994
:10186000434602934CF29C23C0F20003019348F6D6
:101870009013C0F20003009345F268730022C2F295
:1018800000034421482000F0F5FF4B460B2B00D904
:101890007AE20020FFF764FB0123691C99436B087F
:1018A0000933C91843464CF27420C900C9B20193E8
:1018B0000833542289B20093C0F2000000F048FFC0
:1018C00044F260100021C2F2000000F0F9FD00F0C7
:1018D000D7FC45F6401040F6CC41C2F2000004F0BF
:1018E00095F845F62420C2F2000002F083FB002F99
:1018F00000D012E240F201080027B378002B00D19B
:101900006EE70D2D00D9B5E1D94AAB00D3589F46FB
:101910000A2762793078B2FBF7F18B005B185B0025
:10192000D31ADBB2C1B2002800D1B8E27178002925
:1019300000D0C6E30131717008310BB1013BD9B25F
:101940000A23B2FBF3F29300D21852008A1840F235
:101950000B090027627154E70A2763793078B3FBDB
:10196000F7F2C1B2002800D18EE27178002900D0D0
:10197000ECE1013171703131092B04D9013A910048
:1019800052185200D1B20A22B3FBF2F082001218B0
:1019900052009B1ACB1840F20A090027637130E706
:1019A0000A2722793078B2FBF7F18B005B185B00D5
:1019B000D31ADBB2C1B2002800D15DE271780029F0
:1019C00000D012E30131717008310BB1013BD9B283
:1019D0000A23B2FBF3F29300D21852008A1840F2A5
:1019E0000909002722710CE70A2723793078B3FB15
:1019F000F7F2C1B2002800D133E27178002900D09B
:101A00000EE3013171703131092B04D9013A910093
:101A100052185200D1B20A22B3FBF2F0820012181F
:101A200052009B1ACB1840F2080900272371E8E600
:101A30000A27E2783078B2FBF7F18B005B185B0085
:101A4000D31ADBB2C1B2002800D102E271780029BA
:101A500000D000E30131717008310BB1013BD9B204
:101A60000A23B2FBF3F29300D21852008A1840F214
:101A700007090027E270C4E60A27E3783078B3FB51
:101A8000F7F2C1B2002800D1D8E17178002900D066
:101A9000FCE2013171701331092B04D9013A910034
:101AA00052185200D1B20A22B3FBF2F0820012188F
:101AB00052009B1ACB1840F206090027E370A0E6FB
:101AC0000A27A2783078B2FBF7F18B005B185B0035
:101AD000D31ADBB2C1B2002800D1A7E17178002986
:101AE00000D016E20131717008310BB1013BD9B25F
:101AF0000A23B2FBF3F29300D21852008A1840F284
:101B000005090027A2707CE60A27A3783078B3FB8A
:101B1000F7F2C1B2002800D17DE17178002900D030
:101B200012E2013171701D31092B04D9013A910083
:101B300052185200D1B20A22B3FBF2F082001218FE
:101B400052009B1ACB1840F204090027A37058E6F4
:101B50000A2762783078B2FBF7F18B005B185B00E4
:101B6000D31ADBB2C1B2002800D141E1717800295B
:101B700000D0C1E20131717008310BB1013BD9B223
:101B80000A23B2FBF3F29300D21852008A1840F2F3
:101B900003090027627034E60A2763783078B3FBC4
:101BA000F7F2C1B2002800D117E17178002900D006
:101BB000E5E1013171701331092B04D9013A91002B
:101BC00052185200D1B20A22B3FBF2F0820012186E
:101BD00052009B1ACB1840F202090027637010E6EE
:101BE0000A2722783078B2FBF7F18B005B185B0094
:101BF000D31ADBB2C1B2002800D1E6E07178002927
:101C000000D0D7E10131717008310BB1013BD9B27D
:101C10000A23B2FBF3F29300D21852008A1840F262
:101C2000010900272270ECE50A2723783078B3FBFE
:101C3000F7F2C1B2002800D1E2E07178002900D0AB
:101C400075E2013171705931092B04D9013A9100C3
:101C500052185200D1B20A22B3FBF2F082001218DD
:101C600052009B1ACB1840F2000900272370C8E5E8
:101C700050890000002F00D07BE240F22C139845E1
:101C80003DD845F6401040F2010C40F6CC41C2F27E
:101C90000000E04403F0BAFE45F62420C2F2000042
:101CA00002F0A8F9002728E63378002B00D1FEE0E7
:101CB000002F00D068E240F22C15A8451FD845F649
:101CC000401040F2010C40F6CC41C2F20000E0446A
:101CD00003F09CFE45F62420C2F2000002F08AF9CF
:101CE000B378002B00D13DE23378002BE5D145F6E7
:101CF00008000123C2F200003370FFF703F845F635
:101D0000401040F6CC41C2F2000003F07FFE45F6E1
:101D10002420C2F2000002F06DF945F68C20C2F2D8
:101D2000000003F05FF845F64010C2F2000003F037
:101D30005FFE44F294030122C2F200031A7045F6DA
:101D400004020021C2F200021180A8E440F22C1328
:101D50009845D4D845F6401040F2010C40F6CC41ED
:101D6000C2F20000E04403F051FE45F62420C2F226
:101D7000000002F03FF9B378002B00D0EDE501231D
:101D8000B370A946013534E50120FFF7E9F869424F
:101D9000694127234942994343464CF274200193F9
:101DA00008238822FC310093C0F2000000F0D0FC30
:101DB00086E53378002B00D088E001333370002FA4
:101DC0009DD001235B4299461BE501303070092B01
:101DD00000D11DE70133D9B21AE701303070132B5F
:101DE00000D9F0E60132910052185200D1B2EAE671
:101DF00001303070092B00D1C2E60133D9B2BFE601
:101E000001303070592B00D925E70132910052186A
:101E10005200D1B21FE7013030701D2B00D98AE685
:101E20000132910052185200D1B284E60130307074
:101E3000092B00D15CE60133D9B259E6013030708C
:101E4000132B00D92FE60132910052185200D1B263
:101E500029E601303070092B00D101E60133D9B2F7
:101E6000FEE501303070312B00D9D4E5013291000C
:101E700052185200D1B2CEE501303070092B00D19A
:101E8000A6E50133D9B2A3E501303070312B00D97A
:101E900079E50132910052185200D1B273E5013058
:101EA0003070092B00D14BE50133D9B248E545F636
:101EB00008000133C2F200003370FEF723FF002F49
:101EC00000D11CE740F20C0902279AE4002F00D051
:101ED00054E12D37FF37B84500D910E745F64010DB
:101EE00040F2010C40F6CC41C2F20000E04403F0A5
:101EF0008DFD45F62420C2F2000002F07BF8B37895
:101F0000002B00D13BE73378002BE4D10123337061
:101F1000F5E640F22C13984500D9F0E645F640105E
:101F200040F2010C40F6CC41C2F20000E04403F064
:101F30006DFD45F62420C2F2000002F05BF8B37894
:101F4000002B00D11BE7BCE540F22C13984500D9CB
:101F5000D5E645F6401040F2010C40F6CC41C2F205
:101F60000000E04403F052FD45F62420C2F20000D8
:101F700002F040F8B378002B00D100E7C5E540F24D
:101F80002C13984500D9BAE645F6401040F2010CF2
:101F900040F6CC41C2F20000E04403F037FD45F6C4
:101FA0002420C2F2000002F025F8B378002B00D103
:101FB000E5E6F2E540F22C13984500D99FE645F698
:101FC000401040F2010C40F6CC41C2F20000E04467
:101FD00003F01CFD45F62420C2F2000002F00AF8CE
:101FE000B378002B00D1CAE6FBE540F22C139845EC
:101FF00000D984E645F6401040F2010C40F6CC4191
:10200000C2F20000E04403F001FD45F62420C2F2D4
:10201000000001F0EFFFB378002B00D1AFE6C0E481
:1020200040F22C13984500D969E645F6401040F27D
:10203000010C40F6CC41C2F20000E04403F0E6FCA3
:1020400045F62420C2F2000001F0D4FFB378002B43
:1020500000D194E6C9E440F22C13984500D94EE62D
:1020600045F6401040F2010C40F6CC41C2F20000AF
:10207000E04403F0CBFC45F62420C2F2000001F05E
:10208000B9FFB378002B00D179E6D2E440F22C13EB
:10209000984500D933E645F6401040F2010C40F671
:1020A000CC41C2F20000E04403F0B0FC45F624202D
:1020B000C2F2000001F09EFFB378002B00D15EE673
:1020C000DBE440F22C13984500D918E645F64010A1
:1020D00040F2010C40F6CC41C2F20000E04403F0B3
:1020E00095FC45F62420C2F2000001F083FFB3788E
:1020F000002B00D143E60CE440F22C13984500D9A4
:10210000FDE545F6401040F2010C40F6CC41C2F22C
:102110000000E04403F07AFC45F62420C2F20000FF
:1021200001F068FFB378002B00D128E611E540F2FA
:102130002C13984500D9E2E545F6401040F2010C19
:1021400040F6CC41C2F20000E04403F05FFC45F6EB
:102150002420C2F2000001F04DFFB378002B00D123
:102160000DE662E50123B370023B99460025FFF7B7
:1021700040FB6B1E99460027FFF743FB01235B42A0
:1021800099460027FFF73DFB40F20C090027FFF7B7
:1021900038FBC04670B545F6E0040500C2F2000405
:1021A000012240F20051200001F0FCFF002240F229
:1021B0000011200001F0F6FF280000F063FD01226D
:1021C00040F20011200001F0EDFF70BD4CF2A420A0
:1021D00010B540F60004C0F2000004F061FCC4F247
:1021E0000404322000F0FAFDA36B9B0705D46420A1
:1021F00000F0F4FDA36B9B07F9D54CF2BC20C0F2B4
:10220000000004F04DFC10BD70B540F228151324F9
:10221000FF20013CFFF7BEFF002CF9D1013D002D4E
:10222000F5D170BD70B50C000500861D287801350C
:10223000FFF7B0FFB542F9D1013C002024B2FFF70F
:10224000A9FF002CF8D170BD70B545F6E00405007B
:10225000C2F20004002240F20051200001F0A2FF6F
:10226000002240F20011200001F09CFF280000F045
:1022700009FD012240F20011200001F093FF70BD22
:1022800010B59220FFF7E0FF1220FFF7DDFFFFF708
:102290009DFF10BD10B545F6E004C2F20004002217
:1022A0000D21200001F07EFF00220F21200001F00F
:1022B00079FF322000F092FD01220F21200001F071
:1022C00071FF0A2000F08AFDFFF780FF0120FFF771
:1022D000BBFF0320FFF75EFF0020FFF75BFF2B2013
:1022E000FFF758FF2B20FFF755FF0320FFF752FFA2
:1022F0000620FFF7A9FF1720FFF74CFF1720FFF775
:1023000049FF1720FFF746FF0020FFF79DFFBF2082
:10231000FFF740FF0D20FFF73DFF3020FFF794FF50
:102320003A20FFF737FF6120FFF78EFF9820FFF775
:1023300031FF0120FFF72EFF2820FFF72BFF82201F
:10234000FFF782FF1C20FFF725FF5020FFF77CFFDF
:102350001720FFF71FFF10BD70B54CF2DC25FFF70B
:1023600099FFC0F200052020FFF76EFF6C1C0020D3
:102370002C3501E020780134FFF70CFFAC42F9D195
:102380004CF210352120C0F20005FFF75DFF6C1CF8
:1023900040202A3501E020780134FFF7FBFEAC42F3
:1023A000F9D14CF244352220C0F20005FFF74CFF72
:1023B0006C1C40202A3501E020780134FFF7EAFE4A
:1023C000A542F9D14CF278352320C0F20005FFF781
:1023D0003BFF6C1C80202A3501E020780134FFF798
:1023E000D9FEAC42F9D14CF2AC352420C0F2000544
:1023F000FFF72AFF6C1C80202A3501E02078013489
:10240000FFF7C8FEA542F9D10420FFF71DFFFFF733
:10241000DDFE70BD10B5FFF73DFF2020FFF714FF74
:102420004CF208302621C0F20000FFF7FBFE21200D
:10243000FFF70AFF4CF23C302421C0F20000FFF706
:10244000F1FE2220FFF700FF4CF270302421C0F291
:102450000000FFF7E7FE2320FFF7F6FE4CF2A43062
:102460002421C0F20000FFF7DDFE2420FFF7ECFE80
:102470004CF2D8302421C0F20000FFF7D3FE042034
:10248000FFF7E2FEFFF7A2FE9120FFF7DDFE9020AE
:10249000FFF7DAFE0020FFF77DFE9720FFF77AFEB8
:1024A0000020FFF777FE0020FFF774FE0120FFF702
:1024B00071FE2720FFF76EFE2820FFF76BFE10BD90
:1024C000013910B504004842484102234042984374
:1024D0001330FFF7B9FE04B345F6E000012240F2E5
:1024E0000051C2F2000001F05DFE45F6E00000225E
:1024F00040F20011C2F2000001F054FE41F2F85126
:10250000200000F0D7FB45F6E000012240F2001168
:10251000C2F2000001F046FE10BDFFF775FEFBE7BA
:1025200010B504001020FFF78FFEFFF76DFE0021AD
:102530002000FFF7C5FF1120FFF786FE10BDC04643
:1025400010B50220FFF780FEFFF740FE0720FFF7DF
:102550007BFEA520FFF71EFE10BDC04630B503ACC4
:10256000258845F64404C2F2000420600220E0827F
:10257000002021816281A581208348070ED1C808EF
:1025800060820020A282E381208223B1B42B02D09A
:10259000A280E18001E0A180E28030BDC808013066
:1025A000EEE7C04645F64403C2F2000318607047E8
:1025B00045F6440370B5C2F200039C8884422FD3D1
:1025C000DC888C422CD3DC89B42C3BD01ED834B1AF
:1025D0005A2C1AD11C89013C641A0100A0B21C8A31
:1025E000022C38D023D8002C39D01C89651E281A1B
:1025F00080B2A04214D85C898C4211D3DC8A022CB0
:102600002FD0042C52D0072C3ED070BD40F20E15B6
:10261000AC42FAD15C89013C241A0800A1B2DEE781
:102620004CF2E030C0F2000004F03AFAEDE7032C7F
:10263000EBD11C89651E281A5D8980B2013D691A9B
:1026400089B2D6E71C89013C201A5C8980B2013C22
:10265000611A89B2C3E75C89013C611A89B21C899D
:10266000C7E75C8A1B686143C408A4B209195C18F7
:10267000595C072318407933034112B999432170FB
:10268000C3E70B432370C0E75C8A1D6861430123E5
:102690004408A4B20919F024184080000441120132
:1026A00002416B5CA3431A436A54AEE75C8A1D681F
:1026B0000323C02661438408184040001A400641A5
:1026C00092010241A4B209196C5CB44322436A54DA
:1026D0009BE7C04630B545F644044FF6FD72C2F2A2
:1026E0000004E38A991E114202D0072B17D030BD97
:1026F000A38A0025002BFAD0C0B2628A002342B11F
:102700006A432168C91888540133628A9BB29A428D
:10271000F6D80135A38AADB2AB42EED8E7E7A38A7B
:10272000002BE4D0002503011843C0B2628A0023C5
:1027300042B16A432168C91888540133628A9BB246
:102740009A42F6D80135A38AADB2AB42EED8CEE7B5
:10275000F0B557464E464546DE4645F64404E0B5DC
:102760000E001900C2F2000409AB1F88A5880AAB4D
:102770001B786D1A9C462B00B54200DD3300E688BD
:102780009BB2F61B964200DD1600ED1AABB207377E
:102790009A46FB109846B6B2FF0801B3F3089B4671
:1027A00043460022BBB1638A554699464E466E4366
:1027B000B14666464B43855C9B184B445B44A94637
:1027C00016B1ED43EDB2A9464D4626680132F554E7
:1027D00093B29F42E7D8013940440029E0D1F0BCD0
:1027E000BB46B246A946A046F0BDC046F0B54F462E
:1027F0004646D64645F64404C0B507001000C2F26E
:102800000004A5881E002D1A08AB1A782B00BD42C3
:1028100000DD3B00E7889BB2BF1B8F4200DD0F004D
:102820000736ED1AF3109846BFB2ADB2F608D8B12C
:10283000FB089A4653425A415242D3B29C46434601
:10284000002173B10300628A6746534399462368A7
:102850006A4353445B184B4401319F548BB29E42F0
:10286000F0D801380028EAD1E0BCBA46B146A84603
:10287000F0BDC046F0B5DE4657464E464546E0B58B
:102880008BB005900691002019000492149A16ABA3
:1028900093461A7807920856002849D00024002A47
:1028A00000D1C3E000238A46A4B2039334E05B4620
:1028B000002B00D17AE09D785F782A0059681B7858
:1028C0007A43C31A1800D21050430818002B36DB85
:1028D0005E46F678831872438A1893422FD8039E77
:1028E0006A46B4460599079E6144128BBBB289B211
:1028F00001960095FFF72CFF5B465F78049A039BD7
:1029000094466344DF19BBB2039301205346185623
:1029100040F2010CE24458B10028C8DA159B73BBA1
:102920005346012040F2010C1856E2440028F3D12E
:102930000BB0F0BCBB46B246A946A046F0BD039A18
:10294000059B944663449BB2069A9846EB089946C9
:1029500096B2BFB29A42D1D24546B84508D22800B5
:10296000013522003100ADB2FFF722FEAF42F6D8AA
:102970000136B6B2B145EFD85B465F78BEE740237B
:10298000034206D0203B034218D0C30654D50307A8
:102990002BD552460120159B10565B780499039A5B
:1029A0008C466244D3189BB20393B1E72028B7D179
:1029B000159B002BB4D05B465B78FFDE53465B78FB
:1029C0005BB2002BB4D040F2C071800108403F21BF
:1029D00040F2010C1940E2440143159B5B78002949
:1029E00044D1524601201056D8E7534601229A5648
:1029F000002A9DD09B785BB2D3B1514603254D5739
:102A0000B5B1E0218004490308403F21294001433A
:102A1000FC201203800202400A43990140F6C07371
:102A200040F2030C1940E2441143D6E7FF2439E792
:102A3000159B10005B78B1E7534601229A56002A95
:102A400000D175E702255D57002DF1D04FF6FF73D9
:102A5000010319403F232B400B43910140F6C07204
:102A600040F2020C1140E2441943B6E7159A9278FD
:102A700009925A43D710159AD2789446002AB0D0BA
:102A8000159A002652680025914610001A00033757
:102A900063460894944605E00135EDB2F619C01975
:102AA0009D421BD042780478120224041443827899
:102AB00022439142F0D103986A4663468446079DBB
:102AC0000599128B0195099D6144F01C9BB289B256
:102AD00048440095089CFFF73BFE5AE76346089C74
:102AE0007FE7C04670B545F62C240E001500C2F2F3
:102AF00000040100200002F0F1F9200002F0E8F9E2
:102B000000223100200002F07BFA280040F2E83178
:102B100003F058FD200002F0D5F970BD83782BB981
:102B200045F620030122C2F200031A707047C04626
:102B30000379022B10D0042B0DD145F6C403027A81
:102B4000C2F200031A7045F61803C2F20003A52A68
:102B50001BD01B683BB9704745F622030122C2F225
:102B600000031A70F7E745F61403C2F20003196870
:102B7000481C1860082802D107215A2A13D045F6AC
:102B80006003C2F200035A54E5E70121196045F6DB
:102B90001403C2F20003196045F660030021C2F27B
:102BA00000035A54D7E745F61C030738C2F2000366
:102BB0001860E4E7F0B5C64600B5904682B0002A3A
:102BC00018DD45F622040D0000268F18C2F200041D
:102BD000002345F67C10EB56012201A9C2F2000049
:102BE000019300F0E5FE2378002BFCD00135267020
:102BF000BD42EDD1404602B080BCB846F0BDC046F3
:102C000045F61C0310B5C2F200031A6886B0012A0B
:102C100001D006B010BD00221A6045F66003C2F272
:102C200000035A7804AC22709A7820006270DA7837
:102C3000A2701A79E2705A7922719B796371FEF75A
:102C400061F86079A3786278217802902079019008
:102C5000E07800904CF20840C0F2000003F09AFEC9
:102C6000D7E7C0460379012B06D045F6210302229F
:102C7000C2F200031A70704745F62102C2F2000248
:102C80001370F8E700B583B06B46D87145F6AC1009
:102C9000D91D01220723C2F2000000F01DFB45F6FA
:102CA0002102C2F200021378012BFCD10023137021
:102CB00003B000BD0A00010045F6AC10072310B5B3
:102CC000C2F2000000F008FB45F62102C2F2000249
:102CD0001378012BFCD10023137010BD10B545F6FD
:102CE000E004C2F20004002240F20051200001F092
:102CF00059FA002240F20011200001F053FA01229B
:102D00000F21200001F04EFA012010BDF0B5D6468B
:102D10004F464646C0B5140006008AB06F46984636
:102D200003F0D4F92100300003F012F845F6200436
:102D30000AAB9A463D0040F20009C2F2000430009E
:102D400002F0F2FF4B4623702278002AFCD00121CA
:102D5000142003F037FC2A004146300002F0F0FF57
:102D60000235300002F0E6FF5545E8D1300003F0AF
:102D700027F913253900002200240AE06B00634480
:102D8000283B1B88834200D2150001320231142AED
:102D90000DD00AAEB44663006344283B08881B8804
:102DA0008342EBD9140001320231142AF1D1002000
:102DB000002312219C4205D09D4203D03A8892FB09
:102DC000F1F2801801330237142BF3D180B20AB02C
:102DD000E0BCBA46B146A846F0BDC04610B50400F6
:102DE00045F6401082B06946C2F2000002F034FE9F
:102DF00040F2E83145F64010E403B4FBF1F1C2F2D1
:102E0000000002F003FE45F64010C2F2000002F09E
:102E1000C7FD45F62420C2F2000001F0EBF86B4636
:102E20001B790BB102B010BD45F64010C2F2000094
:102E300002F0DEFDF6E7C04645F6E80070B5012178
:102E4000C2F2000002F08AFD45F6E8000421C2F259
:102E5000000002F083FD4CF2206145F62420C0F210
:102E60000001C2F2000001F0B7F84CF2945145F6AF
:102E70004010C0F20001C2F2000002F0FFFD4CF26F
:102E8000445145F62C20C0F20001C2F2000002F0CD
:102E90000FF9642240F2901141F64070FFF722FED4
:102EA00045F6E00000220121C2F2000001F07AF9AB
:102EB0004CF2EC5145F67C10C0F20001C2F2000069
:102EC00000F000FE4CF2145145F6AC10C0F20001C7
:102ED000C2F2000000F00AFA4CF2E44145F6E410B8
:102EE000C0F20001C2F2000001F072FC4CF2A841F5
:102EF00045F68C20C0F20001C2F2000001F01CFF78
:102F00004CF2D04145F69C20C0F20001C2F2000014
:102F100001F012FF45F69C20C2F2000001F062FFB2
:102F200045F68C20C2F2000001F05CFF4CF2BC417F
:102F300045F66410C0F20001C2F2000001F0FCFE90
:102F400045F66410C2F2000001F04CFF45F6E000C7
:102F500000220121C2F2000001F024F92021012207
:102F60000D20FDF7D3FF02210E20FDF7E9FF002819
:102F700052D160210F2045F6DC04FDF7ABFFFEF7D0
:102F8000B9F8C2F2000440F60005B026C4F2040508
:102F9000FEF776FBFFF734FEAB599B07F8D445F6F6
:102FA000E410C2F2000001F085FC45F6AC10C2F25C
:102FB000000000F06BF8206045F67C10C2F20000C3
:102FC00000F09CFC206045F62420C2F2000001F0D5
:102FD00011F84CF21451206045F6AC10C0F200011B
:102FE000C2F2000000F082F94CF2E441206045F6A4
:102FF000E410C0F20001C2F2000001F0E9FB4CF263
:10300000EC51206045F67C10C0F20001C2F20000D5
:1030100000F058FD2060B6E700210E20FDF75AFFB2
:1030200045F6CC00C2F20000FDF7E0FD45F6CC000D
:10303000C2F20000FDF7ACFD45F6CC00C2F2000084
:10304000FDF760FE95E7C04600B583B040B94CF28D
:10305000000390220121C4F27E03995403B000BD05
:103060000228FBD14CF22C4345F6E000C0F20003ED
:103070005B68C2F200001900019301F08FF9EDE7DF
:1030800010B5FFF7D9FE002010BDC046002370B573
:103090000360436804005A6922B1936810681B6A90
:1030A000984763681A6922B1936810681B6A984749
:1030B00063680221595601231F221D00480911404F
:1030C0008D404EF200112030CEF2000180004550BC
:1030D000BFF34F8FBFF36F8F01251E006068455708
:1030E00068091540AE40203080004650BFF34F8F36
:1030F000BFF36F8F03251E006068455768091540B0
:10310000AE40203080004650BFF34F8FBFF36F8F2B
:103110000425606845572A40680993400200203220
:1031200092005350BFF34F8FBFF36F8F4021A368BE
:1031300000201A788A431A70DA780022DA7070BD9B
:10314000F0B50400806A85B08C4601AD90B12B00CB
:103150000200C2CAC2C363681B780360634603717E
:10316000E36A8360636A9847A36A0BB107CD07C31C
:1031700005B0F0BD2800EEE7F0B50E004021C646D0
:1031800004000F0000B51D0006AB1878A3681B787B
:103190001F40194200D073E020236761A761E660F9
:1031A0002261E561E05463685F690FB37B68A561E4
:1031B0001968CB780F2857D9302083432020034348
:1031C000CB7040F20C0840468B788343082084463D
:1031D000604603438B70ABB2CB818A60002A65D016
:1031E000BB6838685B689847D8BB20226368A05CDE
:1031F0001A69E2B1536865611968CB780F2839D92B
:103200003020834320200343CB700C200827CB7849
:10321000ADB283433B43CD81CB704E60002E4FD087
:10322000936810685B689847D8B92023E05CA3686E
:10323000DA7A198AD2B289B20F2823D94024013010
:10324000A2438008203C05382243224C0002214042
:103250000843402180B2DA72188200201A780A43AB
:103260001A7080BCB846F0BD072810D830208343C0
:10327000CB70A6E7072810D830208343CB70C4E773
:103280000820EEE707280ED840242243DDE730204F
:10329000834310200343CB7093E7302083431020F7
:1032A0000343CB70B1E76024A243CEE742468B785C
:1032B00093438B7045F62403C2F200038B608FE7C3
:1032C000DBB28343CB7045F62803C2F200034B60A8
:1032D000A6E7C046FFF0FFFF00B583B000931300E0
:1032E0000022FFF749FF03B000BDC04640F2207244
:1032F000F0B545465746DE464E46C0F2400294467B
:10330000E0B50B780F6963441B021A1D04000D0021
:10331000904687B0002F00D190E180227968120595
:103320000B6838681A6042469A60BB681B68984709
:103330000600002800D079E16B6973B180205968DC
:1033400000030A6810604046506018689B681B685C
:1033500098470600002800D08EE140F22072C0F2AB
:10336000400294462B7863441B02AA69656062623E
:10337000EA69A360E2620022A2626B7A9C46002B9B
:1033800000D06FE1B82008211026EF7A6B7B7F0018
:103390001B031F432A6AAB7A1F4313780BB1B1207A
:1033A00008435378D901884359005B010B43034319
:1033B0000193D07895787021854002958F431179DB
:1033C000000131B102394B1E99410F234942994303
:1033D0003031537923B1012B00D152E101231E4337
:1033E00093790393137A9B071B0F034360463B4378
:1033F000002800D03AE1507A4EF200070490907A0B
:103400003B430590D07A8346EFF3108A012080F386
:10341000108846F6FC70C4F20400476840F21309B5
:10342000B84667683F78BC464F4665467F1BB9463D
:1034300001274D46AF40B94647464D46AF4347602A
:1034400040688AF3108840F20008A068F6B2C57898
:103450004546C5706D462D799BB205706D462D7A37
:1034600045708170D2794EF200118272049ACEF2C8
:1034700000010273059A8C4642735A468273C673E2
:1034800003822023039A6668C2540223F35640F253
:1034900000359A089200944462465259B079914698
:1034A00003221A40D2009046FF22414617008F4067
:1034B000B8468001104088404F46414645F6F02806
:1034C0008F436146C2F2000838434851414646F2F4
:1034D000000C980044501800C4F2000C6146C03043
:1034E00080004158684F3940894661464F464750F1
:1034F0001F2001211840814008004EF20011CEF239
:103500000001894640F280175B099B004B44D8516B
:1035100018600123F35698088000814449464959B0
:1035200070798B4603211940C9008A4680011040FA
:10353000574688401100B9408A4659465746B94314
:103540000843494648514146980044501800614696
:10355000C030800041584C4F3940894661464F4643
:1035600047501F2001211840814008004EF20011F1
:10357000CEF20001894640F280175B099B004B4464
:10358000D85118600423F3569808800081444946B6
:103590004959307A8B4603211940C9008A46800177
:1035A0001040574688401100B9408A465946574650
:1035B000B9430843494648514146980044501900D0
:1035C000C03188006146304F4158394089466146D4
:1035D0004F4647501F21012719408F404EF20011DE
:1035E000CEF200018C4640F280105B099B006344E0
:1035F0001F501F600327F7570321B808800060445D
:10360000435939409C46F379C9009B0113408B40D4
:103610008A40614691430B4343514346BF00FC50EF
:1036200045F249030026C5F253232360300007B05A
:10363000F0BCBB46B246A946A046F0BD4A69002A86
:1036400000D192E68020516800030B681860404664
:103650005860936810681B6898470600002800D1DE
:103660007BE6E3E7B020002100268EE6002040F252
:10367000000B05900490C7E6BB6838681B6A984742
:10368000D4E703231E43ABE6FFFFFEFF30B5EFF3A5
:103690000383103B5BB21A0046F20001C032C4F251
:1036A0000001920050581F4C9B002040505045F69E
:1036B000F022C2F200029B589A69D9698A4219D055
:1036C000186930B320241C5D0F2C09D999684C6807
:1036D00091000C50D96901329A618A420AD030BDFA
:1036E000072C19D8996809798154D96901329A61EE
:1036F0008A42F4D103221F215B689A561140530974
:1037000001228A404EF200119B00CEF200015A5075
:10371000E5E798684068DEE79C68A5885400055393
:10372000D9E7C046FFFFFEFFF0B5C64600B5EFF390
:103730000383103B5BB21A0046F20001C0329200D4
:10374000C4F200015058304D9B002840505045F6BF
:10375000F022C2F200029B585868026A002A2ED05A
:103760005678DC695A69012E16D094420BD0D9687C
:1037700041B32020185C0F2808D99400986861583C
:10378000416001325A6180BCB846F0BD07281CD8A0
:10379000895C98680171F4E7671EBA421AD0016922
:1037A0000029E2D0032545571F20284086404EF2CD
:1037B00000106909CEF2000089000E50D5E75A6961
:1037C000DC69D2E798684160DBE75000415A9868AD
:1037D0008180D6E7C07840B207008046C037BF007E
:1037E000785805407D5040461F2101408E404EF2E2
:1037F0000011CEF200018C4640F280114009800099
:10380000604446500660B0E7FFFFFEFF10B5EFF3DF
:103810000383103B5BB21A0046F20001C032C4F2CF
:10382000000192005058164C2040505045F6F022AE
:103830009900C2F2000288588268D278920704D5B3
:103840004268527A012A00D010BD1F215A090B404C
:103850001E39994013004EF200142033CEF20004BA
:103860009B001951BFF34F8FBFF36F8F40218268C8
:1038700013788B4313703F39FFF762FCE4E7C046CF
:10388000FFFFFEFF70B5EFF3038445F6F023402100
:10389000103C64B2C2F20003A200D658B3681A7892
:1038A0008A4300211A70DA78D970D5B2130710D480
:1038B000EB0714D414232B40142B18D046F200032A
:1038C000C034C4F20003A400E2580B490A40E2509D
:1038D00070BD30000531FFF733FCEB07EAD504215A
:1038E0003000FFF72DFC14232B40142BE6D10821C8
:1038F0003000FFF725FCE1E7FFFFFEFF0023026A2F
:10390000052170B5436093700122C36915005956B3
:103910001F234C0919408D404EF200112034CEF285
:103920000001A4006550BFF34F8FBFF36F8F0B25CD
:103930001600C46965576C091D40AE402034A400D0
:103940006650BFF34F8FBFF36F8F07251600C46912
:1039500065576C091D40AE402034A4006650BFF38B
:103960004F8FBFF36F8F0925C46965576C092B40D2
:1039700015009D40230020339B005D50BFF34F8F07
:10398000BFF36F8FEFF3108182F31088C36946F69F
:10399000FC72187880231B06C340C4F204025468EA
:1039A00023435360536881F31088002070BDC046E4
:1039B0007B2330B5046AA5782B40A37083789B07DE
:1039C0009B0FD21A02618022CB18C360A3781343E5
:1039D000A370032382781340022B03D00B78E3708B
:1039E000002030BD4FF600620B881343E381F7E7F8
:1039F000F0B51F2501241540AC404EF20015C64617
:103A000053092033CEF200059B0000B588465C5177
:103A1000BFF34F8FBFF36F8F130046F20004C03324
:103A2000C4F200049B001D59114E4EF200113540A6
:103A30001D51FF240325CEF200018C46210040F2E7
:103A400000371540ED00A94093089B006344DE5900
:103A500092008E43414689010C40AC403443DC5116
:103A600045F6F023C2F20003D05080BCB846F0BD4A
:103A7000FFFFFEFFF0B5C64600B50500806A84B0C2
:103A80008C4690466C46D8B12300060086CE86C38D
:103A900036681E60EB691B780360634683604346AB
:103AA0000371EB6AC3606B6A9847AB6A23B107CCBA
:103AB00007C31A002368136004B080BCB846F0BD89
:103AC0002000E7E743F60002C0F200229446F0B57A
:103AD0004546DE4657464E460B78E0B563445B01EB
:103AE0000362002303704A690D0042628A69C16162
:103AF000C2620322012183628378040093430B4353
:103B000083706B7883B023B9837893430222134385
:103B100083700B222000AA56A97AFFF769FF0522BD
:103B20002000AA562979FFF763FF07222000AA5632
:103B3000A979FFF75DFF09222000AA56297AFFF72D
:103B400057FFEFF31086012080F31088802146F69E
:103B5000FC732F780906F940C4F204035A688A43BB
:103B60005A605B6886F310880022236A29789A706D
:103B70001A715A729A72DA725A8340F20722CA4054
:103B8000104201D04022DA7406221A7709B96E4A2F
:103B90009A82AA78E9781201C9000A436978032950
:103BA00000D1CCE0481E8141102049420140E23161
:103BB000D2B21A700222ED699971297BFF26490061
:103BC0000A4020215A736A78A878D2014001014046
:103BD00032400A43002128781972811E0190012980
:103BE00000D8A4E003266968D2B2DA718A784878EE
:103BF0005A701A783040B24302431A70CA78593664
:103C00009A74D8790A78B04332400243DA710022BC
:103C1000E26022616261A261E26946F200019146BE
:103C2000527940F21F0C52B21000C030C4F20001B1
:103C300080004658454F40F2C00A3E404650664616
:103C4000B84601271640B7404EF20016CEF20006E5
:103C5000B34640F28016520992005A4497511760B9
:103C60004A46D27A404652B292445746BF00BA46BC
:103C70007F5807405046475067461740BA460127CD
:103C8000504687404EF20010CEF2000083465209A3
:103C900092005A44975117604A4640F2C00AD279BE
:103CA00052B2924450468000824640580700404637
:103CB00007405046475067461740BA4601275046CE
:103CC00087404EF20010CEF2000083465209920067
:103CD0005A44975117604A4640F2C009527A474603
:103CE00052B29144484680008146405807404846B9
:103CF00047506146012011408840520992005A44C1
:103D0000905110600322019F002017406D3217432D
:103D10009F706B89238144F65513C5F2433363606A
:103D200003B0F0BCBB46B246A946A046F0BD5E70EB
:103D3000022801D110210A43D2B2DA7167E73D317E
:103D40000A43B23134E7C04600F8FFFFFFFFFEFF31
:103D500070B5EFF30383103B5BB21A0046F200012B
:103D6000C0329200C4F2000150581D4C9B0020400C
:103D7000505045F6F022C2F200029858C3691B6900
:103D800013B1036913B170BD036983B97F23026A5C
:103D900091780B4004210B4393700023C360436A66
:103DA000002BF0D080220021FFF764FEEBE7032117
:103DB0008278114002290AD0C168056A0C78EC703B
:103DC0009207920F9B1A8A180361C260DAE74FF6D6
:103DD0000065C1680C882C43056AEC81F0E7C04699
:103DE000FFFFFEFF10B582B0EFF30383103B5BB221
:103DF0001A0046F20001C0329200C4F2000150588D
:103E00001F4C9B002040505045F6F022C2F20002A9
:103E10009C580323A2781340022B0DD0236A5979B2
:103E2000A369C9B2019183B9636A1BB1042220005E
:103E3000FFF720FE02B010BD40F2FF11236A1B8A7B
:103E40001940A3690191002BEED09207920F60698F
:103E500001A902F08DFDA37862699B079B0FD21820
:103E60006261A269D31AA361002BE3D1636A002BBC
:103E7000E0D0012200212000FFF7FCFDDAE7C04678
:103E8000FFFFFEFF10B5EFF3038445F6F023103C6F
:103E900064B2C2F20003A200D0587B23026A917878
:103EA0000B409370436A1BB102220021FFF7E2FD31
:103EB00046F20003C034C4F20003A400E2580249F1
:103EC0000A40E25010BDC046FFFFFEFF70B5EFF3A1
:103ED000038445F6F023103C64B2C2F20003A20052
:103EE000D058032382781340022B20D0036A5979DB
:103EF000C9B238221D792A40ED0602D51D7FED0793
:103F000012D538261D79B5431D71436A0BB1FFF7F1
:103F1000B1FD46F20003C034C4F20003A400E2582D
:103F200006490A40E25070BD40252A43E9E740F2C5
:103F3000FF11036A1A8A1140DBE7C046FFFFFEFF4C
:103F400070B50400012002F0CFFB4EF20002A02168
:103F5000C4F20102535CDB06FCD44EF20002AA213B
:103F6000C4F20102535CDB06FCD42378002163B168
:103F7000022B16D0002346F2000240F2A011A068E6
:103F8000C4F20002505048F200014EF20002C4F2A6
:103F90000102918192210120535402F07BFB002009
:103FA00070BD606921699633D15001434842414157
:103FB00046F2000040F20025E37EC4F200005B0000
:103FC0000B43415BA67E490A490231434153942188
:103FD000207EDBB25054CEE710B5040008006160CB
:103FE000FFF7AEFF20B945F24D03C5F24C23236025
:103FF00010BDC0464EF2000270B5A0210500C4F20B
:104000000102535CDB06FCD44EF20004AA22C4F287
:104010000104A35CDB06FCD4012002F065FBA3894C
:10402000DB0B012B20D06B681B78022B0AD14EF2E0
:10403000000392228021C4F20103985C49420143AB
:1040400099549B5CBFF34F8F30BF4EF20003922117
:104050007F220024C4F20103585C02405A5401201C
:1040600002F018FB200070BD92222533E35CA25CB5
:10407000DBB2D2070ED58BB94EF23803C4F201037E
:104080001B78012B0AD14EF23203C4F201031B78D4
:10409000012B03D1002002F027FBC4E70524DEE753
:1040A00000230360002070470800F0B5EFF3108490
:1040B000012383F3108845F6EC23C2F2000319684C
:1040C00031B940F60055C4F20405E9704031E97099
:1040D00019680131196084F31088040AD10320D4CF
:1040E000FF210140200140F600044018C4F20404FE
:1040F00080000251EFF31082012181F310881968CA
:1041000011B11968013919601B6833B940F60051C3
:10411000C4F20401CB708033CB7082F3108800208E
:10412000F0BDFF2140F60005014020014418C4F213
:104130000405A4006759034E374016406751665185
:10414000D1E7C046FFFFFEFF0B00FF20034040F613
:104150000000090A0901C918C4F2040089000B58BB
:104160009B07DB0F002013707047C0460023C4F28A
:1041700004039C46090A490161444B6800201380EE
:104180007047C0460020C4F2040084461800090AA3
:1041900090430004134049010343614400208B60B5
:1041A0007047C046FF2001230840834052B91B04DA
:1041B0000022C4F204029446090A49016144002025
:1041C0008B6070474FF6FF721340F1E70020C4F296
:1041D000040084461800090A490110B561440C68BE
:1041E00010402043934398430860002010BDC04610
:1041F0000023C4F204039C46090A490161444B6848
:1042000000201B0C138070470020C4F20400844679
:1042100010B50B0A5B0163445C68FF231940FE3B49
:104220008B40240C99B223405B1A59424B41002029
:10423000137010BD0020C4F2040084461800090A5F
:104240009043000413404901034361440020CB60C4
:104250007047C0460B0A10B55B01012A10D000223E
:10426000C4F204029446FF208022014052028A4098
:104270006344DC682243120C12040020DA6010BD93
:104280000020C4F204008446FF2001408A4011004F
:104290004FF6FF726344DC68114021430A40ECE7AB
:1042A00006207047F0B5DE4657464E464546E0B517
:1042B00083B0EFF31082012383F3108845F6EC23DB
:1042C000C2F2000301931B6833B940F60054C4F2F4
:1042D0000404E3704033E370019C236801332360DE
:1042E00082F310880388C3B30B6840F60004984635
:1042F00080235B029C46284B00229A46C4F20404A9
:104300000DE0330A9946FF231E404B461B019B19C3
:104310009B0019510132038892B293421DD9634622
:10432000D10041448E8809681942EAD0330A99467F
:10433000FF231E404B4657461B019D19AD00A94661
:104340002D593D40AB464D465F462F5155460D40D9
:10435000AB464D465F462F51D9E7EFF3108201235C
:1043600083F31088019B1B681BB101990B68013B0B
:104370000B60019B1B6833B940F60051C4F2040185
:10438000CB708033CB7082F3108803B0F0BCBB4697
:10439000B246A946A046F0BDFFFFFEFF45F25423FA
:1043A000020010B5C5F24F03080013600431FFF797
:1043B00079FF002010BDC04610B508000431FFF79A
:1043C00071FF002010BDC04641600272002070479E
:1043D000F0B50400806B83B06D4688B12B000200FD
:1043E000C0CAC0C3E36B01710360636B9847A36BE2
:1043F0000BB106CD06C32B230022E25403B0F0BD5F
:104400002800EFE74EF2000340F6007230B52C258D
:10441000C4F201031B6AC0F6007283B01340016945
:104420000193019A019C0B7C455DDBB28DB91205AD
:10443000120F240E121B93409B0823B9082044E05E
:10444000013B002BFAD04A78D209002AF8D1B323D5
:10445000CB7100232822835482690362C261262221
:10446000845C013284540432835402328354013216
:10447000835404680132835401328354626A13788E
:104480005278013B5D426B415200043313430122D9
:10449000DBB2CB704B7913434B710F23E356002BE8
:1044A0000BDB1F215A094EF200140B401E399940B4
:1044B000CEF20004920011510169BF23CB71933BEE
:1044C000C25C22B10022C254002003B030BD2A3B9E
:1044D00000204B70F9E7C04610B52A240355037A33
:1044E00041618261012B0AD12522002181540121E1
:1044F000426852000A43242142542622835429232D
:104500000122C254FFF77EFF10BDC04610B52A2419
:104510000355037A41618261012B08D125220021D4
:104520008154426824315200425426228354292364
:104530000022C254FFF766FF10BDC046F0B55746D3
:104540004E464546DE461F23E0B5026904681370F7
:10455000403383B01370656A8033137000912F79F4
:10456000FF3B1F43FFB21774EF7801003B43DBB200
:1045700053747023AF784BF6C0503F013B4008277F
:104580003B4393702B78CFF6F070013B5F427B4149
:1045900084466D7804336D002B43DBB2D3706368BF
:1045A0004EF2001063445C42634180245B4223402E
:1045B000773353710023CEF20000844640F2003579
:1045C00003279371B333D371009BFF265B7C40F2CA
:1045D000801B5BB29C08A400644460591F40844661
:1045E000F80081460098477BB8010700FF2037405C
:1045F0004E46B040804660464646B0434E4645F67D
:10460000F02C0197B740C2F2000C40F2C008664699
:104610003843605198449C00A151464646F200043C
:10462000B600B046C4F20004365968483700464622
:10463000074037511F271F40B84601274646B7405D
:104640004EF20016CEF20006B1465E465B099B00B4
:104650004B449F511F60009B0327DB7B5BB29E088E
:10466000B600B046C844464676591F40B146FE00E3
:10467000FF27B246B7404E46BE43B1465646019F5D
:10468000B7404E463E43B14646464F4677519E00A0
:10469000B046474640F2C00866469844B95146467F
:1046A000B600B04636590640B14646464F463751E9
:1046B0001F261E40B04601264746BE40B0464EF279
:1046C0000016CEF20006B14647465E465B099B00E7
:1046D0004B449F511F60009B1B7C5BB29E08B60041
:1046E000B046C84446467659B14603261E40F600F9
:1046F000B246FF265746BE404F46B743B9465646D8
:10470000019F8A46B7404E463E43B14646464F4615
:1047100077519E00B046474640F2C008664698442E
:10472000B9514646B600B04636590640B1464646EF
:104730004F4637511F261E40B04601264746BE4011
:10474000B0464EF20016CEF20006B14647465E462F
:104750005B099B004B449F511F60009BFF279B7B85
:1047600001985BB29908890049444E59B046032626
:104770001E40F600B146B7404646BE4337004E469F
:10478000B0406646074350464F5199008851190082
:10479000C031890008590D4D1F26284008514EF29E
:1047A00000100121CEF2000084461E40B140584660
:1047B0005B099B006344195019609F23137003B079
:1047C000F0BCBB46B246A946A046F0BDFFFFFEFFC7
:1047D00040F23052C0F240029446F0B5C646002581
:1047E0000B7800B563441B0203618B680160436072
:1047F0000B7B04000372CB6943630B6A8563C3635D
:10480000EFF3108740F2010888F310880E7846F61F
:10481000FC73B44609266246B61A4246B240C4F258
:1048200004035868904358605B6887F31088200041
:10483000FFF784FE29236561A561E5612562E554E2
:104840000133E5540133E5540133E55444F6431391
:10485000C5F249230020E36080BCB846F0BDC046E5
:10486000C36910B5040013B92C33C35C73B199B993
:1048700000232622E361A15C0232A154A2692262D4
:104880002C22A354B3222369DA7110BD2B33C35CED
:10489000002BF7D00029EBD00023226920002168EB
:1048A000D371FFF74BFEE3E710B50121FFF7D8FF07
:1048B000002010BD70B504000121FFF7D1FF0023D7
:1048C00011212269D371E36023681F225956012305
:1048D0001D00480911408D404EF200112030CEF2EB
:1048E000000180004550BFF34F8FBFF36F8F0E253F
:1048F0001E002068455768091540AE4020308000F2
:104900004650BFF34F8FBFF36F8F10251E002068F6
:10491000455768091540AE40203080004650BFF32F
:104920004F8FBFF36F8F0F252068455768092A40C6
:104930001D0095400200203292005550BFF34F8F6A
:10494000BFF36F8FEFF3108083F31088216846F672
:10495000FC720C780921091B8B40C4F204025568D3
:104960002B435360536880F31088002070BDC0460D
:1049700010B582B0EFF3038346F20002103B5BB246
:10498000C033C4F200029B00995847480140995037
:10499000EFF3038345F6F022103B5BB2C2F2000254
:1049A0009B009B582D229A5CE2B99A69012A24D96E
:1049B00040201A69117901431171D969012907D180
:1049C00010201179014308201171117901431171EF
:1049D0006946D27CD2B2CA71CA792D22012199547A
:1049E00002B010BDDA69002AFAD0032A07D0022AE1
:1049F00048D0012A1AD0196906E01A69DDE740207B
:104A000019690A7902430A71CA7C186A59690A54F9
:104A10001A6A01321A62DA69013ADA61002ADFD1D0
:104A200040211A6913798B431371D9E72A21595C04
:104A300091B30F241F2019680C57204061091400FE
:104A400084404EF200102031CEF2000089000C505C
:104A5000BFF34F8FBFF36F8F802019694042CC792D
:104A600020431024C871087920430824087108796C
:104A7000A0430871042048704879904348712C2065
:104A80001A54C1E7102019690A79024308200A71F3
:104A90000A7902430A71B7E7082019694A7A824302
:104AA0004A724870B0E7C046FFFFFEFF30B5EFF333
:104AB000038346F20002103B5BB2C033C4F2000233
:104AC0009B009958344801409950EFF3038345F611
:104AD000F022103B5BB2C2F200029B009B582722DF
:104AE0009A5C82B12621595C032940D02821595C67
:104AF00024201C69185C0131A07428201954272136
:104B0000013A5A5430BD29229A5C002AFAD1DA6956
:104B1000B2BB18697F22C1790A40C271C02101E08D
:104B2000013919B1C279D209002AF9D110221B68C2
:104B300046F200019A56C4F200011300C0339B00F4
:104B40005C58154D2C405C50002A0BDB1F2153098B
:104B5000114001228A404EF200116033CEF2000172
:104B60009B005A504022C3791343C371CAE72821DE
:104B7000595C0229BCD13020185C0028C2D0B7E7AC
:104B8000196A5C691869645C013A013184741962BC
:104B9000DA61002AB6D1BDE7FFFFFEFF10B5EFF3E3
:104BA000038345F6F022103B5BB29B00C2F2000289
:104BB0009A582923D35C1BB12723D35C012B48D0FF
:104BC000D369D3B113694021DA798A43DA71C022FB
:104BD00001E0013A12B1D9794906FAD4EFF303831F
:104BE00046F20002103B5BB2C033C4F200029B00ED
:104BF00099581A480140995010BD2A23D35C0BB331
:104C00000F211F201368595608404B0901210C0041
:104C100084404EF200102033CEF200009B001C5066
:104C2000BFF34F8FBFF36F8F802013694042DC7951
:104C30002043D871042058705879884358712C202B
:104C40001154C0E7082113695A7A8A435A7259707D
:104C5000B9E72F33D35C002BB2D1B3E7FFFFFEFFE0
:104C600010B5EFF3038345F6F022E021103B5BB271
:104C7000C2F200029B009C5823695A7A5972DD39AE
:104C8000D0B21140D2061CD55A78520634D42B2308
:104C900001220121E2542000FFF7E2FD0121200062
:104CA000FFF796FBEFF3038346F20002103B5BB283
:104CB000C033C4F200029B0099581E48014099502D
:104CC00010BD0029E3D102070AD52B22A25C72BBDA
:104CD0002922A15C4A425141B3220231DA71DEE756
:104CE0002C22A25C002ADDD04207DBD52B22A25C5D
:104CF0000121002AD3D1EBE70029C8D15A78520606
:104D0000D10F002ADFDA2B22A15408215A7A8A43D4
:104D10005A7222685970526A1278013A51424A41D5
:104D200001210232DA705A790A435A71BAE7002136
:104D3000B1E7C046FFFFFEFFF0B54646D6464F46F8
:104D40000224C0B50C5746F20005A3009C4640F271
:104D50000032C4F2000504716544AB5846F2000706
:104D600098460023AA468E68AB508660CE68C4F28F
:104D70000007C6600E784671BB550B79CD781B01D4
:104D80002B434D79DBB2ED012B43DBB2BB555546CE
:104D90004346AB50002C1ADB4EF20013CEF2000358
:104DA00098460323A5081C404B78FF21E4009B0193
:104DB0000B40A140A340AD004544AE588E43334361
:104DC000AB5045F6F0236246C2F20003D05044F2E5
:104DD0005533C0F2490303600020E0BCBA46B14637
:104DE000A846F0BD042310B5C35646F200011A00D0
:104DF000C032C4F20001920050580A4C204050507A
:104E00001F21012219408A404EF20011CEF200010A
:104E10008C4640F280115B099B00634400205A508D
:104E20001A6010BDFFFFFEFF04221F2182561140B1
:104E3000530901228A404EF200112033CEF20001C4
:104E40009B005A50BFF34F8FBFF36F8F0020704706
:104E500030B583B0EFF3038445F6F023103C64B221
:104E6000C2F20003A200D15846F200024879C4F20F
:104E70000002135C9B079B0F032B0ED0C034A400D1
:104E8000A3580F4D2B40A3508B6823B1CA680190E3
:104E900000926846984703B030BD8B6823B1CA685A
:104EA000019000926846984746F20003C034C4F26D
:104EB0000003A400E25802490A40E250EBE7C04672
:104EC000FFFFFEFF8368C26800209A607047C046FB
:104ED0008368C26800205A607047C04610B54468B5
:104EE000836824784A1E9A661CB9490801395965B5
:104EF0009965D96AC90705D45A66AA22D2031A64E9
:104F0000C268DA60002010BDF0B5CE46474680B5D5
:104F100000283ADB40F2FF094EF2001403254E460A
:104F2000CEF20004A44640F200370540ED00AE404A
:104F300083089B006344DC598901B44326004C4636
:104F40000C40AC403443DC5145F6F0238100C2F202
:104F50000003CA50030046F20002C033C4F200024C
:104F60009B0099580B4C214099501F22012302406D
:104F700093404EF20012CEF20002944640F28012AC
:104F800040098000604483500360C0BCB946B0460D
:104F9000F0BDC046FFFFFEFF70B5554255414C6E57
:104FA000013425B9A24202D2013A1A6070BD059BB4
:104FB000DB070FD54B6B0178DB02DB0E03290FD922
:104FC00001211B094B400B4092B193B90323049A72
:104FD0001360EBE74B6B0178DB06DB0E0329EFD8A0
:104FE0000C210B40043B59424B41DBB2002AECD16F
:104FF0001BB90223049A1360D8E7002CF9D0E5E727
:10500000F0B5C646012300B55B4284B0029300238D
:1050100003270500039303AB019200938846140015
:10502000174002AB0A0081684068FFF7B5FFA96826
:10503000039A0E6B72B90823234058424341012062
:105040005B4283430433A00726D502989B00CB180C
:10505000D8641865012F0CD0134B1E4013041E4357
:10506000022C08D09FB900200E6304B080BCB84663
:10507000F0BD022C0BD152B10123019303AB424688
:105080000093686802ABFFF787FF039AA968074B94
:1050900012061E401643E6E7DB19123302989B0006
:1050A000CB185860D6E7C046FFFFFCFFFFFFFFFCB0
:1050B000F0B54546DE4657464E460122E0B50D00A6
:1050C0000B7C11009940040085B0C1604560002B45
:1050D00000D1CCE0027440F28072C0F240029446EB
:1050E00063441B02A3606B69EA696361AB69934621
:1050F000E3610023A361EFF3108C012787F310888D
:1051000046F6FC70C4F20400C268297C90464A420C
:105110005141202249420A404146413A0A40C26078
:10512000C2688CF310884AF20052A16868680A606D
:10513000CB62CB638B642A7A461ED205CA62802278
:1051400012060A614A618A615A4692694B628B6211
:10515000CA615A46D26903930A625A46D26A8E6677
:10516000904601225242944602922A784E66002AC4
:1051700000D0AAE0C14643086344029303324B6562
:105180008B654B46002B00D073E05B461B78002BF1
:1051900000D07CE028785B469B7823B35B46DB78C5
:1051A0009C469B01994663464E461B0133439A46F3
:1051B000022800D1A2E06646731E9E417642B446A4
:1051C00040F2030963464E461E40B44640F20609CB
:1051D000CC4466465346334346461B04334380263D
:1051E00076041E43B04640F2880C002366468B636B
:1051F0008B515E4640F2210C2033F35C66465B0324
:1052000099465B469E5D4B467607334346461E43B2
:10521000AA23DB03B0460B64012834D0E3681220D4
:10522000CB6043464B630A630F632200697C2856B8
:10523000FFF76AFE5A462223D15C0233D056220081
:10524000FFF762FE5A462323D15C0233D056220078
:10525000FFF75AFE45F254030020C0F247032360D3
:1052600005B0F0BCBB46B246A946A046F0BD0374EB
:1052700031E7002388208B630B50AA232878DB03B7
:105280000B640128CAD10023CB640B65C6E75B46DB
:105290005B7828789E01B1461E01B44602282BD0C7
:1052A0005E1EB3415B429A460323564633400633A3
:1052B00046461E4333004E4640F2001833436646CE
:1052C000334346461E43B04665E7012A19D9019388
:1052D00003ABEA686068009302ABFFF75DFE039AD8
:1052E000A1681004120610435A46D26A029B9146E6
:1052F00003220743024342E70923D9E740F2090C9E
:1053000067E7C14601270322634638E74143032983
:1053100003D9890801390029FCD1704770B54CF2D6
:10532000000443F6B0731E4AC4F27E04E252060043
:105330000D0006200968FFF7E9FF40F28013A5225F
:10534000EF21E250803B953AE254E154E254E35CB1
:10535000102B00D1C04603202968FFF7D7FF336820
:105360001A78E2B15B7C46F200015BB21A00C032EF
:10537000C4F20001920050580A4C204050501F21A6
:10538000012219408A404EF20011CEF200018C46F3
:1053900040F280115B099B0063445A501A6070BD53
:1053A00080AAFFFFFFFFFEFF44F6003310B582B076
:1053B00001934CF2000340F28012A521F724C4F2BD
:1053C0007E039950803A9D3999549C5499549B5C22
:1053D000082B00D1C04601680620FFF797FF4CF26A
:1053E000000243F6B0730B49C4F27E02D152D35A85
:1053F00063B143F6B07104E0019B013B0193535A42
:1054000023B1019B002BF7D1142000E0002002B053
:1054100010BDC04600AAFFFF3423002210B5C254BD
:105420004CF2000343F6B072C4F27E039B5A93B170
:10543000083004004CF2000340F224120120C4F2B0
:105440007E039958014399509958814399502000FF
:10545000FFF7AAFF10BD0400083421000430FFF755
:105460005DFFE7E7F0B54CF200041D0040F22C139D
:1054700083B00191C4F27E04E3585B0611D440F27C
:105480002C1605E0019B013B0193A3595B0608D450
:10549000019B002BF6D1FFF7BFFF1423180003B0C8
:1054A000F0BD4CF2000440F214137F26C4F27E04D7
:1054B000E75C3E40E6540026E65401911833E35879
:1054C0005B060CD52D36FF3605E0019901390191B7
:1054D000A3595B0603D5019B002BF6D1DBE74CF209
:1054E000000340F2F011C4F27E03595813000B4040
:1054F0000A42D3D0FFF790FF2B00CFE710B5182357
:10550000122241690400FFF7ADFF48B9A26A531C9B
:10551000A362E36A591CE162216B481E206300B953
:1055200010BD0121CBF6F0518C464CF2000140F247
:1055300010106344C4F27E011C0C0C529BB208385C
:105540000B5240F2301352780138CA5081221C3B72
:10555000CA54FF38E4E7C04670B582B0EFF3038366
:10556000103B5BB21A0046F20001C0329200C4F256
:1055700000015058284C9B002040505045F6F02226
:10558000C2F200029C583423E55C012D22D0022D8A
:105590002DD040F2F81310222000A169FFF762FF1E
:1055A000F0B94CF2000340F22812C4F27E039B587B
:1055B0006E461B072CD40223337020000830FFF7FF
:1055C000F3FE626853681BB1D2683000726098477E
:1055D00002B070BD2000FFF791FF0823984388B107
:1055E0002000FFF719FF6E4607233370E5E7192304
:1055F00011222000216AFFF735FF0028F0D16E4606
:105600003070DAE7236B002BE2D16E463570D4E7B9
:1056100003233370D1E7C046FFFFFEFF70B50425BA
:1056200082B001910092455746F200012A00C03233
:105630009200C4F200015458214E34405450515845
:1056400045F2004448F20002C905C90D1143C4F2F5
:105650000004E2898A42FCD0082244F20001227050
:10566000019AC2F2000142B3AA008C58019D656004
:10567000009C14B18C58009DA5603F248958CA78BD
:10568000A243802A17D002B9CB8145F200431822E9
:10569000C4F200031A70042346F200028021C356AC
:1056A000C4F20002C0339B00985849040143002013
:1056B000995002B070BD8B81E7E7AA00D8E7C046D9
:1056C000FFFFFFFE0620704706207047042346F2C6
:1056D00000028021C356C4F20002C0339B009858D8
:1056E00049040143002099507047C046042346F204
:1056F0000002C356C4F20002C0339B00995802480E
:105700000140995000207047FFFFFFFE042244F241
:10571000000310B58256C2F200039200D258002353
:105720003F200B604B60D37883434BB1C13088601E
:10573000D48901382040C860802B07D0002010BDDC
:1057400080235B028B60D389CB60F7E780235B0209
:105750000B6093894B60F1E7042330B5C35646F2E2
:1057600000011A00C032C4F2000192005458064DE4
:105770009B002C40545044F200020021C2F200026F
:1057800099500160002030BDFFFFFFFEF0B50B0017
:105790003F25FF26DA781F00AA432AB1DC89E2B24E
:1057A000120234402243DA81BA781033AA43002A25
:1057B000F0D145F200430832C4F200031A7044F2FB
:1057C00000020078C2F2000240B28000815018222C
:1057D0001A70F0BD042346F2000270B5C356C4F23D
:1057E0000002C0339B00124C05009858204098508E
:1057F0009A5845F2004448F20003D205D20D1A43EC
:10580000C4F20004E3899342FCD0281DFFF7BEFFD9
:10581000042346F200028021EB56C4F20002C0339A
:105820009B009858490401430020995070BDC04620
:10583000FFFFFFFEF8B545F62C03C2F200031A780D
:1058400005000C00CAB1002263689A56002A39DBB1
:1058500044F200039100C2F20003CB58082003B1C8
:10586000F8BD2A71281D2168FFF790FF44F200332C
:10587000C4F2544300202B60F2E701271F70EFF3BE
:10588000108187F310884EF20003C4F20103DA6935
:105890000D480240DA61DB6981F3108844F20006AA
:1058A000C2F2000680220021300001F06AF845F2C1
:1058B00000430022C4F200035E601F7363689A56BF
:1058C000002AC5DA0B20CBE7FFFFBFFF4EF2000333
:1058D000402210B5C4F20103995C45F6783248F2D3
:1058E0000004C2F200021268C9B2A2421CD13622E0
:1058F0009A5C6AB138229A5C52B132229B5C3BB10D
:10590000EE23DB05184203D1042000F099FD0AE0E4
:10591000C1B140F20443C0F200431840984211D094
:10592000012000F08DFD10BD31B140F20443C0F202
:1059300000431840984209D148F28043C0F21E0348
:105940009A4203D8032000F07BFDECE743F20063AA
:10595000C0F26E139A42E6D8E2E7C04610B50020C6
:105960000C0000F0C1FE4CF2E473A400C0F200038E
:10597000E258012313701378012BFCD1002000F0B2
:1059800089FE012000F0B0FE4EF20003C4F20103D4
:10599000186AFFF79BFF012000F07CFE002010BD7D
:1059A0008268117AC907C90F137A9B07DB0F9942E6
:1059B000FAD141680B78012B03D0F1231372002038
:1059C0007047C36845F63000097CC2F200008900C8
:1059D0000B50013B9BB2538093801380F1231372D1
:1059E000137A9B07FCD501235B4253809380E6E743
:1059F00081680A7AD207D20F0B7A9B07DB0F9A4293
:105A0000FAD1F02300200B727047C04610B58468AD
:105A1000227AD207D20F237A9B07DB0F9A42FAD160
:105A200045F63003C1604068C2F20003027C920078
:105A3000D15002784B1E9BB232B9490889B26180BD
:105A4000A1800020238010BD012A03D00021022A5A
:105A5000F7D0F4E71900F2E78068027AD207D20F94
:105A6000037A9B07DB0F9A42FAD1037A9B07DB0F7D
:105A70000B71038800200B607047C04640F640025F
:105A8000F0B5DE4657464E464546C0F240029446C3
:105A9000E0B50B7C85B063441B0283604160EFF38B
:105AA0001086012282F3108803250F7C46F6FC73D2
:105AB000ED1BAA40C4F20403DC689443DC60DB689D
:105AC00086F31088002283681A721A7A9207D40F1C
:105AD000002AFADB072642689C7294460A7A9046AE
:105AE000CA6914791578A146D4783440002D00D0C5
:105AF00091E04546002D00D094E05578AA467725E0
:105B000056463540664636780195022E00D192E021
:105B100040F2070A9778554652463A403D4207D030
:105B2000033A57427A414D4604273D432A43914662
:105B30004A461A73019A65469A7342465C7245F664
:105B400030049A724A68C2F20004C2602D7CAD0033
:105B50002A51541EA4B2002E57D1520892B25A8034
:105B60009A801C801223CB56002B3BDB4EF2001296
:105B7000CEF20002944640F200389C08A40064442F
:105B800040F2FF0C424603256646A7584A7C1D405A
:105B9000ED0092013240AE40AA404546B7433A4339
:105BA000625145F6F0229C00C2F20002A0501A0099
:105BB00046F20004C032C4F20004920015592E4E81
:105BC000354015511F2401221C40A2404EF2001402
:105BD000CEF20004A44640F280145B099B006344AB
:105BE0001A511A604B6903618B6983610023436119
:105BF00044F25473C0F241030360002005B0F0BCCE
:105C0000BB46B246A946A046F0BD012E32D00022C6
:105C1000022EA6D0A3E72C43502D00D06DE740F212
:105C200000086AE7022546466E4035012C4340F2E3
:105C30000008E4B261E76546ED68AB4665466D680D
:105C40006F1E5D467D1B03955546EF435D460295ED
:105C50007D0701D1039D0295702755462F40702F77
:105C600001D1039DAB466D462F895D465F80AFB283
:105C70009F804DE7220072E7FFFFFEFFF0B5C646AA
:105C800000B584B0EFF30383103B5BB21A0046F219
:105C90000001C032C4F2000192005058214C9B0018
:105CA0002040505045F6F022C2F200029C58A168F4
:105CB00062680B7A1278DBB2012A23D022699C46F3
:105CC00062B3606901AB9846D0B119000600A8CE56
:105CD000A8C163469B0601D500230371A369036035
:105CE0009047636913B1454607CD07C3A1680A7A97
:105CF000D2B20F2313400B7204B080BCB846F0BD83
:105D00001800E6E7F4208A7B0872E538D2B28343B4
:105D10000B728A7322699C46002AD2D16346DAB29A
:105D2000E7E7C046FFFFFEFF0368828A00201A8073
:105D30007047C0460022036800201A807047C046A2
:105D4000036810314900CB5A002013807047C046C9
:105D5000F0B5454657464E46DE46E0B505000F68AD
:105D60006A683800526983B001924A688C6890462C
:105D7000864BA44618401A4023402C6886B2A68061
:105D800096B2A6829EB22681120C1B0C060CE680EF
:105D9000E282638143463B439846C02342469B05CB
:105DA0001A4200D08CE0CB68002B00D1E0E01A89C9
:105DB0009246160545D540F2900C6646A2535E8980
:105DC00040F29C0CB04666464246A2539A8940F285
:105DD0009E0C904662464646A6521A6840F29408C7
:105DE000944692B2914642464E46A65262461201EF
:105DF000120D904640F2960946464A46A652624621
:105E0000120F944640F2920866464246A6545A68DB
:105E100040F29808944692B2914642464E46A652A7
:105E200062461201120D904640F29A0946464A46D1
:105E3000A6526246120F944640F2930866464246C6
:105E4000A6545246960525D490235246E2520A8A19
:105E5000103BE252019BDB7873B11F2326889E43DF
:105E6000002800D189E000F031FD1F36301A80B2E1
:105E70002080AB8A1843A88244F243430020C5F235
:105E80004123EB602F6103B0F0BCBB46B246A9468C
:105E9000A046F0BD9A7C40F2A60894466646DA7C9D
:105EA00040F2A80C16434246A654DA899046624650
:105EB0004646A6521B8A9C46AA236246E252C3E784
:105EC0004EF20003C4F201031B6A45F6783B9A4682
:105ED0001A0E07231A409146C2F2000B5A464E464C
:105EE0001268B24056463340DA4040F2E833B2FB23
:105EF000F3F241F288335A4344F24023C0F20F03D5
:105F0000B2FBF3F20132072A35D380235B059946B1
:105F100043464E4633409A4646464B461E420CD0B8
:105F200040F2DE0A5646D3B2A35566464B4633408E
:105F30005E1EB3410133FF339A4680239B05994689
:105F400043464E4633420CD040F2DF084346D2B2BD
:105F5000E2546346334212D1534640F200221343C7
:105F60009A4653469BB26382CB68002B00D01EE753
:105F700040F2000A68E70722C7E7202075E753468A
:105F800040F2022213439A46EBE7C046FFFFFFCFE1
:105F90001F21012201408A404EF2001143092033A3
:105FA000CEF200019B005A50BFF34F8FBFF36F8FAB
:105FB00045F6F0230022C2F200038000C250704771
:105FC000002370B58360C360040043680620185640
:105FD0005D69002802DBFFF7DBFF636807201856C6
:105FE000002801DBFFF7D4FF06202856002801DB3C
:105FF000FFF7CEFF07202856002801DBFFF7C8FF78
:10600000002223681A821A80EFF31080012383F3A1
:106010001088616846F6FC720C881021091B8B40C1
:10602000C4F20402D5682B43D360D36880F3108890
:10603000002070BDF0B50D6806000C00170089B097
:106040009DB120222900684600F092FC20223900F0
:10605000280000F08DFC2800B047206818B12022ED
:10606000694600F085FC09B0F0BD1500F3E7C046B5
:1060700030B589B0EFF3038345F6F022103B5BB2F5
:10608000C2F200029B009958EFF3038346F200022C
:10609000103B5BB2C033C4F200029B009C580A4D17
:1060A0002C409C506B466A4698704B6888691B88E8
:1060B0001380002313720B6A019310B11C31FFF798
:1060C000B9FF09B030BDC046FFFFFEFFF0B54E4638
:1060D0004546DE4657464CF20002CB68E0B54E69B5
:1060E00083610B69C4F20502036200239446C36115
:1060F0000B8841605B02634403608B784A790C0033
:106100005B0311020B433179050083B0890700D589
:1061100055E140210B43F178002900D144E140F2E0
:10612000802003439BB240F2000CAB82022A00D1D4
:1061300049E120797278C003520110433778019009
:10614000EFF31089012282F3108846F6FC72C4F244
:106150000402D06840F2100A8046208883465046E8
:106160005946401A010001208840010040468843FA
:10617000D060D26889F3108847F6FF512A680B4037
:106180001380634613826B469888D08117733379E6
:10619000990700D51FE18A2153540623E356002BAB
:1061A0003EDB4EF2001240F2003940F2FF08CEF220
:1061B000000294464A4603204746990889006144F4
:1061C0008A5818409446227AC00092013A4087408B
:1061D000824038006746874348463A430A5045F6AE
:1061E000F0229900C2F200028D501A0046F200011E
:1061F000C032C4F20001920050587C4F38405050D9
:106200001F21012219408A404EF20011CEF20001F6
:106210008C4640F280115B099B0063445A501A601F
:106220000723E356002B39DB4EF20012CEF20002B8
:10623000944640F20037990889006144CA59032006
:106240009446627AFF2418409201C00022408240A6
:1062500084406046A0430243CA5145F6F0229900AB
:10626000C2F200028D501A0046F20001C032C4F2A0
:106270000001920050585D4C204050501F210122D7
:1062800019408A404EF20011CEF200018C4640F2D5
:1062900080115B099B0063445A501A600623F35631
:1062A000002B3BDB4EF20012CEF20002944640F28D
:1062B000003899088900614440F2FF0C42460320EF
:1062C00064468F58327A1840C000920122408440C0
:1062D00082404046A7433A430A5045F6F0229900CF
:1062E000C2F200028D501A0046F20001C032C4F220
:1062F0000001920050583D4C204050501F21012277
:1063000019408A404EF20011CEF200018C4640F254
:1063100080115B099B0063445A501A600723F356AF
:10632000002B32DB4EF200120320CEF20002944624
:10633000727AFF2640F200341840C00092013240C9
:10634000864082409908890061440F59B7433A4317
:106350000A5145F6F0229900C2F200028D501A004F
:1063600046F20001C032C4F20001920050581F4CA6
:10637000204050501F21012219408A4040F28011D4
:106380005B099B0063445A501A6000232B6144F25E
:1063900043430020C5F24123AB6003B0F0BCBB46D1
:1063A000B246A946A046F0BD002A00D0BAE648F29F
:1063B000000213439BB240F2000CAB82B9E640F2FC
:1063C00040410B43A7E64CF2F8728900C0F200028C
:1063D000525A9446ADE603210B43873153540120B2
:1063E000893900F0EFF82A683379D4E6FFFFFEFF21
:1063F00010B50020FFF73CFE10BDC0464EF2000372
:10640000A022C4F201039A5C824217D036229A5C21
:106410001AB93C215A5CD207FCD54EF20002A021E9
:10642000C4F20102535CDB06FCD450544EF200026D
:10643000A021C4F20102535CDB06FCD47047C046C5
:106440004EF20002AA2110B5C4F20102042810D0B5
:10645000535CDB06DC0F002BFADB54544EF20002D7
:10646000AA21C4F20102535C002BFCD1FFF7C6FF46
:1064700010BD535CDB06FCD4012353544EF20002E2
:10648000AA21C4F20102535CDB06FCD4F0E7C0464B
:106490004EF20003262244F22811C4F20103985C54
:1064A0001B6A8000C2F2000141585B015B0F45F698
:1064B0007832D940C2F2000211607047F8B54EF24E
:1064C000000340F2FE323A49C4F2010399524CF201
:1064D0000002002043F6C871C4F27E02505444F218
:1064E000281546F60042C2F20005C0F2DC222A60FE
:1064F00041F20022C0F27A026A6048F2000242F2DF
:106500000041AA602A612622C0F2F401E960995C88
:106510001A6A890069585201520F45F67836D140FF
:1065200040F21342C2F20006316098540921A222BF
:10653000995440F28042995C002932D04EF2000416
:10654000002740F28143C4F20104E754013BE754C1
:106550000020FFF753FF36233C22E754A35CDB0700
:10656000FCD526230022E25440F20122C0F20012A0
:106570002262E25C236A9200AA585B015B0FDA4058
:1065800001203260FFF75CFF40F2FE33094A01212F
:10659000E2524CF2000343F6C872C4F27E039954EF
:1065A000F8BD013140F2C440995400F00BF8C5E742
:1065B00003A5FFFF00A5FFFF7047C0460138002874
:1065C000FCD1704745F678324CF600234143C2F2C5
:1065D000000270B51468C3F69A330D00B3FBF4F4EF
:1065E000080040F2E8320023002100F08DF931B9B3
:1065F000B0FBF4F0800808B1FFF7E0FF70BDA40025
:10660000B5FBF4F040F2E8320023002100F07CF901
:106610000029F0D001204042FFF7D0FFEEE7C0464E
:1066200046F2000340F2401270B500240126C4F285
:1066300000039D5AADB22B00E340E0B21E4209D0E8
:1066400045F6AC22C2F200029446A30063441B68E4
:1066500003B198470134102CEDD146F2000340F20B
:106660003012C4F200039D5270BDC04646F20000D5
:106670000023C4F200004CF26872C0F200029A18C3
:1066800011781A00C032920001331150202BF2D140
:106690007047C04670B5EFF31081012383F3108873
:1066A00045F670334000C2F200031A5A1AB11A5A62
:1066B000013A92B21A521B5A83B94EF2000240F2CA
:1066C000FE354CF60404C4F20102565B054BC0F2E1
:1066D0000004205A334383439BB2535381F3108801
:1066E00070BDC04600A5FFFF70B5EFF31081012318
:1066F00083F3108845F670324000C2F20002135A4C
:1067000083B94EF200044CF6040540F2FE36C4F2A2
:106710000104C0F20005A35B2D5A2B434AF2005539
:106720002B43A353135A01339BB2135281F31088A6
:1067300070BDC04645F63802C2F200020300106880
:1067400010B558B1032103338B4345F69071C3183C
:10675000C2F200018B4207D8136010BD45F690309D
:10676000C2F200001060EDE700F0FCF80C230360BB
:1067700001204042F1E7C04600BE704710B500F06E
:1067800003F8FCF77DFCFEE740F200034EF60052F2
:1067900070B5CEF20002C0F2000382B09360002018
:1067A000FCF752FCFFF78AFE6B460026DC1D2670C4
:1067B00001202378FFF798FFEFF31081012585F37F
:1067C000108846F6FC73C4F204039A683D48024000
:1067D0009A609A6881F3108840F60001C4F20401BF
:1067E0000A68D207D20F22700A68D207D20F22702D
:1067F0000A68D207D20F2270EFF3108185F3108858
:1068000080229868520502439A609B6881F3108841
:106810000120FFF73FFF0120FCF716FC40F6005374
:10682000294AC4F200039E801A8045F69072C2F293
:1068300000029A6046F29032C2F20002DA6046F23A
:10684000000240F2201141F20000C4F20002505256
:1068500045F68C3244F24010C2F20002C2F200004F
:106860009D800021121A00F08CF844F2800044F25E
:1068700028124CF6A801C2F20000C2F20002121A5D
:10688000C0F2000100F074F844F2201544F2241321
:10689000C2F20005C2F200035B1B9E10002B05DD57
:1068A000002408CD01349847A642FADCFFF7F0FD3A
:1068B0000220FCF7C9FBFFF7D9FE0020FFF77CFEA2
:1068C00002B070BDFFFFFFEF00A5FFFF1C210123F9
:1068D0001B04984201D3000C10391B0A984201D3C3
:1068E000000A08391B09984201D30009043902A2A1
:1068F000105C40187047C046040302020101010108
:106900000000000000000000F0B5CE4647464FF6FC
:10691000FF7580B50700280015400E002900140CF3
:10692000384099463B0C41435D4360436343401903
:106930000C0C24189C46A54203D980235B02984680
:10694000C4444B464FF6FF707B437243250C6544AD
:1069500024040840591920188918C0BCB946B0460B
:10696000F0BDC046014B18687047C046BC400020CF
:10697000002310B59A4200D110BDCC5CC454013341
:10698000F8E703008218934200D170471970013371
:10699000F9E7FFFF0FB40A4B13B51C6824B1A369D4
:1069A00013B9200000F094FA05AB2000049AA16806
:1069B000019300F0C5FD16BC08BC04B01847C046E2
:1069C000BC40002070B505000E0018B183690BB9FA
:1069D00000F07EFAAB69AC6813B9280000F078FAD1
:1069E0002C4B9C4220D16C68636EDB0705D4A389D5
:1069F0009B0502D4A06D00F00AFBA3891B0701D5FB
:106A0000236943BB2100280000F0C6F818B3012514
:106A10006D42636EDB0705D4A3899B0502D4A06D8C
:106A200000F0F6FA280070BD1B4B9C4201D1AC6807
:106A3000DAE71A4B9C42D7D1EC68D5E70136A36060
:106A4000002B04DAA2699A4216DC0A2914D02368C2
:106A50005A1C22601970A3683178013B0029EDD1DE
:106A6000A360002B0FDA280022000A3100F042F860
:106A70000A25431CCDD1CAE72200280000F03AF8CD
:106A8000431CE8D1C3E70A2523685A1C22601D7005
:106A9000BFE7C04630C8000050C8000010C8000062
:106AA00010B5034B01001868FFF78CFF10BDC046FE
:106AB000BC4000200EB400B50B499CB01DAB029049
:106AC0000690079104910948094904CB0591006893
:106AD00002A9019300F00EFC0023029A13701CB06F
:106AE00008BC03B01847C046FFFFFF7FBC40002032
:106AF0000802FFFFF8B505000E00140018B1836905
:106B00000BB900F0E5F9214B9C422CD16C68A369CC
:106B1000A360A3891B0730D52369002B2DD02368E0
:106B20002269F7B2981A6369F6B2834204DC210045
:106B3000280000F02FF930BBA3680130013BA360AF
:106B400023685A1C22601F706369834204D0A389A2
:106B5000DB0706D50A2E04D12100280000F01AF91F
:106B600088B93000F8BD0A4B9C4201D1AC68CEE731
:106B7000084B9C42CBD1EC68C9E72100280000F00B
:106B80000BF80028CBD001267642EAE730C8000097
:106B900050C8000010C80000354B70B51D680600D5
:106BA0000C0025B1AB6913B9280000F091F9314B05
:106BB0009C420FD16C680C23E25E93B211072CD477
:106BC000D90611D409230120336037331343A3813D
:106BD000404270BD284B9C4201D1AC68EBE7274B8B
:106BE0009C42E8D1EC68E6E75B0712D5616B41B1E6
:106BF00023004433994202D0300000F073FA00239E
:106C000063632422A3899343A381002363602369E0
:106C100023600823A2891343A38123695BB940F24F
:106C2000802140F20022A3890B40934203D021002F
:106C3000300000F017FA0C22A35E01201A0099B26E
:106C4000024003420FD00022A26062695242A26158
:106C500022690020002ABCD10A06BAD5402213437B
:106C6000A3810138B5E7880700D46269A260EFE725
:106C7000BC40002030C8000050C8000010C8000010
:106C8000F7B58B8905000C001A075DD44A68002A05
:106C900004DC0A6C002A01DC0020FEBDE76A002F3C
:106CA000FAD0002241F200012E682A601A000A4040
:106CB0000B4232D0606DA3895B0705D56368C01AAB
:106CC000636B0BB1236CC01A0200216A00232800F9
:106CD000E76AB847A189431C06D12B681D2B30D821
:106CE0002B4ADA40D3072CD5002363602369236045
:106CF000CB0404D5431C01D12B6803B96065616BDB
:106D00002E600029C8D023004433994202D02800C5
:106D100000F0E8F900206063BFE701232800216A42
:106D2000B847431CC7D12B68002BC4D01D2B01D002
:106D3000162B01D12E60AFE74023A2891343A38114
:106D4000ABE740230B43FAE70F69002FA4D00A6892
:106D50000F60D21B019200229B0700D14A69A260FA
:106D6000019B002B98DD3A002800019B216AA66A4E
:106D7000B047002806DC40230120A289404213438B
:106D8000A3818AE7019B3F181B1A0193E8E7C046DD
:106D9000010040200B6970B505000C0013B90025F7
:106DA000280070BD18B183690BB900F091F8144B3D
:106DB0009C421BD16C680C22A35E002BEFD0626E4C
:106DC000D20704D49B0502D4A06D00F020F928005E
:106DD0002100FFF755FF636E0500DB07E0D4A389B0
:106DE0009B05DDD4A06D00F013F9D9E7054B9C425B
:106DF00001D1AC68DFE7044B9C42DCD1EC68DAE7F8
:106E000030C8000050C8000010C80000002310B5B2
:106E10000400036043608360818143661900C2817E
:106E200003614361836108225C30FFF7AAFD054BD3
:106E30006362054B2462A362044BE362044B236349
:106E400010BDC046B97A0000E17A0000197B00004D
:106E5000457B000010B5024900F0B8F810BDC046EF
:106E6000956D000070B568254A1E55430E00290037
:106E7000743100F081F9040040B100212A00016062
:106E800046600C30A0606832FFF77BFD200070BDCB
:106E900010B5024800F0BBF810BDC046845B00206E
:106EA00010B5024800F0B4F810BDC046845B002065
:106EB00010B5024800F0ABF810BDC0467F5B002063
:106EC00010B5024800F0A4F810BDC0467F5B00205A
:106ED00013B50400FFF7ECFFA36913B1FFF7F0FF50
:106EE00013BDA364E3642365134B144A1B68A262B9
:106EF0000193A34201D10123A361200000F020F8F7
:106F00006060200000F01CF8A060200000F018F87D
:106F100000220421E0606068FFF778FF0122092168
:106F2000A068FFF773FF02221221E068FFF76EFFEF
:106F30000123A361D2E7C0460CC80000556E0000D3
:106F4000F8B50700FFF7A4FF1E4B1E68B36913B91D
:106F50003000FFF7BDFF4836B4687368013B03D5C6
:106F600033680BB33668F7E70C22A55ED5B920006D
:106F7000154B5830E360656600F048F8FFF790FF66
:106F80002000082229002560A560656025616561F3
:106F9000A5615C30FFF7F5FC6563A563A564E56456
:106FA0002000F8BD6834D9E704213800FFF75AFF04
:106FB000040030600028D5D1FFF772FF0C233B603E
:106FC000EEE7C0460CC800000100FFFFF7B5040063
:106FD00006000027019148346368A5680093009B70
:106FE000013B009304D52468002CF5D13800FEBD88
:106FF000AB89012B08D90E22AB5E013304D02900E6
:107000003000019B984707436835E8E770477047B1
:107010007047FFFF70B50E001D000E23C95E1400FF
:1070200096B0002907DA00232B60B3891B0611D420
:1070300040F200430FE06A4600F0ACFD0028F2DBAE
:107040004FF2000301991940054BC9184B425941B1
:107050002960EDE740230020236016B070BDC046D4
:1070600000E0FFFFF7B502268B8905000C003342D4
:1070700006D0230047332360236101236361F7BDFA
:107080006A4601ABFFF7C6FF00990700280000F031
:1070900073F840B90C22A35E9A05F0D403229343FF
:1070A0001E43A681E5E70E4BAB628023A2892060D8
:1070B0001343A381009B20616361019B63B128009E
:1070C0000E23E15E00F078FD30B10322A3899343E3
:1070D0001A0001231343A381A0890743A781CEE7A8
:1070E000556E000070B5050081B10C1F2368002BA0
:1070F00000DAE418280000F09FFD1E4A1368110012
:107100002BB963601460280000F09EFD70BDA3429F
:107110000AD92268A018834203D118685B688218D4
:10712000226063600C60EEE71A005B680BB1A3425B
:10713000FAD911685018A0420BD1206809185018CC
:1071400011608342DFD118685B6841181160536099
:10715000D9E7A04202D90C232B60D4E7216860183C
:10716000834203D118685B684118216063605460F2
:10717000C9E7C0463C580020F8B50323CD1C9D4309
:10718000083506000C2D1DD20C25A9421CD8300054
:1071900000F052FD24490A681400CCB9234F3B6823
:1071A00023B92100300000F077FC3860290030005E
:1071B00000F072FC431C2BD10C233000336000F034
:1071C00043FD03E0002DE0DA0C2333600020F8BD1E
:1071D00023685B1B19D40B2B03D92360E4182560AB
:1071E00003E06368A2420ED10B60300000F02CFD7A
:1071F000200007220B30231D9043C21A9842E6D08C
:107200001B1AA350E3E75360EFE722006468C4E76A
:107210000323C41C9C43A042E1D0211A300000F09B
:107220003BFC431CDBD1C7E73C5800204058002002
:10723000F0B58E6885B007000C00039201939E4262
:107240003CD840F280438A891A4234D00325096928
:1072500023685B1A0293636902985D43EB0F5D1923
:10726000019B6D1001331B18AB4200D91D00530563
:1072700032D529003800FFF77FFF060048B90C23FC
:107280003B6040230120A28940421343A38105B003
:10729000F0BD029A2169FFF76BFBA389144A1A40DB
:1072A00080231343A381029B2661F6182660656143
:1072B000019EED1AA560019B9E4200D9019E3200FD
:1072C0000399206800F0A5FCA36800209B1BA36025
:1072D00023689E192660DAE72A00380000F0BCFC1B
:1072E00006000028DFD138002169FFF7FBFEC6E762
:1072F0007FFBFFFFF0B5A1B003901D008B890F004D
:1073000016001B060FD50B696BB94021FFF734FF40
:107310003860386128B90C23039A0138136021B012
:10732000F0BD40237B61002308AC636120336376AA
:107330001033A376079535002B780BB1252B47D159
:10734000AB1B0593B5420CD0320039000398FFF710
:107350006FFF431C00D1B0E06269059B9446634413
:1073600063612B78002B00D1A7E001220023524259
:10737000626004A9543252186E1C2360E360A3605B
:107380001370A36505223178544800F037FC751C52
:1073900000BB2268D30604D5532304A95B1820211F
:1073A0001970130704D5532304A95B182B211970F6
:1073B00033782A2B17D03500002140F20A0C012621
:1073C000E3682A78681C303A092A4BD989B917E052
:1073D0000135B1E7414B2268C01A012383401343B2
:1073E0002E002360CEE7079B191D1B680791002B19
:1073F00001DB0B9304E05B42E36002231343236051
:107400002B782E2B0AD16B782A2B34D1079B02358F
:107410001A1D1B680792002B2ADB0993304E0322AA
:107420003000297800F0EAFB30B14023801B834014
:1074300022680135134323602978062229486E1CEF
:10744000217600F0DBFB00283FD0274B4BBB072207
:10745000079B07339343083307936369049A9B1888
:10746000636168E761464B43050031009B18A8E75C
:1074700001235B42D1E7002340F20A0C1A000126E7
:10748000013563602978681C3039092903D9002B3C
:10749000C4D00992C2E763465A430500330052182C
:1074A000F0E707AB00933A002100104B039800E08F
:1074B00000BF0490049B0133CFD1BB890D985B06BC
:1074C00000D42CE70120404229E707AB00933A00A3
:1074D0002100064B039800F0D3F9EAE770C80000DA
:1074E00076C800007AC80000000000003172000079
:1074F000936810B5013B9360002B04DA9469A342B2
:1075000007DB0A2905D01368581C106019700800A1
:1075100010BDFFF7EFFA0100F9E7F8B506000F001C
:107520001400D518AC4201D1002007E021783A00C0
:107530003000FFF7DDFF0134431CF3D1F8BDFFFF3E
:10754000F0B5A1B007000C001E00039218B18369CA
:107550000BB9FFF7BDFC8B4B9C421AD17C68636E64
:10756000DB0705D4A3899B0502D4A06DFFF74FFD6F
:10757000A3891B0701D52369E3B921003800FFF770
:107580000BFBB8B1636EDB070DD50120404221B083
:10759000F0BD7D4B9C4201D1BC68E0E77B4B9C4237
:1075A000DDD1FC68DBE7A3899B05EED4A06DFFF776
:1075B0002FFDEAE7002308AD6B6120336B761033B3
:1075C000AB760796039E33780BB1252B4DD1039BE9
:1075D000F31A0593039B9E420DD0059B21003800B2
:1075E000039AFFF79AFF431C00D1B3E06A69059B39
:1075F000944663446B613378002B00D1AAE00122EA
:10760000731C0393002352426A6004A95432521837
:107610002B60EB60AB601370AB65039B05221978A0
:107620005B4800F0EBFA039B5E1C00BB2A68D306A4
:1076300004D5532304A95B1820211970130704D51E
:10764000532304A95B182B211970039B1B782A2B49
:1076500016D0002140F20A0CEB68039E3278701CB1
:10766000303A092A4CD989B917E00136ABE7484BC3
:107670002A68C01A0123834013432B600396CCE78A
:10768000079B191D1B680791002B01DB0B9304E07E
:107690005B42EB60022313432B6033782E2B0AD11D
:1076A00073782A2B35D1079B02361A1D1B68079267
:1076B000002B2BDB099303223178364800F09EFA29
:1076C00038B1344B2A68C01A402383401343013633
:1076D0002B603178731C06222F480393297600F023
:1076E0008DFA002845D02D4B43BB0722079B07335B
:1076F0009343083307936B69049A9B186B6161E7A6
:1077000061464B43060001219B18A7E701235B421A
:10771000D0E7002340F20A0C1A0001366B60317882
:10772000701C3039092903D9002BC4D00992C2E753
:1077300063465A43060001235218F0E707AB009353
:10774000220029003800164B00E000BF0490049B83
:107750000133D0D1636EDB0705D4A3899B0502D426
:10776000A06DFFF755FCA3895B0600D50DE70D98CA
:107770000DE707AB0093220029003800084B00F00A
:107780007FF8E3E730C8000050C8000010C80000D0
:1077900070C8000076C800007AC800000000000031
:1077A0001B750000F7B5150001938A680B690C0082
:1077B0000090934200DA130022002B6043321278CB
:1077C0000AB101332B6023689B0602D52B68023374
:1077D0002B602268062317001F401A4227D023007F
:1077E00043331B785A1E93412268920630D42200FC
:1077F00001990098089E4332B047431C25D00623C8
:1078000020682A68E16800250340042B03D18D1A03
:10781000EB43DB171D40A3682269934201DD9B1AED
:10782000ED180027BD4220D1002010E00137E368A9
:107830002A689B1ABB42D2DD2200012301990098DD
:10784000089E1932B047431CF0D101204042FEBDD2
:107850003020E1184331087021005A1C4531097865
:10786000A218433202331170C1E7220001230199AB
:107870000098089E1A32B047431CE6D00137D1E782
:10788000F0B50E0089B00492039005930C00097EB8
:107890000E9A4336782907D8622909D8002900D1E1
:1078A000BCE0582900D184E025004235297022E04F
:1078B000080063381528F7D800F00EFA16001F00EC
:1078C000F6FFF6FFF6FFF6FF1F00F6FFF6FFF6FFE6
:1078D000F6FFA30034009200F6FFF6FFB400F6FFB7
:1078E0003400F6FFF6FF9600250013684235191D97
:1078F0001B6811602B700123A1E013682068191D1B
:10790000050609D51B681160002B02DA2D225B42A7
:1079100032700A225E4914E01B6811604006F3D5FC
:107920001BB2F1E713682568181D10601B682F064D
:107930003BD56F2962D00A225549200000254330EB
:1079400005706068A060002803DB04252768AF434A
:1079500027600BB9350060B13500B3FBF2FC60461F
:107960005043181A085C013D287018006346824293
:10797000F3D9082A09D12368DB0706D56368226991
:10798000934202DC3023013D2B70761B2661059B60
:10799000210000930398049B07AAFFF703FF431CF1
:1079A00051D10120404209B0F0BD6D06C1D59BB256
:1079B000BFE723004533197035491068256808C8AA
:1079C00010602F0616D5EA0702D520221543256040
:1079D0001022002BB1D12020256885432560ACE71B
:1079E000202321680B43236023007821453319703D
:1079F0002849E2E76F06E6D59BB2E4E7082224496E
:107A00009BE713682568181D616910601B682F06C5
:107A100001D5196002E06D06FBD519800023350001
:107A20002361B4E71368191D11601D680021280047
:107A3000626800F0E3F808B1401B6060636823618E
:107A400000233370A3E72A00236904990398059D56
:107A5000A847431CA5D023689B0716D4079BE06862
:107A60009842A0DA18009EE72200012304990398A7
:107A7000059E1932B047431C00D192E70135E368F7
:107A8000079A9B1AAB42EFDCE8E70025F7E7C04610
:107A900081C8000092C80000002370B5054D0400A5
:107AA00008002B60FEF746FE431C02D12B6803B191
:107AB000236070BD885B002070B50C000E25495F07
:107AC00000F0F0F8002803DB636D1B18636570BDE0
:107AD000A389024A1340A381F9E7C046FFEFFFFFE5
:107AE000F8B51F008B8905000C001600DB0505D5D5
:107AF0000E23C95E0022022300F06EF8A389054A16
:107B000028001340A38132000E23E15E3B0000F009
:107B10001FF8F8BDFFEFFFFF70B50C000E25495FA1
:107B200000F05AF8A389421C03D1054A1340A381EF
:107B300070BD41F200021343A3816065F8E7C046BF
:107B4000FFEFFFFF10B50E23C95E00F013F810BD64
:107B500070B50400080011001A000023044D2B60CA
:107B6000FBF728F8431C02D12B6803B1236070BDDA
:107B7000885B0020002370B5054D040008002B60D1
:107B800000F0B4F8431C02D12B6803B1236070BD30
:107B9000885B0020002370B5064D0400080011002A
:107BA0002B6000F0ADF8431C02D12B6803B12360B9
:107BB00070BDC046885B0020002370B5054D0400F1
:107BC00008002B6000F0A6F8431C02D12B6803B11B
:107BD000236070BD885B002070B5040008001100B0
:107BE0001A000023044D2B6000F09CF8431C02D1C6
:107BF0002B6803B1236070BD885B0020C9B2821876
:107C0000904201D10020704703788B42FBD00130B5
:107C1000F6E710B5884202D98B18984203D30023A7
:107C200007E08B5C8354013AFBD210BDCC5CC4549A
:107C300001339A42FAD1F8E710B50248FFF7E7F9A5
:107C400010BDC046805B002010B50248FFF7E0F988
:107C500010BDC046805B0020F8B507000D0016007F
:107C600029B91100FFF788FA04002000F8BD1AB9FD
:107C7000FFF738FA3400F8E700F026F82C00B0429D
:107C8000F3D231003800FFF777FA04000028ECD077
:107C900029003200FEF76CFE29003800FFF722FAB7
:107CA000E3E7FFFF70B50400080011001A0000238D
:107CB000044D2B6000F040F8431C02D12B6803B147
:107CC000236070BD885B00200B1F1B68181F002BF2
:107CD00001DA0B58C018704703B4714649084000D8
:107CE0004900095E49008E4403BC704745F688335D
:107CF00058220120C2F2000340421A607047C04679
:107D000045F6883358220120C2F2000340421A602F
:107D10007047C04645F688335822C2F2000300205F
:107D20001A60704745F6883358220120C2F20003DA
:107D300040421A607047C04645F6883358220120F9
:107D4000C2F2000340421A607047C0464275696C37
:107D50007420776974682052656E65736173204181
:107D60006476616E63656420466C657869626C65F3
:107D700020536F667477617265205061636B616731
:107D8000652076657273696F6E20332E362E300053
:107D9000332E362E3000000000000603F8B5C04632
:107DA000F8BC08BC9E467047F8B5C046F8BC08BC95
:107DB0009E467047E5B08FE5AF9200E5A4A7E5AF1A
:107DC0009200E7AB8BE698A500E99BA8E6B0B4006B
:107DD000E6838AE89BB000E698A5E5888600E6B8C9
:107DE00085E6988E00E8B0B7E99BA800E7AB8BE585
:107DF000A48F00E5B08FE6BBA100E88A92E7A78DCB
:107E000000E5A48FE887B300E5B08FE69A9100E51E
:107E1000A4A7E69A9100E7AB8BE7A78B00E5A484C3
:107E2000E69A9100E799BDE99CB200E7A78BE58847
:107E30008600E5AF92E99CB200E99C9CE9998D002F
:107E4000E7AB8BE586AC00E5B08FE99BAA00E5A423
:107E5000A7E99BAA00E586ACE887B300E794B300E6
:107E6000E9858900E6888C00E4BAA500E5AD9000BC
:107E7000E4B89100E5AF8500E58DAF00E8BEB00045
:107E8000E5B7B300E58D8800E69CAA00E69CAAE76A
:107E90009FA500E5889DE4B88000E5889DE4BA8C44
:107EA00000E5889DE4B88900E5889DE59B9B00E599
:107EB000889DE4BA9400E5889DE585AD00E5889D40
:107EC000E4B88300E5889DE585AB00E5889DE4B9CD
:107ED0009D00E5889DE58D8100E58D81E4B88000F9
:107EE000E58D81E4BA8C00E58D81E4B88900E58DEB
:107EF00081E59B9B00E58D81E4BA9400E58D81E5E9
:107F000085AD00E58D81E4B88300E58D81E585AB25
:107F100000E58D81E4B99D00E4BA8CE58D8100E532
:107F2000BBBFE4B88000E5BBBFE4BA8C00E5BBBFD3
:107F3000E4B88900E5BBBFE59B9B00E5BBBFE4BAA5
:107F40009400E5BBBFE585AD00E5BBBFE4B88300A9
:107F5000E5BBBFE585AB00E5BBBFE4B99D00E4B878
:107F600089E58D8100FFFFFF00000000E6B6A60056
:107F7000E69CAAE79FA500E6ADA3E69C8800E4BACC
:107F80008CE69C8800E4B889E69C8800E59B9BE62B
:107F90009C8800E4BA94E69C8800E585ADE69C8860
:107FA00000E4B883E69C8800E585ABE69C8800E4A5
:107FB000B99DE69C8800E58D81E69C8800E586AC4D
:107FC000E69C8800E8858AE69C8800FFE5BA9A006E
:107FD000E8BE9B00E5A3AC00E799B800E794B200C7
:107FE000E4B99900E4B89900E4B88100E6888A0011
:107FF000E5B7B200E78CB400E9B8A100E78B9700C1
:10800000E78CAA00E9BCA000E7899B00E8998E00F4
:10801000E5859400E9BE9900E89B8700E9A9AC00DA
:10802000E7BE8A001F1C1F1E1F1E1F1F1E1F1E1FB4
:108030004EA6999CA2988000180010244EA6999CE8
:10804000A2988082180010244EA6D99EA298808201
:10805000180010044EE6D99EA6A8808218001000D1
:108060000FE6D9BEA6988882188000000FEFD9BE0F
:10807000A6998C82988000000FEFDBBEA6999CA287
:10808000988000180FEFDBBEA6999CA2988000187C
:108090000FEFDBBEA2998CA0988082180BEFDBBE9D
:1080A000A6998CA2988082180FEFDBBEE6D99EA21B
:1080B000988082180FEFFBBFE6D99EA698808218A1
:1080C0000FFFFFFCEFD9BEA6180000000000000063
:1080D00006140413061505140615061507170817C8
:1080E0000817081808160716CD0700006DB2000023
:1080F0005C1200002C190000959A0000941A0000F0
:108100004A1B0000554B0000D40A00005BF500003C
:10811000BA0400005A1200002BB900002A15000012
:1081200094160000AA960000AA150000B52A0100C6
:1081300074090000B614000057CA0000560A000077
:1081400026150000958E0000540D0000AA150000B1
:10815000B54900006C090000AED400009C1400007A
:108160004C1A000026BD0000A61A0000540B0000A7
:108170006A6D0000DA1200005D6901005A09000012
:108180009A1400004BDA00004A1A0000A41A0000FA
:1081900054BB0000B4160000DA0A00005B4900007E
:1081A0003609000097F40000961400004A150000FC
:1081B000A5B60000A40D0000B4150000B66A0000CA
:1081C0006E1200002F0901002E090000960C00001D
:1081D0004ACD00004A1D0000640D00006C950000AF
:1081E0005C1500005C1200002E7900002C190000C4
:1081F00095FA0000941A00004A1B000055AB0000DD
:10820000D40A0000DA1400005D8A00005A0A000057
:108210002B1501002A15000094160000AAD60000B4
:10822000AA150000B40A0000BA940000B6140000B9
:10823000560A000027750000260D000053EE0000CE
:10824000540D0000AA150000B5A900006C0900003B
:10825000AE1400004E8A00004C1A0000261D0100DA
:10826000A41A0000541B00006ACD0000DA0A0000C6
:108270005C0900009D9400009A1400002A1A000076
:10828000255B0000A41A000052FB0000B416000099
:10829000BA0A00005BA9000036090000961400002D
:1082A0004B9A00004A150000A5360100A40D0000FD
:1082B000AC150000B6CA00006E1200002E090000C6
:1082C000978C0000960A00004A0D0000A56D000082
:1082D000540D00006AF500005A1500005C0A000009
:1082E0002EB900002C150000941A00004A9D0000D1
:1082F0002A1B0000556B0100D40A0000DA140000AC
:108300005DCA00005A0A00001A15000095BA000064
:1083100054160000AA160000D54A0000B40A000056
:10832000BAF40000B6140000560A000017B50000A9
:10833000160D0000520E0000AA9600006A0D000003
:10834000B56501006C090000AE1400002ECA0000E3
:108350002C1A0000161D000052AD0000521B000038
:108360006A0B00006D6500005C0500005DF4000014
:108370005A1400002A1A000095DA0000A416000022
:10838000D21A00005A8B0000B60A00005B450100BB
:10839000B6080000561400002BD500002A15000076
:1083A00094160000AAB60000AA150000B60A000044
:1083B000B7640000AE08000057EC0000560A000049
:1083C0002A0D000095CD0000540B00006A15000036
:1083D0006D8A00005C090000AE140000564A0000DF
:1083E000541A00002ADD0000AA1A0000540B0000F5
:1083F0006AB50000DA1400005C090000AB740000EC
:108400009A1400004BFA000052160000AA16000051
:10841000D5CA0000B4050000CD0700003C9C0F0049
:10842000509E0F0045A00F0038A20F004CA40F0073
:1084300041A60F0036A80F0049AA0F003DAC0F005F
:1084400052AE0F0047B00F003AB20F004EB40F000B
:1084500043B60F0037B80F004ABA0F003FBC0F00F9
:1084600053BE0F0048C00F003CC20F0050C40F00A5
:1084700045C60F0039C80F004CCA0F0041CC0F0091
:1084800036CE0F004AD00F003DD20F0051D40F005E
:1084900046D60F003AD80F004DDA0F0043DC0F002C
:1084A00037DE0F004BE00F003FE20F0053E40F00F8
:1084B00048E60F003CE80F004FEA0F0044EC0F00C5
:1084C00038EE0F004CF00F0041F20F0036F40F00B1
:1084D0004AF60F003EF80F0051FA0F0046FC0F005D
:1084E0003AFE0F004E001000420210003704100048
:1084F0004B06100041081000530A1000480C1000F1
:108500003C0E10004F1010004412100038141000E0
:108510004C16100042181000351A1000491C1000AB
:108520003D1E100051201000452210003A2410007A
:108530004E26100043281000372A10004B2C100044
:108540003F2E100053301000473210003B34100013
:108550004F36100045381000383A10004C3C1000DF
:10856000423E100036401000494210003D441000C9
:1085700051461000464810003A4A10004E4C100078
:10858000434E1000385010004A5210003E54100064
:1085900052561000475810003B5A10004F5C100014
:1085A000455E1000396010004C62100041641000FC
:1085B00035661000496810003D6A1000516C1000CB
:1085C000476E10003C7010004F7210004474100091
:1085D000387610004C7810003F7A1000537C100061
:1085E000487E10003D80100050821000468410002C
:1085F0003A8610004E881000428A1000368C100017
:108600004A8E10003E9010005192100047941000C6
:108610003B9610004F981000439A1000379C1000B2
:108620004B9E100041A0100053A2100048A410005F
:108630003DA6100051A8100045AA100039AC10004A
:108640004DAE100042B0100036B210004AB4100017
:108650003EB6100052B8100047BA10003BBC1000E4
:108660004FBE100044C0100037C210004BC41000B1
:1086700041C6100054C8100048CA10003DCC10007C
:1086800050CE100045D0100039D210004CD410004C
:1086900042D6100037D810004ADA10003EDC100035
:1086A00052DE100047E010003AE210004EE41000E5
:1086B00043E6100038E810004BEA100041EC1000CF
:1086C00054EE100049F010003CF2100050F410007D
:1086D00045F6100039F810004CFA100042FC10006A
:1086E00037FE10004B0011003E0211005204110031
:1086F000470611003B0811004E0A1100430C1100FF
:10870000380E11004C1011003F12110035141100E9
:10871000481611003C1811004F1A1100451C110099
:10872000391E11004D201100422211003624110083
:108730004A2611003E281100512A1100462C110032
:108740003B2E11004F301100AC3300FF000000FF42
:10875000E00C0000E00C0000DC0C0000E00C00006D
:10876000880C0000E00C0000E00C0000E00C0000B1
:10877000F80C0000E00C0000E00C0000E00C000031
:10878000E00C0000E00C0000E00C0000E00C000039
:10879000FC0C0000E00C0000E00C0000E00C00000D
:1087A000E00C0000E00C0000E00C0000E00C000019
:1087B000E00C0000E00C0000E00C0000E00C000009
:1087C000E00C0000E00C0000E00C0000E00C0000F9
:1087D000F40C0000E697A500E4B88000E4BA8C0031
:1087E000E4B88900E59B9B00E4BA9400E585AD0000
:1087F000E697B6E997B4E8AEBEE7BDAE000000006C
:10880000E7A7BBE58AA80000E5878F00E58AA000FE
:10881000E58F96E6B68820E4BF9DE5AD98000000A0
:10882000E7A1AEE5AE9A00FF44656275673A204560
:1088300050445F32494E36365F7465737420446528
:108840006D6F0D0044656275673A205061696E7402
:108850005F4E6577496D6167650D00FF76626174F3
:108860003A256420566261743A25640A00000000CB
:10887000323025303264E5B9B425303264E69C8864
:1088800025303264E697A520E6989FE69C9F2573E5
:1088900020257325732573004A513A25640A000088
:1088A000E4BB8AE5A4A9E698AF257300E7A6BB253B
:1088B00073E8BF98E69C892564E5A4A90000000040
:1088C000257325732573E5B9B42025732025642EFF
:1088D0002530326456000000253032643A253032AB
:1088E0006400000043454C3A253032642E2564E292
:1088F0008483202052483A253032642E2564EFBC10
:108900008500FFFF616463323D25640A00000000BA
:10891000E7A6BB2573E8BF98E69C892564E5A4A972
:108920000A00000073656C6563743A25640A0000F0
:108930003230253032642D253032642D25303264BA
:1089400020253032643A253032643A2530326400D2
:10895000B21D0000281C0000E01B0000981B000056
:10896000501B0000081B0000C01A0000781A00000D
:10897000301A0000E8190000A01900005819000082
:1089800010190000A81C0000302F500BE88A0000CE
:108990002008105F1C9F0000FFFFF00FF00F800108
:1089A000BFFDBFFDBFFDBFFDBFFDBFFDBFFDBFFDE7
:1089B000BFFDBFFDBFFDBFFDBFFDBFFDBFFDBFFDD7
:1089C000BFFDBFFDBFFDBFFDBFFD8001FFFFFFFF7E
:1089D000FFFFF00FF00F8001BFFDA005A005A0056F
:1089E000BFFDA005A005A005BFFDA005A005A00531
:1089F000BFFDA005A005A005BFFDA005A005A00521
:108A0000BFFD8001FFFFFFFFFFFFF00FF00F8001B0
:108A1000BFFDBFFDBFFDBFFDBFFDBFFDBFFDBFFD76
:108A2000BFFDBFFDBFFDBFFDBFFDBFFDBFFDBFFD66
:108A3000BFFDA005A005A005BFFD8001FFFFFFFF52
:108A4000FFFFF00FF00F8001BFFDBFFDBFFDBFFDB9
:108A5000BFFDBFFDBFFDBFFDBFFDBFFDBFFDBFFD36
:108A6000BFFDA005A005A005BFFDA005A005A005B0
:108A7000BFFD8001FFFFFFFFFFFFF00FF00F800140
:108A8000BFFDBFFDBFFDBFFDBFFDBFFDBFFDBFFD06
:108A9000BFFDA005A005A005BFFDA005A005A00580
:108AA000BFFDA005A005A005BFFD8001FFFFFFFFE2
:108AB000FFFFF00FF00F8001BFFDBFFDBFFDBFFD49
:108AC000BFFDA005A005A005BFFDA005A005A00550
:108AD000BFFDA005A005A005BFFDA005A005A00540
:108AE000BFFD8001FFFFFFFFFFFFFFFFFFFFFFFF55
:108AF000FFFFFF80000007C0000003FFFF00000031
:108B00000380000001FFFE0000000100000000FFE4
:108B1000FF0000000100000001FFFF800000038053
:108B2000000003FFF7C0000007C0000007DFF7E008
:108B300000000FE000000FDFE3E000001FF0000086
:108B40000F8FC1F000003FF800001F07C0F80000C1
:108B50007FFC00003E07C07C0000FFFE00007C0799
:108B6000C03FFFFFFFFFFFFFF807C01FFFFFFFFF32
:108B7000FFFFF007C00FFFFFFFFFFFFFE007C00F81
:108B8000FFFFFFFFFFFFE007C00FFFFFFFFFFFFF3B
:108B9000E007C00FFFFFFFFFFFFFE007C00FFFFF71
:108BA000FFFFFFFFE007C00FFFFFFFFFFFFFE00732
:108BB000C00FFFFFFFFFFFFFE007C00FFFFFFFFF3A
:108BC000FFFFE007C00FFFFFFFFFFFFFE007C00F41
:108BD000FFFFFFFFFFFFE007C00FFFFFFFFFFFFFEB
:108BE000E007C00FFFFFFFFFFFFFE007C00FFFFF21
:108BF000FFFFFFFFE007C00FFFFFFFFFFFFFE007E2
:108C0000C00FFFFFFFFFFFFFE007C00FFFFFFFFFE9
:108C1000FFFFE007C00FFFFFFFFFFFFFE007C01FE0
:108C2000FFFFFFFFFFFFF007C03FFFFFFFFFFFFF5A
:108C3000F807C07C0000FFFE00007C07C0F80000C1
:108C40007FFC00003E07C1F000003FF800001F0756
:108C5000E3E000001FF000000F8FF7E000000FE0DE
:108C600000000FDFF7C0000007C0000007DFFF8033
:108C700000000380000003FFFF000000010000006F
:108C800001FFFE0000000100000000FFFF000000E7
:108C90000380000001FFFF80000007C0000003FF09
:108CA000FFFFFFFFFFFFFFFFFFFFFFFFFFFFFFFFD4
:108CB000FFFFFFFFFFFFFFFFFFFFFFFFFFFFFFFFC4
:108CC000FFFFFFFFFFFFFFFFFFFFFFFFFFFFFFFFB4
:108CD000FFFFFFFFFFFFFFFFFFFFFFFFFFFFFFFFA4
:108CE000FFFFFFFFFFFFFFFFFFFFFFFFFFFFFFFF94
:108CF000FFFFFFFFFFFFFFFFFFFFFFFFFFFFFFFF84
:108D0000FFFFFFFFFFFFFFFFFFFFFFFFFFFFFFFF73
:108D1000FFFFFFFFFFFFFFFFFFFFFFFFFFFFFFFF63
:108D2000FFFFFFFFFFFFFFFFFFFFFFFFFFFFFFFF53
:108D3000FFFFFFFFFFFFFFFFFFFFFFFFFFFFFFFF43
:108D4000FFFFFFFFFFFFFFFFFFFFFFFFFFFFFFFF33
:108D5000FFFFFFFFFFFFFFFFFFFFFFFFFFFFFFFF23
:108D6000FFFFFFFFFFFFFFFFFFFFFFFFFFFFFFFF13
:108D7000FFFFFFFFFFFFFFFFFFFFFFFFFFFFFFFF03
:108D8000FFFFFFFFFFFFFFFFFFFFFFFFFFFFFFFFF3
:108D9000FFFFFFFFFFFFFFFFFFFFFFFFFFFFFFFFE3
:108DA000FFFFFFFFFFFFFFFFFFFFFFFFFFFFFFFFD3
:108DB000FFFFFFFFFFFFFFFFFFFFFFFFFFFFFFFFC3
:108DC000FFFFFFFFFFFFFFFFFFFFFFFFFFFFFFFFB3
:108DD000FFFFFFFFFFFFFFFFFFFFFFFFFFFFFFFFA3
:108DE000FFFFFFFFFFFFFFFFFFFFFFFFFFFFFFFF93
:108DF000FFFFFFFFFFFFFFFFFFFFFFFFFFFFFFFF83
:108E0000FFFFFFFFFFFFFFFFFFFE0000FFFE000070
:108E1000FFFFFFFC00007FFC00007FFFFFF8000069
:108E20003FF800003FFFFFF000001FF000001FFFB1
:108E3000FFE000000FE000000FFFFFC0000007C0D0
:108E4000000007FFFF8000000380000003FFFF0019
:108E500000000100000001FFFF0000000100000011
:108E600001FFFF8000000380000003FFFFC000003F
:108E700007C0000007FFFFFFFFFFFFFFFFFFFFFF2F
:108E8000FFFFFFFFFFFFFFFFFFFFFFFFFFFFFFFFF2
:108E9000FFFFFFFFFFFFFFFFFFFFFFFFFFFFFFFFE2
:108EA000FFFFFF80000003FFFFFFFFFFFF00000048
:108EB00001FFFFFFFFFFFE00000000FFFFFFFFFFBD
:108EC000FF00000001FFFFFFFFFFFF80000003FF26
:108ED000F7FFFFFFFFC0000007DFF7FFFFFFFFE026
:108EE00000000FDFE3FFFFFFFFF000001F8FC1FF57
:108EF000FFFFFFF000001F07C0FFFFFFFCF80000AE
:108F00003E07C07FFFFFF87C00007C07C03FFFFFEB
:108F1000F03FFFFFF807C01FFFFFE01FFFFFF00754
:108F2000C00FFFFFC00FFFFFE007C00FFFFFC00F24
:108F3000FFFFE007C00FFFFFC00FFFFFE007C00FFC
:108F4000FFFFC00FFFFFE007C00FFFFFC00FFFFFD5
:108F5000E007C00FFFFFC00FFFFFE007C00FFFFFDC
:108F6000C00FFFFFE007C00FFFFFC00FFFFFE007CC
:108F7000C00FFFFFC00FFFFFE007C00FFFFFC00FD4
:108F8000FFFFE007C00FFFFFC00FFFFFE007C00FAC
:108F9000FFFFC00FFFFFE007C00FFFFFC00FFFFF85
:108FA000E007C00FFFFFC00FFFFFE007C00FFFFF8C
:108FB000C00FFFFFE007C00FFFFFC00FFFFFE0077C
:108FC000C00FFFFFC00FFFFFE007C01FFFFFE01F44
:108FD000FFFFF007C03FFFFFF03FFFFFF807C07C37
:108FE0000000F87FFFFFFC07C0F800007CFFFFFFD8
:108FF000FE07C1F000003FFFFFFFFF07E3E00000B6
:109000001FFFFFFFFF8FF7E000001FFFFFFFFFDFE5
:10901000F7C000000FFFFFFFFFDFFF80000007FF2A
:10902000FFFFFFFFFF00000003FFFFFFFFFFFE0049
:10903000000001FFFFFFFFFFFF00000003FFFFFF35
:10904000FFFFFF80000007FFFFFFFFFFFFFFFFFFA5
:10905000FFFFFFFFFFFFFFFFFFFFFFFFFFFFFFFF20
:10906000FFFFFFFFFFFFFFFFFFFFFFFFFFFFFFFF10
:10907000FFFFFFFFFFFFFFFFFFFFFFFFFFFFFFFF00
:10908000FFFFFFFFFFFFFFFFFFFFFFFFFFFFFFFFF0
:10909000FFFFFFFFFFFFFFFFFFFFFFFFFFFFFFFFE0
:1090A000FFFFFFFFFFFFF7FFFFFFFFFFFFFFFFDFF8
:1090B000E3FFFFFFFFFFFFFFFF8FC1FFFFFFFFFF8A
:1090C000FFFFFF07C0FFFFFFFCFFFFFFFE07C07FA2
:1090D000FFFFF87FFFFFFC07C03FFFFFF03FFFFFF0
:1090E000F807C03FFFFFF03FFFFFF807C01FFFFF7B
:1090F000E01FFFFFF007C00FFFFFC00FFFFFE007FB
:10910000C00FFFFFC00FFFFFE007C00FFFFFC00F42
:10911000FFFFE007C00FFFFFC00FFFFFE007C00F1A
:10912000FFFFC00FFFFFE007C00FFFFFC00FFFFFF3
:10913000E007C00FFFFFC00FFFFFE007C00FFFFFFA
:10914000C00FFFFFE007C00FFFFFC00FFFFFE007EA
:10915000C00FFFFFC00FFFFFE007C00FFFFFC00FF2
:10916000FFFFE007C00FFFFFC00FFFFFE007C00FCA
:10917000FFFFC00FFFFFE007C00FFFFFC00FFFFFA3
:10918000E007C00FFFFFC00FFFFFE007C00FFFFFAA
:10919000C00FFFFFE007C00FFFFFC00FFFFFE0079A
:1091A000C01FFFFFE01FFFFFF007C03FFFFFF03FC2
:1091B000FFFFF807C07C0000F87C00007C07C0F8C7
:1091C00000007CF800003E07C1F000003FF0000006
:1091D0001F07E3E000001FF000001F8FF7E0000012
:1091E0001FE000000FDFF7C000000FC0000007DF26
:1091F000FF8000000780000003FFFF000000030065
:10920000000001FFFE0000000000000000FFFF0062
:1092100000000300000001FFFF8000000780000045
:1092200003FFFFFFFFFFFFFFFFFFFFFFFFFFFFFF4A
:10923000FFFFFFFFFFFFFFFFFFFFFFFFFFFFFFFF3E
:10924000FFFFFFFFFFFFFFFFFFFFFFC0000003FF67
:10925000FFFFFFFFFF80000001FFFFFFFFFFFF0098
:10926000000000FFFFFFFFFFFF80000001FFFFFF86
:10927000FFFFFFC0000003FFFFFFFFFFFFE0000054
:1092800007FFFFFFFFFFFFF0000007FFFFFFFFFFEB
:10929000FFF800000FFFFFFFFFFFFFFC00001FFFB4
:1092A000FFFFFFFFFFFE00003E7FFFFFFFFFFFFF0E
:1092B00000007C3FFFFFFFFFFFFFFFFFF81FFFFFE6
:1092C000FFFFFFFFFFFFF00FFFFFFFFFFFFFFFFFAD
:1092D000E007FFFFFFFFFFFFFFFFE007FFFFFFFFCC
:1092E000FFFFFFFFE007FFFFFFFFFFFFFFFFE007BC
:1092F000FFFFFFFFFFFFFFFFE007FFFFFFFFFFFF95
:10930000FFFFE007FFFFFFFFFFFFFFFFE007FFFF9B
:10931000FFFFFFFFFFFFE007FFFFFFFFFFFFFFFF74
:10932000E007FFFFFFFFFFFFFFFFE007FFFFFFFF7B
:10933000FFFFFFFFE007FFFFFFFFFFFFFFFFE0076B
:10934000FFFFFFFFFFFFFFFFE007FFFFFFFFFFFF44
:10935000FFFFE007FFFFFFFFFFFFFFFFE007FFFF4B
:10936000FFFFFFFFFFFFE007FFFFFFFFFFFFFFFF24
:10937000E007FFFFFFFFFFFFFFFFF00FFFFFFFFF13
:10938000FFFFFFFFF81FFFFFFFFFFFFF00007C3E16
:109390000000FFFFFFFE00003E7C00007FFFFFFC9F
:1093A00000001FF800003FFFFFF800000FF0000072
:1093B0001FFFFFF0000007E000000FFFFFE00000CC
:1093C00007E0000007FFFFC0000003C0000003FF2C
:1093D000FF8000000180000001FFFF00000000008E
:1093E000000000FFFF8000000180000001FFFFC0BF
:1093F000000003C0000003FFFFFFFFFFFFFFFFFFB0
:10940000FFFFFFFFFFFFFFFFFFFFFFFFFFFFFFFF6C
:10941000FFFFFFFFFFFFFFFFFFFFFFFFFFFFFFFF5C
:10942000FF80000007FFFFFFFFFFFF00000003FFBA
:10943000FFFFFFFFFE00000001FFFFFFFFFFFF0037
:10944000000003FFFFFFFFFFFF80000007FFFFFF9B
:10945000FFFFF7C000000FFFFFFFFFDFF7E0000096
:109460001FFFFFFFFFDFE3E000001FFFFFFFFF8F95
:10947000C1F000003FFFFFFFFF07C0F800007CFFC6
:10948000FFFFFE07C07C0000F87FFFFFFC07C03F26
:10949000FFFFF03FFFFFF807C01FFFFFE01FFFFFC8
:1094A000F007C00FFFFFC00FFFFFE007C00FFFFF77
:1094B000C00FFFFFE007C00FFFFFC00FFFFFE00777
:1094C000C00FFFFFC00FFFFFE007C00FFFFFC00F7F
:1094D000FFFFE007C00FFFFFC00FFFFFE007C00F57
:1094E000FFFFC00FFFFFE007C00FFFFFC00FFFFF30
:1094F000E007C00FFFFFC00FFFFFE007C00FFFFF37
:10950000C00FFFFFE007C00FFFFFC00FFFFFE00726
:10951000C00FFFFFC00FFFFFE007C00FFFFFC00F2E
:10952000FFFFE007C00FFFFFC00FFFFFE007C00F06
:10953000FFFFC00FFFFFE007C00FFFFFC00FFFFFDF
:10954000E007C00FFFFFC00FFFFFE007C01FFFFFD6
:10955000E01FFFFFF007C03FFFFFF03FFFFFF807EE
:10956000C07FFFFFF87C00007C07C0FFFFFFFCF816
:1095700000003E07C1FFFFFFFFF000001F07E3FFF1
:10958000FFFFFFF000001F8FF7FFFFFFFFE000006D
:109590000FDFF7FFFFFFFFC0000007DFFFFFFFFF48
:1095A000FF80000003FFFFFFFFFFFF00000001FF3F
:1095B000FFFFFFFFFE00000000FFFFFFFFFFFF00B7
:1095C000000001FFFFFFFFFFFF80000003FFFFFF20
:1095D000FFFFFFFFFFFFFFFFFFFFFFFFFFFFFFFF9B
:1095E000FFFFFFFFFFFFFFFFFFFFFFFFFFFFFFFF8B
:1095F000FFFFFFFFFFFFFF8000000780000003FF69
:10960000FF0000000300000001FFFE00000000005A
:10961000000000FFFF0000000300000001FFFF80CA
:1096200000000780000003FFF7C000000FC000002B
:1096300007DFF7E000001FE000000FDFE3E00000BD
:109640001FF000001F8FC1F000003FF000001F0757
:10965000C0F800007CF800003E07C07C0000F87CE9
:1096600000007C07C03FFFFFF03FFFFFF807C01F6F
:10967000FFFFE01FFFFFF007C00FFFFFC00FFFFF5E
:10968000E007C00FFFFFC00FFFFFE007C00FFFFFA5
:10969000C00FFFFFE007C00FFFFFC00FFFFFE00795
:1096A000C00FFFFFC00FFFFFE007C00FFFFFC00F9D
:1096B000FFFFE007C00FFFFFC00FFFFFE007C00F75
:1096C000FFFFC00FFFFFE007C00FFFFFC00FFFFF4E
:1096D000E007C00FFFFFC00FFFFFE007C00FFFFF55
:1096E000C00FFFFFE007C00FFFFFC00FFFFFE00745
:1096F000C00FFFFFC00FFFFFE007C00FFFFFC00F4D
:10970000FFFFE007C00FFFFFC00FFFFFE007C00F24
:10971000FFFFC00FFFFFE007C00FFFFFC00FFFFFFD
:10972000E007C01FFFFFE01FFFFFF007C03FFFFF84
:10973000F03FFFFFF807C07FFFFFF87C00007C07C9
:10974000C0FFFFFFFCF800003E07C1FFFFFFFFF076
:1097500000001F07E3FFFFFFFFF000001F8FF7FF70
:10976000FFFFFFE000000FDFF7FFFFFFFFC000007B
:1097700007DFFFFFFFFFFF80000003FFFFFFFFFF8A
:10978000FF00000001FFFFFFFFFFFE00000000FFE1
:10979000FFFFFFFFFF00000001FFFFFFFFFFFF8053
:1097A000000003FFFFFFFFFFFFFFFFFFFFFFFFFFC3
:1097B000FFFFFFFFFFFFFFFFFFFFFFFFFFFFFFFFB9
:1097C000FFFFFFFFFFFFFFFFFFFFFFFFFFFFFFFFA9
:1097D000FFFFFFFFFFFFFFFFFFFFFFFFFFFFFFFF99
:1097E000FFFFFFFFFFFFFFFFFFFFFFFFFFFFFFFF89
:1097F000FFFFFFFFFFFFFFFFFFFFFFFFFFFFF7FF81
:10980000FFFFFFFFFFFFFFFFE3FFFFFFFFFFFFFF84
:10981000FFFFC1FFFFFFFFFFFFFFFFFFC0FFFFFFD5
:10982000FFFFFFFFFFFFC07FFFFFFFFFFFFFFFFF07
:10983000C03FFFFFFFFFFFFFFFFFC03FFFFFFFFF36
:10984000FFFFFFFFC01FFFFFFFFFFFFFFFFFC00F76
:10985000FFFFFFFFFFFFFFFFC00FFFFFFFFFFFFF47
:10986000FFFFC00FFFFFFFFFFFFFFFFFC00FFFFF66
:10987000FFFFFFFFFFFFC00FFFFFFFFFFFFFFFFF27
:10988000C00FFFFFFFFFFFFFFFFFC00FFFFFFFFF46
:10989000FFFFFFFFC00FFFFFFFFFFFFFFFFFC00F36
:1098A000FFFFFFFFFFFFFFFFC00FFFFFFFFFFFFFF7
:1098B000FFFFC00FFFFFFFFFFFFFFFFFC00FFFFF16
:1098C000FFFFFFFFFFFFC00FFFFFFFFFFFFFFFFFD7
:1098D000C00FFFFFFFFFFFFFFFFFC00FFFFFFFFFF6
:1098E000FFFFFFFFC00FFFFFFFFFFFFFFFFFC00FE6
:1098F000FFFFFFFFFFFFFFFFC01FFFFFFFFFFFFF97
:10990000FFFFC03FFFFFFFFFFFFFFFFFC07C000125
:10991000FFFC0001FFFFC0F80000FFF80000FFFFA0
:10992000C1F000007FF000007FFFE3E000003FE0B7
:1099300000003FFFF7C000001FC000001FFFF7C07E
:1099400000000F8000000FFFFF80000007000000F4
:1099500007FFFF0000000300000003FFFE000000FF
:109960000000000001FFFF0000000300000003FFF3
:10997000FF8000000780000007FFFFFFFFFFFFFFE1
:10998000FFFFFFFFFFFFFFFFFFFFFFFFFFFFFFFFE7
:10999000FFFFFFFFFFFFFFFFFFFFFFFFFFFFFFFFD7
:1099A000FFFFFF8000000780000003FFFF000000B2
:1099B0000300000001FFFE0000000000000000FFA7
:1099C000FF0000000300000001FFFF80000007808F
:1099D000000003FFF7C000000FC0000007DFF7E042
:1099E00000001FE000000FDFE3E000001FF00000B8
:1099F0001F8FC1F000003FF000001F07C0F80000FB
:109A00007CF800003E07C07C0000F87C00007C076A
:109A1000C03FFFFFF03FFFFFF807C01FFFFFE01F41
:109A2000FFFFF007C00FFFFFC00FFFFFE007C00FF1
:109A3000FFFFC00FFFFFE007C00FFFFFC00FFFFFDA
:109A4000E007C00FFFFFC00FFFFFE007C00FFFFFE1
:109A5000C00FFFFFE007C00FFFFFC00FFFFFE007D1
:109A6000C00FFFFFC00FFFFFE007C00FFFFFC00FD9
:109A7000FFFFE007C00FFFFFC00FFFFFE007C00FB1
:109A8000FFFFC00FFFFFE007C00FFFFFC00FFFFF8A
:109A9000E007C00FFFFFC00FFFFFE007C00FFFFF91
:109AA000C00FFFFFE007C00FFFFFC00FFFFFE00781
:109AB000C00FFFFFC00FFFFFE007C00FFFFFC00F89
:109AC000FFFFE007C00FFFFFC00FFFFFE007C01F51
:109AD000FFFFE01FFFFFF007C03FFFFFF03FFFFF6A
:109AE000F807C07C0000F87C00007C07C0F800008C
:109AF0007CF800003E07C1F000003FF000001F07A7
:109B0000E3E000001FF000001F8FF7E000001FE0FF
:109B100000000FDFF7C000000FC0000007DFFF806C
:109B200000000780000003FFFF00000003000000AA
:109B300001FFFE0000000000000000FFFF00000029
:109B40000300000001FFFF8000000780000003FF0A
:109B5000FFFFFFFFFFFFFFFFFFFFFFFFFFFFFFFF15
:109B6000FFFFFFFFFFFFFFFFFFFFFFFFFFFFFFFF05
:109B7000FFFFFFFFFFFFFFFFFF80000007FFFFFF6A
:109B8000FFFFFF00000003FFFFFFFFFFFE000000DC
:109B900001FFFFFFFFFFFF00000003FFFFFFFFFFCC
:109BA000FF80000007FFFFFFFFFFF7C000000FFF6F
:109BB000FFFFFFDFF7E000001FFFFFFFFFDFE3E035
:109BC00000001FFFFFFFFF8FC1F000003FFFFFFFFE
:109BD000FF07C0F800007CFFFFFFFE07C07C00000D
:109BE000F87FFFFFFC07C03FFFFFF03FFFFFF807D4
:109BF000C01FFFFFE01FFFFFF007C00FFFFFC00FF8
:109C0000FFFFE007C00FFFFFC00FFFFFE007C00F1F
:109C1000FFFFC00FFFFFE007C00FFFFFC00FFFFFF8
:109C2000E007C00FFFFFC00FFFFFE007C00FFFFFFF
:109C3000C00FFFFFE007C00FFFFFC00FFFFFE007EF
:109C4000C00FFFFFC00FFFFFE007C00FFFFFC00FF7
:109C5000FFFFE007C00FFFFFC00FFFFFE007C00FCF
:109C6000FFFFC00FFFFFE007C00FFFFFC00FFFFFA8
:109C7000E007C00FFFFFC00FFFFFE007C00FFFFFAF
:109C8000C00FFFFFE007C00FFFFFC00FFFFFE0079F
:109C9000C00FFFFFC00FFFFFE007C00FFFFFC00FA7
:109CA000FFFFE007C01FFFFFE01FFFFFF007C03FFF
:109CB000FFFFF03FFFFFF807C07C0000F87C0000CA
:109CC0007C07C0F800007CF800003E07C1F00000EF
:109CD0003FF000001F07E3E000001FF000001F8FAF
:109CE000F7E000001FE000000FDFF7C000000FC02A
:109CF000000007DFFF8000000780000003FFFF0077
:109D000000000300000001FFFE0000000000000052
:109D100000FFFF0000000300000001FFFF800000C3
:109D20000780000003FFFFFFFFFFFFFFFFFFFFFFB4
:109D3000FFFFFFFFFFFFFFFFFFFFFFFFFFFFFFFF33
:109D4000FFFFFFFFFFFFFFFFFFFFFFFFFFFFFFFF23
:109D5000FFFFFFFFFFFFFFFFFFFFFFFFFFFFFFFF13
:109D6000FFFFFFFFFFFFFFFFFFFFFFFFFFFFFFFF03
:109D7000FFFFFFFFFFFFFFFFFFFFFFFFFFFFFFFFF3
:109D8000FFFFFFFFFFFFFFFFFFFFFFFFFFFFFFFFE3
:109D9000FFFFFFFFFFFFFFFFFFFFFFFFFFFFFFFFD3
:109DA000FFFFFFFFFFFFFFFFFFFFFFFFFFFFFFFFC3
:109DB000FFFFFFFFFFFFFFFFFFFFFFFFFFFFFFFFB3
:109DC000FFFFFFFFFFFFFFFFFFFFFFFFFFFFFFFFA3
:109DD000FFFFFFFFFFFFFFFFFFFFFFFFFFFFFFFF93
:109DE000FFFFFFFFFFFFFFFFFFFFFFFFFFFFFFFF83
:109DF000F87FFFFFFC3FFFFFFFFFF03FFFFFF81F73
:109E0000FFFFFFFFE01FFFFFF00FFFFFFFFFC00F8F
:109E1000FFFFE007FFFFFFFFC00FFFFFE007FFFFAF
:109E2000FFFFC00FFFFFE007FFFFFFFFC00FFFFFB7
:109E3000E007FFFFFFFFC00FFFFFE007FFFFFFFF8F
:109E4000E01FFFFFF00FFFFFFFFFF03FFFFFF81FD6
:109E5000FFFFFFFFF87FFFFFFC3FFFFFFFFFFFFF5C
:109E6000FFFFFFFFFFFFFFFFFFFFFFFFFFFFFFFF02
:109E7000FFFFFFFFFFFFFFFFFFFFFFFFFFFFFFFFF2
:109E8000FFFFFFFFFFFFFFFFFFFFFFFFFFFFFFFFE2
:109E9000FFFFFFFFFFFFFFFFFFFFFFFFFFFFFFFFD2
:109EA000FFFFFFFFFFFFFFFFFFFFFFFFFFFFFFFFC2
:109EB000FFFFFFFFFFFFFFFFFFFFFFFFFFFFFFFFB2
:109EC000FFFFFFFFFFFFFFFFFFFFFFFFFFFFFFFFA2
:109ED000FFFFFFFFFFFFFFFFFFFFFFFFFFFFFFFF92
:109EE000FFFFFFFFFFFFFFFFFFFFFFFFFFFFFFFF82
:109EF000FFFFFFFFFFFFFFFFFFFFFFFFFFFFFFFF72
:109F0000FFFFFFFFFFFFFFFFFFFFFFFFFFFFFFFF61
:109F1000FFFFFFFFFFFFFFFFFFFFFFFFFFFFFFFF51
:109F2000FFFFFFFFFFFFFFFFFFFFFFFFFFFFFFFF41
:109F3000FFFFE033E033FFFFFFFFFFFFFFFFF7FF0F
:109F4000C7FF8FFFB7FFC7FF8FFFBFFFFFFFFDDF1B
:109F5000FC03E003E1DFFC03E003E1DFFFFFF1E7E7
:109F6000E0E3EEFBC000C000E303F387F0FFE07323
:109F7000E043F00FF807E103E703FF87FF87F003F3
:109F8000E03BEE0BE043F103FF1BFF73FFFFB7FF66
:109F900087FF8FFFFFFFFFFFFFFFFFFFFFFFFFFFB9
:109FA000FFFFF81FE007C7E39FF9BFFDFFFFBFFDFD
:109FB0009FF9C7E3E007F81FFFFFFFFFFDBFFDBFED
:109FC000FC3FF00FF00FFC3FFDBFFDBFFFFFFF7F29
:109FD000FF7FFF7FF80FF80FFF7FFF7FFFFFFFF688
:109FE000FFF0FFF1FFFFFFFFFFFFFFFFFFFFFF7F1E
:109FF000FF7FFF7FFF7FFF7FFF7FFF7FFFFFFFF37D
:10A00000FFF3FFF3FFFFFFFFFFFFFFFFFFFFFFF97E
:10A01000FFE1FF07FC1FE0FFC3FFDFFFFFFFF80FBB
:10A02000F007E7F3EFFBE7F3F007F80FFFFFFFFFA1
:10A03000F7FBF7FBE003E003FFFBFFFBFFFFF1F3A0
:10A04000E1E3EFCBEF9BEF3BE073F0F3FFFFF3E7D0
:10A05000E3E3EF7BEF7BEE3BE083F1C7FFFFFF9F86
:10A06000FE1FFC5BF1DBE003E003FFDBFFFFE067CB
:10A07000E063EEFBEEFBEE73EF07EF8FFFFFF80FF1
:10A08000F007E673EEFBE6FBF603FF07FFFFE7FFD3
:10A09000E7FFEF83EE03E87FE1FFE7FFFFFFF1C794
:10A0A000E083EE3BEF7BEE3BE083F1C7FFFFF07F09
:10A0B000E037EFB3EFBBE733F007F80FFFFFFFFF29
:10A0C000FFFFFCF3FCF3FCF3FFFFFFFFFFFFFFFFCD
:10A0D000FFFFFEF8FEF8FFFFFFFFFFFFFFFFFF7F20
:10A0E000FE3FFC9FF9CFF3E7E7F3EFFBFFFFFDBF78
:10A0F000FDBFFDBFFDBFFDBFFDBFFDBFFFFFEFFB10
:10A10000E7F3F3E7F9CFFC9FFE3FFF7FFFFFF1FF8F
:10A11000E1FFEDF3EF13EE13E0FFF1FFFC1FF0079B
:10A12000E003E80BE80BE00BF003F817FFFBFFC3BD
:10A13000FC03E03BE0BFF81BFF03FFE3EFFBE003A2
:10A14000E003EEFBEEFBE073F107FF8FFC1FF0076F
:10A15000E3E3EFFBEFFBEFF3E3E7E3EFEFFBE0031A
:10A16000E003EFFBEFFBE7F3F007F80FEFFBE00393
:10A17000E003EEFBE83BE83BE7E3F7E7EFFBE00358
:10A18000E003EEFBE83FE83FE7FFF7FFFC1FF007C7
:10A19000E3E3EFFBEFBBE383E387FFBFEFFBE0030A
:10A1A000E003EF7BFF7FEF7BE003E003FFFFEFFBCC
:10A1B000EFFBE003E003EFFBEFFBFFFFFFFCFFFC27
:10A1C000EFFEEFFEE000E001EFFFEFFFEFFBE0034B
:10A1D000E003EC7BE81BE383E7E3EFFBEFFBE0034B
:10A1E000E003EFFBFFFBFFFBFFF3FFF3EFFBE003FD
:10A1F000E003E003E003E003E003EFFBEFFBE00339
:10A20000E003F0FBFC1FEF07E003E003F80FF007AB
:10A21000E7F3EFFBEFFBE7F3F007F80FEFFBE003EB
:10A22000E003EF7BEF7FEF7FE07FF0FFF80FF007B9
:10A23000E7E3EFEBEFE3E7F1F005F80DEFFBE00309
:10A24000E003EEFBEE3FEE0FE0C3F1F3FFFFF1E3BF
:10A25000E0E3EE7BEF7BEF3BE383E3C7E7FFE7FF62
:10A26000EFFBE003E003EFFBE7FFE7FFEFFFE007B3
:10A27000E003EFFBFFFBEFFBE003E007EFFFE1FF95
:10A28000E01FEE03FF83EC0FE07FE3FFEFFFE03F13
:10A29000E003E003E003E003E03FEFFFEFFBE7F361
:10A2A000E1C3E80BFE3FE80BE1C3E7F3EFFFE3FF99
:10A2B000E0FBEC03EC03E0FBE3FFEFFFF7FBE7E37E
:10A2C000EF83EF1BEC7BE0FBE3E3EFE7FFFFFFFF38
:10A2D000FFFF80018001BFFDBFFDBFFDFFFFDFFF6E
:10A2E000C3FFE07FFC1FFF83FFE0FFFCFFFFBFFD1C
:10A2F000BFFDBFFD80018001FFFFFFFFFFFFFFFFEC
:10A30000DFFF9FFFBFFF9FFFDFFFFFFFFFFEFFFE9F
:10A31000FFFEFFFEFFFEFFFEFFFEFFFEFFFFBFFF93
:10A32000BFFF9FFFDFFFFFFFFFFFFFFFFFFFFF6795
:10A33000FE43FEDBFE93FE03FF03FFFBF7FFF0038C
:10A34000F003FE73FEFBFE73FF07FF8FFFFFFF8F1F
:10A35000FF07FE73FEFBFEFBFE73FF77FFFFFF07A9
:10A36000FE03FEFBFEFBF6F3F003F003FFFFFF0727
:10A37000FE03FEDBFEDBFEDBFE13FF17FFFFFEFB33
:10A38000FEFBF803F003F6FBF2FBFBFFFFFFFF29E8
:10A39000FE00FED6FED6FE16FE30FEF9F7FBF003F9
:10A3A000F003FE7BFEFFFEFBFE03FF03FFFFFEFB51
:10A3B000E6FBE603E603FFFBFFFBFFFFFFFFFFFCFF
:10A3C000FFFCFEFEE6FEE600E601FFFFF7FBF00302
:10A3D000F003FF9BFE0BFE63FEF3FEFBFFFFF7FBAC
:10A3E000F7FBE003E003FFFBFFFBFFFFFEFBFE03C9
:10A3F000FE03FEFBFE03FE03FEFBFE03FEFBFE036D
:10A40000FE03FE7BFEFFFEFBFE03FF03FFFFFF07D5
:10A41000FE03FEFBFEFBFEFBFE03FF07FEFEFE004F
:10A42000FE00FE72FEFBFE73FF07FF8FFFFFFF8F34
:10A43000FF07FE73FEFBFE72FE00FE00FEFBFEFB4E
:10A44000FE03FE03FE7BFEFBFE7FFE7FFFFFFF336E
:10A45000FE13FEDBFEDBFEDBFE43FE67FFFFFEFFBF
:10A46000FEFFF807F803FEFBFEF3FFF7FEFFFE0713
:10A47000FE03FFFBFFFBFEF3FE03FE03FEFFFE3FBA
:10A48000FE0FFEC3FEC3FE0FFE3FFEFFFE7FFE0F6C
:10A49000FE83FEC3FE0FFE03FE83FE1FFFFFFEFBD7
:10A4A000FE73FE03FE8BFE03FE73FEFBFEFFFE7ECD
:10A4B000FE1EFE80FFE1FE87FE1FFE7FFFFFFE7B8C
:10A4C000FE73FEC3FE8BFE3BFE73FEF3FFFFFFFF3A
:10A4D000FFFFFFFFFF7FC0038081BFFDFFFFFFFF86
:10A4E000FFFFFFFF00000000FFFFFFFFBFFDBFFDFC
:10A4F0008081C003FF7FFFFFFFFFFFFFFFFFBFFF64
:10A500003FFF3FFFBFFF9FFF9FFFBFFF00661FFF93
:10A51000FFFFDDFF9D822D826DAB6DAB6DA801A8A5
:10A5200001AB6DAB6D836D836DFF7DFFFDFFFF00A4
:10A53000671FFFEEDFEC0009000BDB6FDB6700023B
:10A540000008DFE18003800FBBBDBBBC8000800141
:10A55000FFFF0065E5FFFFFFFFFFFF80008000BEFB
:10A56000FDBEFDBEFDBEFDBEFDBEFD80008000FF48
:10A57000FFFFFFFFFF002103F3FFEDFFEDFFF3FF00
:10A58000FC1FF807F1C7E3E3E7F3E7F3E7F3E7F3CB
:10A59000F3E7FFFFFFFFFFFF00FF05FFFFFFFFFFE8
:10A5A000FFF1FFEEFFEEF3EEC3F107FC1FF047E112
:10A5B000BBE7BBFFBBFFC7FFFFFFFF00519CFBF7E3
:10A5C000E3E7E7CFEF9FEF00EC00E0F900FB0C3F83
:10A5D000EF1FEF8FEF27EA73E2F9E7FDFFFD00536E
:10A5E00086FFFEFFF880018006BDFCBDF9BDE3BD1E
:10A5F00087A01FA07FBDFDBDFCBDFCBC01BC03BF8F
:10A60000FF0095F0FFFFE00060001BF79B77FB77F2
:10A61000BB77B807B807BB77BB77BB75BBF48000C7
:10A620008001FFFF00672AFEFBFEFBEEF3EEE7EE84
:10A63000CFEE9FEE3F00000000EE3FEE9FEECFEE2C
:10A64000E7EEF3FEFBFEFB0077E5FB7EE37C0771A4
:10A650000F43E00FE00FEF41EF71FF7FC003C00336
:10A66000DFF7DFF7C003C003FFFF006B63FFFDBF31
:10A67000FDBFFDBC01BC01BFFDBFFD80018001BE6F
:10A68000FDBEFDBEFDBEFDBEFDBFFDFFFD0051AC2C
:10A69000FFBFFBBFF33FE77FC67B12DB18DBDDD9D3
:10A6A000DDCDD8ECD2E6C677CF7FFF3FFFBFFFBF3F
:10A6B00000814AFFFE80008001BBBE80008000ED6B
:10A6C000FFED000100016DED6DED6D016D0100ED1F
:10A6D00000EDFF006708FFFEFFFCFFF18003800F25
:10A6E000BBBFBBBFBBBFBBBFBBBFBBBDBBBC800099
:10A6F0008001FFFFFFFF00521DEFBFEF3F6E7F287D
:10A7000000A000E61EEE9CDFF9DFE3C007C01DDFFE
:10A71000FCDFFCC001C003FFFF005EFFFBFFFBFF8F
:10A72000FBFFFBFF00000000FBFDFBFDFBFDFBFD55
:10A73000FBFD00000000FBFFFBFFFBFF004E00FEE7
:10A740007FFE7FFE7FFE7FFE7FFE7FFE7FFE7FFE21
:10A750007FFE7FFE7FFE7FFE7FFE7FFE7FFFFF008E
:10A760004E8CFFF3FFF3E7F3E7F3E7F3E7F3E7F3E9
:10A77000E7F3E7F3E7F3E7F3E7F3E7F3FFF3FFF3D9
:10A78000FFFF004E09FFF9CFF9CE79CE79CE79CE11
:10A7900079CE79CE79CE79CE79CE79CE79CE79CF80
:10A7A000F9FFF9FFFF0056DBFFFFC001C001DFCB5F
:10A7B000DF1BC03BC0FBDFFBDFFBC07BC03BDFBB65
:10A7C000DFBBC001C001FFFF004E94FFFDBFFDBD18
:10A7D000FDBDFDBDE1BC01801D81FDBDFDBDFDBD1B
:10A7E000FDBC01BC01BFFDBFFDFFFD00516DFBFFC6
:10A7F000FBFDFBF9FBF3FBC7FB0F7B3F3BFF8BFF35
:10A80000CB7FFB3FFB9FFBC7FBE1FBF9FBFF004E50
:10A8100003FEFFFEFFFEFFFEFFFEFFFCFF00030046
:10A8200001FDFDFDFDF9FDFBFDFBFDFBE1FBE1FF96
:10A83000FF00516BFFFFFFFEFFF8FFE1FF07C01FA6
:10A84000C0FFFFFFFFFF81FF803FFE0FFFC3FFF14F
:10A85000FFFCFFFE004E5DFFFEF7FCF7F9F7E3F7A4
:10A8600007001F00FFF7FFF7FFF7FFF003F001FFFE
:10A87000FDFFFDFFE1FFE1005341FCFFFCFFFCFF9A
:10A88000FCFFFCFFFCFFFCFF00000000FCFFFCFFE6
:10A89000FCFFFCFFFCFFFCFFFFFF009F20FFFFFF12
:10A8A000FF81008100AD6C2D256DB7FD00FD00AD71
:10A8B0006CAD25ADB781038101FFF0FFF000725B45
:10A8C000FFBFFDBFF9BF83BF87BFF7BFF7BF000062
:10A8D0000000F7BFF7BFF7BFF7BFF7BFFFBFFFBF6E
:10A8E00000864EFFFEFFF8E001E006EDFCEDF9ED1D
:10A8F000C300C7005FA95FAB41AB40AC7EA478E763
:10A90000F8FFFF005154FDFEF9FEF01CE0190BB3F7
:10A910001BA7DB8FD81FD801D380C3AECBA2F81200
:10A92000F81EFFF8FFF8009F99F7FEF7FCF7F9F71C
:10A93000E3F787001D0079F7F3F003F001779D1727
:10A940003D947DF4FDF7E1F7E10086C7FFFBE039B8
:10A95000E03900030007E067E063E3F3E403EC01A0
:10A960006F9D0F3D8E7DEAFDE3E1E7E1009A6CFF0C
:10A97000EFBFEFBFEFB0EFB0EFBEEFBEEFBEEFBE89
:10A98000EFBEEF80ED80ECFEFCFE01FE03FFFF005A
:10A990007F8AFFEFEFEFEEEFEEEF6EEF0EEF8EEF51
:10A9A000E000E000CEEF0EEF2EEFEEEFEEEFEFEF78
:10A9B000FFEF007334BBDD939CC73CC0019003B92B
:10A9C000FFE0000000175EB05CB0D1B603860386DE
:10A9D000D1F6DCF7DE009E21EFFBEDF3ECC7EE0FC6
:10A9E000EC1FE0C7E3E7FFF7C037803717B755B56F
:10A9F000DCB4C0B4C181FF830072D7FDEFB9CD9341
:10AA00009CC73CC0019003B3FFC40F0C0F2DDFECBB
:10AA10000DEC0CEFFCE001E003FFFF00732ABBDD4F
:10AA2000939CC73CC0019003BBDFDB9FDB00DA00D7
:10AA3000006D016DD36DC3008B009BFFFBFF0075A4
:10AA400032FFFFFFFF801F801FBBBFBBBFBBBF80AC
:10AA5000008000BBBFBBBFBBBF801F801FFFFFFFCD
:10AA6000FF004E59FFFFBFFFBFE3BF81BF1DBE7D8B
:10AA7000BCFDB9FDB3FDA7FD8FFD9FFDBFFDFFE14F
:10AA8000FFE1FFFF004E19BFFFB800B800BBFFBBDE
:10AA9000EFBBCFBB1F803F807FBB3FBB8FBBCDBB1E
:10AAA000FCB800B801BFFF004E01FFFFBFFFBFFFB2
:10AAB000BFFFBFFFBFFDBFFC80008001BFFFBFFF26
:10AAC000BFFFBFFFBFFFBFFFFFFF00620AFFFEFF28
:10AAD000F8E001E007EFFEEFFEEFFCEFFD01F9000B
:10AAE00033EE076FC72F13AC39ECE0EFE0005DF2F7
:10AAF000FFFFFFFFB803B801BEFDBEFDBEFDBEFDFA
:10AB0000BEFDBEFDBEFD80FD80FDFFE1FFE1FFFF5C
:10AB1000005E9AFFFDFFF1C002C00EDB6CDB6DDB57
:10AB2000695B6310079007DB63DB69D80DD80CDF26
:10AB30007EDF7E008F9BFDFFFDDFDDDFDDDFD5DF0C
:10AB4000D1DF59DF1C009C00D9DFD1DFD5DFDDDF8D
:10AB5000DDDFFDDFFDFF0058ECFEFFFEFFDEFDDE6A
:10AB6000FDDEFDDEFDDEFDC0018001BEFDBEFD3E61
:10AB7000FD3EFDBEFDFEFFFEFF007678FEFFAEDE71
:10AB8000A4DEB1DCB2DDA6D98ED39E073E070ED778
:10AB900086D332D961DCCCDEDEDFFEFF005B50FE07
:10ABA000FFBEFFBEFFBEFFBEFFBEFDBEFCB800B8CD
:10ABB00001B2FFA6FF8EFF9EFFBEFFFEFFFEFF005D
:10ABC0004E11FFFDFFFDBEFDBEFDBEFDBE018001BD
:10ABD00080FDBEFDBEFDBEFD80018001FFFDFFFDCD
:10ABE000FFFD005BC5F7FFC7FFCFFFD406D404D538
:10ABF000B155B310079007D5B3D5B1D404D406D757
:10AC0000FFC7FFCFFF00536FFFFF801F801EBFDC19
:10AC10003F914003400FFFFF80008000BFDFBFCFA8
:10AC2000BFCF801F803FFFFF008FB0FFFDFFF1808F
:10AC300003800FB6FFB600B600B6F9B63BB61FB636
:10AC4000CFB6C7B693B6B9BEFDFFFD005DF3FFFFFB
:10AC5000FFFF80038001BEFDBEFDBEFDBEFDBEFD4B
:10AC6000BEFDBEFD80FD80FDFFE1FFE1FFFF005363
:10AC700048FFBFFDBFF9BFE3BF07BF0FBFEFBFE096
:10AC800000E000EFBFEFBFEFBFEFBFEFBFFFBFFFC1
:10AC9000BF00672AFEFBFEFBEEF3EEE7EECFEE9F72
:10ACA000EE3F00000000EE3FEE9FEECFEEE7EEF34A
:10ACB000FEFBFEFB007533FFFFFFFFE007E007EE42
:10ACC000EFEEEFEEEF00000000EEEFEEEFEEEFE064
:10ACD00007E007FFFFFFFF009149BFFFB000B00092
:10ACE000B72DB66D80ED81EDB7EDB7ED80ED806DE0
:10ACF000B76DB76DB000B000BFFF00620CFFFEFF84
:10AD0000F8E001E007EF7FEF7FEF7FEF7EEFFC00E1
:10AD10007900136F872F83AC19EC60EFE0004EA52C
:10AD2000FFFFEFF6EF76EE66EC6CE94D6359271BFB
:10AD3000AF33EE67ECC7ED93EF39EF7CEFFEFFFF2B
:10AD4000005E74FFDFFBDFE3DF041F1C1FDDDFDDC0
:10AD5000DFDDDFC000C000DDDFDDDFDDDFDDDFDF09
:10AD6000DFFFDF007EE7FBBBF319C21908B331B781
:10AD7000F7B780018001E59DF53D00010001F53D3B
:10AD8000E59DEDDDFFFD007EEDFBBBF319C219086B
:10AD9000B339B7E3B7E3A6DBAEDA8CDA4903630273
:10ADA00007DA07DAE3D8E8F9EC008BBEFDFFFDFF18
:10ADB000BDFF8C03CC02FDE6F8EC823D8609BEC3E4
:10ADC000BEE38689821DFA7CFBFEFBFE007F6EFFE0
:10ADD000FD17FD17FD5401540115551555415541F9
:10ADE00055155515555401540117FD17FDFFFD006C
:10ADF00052A0F7FEF7FCF7F10003000DF7FCF0009E
:10AE0000F001FFFFE001E001EFFBEFFBE001E001FB
:10AE1000FFFF0051CFFFBFBFBF8F01CC00FCFCE0A4
:10AE200001E003ED87ED86ED84ED81001300036FF3
:10AE3000812E10AE70004E0AFFFDFFFDFFFDFFFDED
:10AE4000FFFDFFFD00010001FDFDFDFDFDFDFDFD20
:10AE5000FDFDFDFDFFFDFFFD004E0BBFFFBFFFBF72
:10AE6000FFBFFFBFFFBFFF80008000BFFFBDFFBC73
:10AE7000FFBE7FBF1FBF9FBFFFBFFF007A7AF7FFF4
:10AE8000C7FDCDFDD97DD37DD77D5F7D1F019F019E
:10AE9000DF7DD77DD37DD97DD5FDC7FDCFFF009068
:10AEA00009FDFFFDFDBDF98C03CC03F5F185C58CD3
:10AEB0000DEC3D01FD000DEC05EDF5EDC5FDC5FF0B
:10AEC000FD0062E9F7BDF7BC00000001F77FBEF7A7
:10AED0009EB78CB7A5B7B000B000A5B78CB79EB72A
:10AEE000FEF7FEFF0079FBDBEFDB8FDA1F8000004F
:10AEF000003B1FBB9FF76EE76EC64C108D1921D229
:10AF000033C6A7CF8FFF9F0052A8FDF7DDC3DC0338
:10AF1000DC37DDD7DDC2DDE0F5F1F783000F007D22
:10AF2000F7FCF7FCF001F003FFFF004FDDFF7FFEB1
:10AF30007FF8FFE00000001F738367834FBB1FB8DB
:10AF400000B800BB1F834F8367FF73FFFB005B5894
:10AF5000DFBFDF3FDE7FD800C00007BF1BBFDBBD08
:10AF6000DBBCDB00DA01D8BFD9BFDBBFDFBFDFBF8F
:10AF70000053D6BFEFBFE78007800FB6EFB6CF8094
:10AF80000080009FDE80DCC019DF03DF03C019C032
:10AF9000FCFFFE006D88F7DFF1DFB9C18F01CC3F08
:10AFA000FCFFB8008800CB6F036F036DEB6C88006B
:10AFB0009801FFFFFFFF008FDBFDFFFDFDBDF98C5A
:10AFC00003CC03FEF9EEF5EEC5000D003DEEFD00ED
:10AFD000050005EEFDEEFDFEFD005165FFFEFFFCE8
:10AFE000FFF9FFF3FFC77F0F383F80FFC0FFF83F37
:10AFF000FF0FFFC3FFF1FFFCFFFEFFFE00540CFF3D
:10B00000FFFFFF80008000B7FFB607B607B6EFB6B8
:10B01000EFB6EFB607B605B7FC80008001FFFF0072
:10B0200065F6FFFFC003C003DEF7DEF7C003C00311
:10B03000F7FFF77FF71FF79DF7FC00000001F7FF10
:10B04000F7FF006309F7BFF7BDF73C00000001F20E
:10B05000FFE2FEE6DEEE0C682908E38EE3EE09EA85
:10B060001CE2FEE6FF004F4FFF7FFE7FF8FFE0008F
:10B0700000000F7DEF7DEF7D6F7D2001A001EF7D52
:10B08000EF7DEF7DEF7DFFFD00548CFBF7DBE7DB11
:10B090008FDA1F800000003B1FBB9FFBFFE003E037
:10B0A00003EFF7EFF7E003E003FFFF00952EFD7FCE
:10B0B000F17F00010801DB71DA11D883C003C619E2
:10B0C000D55DD55D00050005C15DC15DF7DD005EA4
:10B0D00076FFBFF7BEF7BC77B11003900FF7BFF74D
:10B0E000BFF7BFF7BFD000100037BFF7BFF7BFFFF4
:10B0F000BF00590DFBFEF3F6E7F60064104DD505D1
:10B10000D511D55BD55BD551D545D04DD05CDFFE93
:10B11000DFFEFFFE004F4DFF7FFE7FF8FFE00000E7
:10B120000017FDF67DF605778517FD97F1F781F499
:10B130000DF47DF7FDFFFD0053EFFFFFBFFFBFFFE5
:10B14000B00FB00FB7DFB7DFB00FB00FBFFDBFFC60
:10B1500080008001BFFFBFFFBFFF004EE5FFFFFF84
:10B16000FFC003C003FFE7BFCE9FDCC7F9E7F3FFD3
:10B17000C7FE0F002F01E7FFF3FFF8FFFC005F3A67
:10B18000BFFFB83DB83CBBBC83818381FE1D861DDB
:10B1900086DDB6DDB001B001B6DD86D58610FE18BD
:10B1A000005236FDFFF5FF85838D83EDBF00000063
:10B1B00000EDB3ED83ED87E00FE00DFFFC00000034
:10B1C00001FFFF0064E6F7BDF7BC00000001F66F69
:10B1D000C44DC009D22B582E18A090A0D02FDA2B26
:10B1E000D089C1CDCFEF009664FFFF80008000A121
:10B1F000CF840B9A13F347E34DCB7C18001801CB97
:10B200005FE34FF363FB73FBFF005168FEFFFEFD3E
:10B21000FCFDF9DDF1DDE5DDCDDD1C011C01CDDD41
:10B22000E5DDF1DDF9DDFCFDFEFDFEFF0090E8FD52
:10B23000FFDDFFD581518119BB9DBBD9BBD181D524
:10B2400081DDFF80008000BBE7A0E7840F9F1F0027
:10B250006570F6BEB4A69184D311003900B1D384D1
:10B26000918EB4FEF0FC00310E03EF03E031E0FC00
:10B27000EFFE00636EF7BDF7BC00000001F67EF63E
:10B28000F880018007B6C0B6C0B01DB01DB6DD861F
:10B29000C086C0FEFF00FF1AFFFFFFFFFF93FF9372
:10B2A000FF93FFFFFFFFFFFFFFFFFFFFFFFFFFFF1A
:10B2B000FFFFFFFFFFFFFFFF003010FFFFFFFFFF5B
:10B2C000FFFFFFFFFFFFFFFFFF8001800180018084
:10B2D0000183C18FF19FF9BFFDFFFF003011FFFF18
:10B2E000FFFFBFFD9FF98FF183C1800180018001C5
:10B2F0008001FFFFFFFFFFFFFFFFFFFFFFFF009544
:10B30000F4FFFFF80098008FFFEC07FC03D9BBDBCC
:10B31000BBDBBBDBBBD9BBDC02DC02DFFEC000E079
:10B3200001005468FFFEE000C001DEFFD683D68333
:10B33000D6BBC0BBC0BBD6BBD6BAD682D682C000F5
:10B34000C000FFFF00683CFFFFF79FF41FC000C074
:10B3500000F45FF31FE3A0C700D25ED8DEDCDED8C6
:10B360005EC300E780FFDF005F0FFFFFF77EF77E21
:10B37000F77EF77CF701F701F779F77BC07BC00F09
:10B38000D703C7F1C7FCE7F0F7F0005C0FFFFBFF46
:10B39000E3FF07F81FF8FEFFFEFFFEC000C000FF3E
:10B3A000FFFFFFFFFFF9FFF81FFE03FFE3006B2223
:10B3B000FFFFEFFDEDF9EC73EE07EE0FE001E0F0BB
:10B3C000C0F8C1E1E007E01FEF87EC61E078F3FE31
:10B3D000008FCEFFFFFDFECDFCC401F601E00CC0E6
:10B3E00006DFE6DFEEC000E000CFF6DFF6C006E0E5
:10B3F00006FFFE004F7FFFBFFE3FC000C000EC3ED7
:10B40000EC0EE9C6EBD0EBD18001800CEBDEEBDE7D
:10B41000E9DEEC1EEC3E007528FFFFFFF9C001C01D
:10B4200007DDDFDDDFDDDFC001C001DDDFDDDEDD0B
:10B43000DEDDDEC000C000FFFF004E3BFFFEFFFE72
:10B44000FBDEFBDEFBDEFBDEFBDEC800C800FBDE56
:10B45000FBDEFBDEFBDEFBDEFBFEFFFE0083DCFF34
:10B46000FFEFDEEDDCECDDCC19CD1BEDD3EC81EC98
:10B4700001E9478393831BE859E8DDEFDCEFDE0049
:10B480005355FFFFFFF7F017F017D6D7C6D7E6D70B
:10B49000F000F000F6D7E6D786D796D7F017F83742
:10B4A000FFF7009875FFFFDFFEDC1ED81ED3FCD728
:10B4B000F9D7F3C707C70FD7F7D7F3D7FBD3F9D817
:10B4C0000CDC0EDFFF008FD4FFFFFEFECEFCC601BA
:10B4D000F601FF81C004C078DAFADA32DB06DBCE8F
:10B4E000DB06D832F8FAFFFE0056DEFFFFE001C0AF
:10B4F00000DFFEDC0ED806DBF6DBF6DBF6DBF6DB88
:10B50000F6D806DC0EDFFEC000E001007535FFFF57
:10B51000F00FF00FE6EFEEEFEEEFEEEF80008000C1
:10B52000EEEEEEEEEEEEE6EEF00EF008FFF9006C59
:10B5300060FFFFFEFEEEF8E671E667F6EFE000E082
:10B5400000F9FEC00EC00EF3EEF7EEE7CEE000F01D
:10B55000300094C3FBFFF3DFC6DFCE00EE00EEDC6D
:10B56000EC9DF9B7F3B3C3BBC9B9CCB8C6B2F3A766
:10B57000F98FFD9F0058F0FFFFFFFFEFF8EB00EAA7
:10B5800007EAEFEAEFEAEF820F820FEAEFEAEFEA6B
:10B59000EFEA0FEB1FEFFF004F20FFBFFF3FF80068
:10B5A000C000C6FFF6FFF6FFF637C013C09BF6B922
:10B5B000F6B8F6B2F6A6F68FFEDF00611FFFFFFFBA
:10B5C0009EE010E071E811E810E9DEE9CEE80086BF
:10B5D0000080CEE818E838C893C310F71C005668FE
:10B5E000FFFFFEDFC2C0C2C0DA8EDA2EC260C0E04A
:10B5F000E4F1C260DA2ED8AED88EC2C0C2C0FEDF7F
:10B600000053C2FFDFFDDFF5DFF5DAE58AC52A94D6
:10B610004AB0DAF192F4B4D465C529E1B3F193FDEF
:10B62000D7FDDF008003FFFFFDDFEDDFEDDFED9FE6
:10B63000EDBEED8E810E802EECAFECAFE9AEE1AE4B
:10B64000E5A0CDB1DDFF00538BFFFFE000C000DFC0
:10B65000FFDFFEDF7EDF7EDF7ED000D000DF3EDF5B
:10B660000EDF42DF72DFFEFFFF007CFBFFFFFFFE0D
:10B67000DFB8DDB1D907D10EC43ECC80DC80D9BFA4
:10B68000D39FD3879623BE10FF9CFFFF007EDFFF72
:10B69000FFFCE6F0C6C204CC2DF8ECEBECEE68E85B
:10B6A00001E107C77FCF00E900E87EEE30EFB00090
:10B6B0004FE1FFFFFE7FF00080008FFFED60ED6047
:10B6C000ED6EED6ECD6ECD6EED6EED6EED60ED60FE
:10B6D000EFFF00606FFFFFFFFDE031E033EAB1EA0A
:10B6E000B0EABE8ABE8AA2EAA2EABEEAB0EAA0E056
:10B6F00027E031FFF9006062FF9FF01FF07F8000BC
:10B700008000E038EE018006803CEC39EFE3E8078A
:10B71000E807EE01EC18EDFE009ED8FFFFC361C103
:10B7200061C561C001C013C143C142C150FDF1FDFB
:10B7300083800F8007CDC3E5F8F5FC008BA4FFFFE5
:10B74000FDFFDDFFCC01E601F7F2FFF4FFF9FFE3B7
:10B75000FF07801F800FFF87FFF1FFF8FFFC006EDF
:10B7600005FFFFDDFEDCF8CE41EE07EAA9EA81EA3B
:10B7700017EA5780578057EA56EA56EA00EA80EE01
:10B78000FF005C4FFFFFFFF1C001C00FD6EED2EC0F
:10B79000D001D403D6EFD6EFD6EFD000D000D6EF4D
:10B7A000C6EFC7EF005E55FFFFDFB7D8B7D020D593
:10B7B0002085078517D517D500D52085168506D590
:10B7C00020D020D8B7DFB700504FFFFFFF3FF80071
:10B7D000C000C7C1E001E000ED00ED6FCD00CD007D
:10B7E000ED00ED00ED6EE100F30000503CFFBFFE08
:10B7F0003FE00080008FFEEEA8EC00ED56ED568194
:10B80000568156ED56ED56EC00EC00EFFE005B9EC7
:10B81000FFFFF7DEE7DEEDDEECDEEA1CE919ECD334
:10B82000CE87C807E857EFD3EFD9EFDDE3DCE3DEDF
:10B83000009645FFFFC000C000D0EFC00FCD03DD74
:10B84000C3DD0EDD3EDDFEDC00DC00DDFFDD8FDD77
:10B8500083DDF3005F00FFFFFF7FDF7EDF78C00145
:10B86000C007DF7FDF7FDF7FDF7FDF7FC000C000BB
:10B87000DF7FDF7FFF7F00542FFFFFFFE1E001E06C
:10B8800001EE80EEBEEEBE8EBE8EBEEEBEEEBEEE13
:10B89000BEEEBEE080E180FFFF008702FFFFF01EEA
:10B8A000C002C000F005F010F6A8E6ABCCABC5AB0B
:10B8B000D000D800D1ABC4ABEEABFEAB009E23FFF3
:10B8C000FFE003C001DFFDC001E003E01BE01BC39C
:10B8D000DBCBDBE8DAEC5AE05AE0DBFFC0FFC0006C
:10B8E00072B6FFFBF7F3F3E3F98F80008000FBFCF7
:10B8F000FBF8FBE3C007C01FFA0FCB87C3F1F3F8D7
:10B90000FBFE006001FF7FEF7CEF40EE43EEFFECBB
:10B91000C0E9C0C0FEC44EE342E9F2ECF0EED0EE66
:10B9200047EF61EF79005173FFFFFF7EF77EF77CF1
:10B93000D779C77BE763F007F01FF70FE767C77397
:10B94000D779F77CF77EFF7E0095EDFFFFF001F0E1
:10B9500001CDEFCDEFFDCFDD9BDD3BCC7BC003D038
:10B9600003DDFDDDFDC001C001FFFF0097F3FFFF18
:10B97000EEFFEEC1EE80E2B6E0B6ECB68EB68EB665
:10B98000EEB6E8B6E0B6E680EE80EEFFFEFF009190
:10B99000CFFFFFFDFEC58AC10AC94AC94AC94AC9C3
:10B9A0004AC900C900C94AC94AC14AC10AFD8AFD3B
:10B9B000FE00622AFFFFFB3FF800E800EAD6C0D68F
:10B9C000C000EA00EAD6EAD6FAF4C018C003CB00F9
:10B9D000EB38FBF0006B62FFFFFFFEFFFEF000F0B4
:10B9E00000FFFEFFFEFFFEC000C000FEFEFEFEFEEA
:10B9F000FEFEFEFFFEFFFE008B66FFFFF9FFE0DDAF
:10BA000084C084C2E4C284428742E002E002C642AB
:10BA1000C0C2E1C2E0C0EEC4FEFF00544AFFFFFD19
:10BA20007FF961C340C75EF75EF75EC05EC05EF738
:10BA30005EF75EF75EF75EF740F761FF7F006E2905
:10BA4000FFFFDDFCCCE0C602E700C0C0C0DEDAC00C
:10BA5000DAC0DADEDAC0DAC0DA5EC040C0C0FFFEAB
:10BA6000006E7FFFFFFDFCDCA0C602E71EC086C0A3
:10BA7000C2DA00DA00DAFEDA00DA00DAF6C0C6C0AE
:10BA8000CEFFFE005EA6FFFEF000E000EBDEEBDE88
:10BA9000E0CEE044EB51CB59CB59EB51E054E046BA
:10BAA000EBCEEBFEEFFE00949FFFFFF2DFC2DFCE96
:10BAB00000EE00EEDCEEDDF00FF00FF7EFC000C09F
:10BAC00000F7EFF7EFF00FF00F008001FFEFFEEF50
:10BAD000EEEFEECFEEC0EE80EEB680A6802EEE6EDC
:10BAE000ECCEE8DEE0DEE29EEEB0FEF1005316FFA3
:10BAF000FFFF7FFC7FE00080009FBFFFBFFF3FC0D4
:10BB000001C000FEFEFCFEF9FEF3FEF7E0FFE000E0
:10BB10006BCFFFFFFBBFF3BFE403C801DBBDD99DC3
:10BB2000D98DD8A4DA34DB35DBBCDBA0D801D81D35
:10BB3000DFBF004E2AFFFFFEFFFCFFFDFFF9FFF312
:10BB4000FFE7FFCFFFDC00CC00E7FFF3FFF9FFFDCD
:10BB5000FFFCFFFEFF007EA6FFFFFCEEF08CC20D97
:10BB6000C86DF8CDF9DDE1FF86FF8E1EEF0EEFEE1A
:10BB7000EFFEEFFEE000E001004E3AFFFFFBFEFBB0
:10BB8000FCDBFDC3F1E3C3800F803FFBFEFB3EFB0C
:10BB90000EFBC6FBF6F800F801FFFF0059CBFFFFD4
:10BBA000F71EC00CC0E1F7E3F001F01DFCE1F8C0A6
:10BBB000E2DEC6DEDEDEFEDEF2DEF0C0FC4100527A
:10BBC00030FFFFDFDEDDDED0DEC2DECE00DE00D203
:10BBD000DED0DCDCDDC00DE00EFFFEFFFE8000806D
:10BBE00000005B8CFFFFE3BEE3BEEDBCEDBDED816D
:10BBF000ED838DBF8DBFEDBFED80ED80EDBEEDBE61
:10BC0000E1B0E1B0006210FFFEF900F001F6F7F6D6
:10BC1000F3F6FAF600F605F7F9C033C007F783F636
:10BC200019C67CC3F0F3F00079D2FFF7DDC7DD0F52
:10BC3000C000C000DD1FDD1EF03EF0FEFFFE8004F0
:10BC40008001FFF3F187F00FFE7F00540EFFFFFF2E
:10BC5000F9E001C007DDFFDD00DD00DD7EDD7EDD1A
:10BC60007EDD7EDD7EDD7E9D00BD00FFFF00786C09
:10BC7000FFBFDE03D001C0FDCEFDDE01D800D00E37
:10BC8000D6C6D6D0C001C001D6DDD6DCD01ED83E87
:10BC9000004EF6FFFFFE7FF00080008FFFFCDFE02C
:10BCA000DFE3DFFBDFFBDF80008000FBDFFBDFFB90
:10BCB000DFFBDF007248FFFFC001C001FDBFC1BF55
:10BCC000C181FDC0E000C002DC3CDD09DDC3DDC395
:10BCD000DD09DC3CDCFE00672CFFFFEFF7EFE7EF50
:10BCE000C7EF97EE37EC7780008000E8F7EC77EF4E
:10BCF00037EF97EFC7EFE7EFF7006CE8FFFFDDFEE8
:10BD0000CCF8EE41EF47F79EF7BEF7BEF7BED00086
:10BD1000C000E7BEF7BEF7BEF7BEF7BE00610FFF7B
:10BD2000FFFBFDDA01DA03CAA1C2A0D2AE9AA29A41
:10BD3000A0DAACD2ACC2ACCAA3DA01DA08FBFC00D0
:10BD40004E0DFFFFDFDFDFDFDF9FDF3FDE7FDCFF4A
:10BD5000D000C000CDFFDCFFDE7FDF3FDF9FDFCF05
:10BD6000DFEF004F1AFFFFFDFFFDBFF9BCF1B0F59B
:10BD7000A2E58ECD9EDDBECDBECDBEE5BEF1B0F955
:10BD8000B0FDBEFDFF00518DFFEFDFEFD800D0000A
:10BD9000D76FD76FD76FC00FC00FD76FD76ED76E63
:10BDA000D76ED000D800DFEF00663EFFFFFFFEC079
:10BDB000BEC006DB42DB00DB00DB7EDB7EDB00DBC4
:10BDC00000DB7ADB42C006C0BEFFFE00793AFFFF0F
:10BDD000FDFDDDF1DDC3DD0FDD3EDDFEDDFEDC0062
:10BDE000DC00DDFFDD7FDD1FDD87DDE1FDF9006BC0
:10BDF00064FFFFFFFEF000F000FFFCC001C001FB8C
:10BE0000F9FBFBC001C000FCFEF9FEF3FEF3F8F7FE
:10BE1000F0005BD2FFFBE3BBE2B3EAA7EA8FE01BD3
:10BE2000E0298AAD8AA4EAB6E036E01FEA8FEAA7E5
:10BE3000E2B3E3BB005927FFFFFBFEFBFEFBFCFB6D
:10BE4000F9FBE3FB87C01FC07FFA1FFB87FBE3FB07
:10BE5000F9FBFCFBFEFBFE007ACBFFFFFFFEFBFEC7
:10BE6000F87EF802FB80FBFCCBFEC3FEF3FEFBFC7E
:10BE7000FA00FA02FBFEFBFEFFFE006625FFEFFE66
:10BE8000EFDECFDAC0DA80DA16D85680D682D6DA7C
:10BE9000D6DA56DA16DA80DA80DECFFEEF0096E8E0
:10BEA000FFFFDC00D800D9DFD8C7DA63DB31C00080
:10BEB000C000D9DFD8CEDA66DB32DBBAD800DC01CD
:10BEC000006C34FFFFFBFBFBF3FBE7FBCEFB8EF8C4
:10BED0003EF87EC000C001FE3FFC8FF9C7F3F3F7C8
:10BEE000FBFFFB0060CAFFBFF03FF07FC000C00057
:10BEF000E07DEC79E822EBA6ABBE8B80CB80EBBF7C
:10BF0000E827E821EFF90086F0FFFFED7EED46ED32
:10BF100002801A805AE9DAEB00EA00C0DAC0DAECF3
:10BF2000DAE0DAE000FC04FC7E005206FFFFFEFED1
:10BF3000FEFEFCFCF0F9C2E3CE07FE1FFEFEBEFED5
:10BF40008EFEC6FEF200F801FCFFFE7F00660EFFCB
:10BF5000FFE007C007DEF7DEF7DEF6C004E009C049
:10BF600003C007DDDFDDDEDDDEDDDEC000C000009A
:10BF70008C37FFFFF7BFF73FE700EE00CCBE9DBE5A
:10BF8000B9BEF3BEF3BED9BEDCBECE00E740F73F7C
:10BF9000FFBF00590FFFFBFFFAD072C036CAA6CA16
:10BFA00086CA82CAA8CAADCAADCAA8CAA2CAA6C051
:10BFB00026D07EFFFE006EE1FDFFDDFCCCE0E60357
:10BFC000E700ED00C573C403EC0FED67ED73C40229
:10BFD000C406ED62ED00EF80008292FFFFEF7FEF7D
:10BFE0007FEF018100817EEF7EE97EE87EEE7EEFCD
:10BFF0007E817E817EEF7EEF7EEF7E0079CDFDFF3C
:10C00000DDCFDD0FC000C000DD1FFDDFF80FF00F3A
:10C01000F7EF80008000F7EFF7EFF00FF80F0081E7
:10C02000F3FFFFDFFEDEEEDCEED8EED2EEC6EECEA4
:10C0300000DE00DEEED6EED2EED8EEDC6EDE2EFFB7
:10C04000BE006691FFF7FFB7C2B7C2B5D2A0D2AAB1
:10C05000D2AAD00AD00AD28AD2AAD22AD22AC02000
:10C06000C0B0FFBF0079CBFFF7DDE7DD8FC000C0B8
:10C0700000DC3FDD8EFC4CE071E3C3C00FC01FFF4E
:10C0800087FC63E078E3FC005904FFFFFF3EFC3CC3
:10C09000807D8009F783F7C3F419F03DFBFCC406EB
:10C0A000C006F8FEFC7EFF3EFFBE00767DFFFFFF70
:10C0B000FFF000E000EFBEEFBEEFBECFBECFBEEFA1
:10C0C000BEEFBEEFBEEFBEE000F000FFFF00973214
:10C0D000F7FFE738ED18C95EC940C940C914C0046C
:10C0E000C0A8CC20C806C946C946CD00E328E3FF56
:10C0F00000971CFFFFE1BBC0B3CA87CA00CA00CAD1
:10C10000A3C0B3C080CA80CAAACAAACAAACA80E009
:10C1100080E1FF00964DFFFFC000C000D8EFC00FC8
:10C12000C30FF303E623C6BBC0BBD800D800C0BB17
:10C13000C6BBDE3BFF3B0096EAFFFFF8FFD0DED533
:10C140005ED55AD55AD55AD51AC01AC05AD55AD51D
:10C150005AD55AD540D1C0F1FF0079BBFFFFDFE0CF
:10C16000D0C0D05FDE5BD443D503911B9B5BD14A2B
:10C17000D542D552DF5BD05ED0C0DFE1008FD8FF63
:10C18000FFFDFECDF8C401F603DFE9DFCCDF9EDE64
:10C190003ED800C000C5FEDC7EDE1EDF8EDFEE0076
:10C1A0006709FF7FEE7FEEFFEC00E800E1B7C5B75F
:10C1B0008DB7ADB7EDB7EDB6EDB6EDB6EC00EC0072
:10C1C000EFFF005929FFFFFEFEDEFEDEFCDEFDDE96
:10C1D000F9DEE3C087C01FDE1FDEC7DEE3DEF9DE67
:10C1E000FDDEFCFEFE004ECAFFFFFDBFFDBFF9BE37
:10C1F000F3BEF7BEE3BEC9BEDDBECCBCE6BDF7B93B
:10C20000F3B3F987FD8FFDFF00662FFFFEFF7EFF72
:10C210007CC141C043D673D679D600D600D66ED63F
:10C220006ED66EC06EC16EFF6EFF7E00786EFF7FB1
:10C23000DE7FC001C001DDFDDC01DA00D000C003FB
:10C240008B6F9801D001C36ECB6EF800FC00005BD1
:10C250009AFFFFF1FCE1F0EC03EC07EDF3EDF98C54
:10C26000018C00EDDEEDDEEDDEEDDEEDDEE1DEE3A8
:10C27000FEFFFFFFE7C787070787C7E7FFFFFEFF50
:10C28000E7DFFEFFB03FF307E7C467F467F4E7C4F6
:10C29000F307B03FFCFFE7DFFEFFFFFF001010D702
:10C2A0000CA5000044656275673A20652D506170E9
:10C2B000657220627573790D000000004465627537
:10C2C000673A20652D506170657220627573792020
:10C2D00072656C656173650D00FFFFFF000800006B
:10C2E0000002602828000001001400000001001274
:10C2F000120000010000000000000000000000002B
:10C300000000000000000000001901000001FFFF14
:10C31000400800000002902828000001401400009E
:10C320000001A01212000001000000000000000047
:10C3300000000000000000000000FFFF00190100E5
:10C340000001FFFF400800000002902828000001C3
:10C35000401400000001A0121200000100000000C3
:10C360000000000000000000000000000000FFFFCF
:10C37000801901000001FFFF8008000000029028E2
:10C38000280000018014000000015012120000017A
:10C39000000000000000000000000000000000009D
:10C3A0000000FFFF401901000001FFFF80080000AE
:10C3B00000029028280000018014000000015012A3
:10C3C000120000010000000000000000000000005A
:10C3D000000000000000FFFF001901000001FFFF46
:10C3E00044656275673A20457863656564696E6780
:10C3F00020646973706C617920626F756E6461721C
:10C400006965730D00FFFFFF3230253032642D2542
:10C410003032642D2530326420253032643A2530A4
:10C4200032643A25303264204F4B0A00E058002035
:10C4300040C6000088C7000000000000000014DFB4
:10C4400002FF00001D2B00000000000050C400008F
:10C45000000102000000DFDFFFFFFFFF010000001E
:10C4600000000000000000000000000000000018B4
:10C4700000000000000014DF02FF00001D2B000080
:10C480000000000088C40000000102000000DFDF9F
:10C49000FFFFFFFF0400000000000000000000009C
:10C4A000000000000000001800020000030100006E
:10C4B00095100000000000000000000002020200D1
:10C4C00003000000851000000000000000000000D4
:10C4D0000302030203000000A5100000000000009A
:10C4E0000000000000000000801A06003800000074
:10C4F000010208010A0B000000000000000000001B
:10C50000FD0A0000000000000CC500000101000A47
:10C510000AFFFFFF000C090E0F02020202000000DA
:10C5200001000000BCC50000D4C50000652C00005F
:10C530000000000038C500000001000000000000FD
:10C540000000000002000000C05D000000000000CC
:10C55000E02E000007FFDF000000000000000000E8
:10C5600064C50000010100000000000000000000A0
:10C5700000000000000000000000000000000000BB
:10C58000000000000000FFFFDFDF000000000000EF
:10C590000000000000000000CC0C000000000000C3
:10C5A0006606000001031000B51000000000000046
:10C5B000B4C5000040000701000000FF5C590020E6
:10C5C000C8C50000C0C7000098400020D0C50000CA
:10C5D00009FFFFFFDC590020E0C50000C0C70000D4
:10C5E000A8400020E8C500000CFFFFFF0902000082
:10C5F000020402050206020700000000000000001D
:10C60000312B0000000000000CC6000000010000FB
:10C61000B84000200F00FFFF00000000FFFF0000F7
:10C6200001000000000000000D00001000000000EC
:10C6300000000000000000000000000000000000FA
:10C640002400000048C60000008000000000000038
:10C650000500000001000000008000000200000052
:10C66000040000000A000000040000000B000000AD
:10C67000040000000C000000050000000D00000098
:10C68000000000000E000000040000000F00000089
:10C69000040000000001000000000106010100008C
:10C6A0000000010602010000040000000301000078
:10C6B0000400000004010000000001000801000067
:10C6C0000000010509010000000001050A01000049
:10C6D000040000000B0100000000010C0C01000030
:10C6E0000400000006020000040000000702000031
:10C6F0000400000008020000004000000C020000DE
:10C70000104000000D0200000000010000030000C6
:10C710000400000001030000000001030203000008
:10C7200010400000000400001000000001040000A0
:10C7300000000107070400000000010708040000D2
:10C7400004000000090400000400000000050000CF
:10C75000040000000D090000040000000E090000A4
:10C76000040000000F090000010801011E1C1E1A30
:10C770000A1106061400111005000200070000004F
:10C7800000000000000000009D430000A1400000E8
:10C79000B9430000A94000000942000055420000D2
:10C7A000A142000049410000A5410000CD41000028
:10C7B000F1410000354200006D410000854100005C
:10C7C00035580000D55700001D560000CD5600001A
:10C7D000ED560000C5560000C95600000D57000078
:10C7E0005957000036E0014038E0014090E4014034
:10C7F00032E0014080E401400A0900000A0900001B
:10C800003F0B00000100020008001000C0400020A3
:10C810000000000000000000000000000000000018
:10C820000000000000000000000000000000000008
:10C8300000000000000000000000000000000000F8
:10C8400000000000000000000000000000000000E8
:10C8500000000000000000000000000000000000D8
:10C8600000000000000000000000000000000000C8
:10C87000232D302B2000686C4C00656667454647C9
:10C88000003031323334353637383941424344454C
:10C8900046003031323334353637383961626364BB
:08C8A000656600FF00000000C6
:10C8A80064000100088A0000408A0000788A0000BD
:10C8B800B08A00000100000000001018000000000D
:10C8C8000000000000000000000008100000000048
:10C8D800000000000000000050000C00C0400020D4
:10C8E8000000000030C8000050C8000010C8000058
:10C8F8000000000000000000000000000000000030
:10C90800000000000000000000000000000000001F
:10C91800000000000000000000000000000000000F
:10C9280000000000000000000000000000000000FF
:10C9380000000000000000000000000000000000EF
:08C948002D05000001050000AF
:020000040101F8
:10001800FFFFFFFFFFFFFFFFFFFFFFFFFFFFFFFFE8
:0C002800FFFFFFFFFFFFFFFFFFFFFFFFD8
:040000030000677D15
:00000001FF
