:1000000000640020A56B0000716A0000A16B000075
:10001000A16B0000A16B0000A16B0000A16B0000B0
:10002000000000000000000000000000A16B0000C4
:10003000A16B000000000000A16B0000A16B00009C
:10004000E9530000A9500000E9530000E953000003
:10005000214700009D460000A1470000E147000045
:100060009D4F0000094200007D5100001D5200001C
:100070008541000000000000A5420000F54200009C
:100080007D630000000000003D5D000000000000F6
:100090009D6800000000000000000000000000005B
:1000A0000000000000000000000000000000000050
:1000B0000000000000000000000000000000000040
:1000C000FFFFFFFFFFFFFFFFFFFFFFFFFFFFFFFF40
:1000D000FFFFFFFFFFFFFFFFFFFFFFFFFFFFFFFF30
:10040000FFFFFFFFDFCEFFFFFCFF0F00FFFF0F002E
:10041000FCFF0F00FFFF0F00FCFF0F00FFFF0F00AE
:10042000FCFF0F20FFFF0F20FCFF7F40FFFF7F40FE
:10043000FCFF0D40FFFF0D40FFFFFFFFFFFFFFFF31
:10044000FFFFFFFFFFFFFFFFFFFFFFFFFFFFFFFFBC
:10045000FFFFFFFFFFFFFFFFFFFFFFFFFFFFFFFFAC
:10046000FFFFFFFFFFFFFFFFFFFFFFFFFFFFFFFF9C
:10047000FFFFFFFFFFFFFFFFFFFFFFFFFFFFFFFF8C
:10048000FFFFFFFFFFFFFFFFFFFFFFFFFFFFFFFF7C
:10049000FFFFFFFFFFFFFFFFFFFFFFFFFFFFFFFF6C
:1004A000FFFFFFFFFFFFFFFFFFFFFFFFFFFFFFFF5C
:1004B000FFFFFFFFFFFFFFFFFFFFFFFFFFFFFFFF4C
:1004C000FFFFFFFFFFFFFFFFFFFFFFFFFFFFFFFF3C
:1004D000FFFFFFFFFFFFFFFFFFFFFFFFFFFFFFFF2C
:1004E000FFFFFFFFFFFFFFFFFFFFFFFFFFFFFFFF1C
:1004F000FFFFFFFFFFFFFFFFFFFFFFFFFFFFFFFF0C
:1005000010B544F24014C2F20004237863B940F2FB
:100510000003C0F200032BB14EF6AC60C0F2000045
:1005200000E000BF0123237010BDC04640F200036D
:10053000C0F2000310B54BB144F244114EF6AC606A
:10054000C2F20001C0F2000000E000BF10BDC046D2
:100550000C23093130B591FBF3F40A256343C91A22
:10056000CCB2B4FBF5F4041B40F26D10A4B26043AE
:10057000A308C3186420B4FBF0F0181A40F29013DB
:10058000B4FBF3F45E3B5943053191FBF5F50019DB
:100590004019013A8018C11730BDFFFFF7B50700B9
:1005A000080011001A004B1E0B2B06D8531E1E2BE1
:1005B00003D8314BC318C72B04D90023BB803B8021
:1005C000BB70F7BD2D4BC418430213431D004B01F4
:1005D0001D432B00A4B22A4DA60076599E4202D993
:1005E000284BC418A4B2A300ED58FFF7B1FF0F26A3
:1005F0001F2201906909E8022A403140000DFFF7EF
:10060000A7FF214BA200D15840F2010C4B0B1E401A
:1006100040F2CD73E418A3B20C240093019B013384
:10062000181A80B2E3B201930D23E2B29B1A62461C
:10063000A2400A40E240013A554255411D35DBB225
:10064000854207D20E23019A401B9B1ADBB280B26F
:10065000013CE7D200223A7046B1B34206D90136D6
:10066000B34201D101323A70013BDBB2BB70009B57
:100670007870BB80A5E7C04630F8FFFF33F8FFFF76
:100680005C88000032F8FFFF2C85000083880C2076
:10069000B3FBF0F25043181AC0B2704783880A20A7
:1006A000B3FBF0F25043181AC0B2704783880C2095
:1006B000B3FBF0F25043181AC0B2704770B5040093
:1006C00016482518AEB20020322E18D80139C9B20A
:1006D0000B2914D84900C9B20E2A01D90131C9B277
:1006E000032675430E4EC808AD19285C07250D403A
:1006F000A8400C4A525C000602D401201A7070BD5A
:10070000152909D80848C840C10705D540F2FB7132
:100710008C4201D80132F0E7013AEEE730F8FFFFF2
:10072000748400001485000002082400F0B585B030
:10073000019302AB073307000D001600FFF7BEFF61
:10074000FF2468B16C1E6400E4B20E2E01D901349E
:10075000E4B202ABDA79B24205D10023019A1370F8
:10076000200005B0F0BDB24204D9961B019BF6B241
:100770001E70F5E70134E4B20E2E09D802AB0F2249
:10078000073329003800FFF799FF02ABDA79ECE76D
:10079000164BEB18013B1B780093022D14D1BB07BD
:1007A00012D16423B7FBF3F25343FB1A9BB23BB95C
:1007B0009133FF33B7FBF3F25343FB1A9BB21BB9E0
:1007C000009A0132D3B200930135E9B20D2900D16C
:1007D0000C3902AB012207333800FFF76FFF02AB81
:1007E000DA79009B961BF618C0E7C04668840000C3
:1007F000F0B50227002440F2E83685B03A000190B7
:10080000184903A806F0E2FA174D019A02AB9C7151
:1008100002AB03A91A7128002300032204F094FA02
:1008200000F000F93100052006F0F8F823003A0046
:1008300003A9280004F098FB00F0F4F831000A2026
:1008400006F0ECF85020019B4042184302AB032213
:10085000187103A92300280004F076FA00F0E2F8EA
:1008600005B0F0BD8F8B0000345A0020014B18807A
:100870007047C04662410020014B18807047C04657
:100880005C410020024B5A881B88428003807047DD
:100890005E410020F0B5002585B003222900060046
:1008A00003A8029506F09BFA382000F0D9F801243D
:1008B00000284ED022003821504804F0C9F92B00FE
:1008C000220001A94D4804F04FFB00F0ABF86B4645
:1008D00018221B79134093420DD01B20FFF788FF8D
:1008E0001C20FFF785FF1E20FFF782FF40F2E83152
:1008F0000A2006F093F80322414901A806F066FA9F
:100900000023032201A93D4804F01EFA00F08AF8F2
:1009100040F2E831502006F081F8642440F2E835D6
:100920000023012201A9354804F01EFB00F07AF8EB
:100930006B461B795BB2002B0EDB02AD0023072256
:1009400029002E4804F010FB00F06CF801280CD1AF
:100950000024200005B0F0BD013CA4B2002CECD076
:100960002900012006F05AF8DAE70022FF230827C1
:100970003C00A95C4B4059B28C4660465900CBB252
:10098000002802DA31235940CBB2013CE4B2002CFA
:10099000F1D10132062AEBD1AA799A42D8D10922A3
:1009A0006A44537811781B020B4340F2E8315BBA7A
:1009B000EA789BB21B0213431B094B43114F1248A9
:1009C0003F881B0D0380DB192F7912026D793A43A2
:1009D00012022A431203150B40F2D0726A43120D21
:1009E000F53AFF3A92B2428008481BB20088338041
:1009F000121872808B42ABDD3180AAE7345A002096
:100A00008C8B00005C4100205E4100206241002090
:100A10000122034B1A7008B102791A707047C04660
:100A200080400020012370B540F2F4150A4C237079
:100A30002378D8B2012B09D11DB9084804F05BFA1C
:100A400006E0010005F0EAFF013DF1E7002DF4D0DA
:100A50002078C0B270BDC04680400020345A0020CB
:100A600073B56B4600260A4CDD1D010001222000F3
:100A7000DE7104F0EDF8330029000122200004F0BB
:100A800073FAFFF7CFFF0138431E9841C0B276BD1D
:100A9000345A00200A2110B5B0FBF1F4B4FBF1F395
:100AA00002004B436143E31AD8B2521A00011043CB
:100AB000C0B210BD020903000A2050430F221340A8
:100AC000C018C0B2704703788B4201D901707047DB
:100AD0009342FCD20270FAE710B5040000223B21D9
:100AE0000830FFF7F0FF200000223B210A30FFF71B
:100AF000EAFFA01D00221721FFF7E5FF20000022DA
:100B000006210C30FFF7DFFF201D01221F21FFF718
:100B1000DAFFA01C01220C21FFF7D5FF0022632180
:100B20002000FFF7D0FF10BD37B50025012232218C
:100B300004002A480095019504F08AF82B00012250
:100B40006946264804F000F9FFF76CFF01283CD005
:100B5000082269462B00214804F006FAFFF762FFDD
:100B60006B461878FFF7A6FF6B4660815878FFF751
:100B7000A1FF6B4620819878FFF79CFF6B46E080D1
:100B8000DB780422102B0AD020D8023A042B06D09E
:100B90000132082B03D0023B5A425341DAB26B4672
:100BA000A2811879FFF786FF6B46A0805879FFF77E
:100BB00081FF6B4660809879FFF77CFF6B46208051
:100BC000D879FFF777FFE08100203EBD0522202B7A
:100BD000E5D02A00402BE2D10622E0E7345A00207B
:100BE000002373B500930500807AFFF753FF6B462F
:100BF0005870287AFFF74EFF6B469870A879FFF778
:100C000049FF6B46D870AC88E0B2FFF743FF6B46F4
:100C100058716E88F0B2FFF73DFF6B462D889871D2
:100C2000E8B2FFF737FF6B46721ED8713300012A16
:100C300039D940F2D072AD180322591C5143023207
:100C400091FBF2F25B001C191219AB105219D21869
:100C500064235B4295FBF3F3D21840F2901395FBAB
:100C6000F3F30721D21892FBF1F34B43D31A01336C
:100C700093FBF1F2514301225B1A110099400B00E2
:100C800069460B480B71322103F0E2FF0023082272
:100C90006946074804F058F8FFF7C4FE013843429C
:100CA0005841C0B276BD40F2CF720C33C3E7C046A4
:100CB000345A002037B56B460122DD1DD8710C0077
:100CC0000D48322103F0C4FF0023012229000A4805
:100CD00004F03AF8FFF7A6FE01280BD0002301220A
:100CE0002100054804F040F9FFF79CFE013843421B
:100CF0005841C0B23EBDC046345A002013B56B46C1
:100D00000A4C1871597101223221200003F0A0FF12
:100D10000023022201A9200004F016F8FFF782FE4A
:100D2000013843425841C0B216BDC046345A002073
:100D3000F7B56B46DC1D0E00210005001700FFF71C
:100D4000B9FF030001203BB92178B1432FB92170CD
:100D500028002178FFF7D2FFFEBD3143F7E737B512
:100D60006B46DD1D0C002900FFF7A4FF0300FF20E8
:100D70000BB9287820403EBD0122014B1A70704704
:100D8000984000200122014B1A70704764570020E0
:100D90007047FFFF01220A4B0A491A700A4A1000E5
:100DA000FC30836808329B07DB0F4B70D36F9B07C7
:100DB000DB0F0B7043689B07DB0F8B707047C046DF
:100DC00065570020025800200008044037B5FF2472
:100DD0000C4D0D4806F092F802F00AFE0B4806F0A2
:100DE0008DF840F20E1340F228129821280000944A
:100DF00002F07EFA280002F09DFA200002F02CFB9F
:100E000037BDC04664410020AE8B0000C38B00009C
:100E1000F7B5060008A8008898420FD90524D21A11
:100E200095B22200A4466A4392FBFCF7FF18013CEE
:100E300087420EDC094BA400E05800B908480023A3
:100E4000019310338AB2009331000B3302F054FB4C
:100E5000F7BD521B002CE7D1F0E7C04684400020CC
:100E60000890000070B5060000240800190004284E
:100E70000DD8358805F036FF1F031C2629000A23EC
:100E8000B5FBF3F5B5FBF3F46343EB1ADCB2324B7D
:100E90001D78FDB901351D70944201D26419E1B28B
:100EA000042828D8328805F01DFF202836454D003B
:100EB0006424B5FBF4F50A24B5FBF4F35C432C1B66
:100EC000E4B2E4E740F2E834F3E742F21074B5FB31
:100ED000F4F4F5E75D78002D3BD101355D708C426F
:100EE00001D9013CDBE71100DAE70A24B2FBF4F296
:100EF00054436418348001200CE06423B2FBF3F403
:100F000063430A24B2FBF4F565434C43521B9B1820
:100F10001B19338070BD40F2E833B2FBF3F4634336
:100F20006424B2FBF4F06043121A9B184C431B1963
:100F30003380E0E742F21073B2FBF3F4634340F214
:100F4000E834EEE742F21074B2FBF4F36343D31AD1
:100F5000ECE70020DEE7C04602580020F0B5002490
:100F60000825070085B02B000E002200A42176483A
:100F70000095019402F0C0FA2B002200DC21724897
:100F80000095019402F0B8FA2B00220040F21411EF
:100F90006D480095019402F0AFFA6C4D6C4B220045
:100FA000019321003B0025200294009502F018FBDC
:100FB000062E36D83000674E02940196009505F053
:100FC00091FE04324A627A9BAF00002208219820E9
:100FD000614B02F005FB00220821D8205F4B0294F0
:100FE0000196009502F0FCFA0022082140F2101050
:100FF0005B4B02940196009502F0F2FA00228021E8
:10100000D320584B02940196009502F0E9FA002291
:10101000802140F20210544B02940196009502F098
:10102000DFFA05B0F0BD0022082198204A4B02F0FB
:10103000D7FA00220821D8204C4B02940196009543
:1010400002F0CEFA0022082140F20810484B029428
:1010500001960095D0E7002208219820454B02F028
:10106000BFFA454B00220821D82002940196009532
:1010700002F0B6FA414B0294019600950022082135
:1010800040F21010CBE7002208219820324B02F0EA
:10109000A7FA3B4B00220821D0200294019600952C
:1010A00002F09EFA374B0294019600950022082127
:1010B00040F20810B3E700220821A0202B4B02F0D9
:1010C0008FFA00220821D820284B0294019600951F
:1010D00002F086FA0022082140F20810244B029404
:1010E0000196009502F07CFA00228021D3201D4B4E
:1010F00002940196009592E700220821A0201B4B44
:1011000002F06EFA174B00220821D02002940196BB
:10111000009502F065FA164B029401960095C5E71A
:10112000002208219820184B02F05AFA0B4B00229B
:101130000821D82002940196009502F051FA084B3C
:1011400002940196009599E7ADE30000009000003D
:10115000E0E50000D8E50000D38B0000DA8B00004A
:10116000DE8B0000E28B0000E98B0000F08B0000BA
:10117000F38B0000B38F0000FA8B0000FE8B0000A1
:101180008E8F0000028C00005D8C000030B50024C2
:1011900085B02D4DFF2002F05FF902212B48FFF7AB
:1011A000DDFE220020213820294B02940195009475
:1011B00002F016FA382122000800264B029401950D
:1011C000009402F00DFA220050213820224B0294A4
:1011D0000195009402F004FA2200682138201F4B88
:1011E00002940195009402F0FBF92200802138203E
:1011F0001B4B02940195009402F0F2F92200202189
:10120000C020184B02940195009402F0E9F92200E5
:101210003821C020144B02940195009402F0E0F9AB
:1012200022005021C020114B02940195009402F03D
:10123000D7F922006821C0200D4B0294019500943B
:1012400002F0CEF905B030BDD8E50000098C0000F1
:10125000168C0000238C0000308C00003D8C0000B8
:101260004A8C0000578C0000648C0000718C0000D8
:101270007E8C0000F0B5002789B001F05FFF0121EE
:10128000AF4801F0EDFFAF4CFF2002F0E5F8002180
:10129000AB4801F0E5FF01F0DFFE01F08BFFA28912
:1012A00007AB1A80162301253E00E28902A95B18CC
:1012B0001A80238A0322FF21A348049305F08FFD9F
:1012C0000594A14B9A78D4B2002A00D094E0013260
:1012D0009A70072E00D9F2E0B6180121984801F063
:1012E000BFFFFF2002F0B8F800219848FFF736FE54
:1012F00040F2DE3340F6FF71049A6427534393FBB8
:10130000F1F2934B00251B689248534393FBF1F392
:10131000390093FBF7F251435B1A8F4905F0F8FD52
:101320008E4B8F4A2021382001930092894B2A004E
:10133000029502F055F9049A8A49864805F0E8FDBD
:101340003821864B864A080001930092814B2A007F
:10135000029502F045F907AB1B883900B3FBF7F2A1
:1013600051435B1A9BB2804992B27A4805F0D0FD96
:101370007A4B7B4A5021382001930092754B2A000A
:10138000029502F02DF9162102ABC9180B8871489D
:10139000B3FBF7F25743DB1B74499BB292B205F0E3
:1013A000B7FD6E4B6E4A0193009268212A003820E7
:1013B000684B029502F014F9012E00D081E0102351
:1013C000382220216A480195009302F095F8002107
:1013D0005B4801F045FF002701F03EFE40F6CC419E
:1013E000644804F0BCFF6448013703F085FA0CB18F
:1013F00009B0F0BD250064E7082E2ED8300005F0B6
:1014000071FC0513252E32363D4145001A78002423
:101410000AB901341C70002D00D05EE740F22C1395
:101420009F42DBD90124D9E71A78D4B232B901320C
:101430001A70049B9B189BB204934EE75A78D4B25F
:101440005AB901325A70049B013BF4E7002304228D
:10145000022107A8FFF706FD05000024DBE70023B3
:1014600009220121F5E7002309221900F1E70023F1
:1014700004220221162002AC0019EBE70023092206
:101480000121F7E7002309221900F3E71A78002465
:10149000002AC0D101341C70162302AA9B181B8895
:1014A000059A0599D38107AA12880A338A810A000E
:1014B000049924481182538101F006FDABE7260010
:1014C0000BE7B31E022B15D81023502220210093C6
:1014D0002748019502F010F80321B6FBF1F108232B
:1014E000602271180F31C900C9B289B20195009309
:1014F00022486AE7731F022B14D810236822202188
:1015000000931B48019501F0F7FF0621B6FBF1F1AE
:10151000082371180C31C900C9B2782289B201952B
:101520000093E5E701210948FFF718FDDF2106B127
:101530002F3100230193083390220093D8E7C0464F
:10154000644100207058002002580020308C0000B8
:10155000685700206C5700208B8C0000D8E50000F5
:1015600000900000A08C0000B78C0000CC8C000024
:101570008DE3000090590020745A0020ADE3000074
:10158000F0B58BB001F0DAFD0121934801F068FE5F
:10159000FF2001F061FF00218F4801F061FE01F0A2
:1015A0005BFD01F007FE0322FF218C4805F017FCCC
:1015B0001622002601278A4B04A8D98A1218118006
:1015C0005A8B1D8B059206960793844B9A78D4B25A
:1015D000002A00D081E001329A70069B032B00D9CB
:1015E000E8E09B18069301217B4801F039FEFF20BB
:1015F00001F032FF00217B48FFF7B0FC162304AA5C
:101600009B18072200270A261B8877495A43774BE5
:101610007748D21805F07CFC764B774A28215B206E
:1016200001930092724B3A00029701F0D9FF05999D
:101630006F4871430A00714905F06AFC6D4B6E4AB0
:1016400040215B2001930092694B3A00029701F020
:10165000C7FFB5FBF6F25643AB1B69499BB292B28A
:10166000634805F055FC634B634A01930092604B5D
:101670003A0058215B20029701F0B2FF069B013B24
:10168000022B00D998E01822069B43215A431023CD
:1016900010325C4892B20197009301F02DFF0021B7
:1016A0004D4801F0DDFD01F0D7FC069B0026023B12
:1016B000012B04D864222800059902F091F840F625
:1016C000CC41514804F04BFE5048013603F014F968
:1016D0000CB10BB0F0BD270077E7069A042A1CD89E
:1016E000100005F0FFFA03111C3A53001A78002489
:1016F0000AB901341C70002F00D074E740F22C139B
:101700009E42DCD90124DAE70023162004AC012232
:1017100019000019FFF7A6FB07000024EBE71A7871
:10172000D4B252B901321A70059B9B189BB2059333
:10173000142B00D857E7059255E75A78D4B2002AFF
:10174000EBD101325A70059B013B9BB20593002BF4
:1017500000D048E71433059345E71A78D4B242B96C
:101760000132AD18ADB21A70502D00D83BE71E25DE
:1017700039E75A78D4B2002ACFD1013D0132ADB257
:101780005A701D2D00D92EE750252CE71A78002419
:10179000002AB0D101341C70162304AA9B181B88A0
:1017A000079A0F48D38213001583059A5A8301F0D4
:1017B0008BFBA0E7069416E701210A48FFF7CEFB52
:1017C000069BDF2103B12F310023019308339022C0
:1017D0000F48009361E7C046644100200258002092
:1017E000705800204A8C0000E18C0000E88F000057
:1017F0006C570020D8E5000000900000F08C00003D
:10180000FE8C00008DE3000090590020745A0020E7
:10181000ADE30000F0B500258BB001F08FFC012195
:10182000CD4801F01DFDFF2001F016FECB4E00213A
:10183000C94801F015FD01F00FFC01F0BBFC09A83F
:1018400007950895FFF71EF80622B35E07AFDA0F7B
:101850003A80DA179B1853407B800822B35E08ACAD
:10186000DA0F2280DA179B18534063802F0001247F
:101870000322FF21BA4805F0B2FA0496B84B9A78D1
:10188000D6B2002A00D022E101329A70082F00D986
:10189000B0E1BF18B048012101F0E2FCFF2001F0E7
:1018A000DBFD17B10021092F00D101210024AD4833
:1018B000FFF754FB02ABDB8BAB4AAC4D538002AB62
:1018C0009B8B20211380AA4B22005220029401936B
:1018D0000095A84B01F084FEA54B220020219E20FC
:1018E000029401930095A44B01F07AFEA04B2200D4
:1018F0002021E220029401930095A04B01F070FE9C
:1019000002AB1E21595E0A2391FBF3F04343984C2E
:10191000CB1A02B205941BB2002900DA5B42002404
:101920009749984805F0F4FA914B2200402116207F
:10193000029401930095934B01F052FE09AB0022F3
:101940009B5E0A220A2193FBF2F251435B1A1BB2FF
:101950008D4912B28B4805F0DBFA854B22000294C8
:1019600001936021874B1620009501F039FE07ABEB
:101970001A880A34002A00D13EE1844A5988B1FB12
:10198000F4F044430C1BA4B283B281497D48009417
:1019900005F0BEFA0022764B029201934021794B6A
:1019A0009120009501F01CFE08AB1A88002A00D196
:1019B00024E1764A0A215888B0FBF1F46143411AC8
:1019C00089B2A3B200916F48714905F0A1FA0022D3
:1019D000674B0292019360216A4B9120009501F0C0
:1019E000FFFD07AB1A885B88002A00D008E15E4A39
:1019F0005188C9185C4B09B2598008A842880088F0
:101A00001B88002800D0FFE0D318574A1BB2138070
:101A10000A2391FBF3F04343CB1A02B21BB2002915
:101A200000DA5B4200245B49564805F071FA504BDE
:101A300022004021DC2001930294524B009501F0DA
:101A4000CFFD0A21484B4F4800229B5E93FBF1F2E9
:101A500051435B1A1BB2504912B205F059FA444B7C
:101A6000220001936021474BDC200294009501F095
:101A7000B7FD7B1E032B00D9C8E0102340220421B0
:101A800000934648019401F037FD08235022B9081D
:101A9000C919C9006F39C9B201940093404801F0D7
:101AA0002BFD00212C4801F0DBFB340001F0D4FABF
:101AB000002540F6CC413B4804F051FC3A48013542
:101AC00002F01AFF002C00D1D8E60BB0F0BD0026C2
:101AD000092F0CD8380005F005F905141D24282C11
:101AE00031363A691A7800260AB901361E70002C80
:101AF00000D0CFE640F22C1334009D42D9D9012406
:101B0000D7E700230122190007A8FFF7ABF9002649
:101B10000400ECE7002309220221162002AC001980
:101B2000F3E7002309220121F7E700230922190026
:101B3000F3E700230122190008A8E6E700230922A1
:101B400002211A20EAE7002309220121F9E70023F4
:101B500009221900F5E7C0466441002070580020B2
:101B600002580020238C000018580020009000002C
:101B7000D8E50000128D0000198D0000208D0000B6
:101B8000278D00006C5700203B8D0000F18B00007A
:101B90004F8D0000308D0000448D00008DE300006B
:101BA000ADE3000090590020745A00201A780026F6
:101BB000002A9CD101321A7007AB58881B88ABB938
:101BC000049B00B208AAD8805388128882B9049A6C
:101BD0001BB21381FEF74AFE049B01260820185E03
:101BE000FEF74AFE194801F06FF980E74042E7E747
:101BF0005B42ECE737004DE6154ABFE6144AD9E6EA
:101C0000144A5188C91AF5E69B1AFEE67B1F032B7E
:101C100012D810236022042100930F48019401F090
:101C20006BFC3B1FFA0899180823C9006F39702212
:101C3000C9B20194009331E7DF2107B12F310023AE
:101C4000019308339022009328E7C0467058002083
:101C5000108D0000185800208DE300007FB500258E
:101C600001F06CFAFF2001F0F7FB2A4E2A4C01210B
:101C70002A4801F0F5FA05212948FFF76FF92A00F3
:101C800038213920274B02950196009401F0A8FCD9
:101C90002A0050213420244B02950196009401F033
:101CA0009FFC2A00214B6821442002950196009454
:101CB00001F096FC2900194801F0D2FA01F0CCF9A4
:101CC0000322FF211A4805F08AF8194B5A788AB97D
:101CD00001245C7040F6CC41164804F040FB1648E5
:101CE00002F00AFE002CF0D00322FF21104805F07C
:101CF00076F87FBD1A782AB9012410481C7001F0CB
:101D0000F9F8E7E740F22C14AC42A44101356442F3
:101D1000E0E7C046D8E500000090000064410020E4
:101D2000648C00005B8D00007B8D0000A08D0000A6
:101D30000258002090590020745A0020705800204A
:101D4000F0B5002487B001F0F9F901214C4801F009
:101D500087FAFF2001F080FB04214A480594FFF731
:101D6000FDF8082348489022DF210194009301F0F8
:101D7000C3FB3820FEF774FE002862D1434C3220AA
:101D8000FEF76EFE00285ED1404B22000024404E3C
:101D9000404D4149414805F0BBF822002821082068
:101DA0003E4B01960294009501F01AFC3C4B3D4AD3
:101DB0003D493A4805F0ACF8384B2200382108205C
:101DC00001960294009501F00BFC384A38493348DB
:101DD00005F09EF805AF22004821304B08200196FF
:101DE0000294009501F0FCFB380004F00BFE7978BA
:101DF000BB78FA78294800912E4905F089F822002D
:101E000058210820254B01960294009501F0E8FB2B
:101E10002200294B6821C02001960294009501F010
:101E2000DFFB2100164801F01BFA01F015F903222F
:101E3000FF21224804F0D3FF012640F6CC470025BD
:101E400008E01F4C9BE71E4B9FE740F22C13350028
:101E50009C42F4D9194B1A780AB901251E70390031
:101E6000184804F07CFA1848013402F045FD002DB2
:101E7000EBD00322FF21114804F0B1FF07B0F0BD01
:101E800064410020718C0000ADE30000C28D0000B1
:101E9000D8E5000000900000C68D00006C570020BF
:101EA000E78D0000F08D0000FC8D0000118E000019
:101EB000158E0000278E00003B8E00000258002087
:101EC000BF8D000090590020745A0020F0B5002703
:101ED00089B0AD48FEF728FEAB48FEF7FDFD01F0E6
:101EE0002DF9FF2001F0B8FAA84801F0DFF901F060
:101EF000B3F801F05FF90322FF21A54804F06FFF5A
:101F0000162201263D00A34B02A8998812181180C1
:101F100005939F4B9A78D4B2002A5CD101329A7013
:101F2000102D00D92EE1AD1800260121974801F0AF
:101F300097F9FF2001F090FA9349974F48894B8811
:101F40000A88039008890290C8880190898893487C
:101F50000091934904F0DCFF924B32004421482069
:101F6000009302968D4B019701F03AFB162202ABCB
:101F7000D218138807225A438B49884852188B4934
:101F800004F0C6FF874B320000936021834B48204A
:101F90000296019701F024FB1023019600930E2D69
:101FA00000D99FE044222521814801F0A5FA6B1E4B
:101FB0000B2B00D8A7E001217E48FEF7CFFF0823B6
:101FC00015B10D2D00D0C8E0002200930192082326
:101FD000DF219032A8E00024112D13D8280004F04E
:101FE00081FE57091B1F252B31363C41474C525768
:101FF0005E6970570023092201216348FEF732FF12
:1020000000240600002E8FD140F22C1326009F42A0
:1020100000D894E0012692E0002309221900ECE7A1
:1020200002225948002301218018E7E7002356487F
:10203000092219000230E1E700230322012152485E
:102040000430DBE70023092219004F48F8E700239A
:10205000022201214C480630D0E700230922190052
:102060004948F8E700230522012147480830C5E721
:102070000023092219004448F8E700230522012122
:1020800041480A30BAE70023092219003E48F8E720
:102090001A780024002AB5D101341C70B2E71A78EE
:1020A0000024002AAED1013237481A700234FEF7FC
:1020B00097FDA7E70023162002AC012219000019A2
:1020C0009CE71A780024002A9CD101321A7016234A
:1020D00002AA9B181B88059A2E489380033400F0AF
:1020E000F3FE8FE760222521314801F005FA0F2D1C
:1020F00039D131002F48FEF731FF08237022A42187
:102100000196009310E031002A48FEF727FF0123D3
:10211000691C99436B080933C91808235422C90064
:10212000C9B289B201960093234801F0E5F9002174
:10213000164801F095F8260000F08EFF002740F6C3
:10214000CC411E4804F00BF91D48013702F0D4FBC6
:10215000002E00D1DDE609B0F0BD902240F20E1154
:1021600001960093E0E701211248FEF7F7FEDF2118
:10217000102D01D140F20E1100230193083390225B
:102180000093D1E72500CFE60858002064410020E5
:102190000258002070580020D8E500006C5700203D
:1021A0004B8E000000900000E88F00006B8E000056
:1021B0008DE30000168C0000ADE300009059002074
:1021C000745A002070B50C4D012228000A2102F03B
:1021D0002DFC0223094A0A490A4801F02BFC40F26F
:1021E0004A14002244430A21280002F01FFC40F652
:1021F000FF7094FBF0F070BD305900204CEA0000F5
:1022000028EA00006C590020F0B500268BB000F0E1
:1022100095FF0121B84801F023F8FF2001F01CF9D7
:102220000021B54801F01CF800F016FF00F0C2FFD5
:102230000322FF21B14804F0D2FDB14B09AA998ACB
:102240003700118016220124598A04A8121811801F
:102250000696059604960793A84B9A78D5B282B94C
:1022600001329A70049B052B00D994E09B18981EAC
:102270000493042800D913E104F034FD3A55658A2B
:102280008E00049A062A00D92AE1100004F02AFDE3
:1022900004131F3F4F5E6C001A7800250AB9013500
:1022A0001D70002C79D12C0040F22C139F4200D8D5
:1022B000E8E00124E6E000230122190009A8FEF766
:1022C000D1FD04000028EFD000252C0065E01A782D
:1022D000D5B27AB901321A70FFF774FF3222069034
:1022E000642142F2283001F05FFA642001F0D4FB4F
:1022F000032452E05A78D5B2002A00D0F6E0013229
:102300005A70162304AA9B18069A1A80F0E7162022
:1023100004AC0019002303220221FEF7A3FD0400F0
:102320000028C1D000250024AB23059335E01620FA
:1023300004AC0019002309220121FEF793FD0400DB
:102340000028B1D000250024BB23EEE7002316208F
:1023500004AC001909221900FEF784FD04000028CE
:10236000A2D000252C0014E01A780025002A98D16C
:1023700001351D7009AB079A1B88614893821623AB
:1023800004AA9B181B88079A538200F09DFD88E7DA
:102390000024C323C9E7049501240121564800F015
:1023A0005FFFFF2001F058F821005648FEF7D6FDE8
:1023B000072209AB1B8800265A43534B534FD218B0
:1023C0005349544804F0A4FD01976427524A282138
:1023D0005B20504B00920296320001F001F9069901
:1023E0003B0091FBF7F253434A48CB1A4B4904F0A8
:1023F0008FFD464B484A40215B2001930092454B9C
:102400003200029601F0ECF8162304AA9B181B88F0
:102410004349B3FBF7F25743DB1B9BB292B23D48F3
:1024200004F076FD394F3C4A58215B20394B00922D
:1024300002963200019701F0D3F8374A394B0092E7
:102440007021320053200296019701F0C9F8049BD5
:10245000013B012B27D81823049A432153431033FF
:102460009BB205931023059A2F480196009301F023
:1024700043F80021204800F0F3FE260000F0ECFDB8
:102480002C00002740F6CC41284803F068FF28487C
:10249000013702F031FA002C00D1DDE60BB0F0BDBF
:1024A0002C00049279E7049B033B022B0ED81023E7
:1024B0005822432100931C48019601F01DF808237F
:1024C00068220599019600931A48D0E7049BDF2102
:1024D00003B12F3100230193083390220093F3E7D7
:1024E000002C00D1E0E63400002556E7002C00D196
:1024F000DAE60025FCE6C0466441002002580020D0
:1025000070580020578C0000E88F0000D8E50000CC
:102510007B8E00006C57002000900000868E00002B
:10252000978E0000AE8E00008DE3000090590020D1
:10253000745A0020ADE3000073B50026FEF726FEB6
:1025400000F0FCFD524800F0B1FE00F085FD00F007
:1025500031FE504803F0E0FE0322FF214E4804F014
:102560003EFC012534004C4B1A78D1B2002A3BD1F5
:1025700001321A70082C00D17BE0A41801214448D4
:1025800000F06EFEFEF702FE1822042C00D974E063
:1025900000232021624301932032103392B2009332
:1025A00000263E4800F0A8FF0021394800F058FE00
:1025B000350000F051FD40F6CC41364803F0CFFE27
:1025C0003748013602F098F9002DCCD000F07DFE9E
:1025D000304803F0A3FD0122324B1A700023324A27
:1025E0001380324A137073BD5A782AB901325A7077
:1025F000002C40D0013CC1E79A788ABB01329A7026
:10260000082C09D8200004F063FB05191C071F22C1
:102610002528E100FFF75AFC00F090FDFF2000F0B4
:102620001BFF1B4800F042FE00F016FD00F0C2FD4B
:102630000322FF21184804F0D2FB9FE7FFF7EAF8D6
:10264000EAE7FEF717FEE7E7FEF79AFFE4E7FFF792
:10265000DBFDE1E7FFF702FBDEE7FFF771FBDBE7FE
:10266000002D00D08AE740F22C15B542AD416D42F5
:10267000A1E70C0082E7082480E7631F5A43002388
:10268000203201931033A82192B2009388E7C0460C
:102690006441002090590020025800208DE3000082
:1026A000745A002098400020065800205C570020F3
:1026B000F0B58DB0012240F20941060009ADCD48C8
:1026C00002F0B4F90A220021280004F088FB00245B
:1026D0000023C94AC949CA4801F0ACF96300013472
:1026E000E852052CF4D1002240F20941C14802F021
:1026F0009DF92100280001F093F9C24DC24F2860D6
:10270000398AC24804F074FB40F2DE33398A2A6801
:102710004B4340F6FF7193FBF1F3534393FBF1F30B
:10272000BB481900069304F063FBFB89069AB9487D
:10273000934237DDB84B1D68AD07ED0FECB2002CAE
:1027400030D102F03DFEB54802F03AFE00F0F6FC52
:10275000FF2000F081FE0121B14800F081FD9823A7
:1027600022002100AF48009301940B3300F0C4FE17
:10277000AD4B02220193AD4B4021B920009302944E
:10278000AB4B00F02DFF2100A54800F069FD00F0E3
:1027900063FC00F09AFDA74B1C80A74B1D70200026
:1027A0000DB0F0BD02F0ECFD9C4802F0E9FDBB8AE3
:1027B00083B1FFF707FDA04B00221C781D00798A2A
:1027C00024B114008142EADB2A7003E08142FBDA83
:1027D00001221A70002E00D004E100F0AFFC974CEB
:1027E00001218F4800F03CFDFF2000F035FE200065
:1027F000FEF79AF940F2D07007252188904E09180B
:1028000023793000A27889B2FDF7C8FE71788D482F
:1028100069430918638822880491B1788A4869431A
:10282000091803913178894E890089190291A1898B
:10283000874E8900891900260191A1888548009159
:10284000854904F065FB854A31000192774A0820EA
:10285000804B02960092012200F0C2FE40F2D0733B
:10286000208802AAC0181B23D67602AE9B192279B3
:10287000A17880B2FDF75AFF2A004243784902ABA3
:102880005218DB7E754926000791002B00D0ACE082
:102890007449754804F03CFB6948FDF7FFFE0400ED
:1028A0006748FDF703FF05006548FDF7EFFE6F4A37
:1028B0006F49AB009B18A20052186421069C069D2C
:1028C00094FBF1F46143691A039167498000019117
:1028D000684902944018009067495E4804F018FB6C
:1028E0000024102340F2281219002000009400F068
:1028F00043FE5A4B012201934C4B102108200093B8
:102900000294544B00F06CFE3389F2885B495148C5
:1029100004F0FEFA5A4B5B4D02222821142000934A
:1029200002944C4B019400F05BFE2800FDF7B2FFCF
:102930000A200222AB5E0022A95E93FBF0F20500A2
:1029400055435B1B1BB2DD175B196B4091FBF0F528
:102950006843091A09B22DB29BB212B201913D48E7
:102960004949009504F0D4FA3C4B022201932F4BC5
:10297000852100933220374B029400F031FEBB8A50
:1029800053B12D4B85221B7840F20E110193102379
:102990003E48009300F0B0FD69460124098B7B8915
:1029A000BA8940F20A1000911021FEF731FA002195
:1029B0001B4800F055FC00F04FFB00F086FC34484B
:1029C00004F09CFAFB8AA34200D0E8E633897289BE
:1029D0001343002B00D0E2E69622798B388B00F06F
:1029E000FFFEDCE600F0E6FBF9E62A491E4804F0AB
:1029F0008FFA51E73059002014EA0000F0E9000096
:102A0000485900206857002070580020C88E0000E8
:102A1000D48E0000005B0020B0080440B4590020B0
:102A2000644100204C910000E0E5000000900000AF
:102A3000E58E0000065800205C5700200858002052
:102A40005E570020D4820000B5830000AD830000F3
:102A5000928B00006C570020F28E0000D8E5000039
:102A6000FC8100001A8F0000D0570020A4820000D3
:102A70001084000038840000378F0000618E000051
:102A8000F88F0000185800204D8F0000B5E30000BB
:102A90006B8F0000268F000070B5204C204803F09B
:102AA0003DFB2378BBB11F4802F08AFC00231E487F
:102AB000237000F0C3F81D4BDB6F9B0708D41C4B41
:102AC0005A68920704D49B689B0701D5FFF734FD31
:102AD000144802F055FC174D2B7873B10023164CA7
:102AE0002B702088FFF7E4FD10B12288013222808C
:102AF00022883C2A01D900222280104B08481B78EA
:102B00004BB103F009FCC0210548490203F027FC42
:102B100001232B7070BD03F001FBFBE7645700201D
:102B200090590020005B00207058002008080440E5
:102B3000FC08044098400020065800205C57002004
:102B40007FB500F0FBFAFF2000F086FC0121284849
:102B5000002400F085FB4023264D274E58222100FB
:102B600000932648019400F0C7FC06212448FEF794
:102B7000F5F9220020219820224B0294009501961D
:102B800000F02EFD2200382158201F4B02940095A2
:102B9000019600F025FD2200502190201B4B02944D
:102BA0000095019600F01CFD682122000800184BDA
:102BB00002940095019600F013FD2200154B882128
:102BC000BE2002940095019600F00AFD21000848FD
:102BD00000F046FB40F6B83500F03EFA00F075FB19
:102BE00006342800013C00F057FF002CF9D17FBDCE
:102BF0006441002000900000D8E50000D5E300000B
:102C00007B8F0000888F0000958F0000BA8F000036
:102C1000CA8F00003B8E000010B50549054803F03F
:102C200011F8040010B1044804F068F9200010BD48
:102C3000D4EA0000A05A0020E8E5000010B5040026
:102C400001881D4804F0D4F861881C4804F0D0F8CD
:102C5000A1881B4804F0CCF80623E15E194804F073
:102C6000C7F80823E15E184804F0C2F861891748E4
:102C700004F0BEF8A189164804F0BAF8218A154874
:102C800004F0B6F8E189144804F0B2F8618A1348F8
:102C900004F0AEF8A18A124804F0AAF8E18A1148BB
:102CA00004F0A6F8218B104804F0A2F8618B0F48BD
:102CB00004F09EF810BDC04618E6000023E60000B0
:102CC00031E600003DE600004BE6000058E600005B
:102CD00065E6000072E600007FE6000091E6000075
:102CE0009FE60000B2E60000BEE60000D1E600006C
:102CF00010B504001C22074904F068F84AF6A52321
:102D000022889A4204D01C222000034904F05EF875
:102D100010BDC0460000104070E80000054B06489A
:102D20001A00197811B901780029FAD01078C0B2C8
:102D30007047C0461E5800201C580020F0B5050002
:102D4000002785B002AB1C2246494748DC1D27708E
:102D500004F03CF81C222900434804F029F800281C
:102D60006BD0424B424E1C2237703E491F70414887
:102D7000230002F0F7FE3D4B019318B13E4804F0EA
:102D8000BDF85AE023788BB900213C4804F030F8B4
:102D900000233B4F3B702378012B16D10122314990
:102DA000344802F083FFA0B33648E8E7012B02D194
:102DB00000213548EAE7022BEAD1344804F09EF8B6
:102DC000FFF7ACFF0128DFD1F2E7FFF7A7FF0128EB
:102DD000E4D03B788BB10023019A33702149137002
:102DE000244823001C2202F0BDFE0028C6D123780F
:102DF000CBB90021214803F0FBFF0023244C29001C
:102E00002370184A1B481C3302F070FE08B3214897
:102E1000B5E7214B1B7813B13B78002BFCD01F4842
:102E200004F06CF8D5E7012B09D10021164803F016
:102E3000DFFF00211A4803F0DBFF05B0F0BD022BD5
:102E4000DBD1124804F05AF8FFF768FF0128D0D10F
:102E5000EBE7114B1B7813B12378002BFCD0114802
:102E60008DE7C04600001040205800201C5800206C
:102E70001E580020A05A0020E1E6000017E70000DD
:102E80001D58002089E700002CE7000045E70000FE
:102E90001F580020FBE70000D4EA0000BAE700005A
:102EA000CDE700002CE8000010B5054802F0A8FCB2
:102EB000040010B1034804F021F8200010BDC04602
:102EC000A05A00203FE8000010B50400FFF7A4FE60
:102ED000012320006380FFF731FFFFF7E5FF2000AB
:102EE000FFF706FF40F22C12C82141F6583000F0DF
:102EF0005BFC10BD10B50400FFF78EFE0748FFF71E
:102F00001DFFFFF7D1FF2000FFF7F2FE40F22C1269
:102F1000642142F2283000F047FC10BD70E8000048
:102F2000007800B5032806D8012303F0DBFE07096B
:102F30000502044A137000BD034AFBE7034AF9E7A0
:102F4000034AF7E71E5800201C5800201D58002097
:102F50001F58002070B540F2001605000C4C0122ED
:102F600040F20051200001F061FD0121022003F038
:102F700055FD31000022200001F058FD280000F02E
:102F800011FD31000122200001F050FD70BDC0464E
:102F90003059002070B50400451820780134FFF73F
:102FA000D9FFAC42F9D170BD10B5084803F0A6FFB7
:102FB000322000F071FD064B9B6B9B0703D5054843
:102FC00003F09CFF10BD6420F3E7C0468CE80000CE
:102FD000000804409AE8000070B540F22815132458
:102FE000FF20013CFFF7B6FF002CF9D1013D002D79
:102FF000F5D170BD70B50C000500861D287801352F
:10300000FFF7A8FFB542F9D1013C002024B2FFF739
:10301000A1FF002CF8D170BD70B540F2001605007C
:103020000C4C002240F20051200001F0FFFC012175
:10303000022003F0F3FC31000022200001F0F6FC36
:10304000280000F0AFFC31000122200001F0EEFC6E
:1030500070BDC0463059002010B5064B1B7813B127
:103060009220FFF7D9FF1220FFF7D6FFFFF79CFF52
:1030700010BDC0463C58002010B52F4C00220D2139
:10308000200001F0D3FC00220F21200001F0CEFC33
:10309000322000F001FD01220F21200001F0C6FCCA
:1030A0000A2000F0F9FCFFF77FFF0120FFF7B4FFD3
:1030B0000320FFF74FFF0020FFF74CFF2B20FFF707
:1030C00049FF2B20FFF746FF0320FFF743FF0620B1
:1030D000FFF7A2FF1720FFF73DFF1720FFF73AFF8A
:1030E0001720FFF737FF0020FFF796FFBF20FFF7FD
:1030F00031FF0D20FFF72EFF3020FFF78DFF3A2024
:10310000FFF728FF6120FFF787FF9820FFF722FFD6
:103110000120FFF71FFF2820FFF71CFF8220FFF789
:103120007BFF1C20FFF716FF5020FFF775FF1720CD
:10313000FFF710FF10BDC046305900200022174B8A
:1031400010B51A70FFF798FF2020FFF765FF2C21BC
:103150001348FFF71FFF2120FFF75EFF2A211148C8
:10316000FFF718FF2220FFF757FF2A210E48FFF72D
:1031700011FF2320FFF750FF2A210C48FFF70AFF19
:103180002420FFF749FF2A210948FFF703FF042005
:10319000FFF742FFFFF708FF10BDC0463C58002074
:1031A000B0E80000E2E8000012E9000042E9000097
:1031B00072E9000010B50124234B1C70FFF75CFF7F
:1031C0002020FFF729FF26212048FFF713FF2120A9
:1031D000FFF722FF24211E48FFF70CFF2220FFF7F4
:1031E0001BFF24211B48FFF705FF2320FFF714FFD7
:1031F00024211948FFF7FEFE2420FFF70DFF2421AC
:103200001648FFF7F7FE0420FFF706FFFFF7CCFE96
:103210009120FFF701FF9020FFF7FEFE0020FFF74F
:1032200099FE9720FFF796FE0020FFF793FE0020FF
:10323000FFF790FE2000FFF78DFE2720FFF78AFEA4
:103240002820FFF787FE10BD3C580020DCE8000076
:103250000CE900003CE900006CE900009CE900007A
:1032600010B504001020012900D00330FFF7D4FE70
:10327000BCB1012240F200510B4801F0D7FB002203
:1032800040F20011084801F0D1FB41F2F851200052
:1032900000F09CFB012240F20011034801F0C6FB44
:1032A00010BDFFF799FEFBE73059002010B5040070
:1032B0001020FFF7B1FEFFF78FFE00212000FFF77F
:1032C000CFFF1120FFF7A8FE10BD10B55020FFF76B
:1032D000A3FEF720FFF73EFE0220FFF79DFEFFF75B
:1032E00063FE0720FFF798FEA520FFF733FE10BD11
:1032F00030B503AC25880E4C20600220E08200200F
:10330000A5812083218120006281CD084C0700D057
:103310000135002445828282C38104820BB1B42B23
:1033200002D18180C28030BD8280C180FBE7C0466F
:103330008C580020014B18607047C0468C58002004
:1033400070B5434C0300A088984202D3E0888842BD
:1033500003D2404803F0D2FD70BDE089B42819D0F3
:103360000ED830B15A28F7D120890138401A1900F7
:1033700083B2208A0328EFD803F0B4FC1915373341
:1033800040F20E15A842E7D160890138C01A0B003F
:1033900081B2EEE720890138C31A60899BB20138F7
:1033A000411A89B2E5E720890138C31A9BB2208906
:1033B0009842CED360898842CBD3E08A02281CD1C0
:1033C000608A25684143D80880B209180720184050
:1033D000802303416C185BB269565AB99943217036
:1033E000BAE720890138C31A9BB260890138411AB3
:1033F00089B2DCE70B432370AEE7042812D1608A60
:10340000256841430324980880B20918C02023404E
:103410005B002240184192011A416E5C86433243A0
:103420006A5499E7072800D096E7608AF02541435F
:10343000580880B20918012003409B001D41120169
:103440001A412468605CA8430243625484E7C04682
:103450008C580020A2E9000030B5194B4FF6FD74DE
:10346000D98A8D1E2A002240254211D1998A914283
:103470000CD830BD54431D686D180131285589B2F0
:103480005C8A8C42F6D8013292B2EFE70021F7E76E
:103490000729EED1020110430022C0B2998A91425D
:1034A000E7D9002105E054431D686D180131285506
:1034B00089B25C8A8C42F6D8013292B2EEE7C046FD
:1034C0008C580020F7B50C001600019308AB1F883C
:1034D0000090019B9C420CD3F7BD28003A002100CC
:1034E000FFF72EFF0135ADB2B542F6D30134A4B2D9
:1034F000EFE7009DF8E7FFFFF0B585B00BAD2D7845
:103500001400AC461B4D0AAAAE881288F61A370082
:103510008E4200DD0E00E988B6B2891AA14200DDB4
:103520002100073289B2D410BF1BD208C908BFB22C
:10353000019403920291DBB100240DE019006E8A20
:1035400071437E4309198919029E891966465EB93D
:10355000065D2A6801345654039AA1B28A42EDD816
:10356000019A013B8018E6E7065DF643F6B2F0E704
:1035700005B0F0BD8C580020F7B508AC2578174C85
:10358000A688B61AB446864200DD0600E788B6B2C1
:10359000FF1A8F4200DD0F0061460733BFB28E1B5A
:1035A000DB08F90801930B0069424D41B0B26D424E
:1035B0008AB9F7BD678A390051438C462168474371
:1035C000C91889196144CD550136019FB1B2B9427C
:1035D000F0D3013AECE70026F7E7C0468C5800200C
:1035E000F0B58DB01F0014AB1B7808920393039ABB
:1035F00000230690079102B9FF239BB20B9300238F
:1036000002930020385608B90DB0F0BD002841DB08
:10361000129BBBB30299069D129A4D1969465C78BC
:1036200012789B78801A898BA2B2ADB2002822DB77
:103630005C43E4106043129E7668301804960619C5
:103640000596129EF6787443049E3419059EA64290
:1036500011D8039C0093019413000A002900FFF77E
:103660004BFF129B5B78089A9B18029AD3189BB267
:1036700002930137C5E70B98DB0800902800FFF79D
:1036800021FFEEE72028F4D1139B002BF1D0129BF1
:103690005B78FFDE139B002BEBD0402318420AD04F
:1036A000203B184256D0C30607D5030703D4012197
:1036B000795600295AD1139BD4E70123FB56002BDE
:1036C000F9D0022179560029F5D040F6C0720007E2
:1036D0009B011A40000C10433F2202370A4002436C
:1036E000002AE8D00024139B13995B78049389780F
:1036F00005911399059DC9785D430A912100ED104C
:10370000EB1C09930A9B8B42D5D01398406806198D
:10371000B5787678AC46055D36022D042B006546FB
:103720001D43AC46099B1B191D0063461E43B24254
:1037300035D16B466A4603340019039C0299069DF5
:103740001B8A928B0194059C491989B20094FFF75A
:10375000D3FEB0E70123FB56002BACD040F2C07281
:10376000800110403F2201371A40B8E70222BA56C2
:10377000002AA0D00323FB56002B9CD0FC24090375
:10378000A4022140E02480046403204008433F2138
:103790000B401843033740F6C0739201E4E7013150
:1037A0002C00C9B2AEE7FFFF70B50E0015000B4C40
:1037B0000100200001F06AFE200001F062FE0022FC
:1037C0003100200001F0D4FE280040F2E83103F07F
:1037D00025F9200001F050FE70BDC046D85A0020E7
:1037E000F8B5104D104EB5FBF0F50C003000290077
:1037F000170001F04BFE300001F043FE0521B5FB40
:10380000F1F14C430A210022B4FBF1F1300001F048
:10381000AFFE380040F2E83103F000F9300001F06B
:103820002BFEF8BD80A90300D85A00200023F0B574
:103830001C004D1E5A006600825A365A964218D80D
:103840006E00365A964200D21D0001339942F1DCD7
:1038500000231A008F1E944206D0954204D05600D1
:10386000865B96FBF7F69B1901329142F3DC98B226
:10387000F0BD1C00E9E7FFFF837813B90122014B7B
:103880001A7070474C5800200379022B03D1012293
:10389000114B1A707047042BFCD183680F4ADBB2BE
:1038A00013700F4AA52B12D10121116000210D4A7E
:1038B00011600C480268511C0160082904D15A2B80
:1038C00002D101200849086008498B54E2E71268D8
:1038D000002ADFD0EDE7C0464E5800200C590020EA
:1038E000445800204058002048580020A858002084
:1038F00007B50122019001A9054800F08FFD054B95
:103900001A78002AFCD0002201981A700EBDC04619
:10391000CC5900204E58002070B50E001400002530
:10392000A54201DB200070BD7057FFF7E1FF0135B4
:10393000F6E7FFFF10B5134B88B01A68012A1ED1B5
:1039400000221A60104B04AC5A78200022809A782A
:103950006280DA78A2801A79E2805A7922819B7992
:103960006381FDF73DF96089A38862882188029010
:1039700020890190E0880090044803F039FA08B0EB
:1039800010BDC04648580020A8580020C0E90000DB
:103990000279034B012A01D11A7070470222FBE71A
:1039A0004D58002007B56B460122D91D087007232A
:1039B000044800F0AFFA044B1A78012AFCD1002227
:1039C0001A7007BDFC5900204D5800200A0007233B
:1039D000010010B5044800F09DFA044B1A78012A42
:1039E000FCD100221A7010BDFC5900204D58002057
:1039F00010B50A4C002240F20051200001F016F8E8
:103A0000002240F20011200001F010F801220F21E5
:103A1000200001F00BF8012010BDC04630590020F5
:103A2000030010B50020022902D91800FFF7FEFE9E
:103A300010BDFFFF70B51500040086B01E0002F037
:103A400091FD2900200002F023FE0025200002F055
:103A5000DDFC00230F4A13701378002BFCD00121EA
:103A6000142002F0DBFF01AB6A003100D218200005
:103A700002F0D5FC0135200002F0CDFC0A2DE5D185
:103A8000200002F023FD290001A8FFF7CFFE06B0B9
:103A900070BDC0464C58002013B5040069460C4860
:103AA00002F049FB40F2E831E403B4FBF1F10848CD
:103AB00002F055FC064802F02FFC064800F01CFFFF
:103AC0006B461B7913B9024802F028FB13BDC046B0
:103AD00090590020745A002037B50121604802F047
:103AE00003FB04215E4802F0FFFA5E495E4800F0E5
:103AF00009FD5E495E4800F0F3FE5E495E4802F053
:103B000047FB5E495E4801F081FDFDF75FF95D49C5
:103B10005D4800F03FFA5D495D4801F08FF95D4B6B
:103B20009A68920709D45B689B0706D45A4BDB6FEF
:103B30009B0702D55948FFF7DDF9584D2800FFF7DC
:103B4000D7F86C88B4B906222100684603F047F91B
:103B50000223534A5B4253495348FFF76BFF6A46BF
:103B600063000134D052032CF2D121006846FFF7E4
:103B700057FF2882FEF7E4FF642241F65830110017
:103B8000FFF712FE40F22C10FFF786FF0022012102
:103B9000464800F04BFF4649464801F0ABFB46491A
:103BA000464801F0A7FB454801F0EAFB414801F017
:103BB000E7FB4349434801F09DFB424801F0E0FB2D
:103BC0000623E85EFCF752FE0823E85EFCF754FE8D
:103BD00000220121354800F029FF202101220D207B
:103BE000FDF7A6F802210E20FDF7B9F860B100211B
:103BF0000E20FDF783F83448FCF796FF3248FCF7B7
:103C00006BFF3148FCF7ECFF60210F20FDF776F8E1
:103C1000FEF742FFFFF78EFE2C4B1B689B07F7D485
:103C20001B4801F06FF9184800F0A0F8284C2060FC
:103C30000D4800F0C3FB20600D4800F05DFE114907
:103C40002060114800F0A6F910492060104801F0EA
:103C5000F5F804492060044800F054FC2060D7E7E0
:103C600038590020F0EB0000CC59002028EC00006F
:103C7000745A002098EB00009059002048EB000097
:103C8000D85A002018EB0000FC590020E8EA000098
:103C9000345A0020FC0804400808044070580020F2
:103CA00084EA000060EA00007C5A002030590020BD
:103CB00098EA0000005B0020C0EA0000105B0020D2
:103CC000ACEA0000B459002014590020B0080440A8
:103CD0002C59002010B518B90122054B1A7010BDDF
:103CE0000228FCD1034B0448596800F045FFF6E771
:103CF00090C07E40E4E900003059002010B5FFF785
:103D0000EBFE002010BDEFF30380103840B2704787
:103D1000F7B5FF27019283080A4A03269B009B18E8
:103D20003A0040F200350640F6008901B2403940C1
:103D3000B1405C598000944321435951019A024B90
:103D40001A50F7BD00E100E0645B00201F22430928
:103D500010401E3A8240044920339B005A50BFF362
:103D60004F8FBFF36F8F704700E100E0002310B565
:103D70000360436804005B691BB19A681868126AA3
:103D8000904763681B691BB19A681868126A90476C
:103D9000022063681856FFF7D9FF012063681856A0
:103DA000FFF7D4FF032063681856FFF7CFFF042006
:103DB00063681856FFF7CAFF40210020A3681A78ED
:103DC0008A431A70DA78D87010BDFFFFF7B51E006D
:103DD00008AB1D78836801911B7840219C4667469B
:103DE00004000B4008200F4248D101996361A36190
:103DF000631CE1602261E661DD7763685869A0B900
:103E00006368651C1A69EB7F9C46002A3BD1A16858
:103E1000EB7FCA7A088A4024D2B280B20F2B5DD8D9
:103E2000072B5DD96024A2435BE04368A661196853
:103E300040F2300CCB780F2D04D96546AB43103DD2
:103E40002B4303E0072D1AD86546AB430C25CB70F6
:103E50008B78AB439C46082367463B438B70B3B2D9
:103E6000CB818A6022B98B78AB438B70264B8B60F9
:103E7000836800685B6898470028C1D0FEBD65462E
:103E8000AB431025DCE7674653686661196830204C
:103E9000CB780F2F03D983431038034302E08343C9
:103EA000072F19D80C20CB70CB78B6B283439C4631
:103EB000082367463B43CB70019BCE814B6023B9FF
:103EC000CB788343CB70114B4B60936810685B6871
:103ED000984700289BD0D1E71020DEE7A24320249A
:103EE00022430F2B02D901339B08053B084C1B02D0
:103EF00020400343D2B29BB2CA720B8240230A789D
:103F0000002013430B70B9E750580020545800208C
:103F1000FFF0FFFF07B5009313000022FFF756FFE5
:103F20000EBDF0B50500806A85B08C4601AC90B13D
:103F300023000200C2CAC2C36B681B7803606346D9
:103F40000371EB6A83606B6A9847AB6A0BB107CC6D
:103F500007C305B0F0BD2000EEE7FFFF030010B57A
:103F60000949C0339B005A58084C22405A501F221E
:103F70000123024093404009054A8000801840F226
:103F800080128350036010BD00600040FFFFFEFF01
:103F900000E100E0F0B50B78764A1B020E6989B0AB
:103FA0009B1807000C0001938EB9636903BB0025C1
:103FB000A369714A7B62E3697C60FB622378BD621E
:103FC0009B181B02BB60617A39B3019528E08022FF
:103FD000716812050B6830681A60019A9A60B368BC
:103FE0001B68984705000028DFD0280009B0F0BD05
:103FF0008020596800030A681060019850609A6830
:1040000018681268904705000028D0D0002EECD028
:10401000B36830681B6A9847E7E7102308250193C7
:10402000E27A637B52001B031A43A37A1A43236A82
:104030001878002800D094E0B0305C782843E5017F
:10404000A843650064012C4304430594DC78987808
:1040500040F2000CA04006907020824318792401A1
:1040600028B140F2200C022801D140F2300C5879DE
:1040700028B1012877D00120019D05430195987949
:104080000790187A8007000F204310430290002900
:104090006BD14EF200020100114302915A7A039251
:1040A0009A7A0492DA7AEFF31086012181F310886C
:1040B0007D6832482D784468290013256D1A012146
:1040C000A9408C434460416886F31088B968002594
:1040D000C8786846007DCD7008706846007ED2B210
:1040E00048706046C0B28870DB7902248B726B46E0
:1040F0001B7B0B736B461B7C4B736B461B798A7364
:10410000CB736B461B893A000B82079B0131CB773F
:104110007B681C5799792000FFF7FAFD20000124E5
:10412000FFF71CFF7B683A001C5759792000FFF706
:10413000EFFD20000424FFF711FF7B683A001C57B5
:10414000197A2000FFF7E4FD2000FFF707FF0320A6
:104150007B683A00D9791856FFF7DAFD084B3B60C7
:1041600043E7B12069E7032086E700220492039227
:1041700099E7C0460420074020074000FC6F044038
:104180004950535210B5FFF7BEFD03001A49C03322
:104190009B005A58194C800022405A50184BC25864
:1041A0009369D1698B420BD11F215368DB785BB2D5
:1041B0005A090B401E3999409300124A995010BD7C
:1041C0001169906831B94168D169013393619942AD
:1041D000F5D1E9E7541CE47F0F2C03D9446898001B
:1041E0004450F1E7072C02D80079C854ECE78488E2
:1041F00058000C52E8E7C04600600040FFFFFEFF99
:10420000645B002000E100E010B5FFF77CFD0300D7
:104210002049C0339B005A581F4C800022405A50FE
:104220001E4BC4586268136A5BB15B78012B08D1DE
:10423000E1696069013981420ED103201056FFF710
:104240008DFE6369E269934205D0E268A16882B994
:104250004A600133636110BD11690029F1D01F204C
:10426000D27852B25109024093408A000C4953500F
:10427000E7E7601CC07F0F2802D998008258E7E763
:10428000072802D8D25C0A71E3E75800825A8A8074
:10429000DFE7C04600600040FFFFFEFF645B0020D8
:1042A00000E100E010B5FFF72EFD03000E49C0331A
:1042B0009B005A580D4C22405A500D4B8200D45846
:1042C000A368DB789B0703D563685B7A012B0AD16F
:1042D000FFF73CFD4021A268200013788B43137048
:1042E0003F39FFF71EFE10BD00600040FFFFFEFFDC
:1042F000645B002070B5FFF706FD4021134B820080
:10430000D5580400AB681A788A4300211A70DA780D
:10431000D970D6B2130703D528000531FFF701FE87
:10432000F30703D504212800FFF7FBFD14231E40EB
:104330009E4203D108212800FFF7F3FD044AC03450
:10434000A400A35803490B40A35070BD645B002038
:1043500000600040FFFFFEFFEFF30380103840B223
:104360007047FFFF030010B50949C0339B005A583E
:10437000084C22405A501F2201230240934040091A
:10438000054A8000801840F280128350036010BDFF
:1043900000600040FFFFFEFF00E100E01F22430934
:1043A00010401E3A8240044920339B005A50BFF30C
:1043B0004F8FBFF36F8F704700E100E070B50025AD
:1043C000036A040045609D70C36905201856FFF715
:1043D000E5FF0B20E3691856FFF7E0FF0720E369CC
:1043E0001856FFF7DBFF0920E3691856FFF7D6FFE1
:1043F000EFF31081012383F31088E369064A1C78E8
:1044000080231B06E340506803435360536881F3E5
:104410001088280070BDC046FC6F044030B57B2575
:10442000046AA3782B40A37083789B079B0FD21A52
:1044300002618022CB18C360A3781343A3708378F2
:104440007D3A1340022B06D14FF600620B881343CE
:10445000E381002030BD0B78E370FAE7F8B5140073
:10446000060010000D00FFF799FF23000F49C0332D
:104470009B005A580E480327024040F200305A5021
:104480000C4AA3089B009B181A5827401100FF22D2
:10449000FF00BA4091430A00FF21AD010D40BD402D
:1044A00015431D50044BA400E650F8BD00600040C9
:1044B000FFFFFEFF00E100E0645B0020F0B50500B7
:1044C000806A87B08C46019202ACC8B12300060016
:1044D00086CE86C336681E60EB691B780360634630
:1044E0008360019B0371EB6AC3606B6A9847AB6A98
:1044F00023B107CC07C31A002368136007B0F0BDCF
:104500002000E9E7F8B5614A0B780D009B185B01C4
:104510000362002303704A69C16142628A69032110
:10452000C262827883628A430133134383706B785B
:10453000040023B9827802338A43134383700B2229
:104540002000AA56A97AFFF789FF05222000AA5663
:104550002979FFF783FF07222000AA56A979FFF7E0
:104560007DFF09222000AA56297AFFF777FFEFF393
:104570001086012181F3108880202F780006F840F2
:10458000434B5A6882435A605B6886F31088002266
:10459000236A28789A701A715A729A72DA725A8358
:1045A00040F20722C2400A4201D04022DA740622B9
:1045B0001A7708B9374A9A82AA78E9786878120196
:1045C000C9000A43032847D140210A43B231D2B27D
:1045D000C9B21A70997102212026FF20ED692A7B49
:1045E00052000A405A736A78A978D20149013140D1
:1045F00002400A4300212E781972B11E012930D8D9
:104600005870022E01D110210A43D2B20027052092
:10461000DA71E369E76027616761A7611856FFF700
:10462000A1FE0B20E3691856FFF79CFE0720E36903
:104630001856FFF797FE0920E3691856FFF792FE18
:1046400003231E406D331E43236A38009E706B891E
:104650002381114B6360F8BDF2210028B7D11039D6
:10466000B5E703276968D2B2DA718A7848785A7058
:104670001A783840BA4302431A70CA789A740A7892
:104680005C21D8790A4088430243BFE70038000222
:10469000FC6F044000F8FFFF5549435370B5FFF726
:1046A0005BFE03001B49C0339B005A581A4C800024
:1046B00022405A50194BC058C3691B69FBB90169A4
:1046C00059B97F22016A8B781A40042313438B70F7
:1046D0000021436AC160CBB970BD03248378056AA9
:1046E000C2681C40022C0ED14FF600661488344379
:1046F000EC819B079B0FC91AD3180161C360036942
:10470000002BE9D1DDE71478EC70F2E78022FFF7A7
:10471000D5FEE1E700600040FFFFFEFF645B002084
:1047200013B5FFF719FE03001A49C0339B005A580E
:10473000194C800022405A50184BC4580323A278C9
:10474000216A1340022B09D1098AC905C90DA36941
:10475000019133B9636A0422C3B913BD4979C9B25F
:10476000F5E7920701A96069920F02F02FFBA1788B
:1047700063698907890F5B186361A369591AA1618D
:104780000029EAD1636A002BE7D001222000FFF75D
:1047900095FEE2E700600040FFFFFEFF645B002043
:1047A00010B5FFF7D9FD7B210A4B82000400D058D9
:1047B000026A93780B409370436A1BB10222002176
:1047C000FFF77CFE044AC034A400A35803490B4001
:1047D000A35010BD645B002000600040FFFFFEFF9F
:1047E00070B5FFF7B9FD154B82000400D0580322C5
:1047F0008378056A1340022B1CD1298AC905C90D8B
:1048000038222B791A40DB0604D52B7FDB0701D435
:1048100040231A4338262B79B3432B71436A0BB1DB
:10482000FFF74CFE064AC034A400A35805490B40CC
:10483000A35070BD6979C9B2E2E7C046645B00204D
:1048400000600040FFFFFEFF044A1378DB06FCD443
:10485000034A1378DB06FCD47047C046A0E0014051
:10486000AAE0014070B50400012002F059F9FFF7F9
:10487000EBFF22781300F2B100231449022A14D16D
:1048800060692269124B1A6002435042424140F271
:104890000020E37EA57E5B0013430A5A520A5202AF
:1048A0002A430A52207E0B4A107040F2A012A068E0
:1048B000885048F20002084992B28A81074ADBB266
:1048C0000120137002F006F9002070BD0060004066
:1048D00098E0014094E0014000E0014092E0014096
:1048E00010B5040008006160FFF7BCFF08B9014B78
:1048F000236010BD4D504C5270B50600FFF7A4FF69
:10490000012002F00DF9174B174C9B89DB0B012B93
:1049100012D1164BDB7F2278DBB2D20709D50525F1
:10492000DBB9134B1B78012B17D1124B1B78012BD2
:1049300013D1002002F0F4F873681B78022B04D125
:104940002278823B134323702378BFF34F8F30BF0D
:104950007F220025237813402370012002F0BAF84B
:10496000280070BD00E0014092E0014007E00140F6
:1049700038E0014032E00140EFF31080012383F37F
:104980001088064B196819B9054AD1704031D170A9
:104990001A6801321A6080F310887047605B00204B
:1049A000000D0440EFF31081012383F31088074BBF
:1049B0001A6812B11A68013A1A601A681AB9044BD7
:1049C000DA708032DA7081F310887047605B002003
:1049D000000D044003000020186070470B00090A16
:1049E000DBB20901C918044B8900CB5800209B0792
:1049F000DB0F13707047C04600080440034B090AE0
:104A00004901C9184B68002013807047000004401A
:104A10000548090A49010918180090430004134089
:104A2000034300208B607047000004400123C8B29C
:104A3000834000209BB20AB118000023044A090AEF
:104A400049011B040343891800208B607047C0464E
:104A5000000004400648090A49010918180010B569
:104A60000C6810402043934398430860002010BD19
:104A700000000440044B090A4901C9184B68002092
:104A80001B0C13807047C0460000044010B5084856
:104A90000B0A5B011B185C680123C9B28B40240C14
:104AA00099B223405B1A59424B410020137010BD4C
:104AB000000004400548090A4901091818009043FC
:104AC0000004134003430020CB6070470000044003
:104AD000062070470123C8B2834010B598B2002465
:104AE000012A01D0040000200A4B090A4901C91813
:104AF000CB682404012A07D14FF6FF720343144305
:104B000023400020CB6010BD034A234310430340E1
:104B1000F7E7C046000004400000FFFF030A70B53D
:104B2000C0B2084D1B01CA0307D51A189200AE582F
:104B3000054C26400C40AE50AC501B189B00E95071
:104B400070BDC04600080440FFFFFEFF70B50500C1
:104B50000024FFF711FF2B88A34202D8FFF722FFA2
:104B600070BD6A68E300D318988819680134FFF7AC
:104B7000D5FFA4B2EFE7FFFF10B5034B03600800B9
:104B8000FFF7E4FF002010BD54524F5010B508004D
:104B9000FFF7DCFF002010BD70B515000C00FFF71B
:104BA000EBFE29002000FFF7B9FFFFF7FBFE002016
:104BB00070BDEFF30380103840B27047F7B5FF27A0
:104BC000019283080A4A03269B009B183A0040F290
:104BD00000350640F6008901B2403940B1405C59C9
:104BE0008000944321435951019A024B1A50F7BD5A
:104BF00000E100E0645B0020030010B50949C03308
:104C00009B005A58084C22405A501F220123024050
:104C100093404009054A8000801840F2801283507A
:104C2000036010BD00600040FFFFFEFF00E100E0F8
:104C30001F22430910401E3A8240044920339B0042
:104C40005A50BFF34F8FBFF36F8F704700E100E002
:104C50004160027200207047F7B50400806B6D461A
:104C600080B12B000200C0CAC0C3E36B01710360B6
:104C7000636B9847A36B0BB106CD06C300232B349F
:104C80002370F7BD2800F0E773B501002B4B2C4AC9
:104C90001B6A2C31134002690193019C019E137C15
:104CA0000D78DBB28DB92405240F360EA41BA3406A
:104CB0009B080BB9082076BD5478E4091CB1013B70
:104CC000F7E70870F7E7B323D37104000023283413
:104CD000237084690362C461C41DE57F0134E577F4
:104CE00023342370A370E370237163710468656AD1
:104CF0002B786D78013B5E4273416D0004332B438A
:104D00000125DBB2D37053792B4353710F23E35644
:104D1000002B06DB1F245A0923409D409300094ABB
:104D20009D50BF2203690020DA710A78D4B2002AAC
:104D3000C7D1023220005A70BDE7C04600E00140F2
:104D4000000F000F00E100E010B504002A342370CA
:104D50008261027A4161012A08D10021831DD9773D
:104D60004368411D5B00CB77C31DDA770300002247
:104D700029331A70FFF788FF10BDFFFF1F2370B59E
:104D800002690C0001681370403313700500803312
:104D9000486A13700679FF3B1E43F6B21674C67854
:104DA000496833437026DBB2537483781B01334068
:104DB000683E3343937003784078013B5E42734111
:104DC0004000043303431C48DBB2D370F723814215
:104DD00000D0803B5371002311269371B333D371FC
:104DE000A6572A00617B3000FFF7E8FE30000F264F
:104DF000FFF702FFA6572A00617B3000FFF7DEFEB7
:104E000030001026FFF7F8FEA6572A00617B30001D
:104E1000FFF7D4FE30000E26FFF7EEFEA6572A005D
:104E20003000617BFFF7CAFE3000FFF7E5FE9F22EE
:104E30002B691A7070BDC04640420F00F8B50025BE
:104E40000B78194A01609B181B0203618B680400F0
:104E500043600B7B0372CB6943630B6A8563C36357
:104E6000EFF31086012383F310880F780F4ABC46B6
:104E700009276346FF1A0123BB40506898435060DE
:104E8000536886F310882000FFF778FF230029334A
:104E90006561A561E56125621D705D709D70DD70C5
:104EA000034B2800E360F8BD30054000FC6F044070
:104EB0004349495270B50500C36904002C352BB92C
:104EC0002B781BB903002B331B7883B131B100233E
:104ED000226920002168D371FFF750FF0022E31DF3
:104EE000E261D97F21331970A36923622A70B3224A
:104EF0002369DA7170BD10B50121FFF7DBFF0020D7
:104F000010BDFFFF70B5040000250121FFF7D2FF9F
:104F100011202369DD712368E5601856FFF788FECC
:104F20000E2023681856FFF783FE102023681856BA
:104F3000FFF77EFE0F2023681856FFF779FEEFF388
:104F40001080012383F310882168064A0C78092118
:104F5000091B8B40566833435360536880F31088B5
:104F6000280070BDFC6F044010B504002A34237083
:104F70008261027A4161012A09D10021831DD9771A
:104F80004368411D5B001343CB77C31DDA770300F1
:104F9000012229331A70FFF777FE10BD37B5FFF7EE
:104FA00008FE3E4AC030800083583D490B40835084
:104FB000FFF7FFFD3B4B8000C45821002D310B78DB
:104FC000E569CBB9A2692369012A03D9402218797E
:104FD00002431A71012D07D11022187902431A7168
:104FE0000822187902431A716A46DB7CDBB2D3715E
:104FF000D37901230B7037BD002DFCD0032D17D1C1
:105000004023226911790B4313712369216ADB7CE8
:1050100062695354236A01332362E369013BE3610C
:10502000002BE8D14021226913798B431371E2E709
:10503000022D09D11022236919790A431A71082215
:1050400019790A431A71E0E7012DDED123002A33D2
:105050001B78DBB10F2023681856FFF7E9FD80228B
:1050600023695242D9790A43DA71102219790A4325
:1050700008211A711A798A431A7104225A705A79CE
:10508000AA435A7123002C331D70BEE708212369FF
:105090005A7A8A435A725970B7E7C0460060004096
:1050A000FFFFFEFF645B002070B5FFF782FD2F4C11
:1050B000C030800003592E4D2B400351FFF779FD7E
:1050C0002C4B8000C35818000830C27FAAB11C00C6
:1050D000DD1DED7F28342178032D05D1022903D170
:1050E0001D0030352D783DB15D1DED7F1B6901310F
:1050F000013A9D742170C27770BD1A00293212786E
:10510000002AF9D1D9691A6921BB7F20D1790140E0
:10511000D171C021D079C00910B101390029F9D16C
:105120001B681B7C5BB21900C031890060580540C8
:105130006550002B09DB1F20590903401E38984099
:105140000B000D4960339B0058504023D1790B432D
:10515000D371D1E7186A5E690139365C0130967403
:105160001862D9610029C7D1CFE7C046006000406E
:10517000FFFFFEFF645B002000E100E010B5FFF7D9
:1051800018FD234B8000C458230029331B7843B1FA
:1051900023000833DB7F012B03D1230030331B783E
:1051A000CBB1E369BBB923002A331B784BB30F2083
:1051B00023681856FFF73CFD802223695242D979B3
:1051C0000A43DA71042201215A705A798A435A71CA
:1051D00023002C33197040212269D3798B43D3717A
:1051E000C023D179490602D5013B002BF9D1FFF745
:1051F000E0FC084AC0308000835807490B408350C8
:1052000010BD082123695A7A8A435A725970E2E71D
:10521000645B002000600040FFFFFEFF70B5FFF7F9
:10522000C8FCE022304B8000C4582369597A5A7276
:10523000DD3AC8B20A40C90635D5597849060DD4B9
:105240000125230029002B331D702000FFF732FEBB
:1052500044E00125002941D00021F6E7002AEFD1E2
:105260005A785206D20FD1B201291ED120002B301C
:10527000027008205A7A82435A7222685870526A21
:105280001278013A504242410232DA705A790A43A6
:105290005A71FFF78EFC154AC030800083581449BC
:1052A0000B40835070BD002ACAD108220100114072
:1052B000104206D122002C321278002AE9D042078F
:1052C000E7D522002B321278002AC2D122002932DF
:1052D00015786A425541B3220235DA71290020005F
:1052E000FFF7BAFCD5E7C046645B002000600040D1
:1052F000FFFFFEFFF7B502228A561D4C93001D19D1
:10530000270040F20034027101932B598E680093FC
:1053100000232B518660CE68C6600E784671BB555F
:105320000B79CF781B013B434F79DBB2FF013B4345
:105330000F4FDBB2BB55009B2B51002A13DB03261A
:1053400093083240B2404978FC368901314096409A
:105350009140084D9B005B191D59019AB5430D43BF
:105360001D51054BD050054B03600020FEBDC046CB
:105370000060004000E100E0645B0020554349000C
:10538000042310B5C3560B481A00C03292001158BE
:10539000094C214011501F21012219408A405B090C
:1053A00006499B005B1840F2801100205A501A6099
:1053B00010BDC04600600040FFFFFEFF00E100E0BE
:1053C00004221F21825653090A401E3991400A00C7
:1053D000203304499B005A50BFF34F8FBFF36F8FA8
:1053E0000020704700E100E073B5EFF30384103C48
:1053F000114B64B2A200D258104D517901266B5C5A
:105400009B079B0F032B07D02300C0339B005859E9
:105410000B4E304000265851936823B1D26868463D
:105420000191009298472EB1C034A4002B59044A30
:1054300013402B5173BDC046645B002000600040E8
:10544000FFFFFEFF030010B50849C0339B005A5808
:10545000074C22405A501F22430910401E3A8240F6
:10546000044960339B005A5010BDC04600600040A4
:10547000FFFFFEFF00E100E08368C26800209A6041
:1054800070478368C26800205A60704710B544684E
:10549000836824784A1E9A661CB9490801395965FF
:1054A0009965D96AC90705D45A66AA22D2031A6433
:1054B000C268DA60002010BDF7B5041E019221DB3E
:1054C000FF27114A830803269B009B183A0040F2ED
:1054D00000352640F6008901B2403940B1405859A4
:1054E00090430143019A5951084BA1002000CA5032
:1054F000FFF7A8FF1F20012263090440A2400249D0
:105500009B005A50F7BDC04600E100E0645B0020FC
:10551000F0B54E424E4185686C6E01340EB9A14221
:105520001FD3DB070FD46B6BDB064068DB0E007804
:1055300003280BD901201B094340034069B99BB9DB
:1055400002235360F0BD6B6BDB02EEE70C200340DF
:10555000043B58424341DBB2F0E7002BF0D1032378
:10556000EFE701391160EDE7002CE9D0F7E7FFFF25
:105570000323F0B5134085B0019301235B420293EE
:105580000023060003931500130002AA0F00FFF783
:10559000BFFFB36803999C461C6B59B902221300E4
:1055A000280700D593180298154219D09B00634430
:1055B000D8641865019B012B21D0124B1C400B04B1
:1055C0001C43022D13D129B101233900300002AA56
:1055D000FFF79EFF0C4B1C40039B1B061C4309E07E
:1055E000019A9A181232920062445060E2E7019BDD
:1055F000002BEFD10020B3681C6305B0F0BD022D75
:10560000E1D0E7E7FFFFFCFFFFFFFFFC0122F0B561
:105610000E000B7C11009940040087B0C160466009
:10562000002B00D1BFE00274644AF5699B181B028D
:10563000A36073696361B369E3610023A361EFF35E
:1056400010820092012282F31088327C5C491000A3
:105650004242424140F2200C60465242CF68024032
:10566000413A3A40CA60CA68009A82F310884AF206
:105670000051A2681160D362D3639364307A716879
:10568000C005D06280200006106150619061A86959
:1056900053629362D061E8694F1E10629766576645
:1056A0000122524204923278EF6A0593002A00D018
:1056B0007BE0490801390491049AA3685A659A6508
:1056C000059A110412061143EA6A009101926ABB1D
:1056D000327802922A7892B1697802988A0103920C
:1056E0000A0194460922022801D001B9033A17435E
:1056F000039A17436246174340F200121743AA78F1
:10570000A2B1E9788A01944660460A0102430298F0
:1057100040F2090C022802D009B940F2060C614699
:105720000A4312041743802252041743190000222F
:1057300088319A630A60019A3AB96A1CA91CD27F1F
:10574000C97F520349070A431743AA22D2031A64A6
:105750003278012A02D10022DA641A65E2680099DF
:10576000DA6003220A435F631A63012212200A43AC
:105770001A63717C22003056FFF79EFE1F20EB1C3F
:10578000D97F6B1D22001856FFF796FE1F202B1D98
:105790000635D97F28562200FFF78EFE0020094BE0
:1057A000236007B0F0BD03743EE7012A00D883E709
:1057B0002000F16804AAFFF7ABFE7DE780074000F8
:1057C000FC6F044054504700030010B50949C03332
:1057D0009B005A58084C22405A501F220123024075
:1057E00093404009054A8000801840F2801283509F
:1057F000036010BD00600040FFFFFEFF00E100E01D
:1058000000231122036043689A56130021330DD000
:105810001F2153090A401E3991400A0020330449D0
:105820009B005A50BFF34F8FBFF36F8F002070471C
:1058300000E100E04143032903D989080139002927
:10584000FCD1704743F6B07370B5114A114D8168B1
:10585000EA5204000620FFF7EDFF40F28013A52274
:10586000EF21EA500C4B953A5A7059705A705B7898
:10587000934200D1C0460320A168FFF7DBFF6368B5
:105880001A781AB111201856FFF79EFF70BDC04656
:1058900080AAFFFF00C07E40FFC07E40304B70B545
:1058A0001A68040013002F482F4D016A4901490F5F
:1058B0008B40CB402D49E3608B4207D8AB4205D0EB
:1058C0002B498B4202D02B498B4246D1006A4001C2
:1058D000400F82401100284AC14028489B18B3FB62
:1058E000F5F2834235D8244B0620C918B1FBF5F1F7
:1058F00040F283534B43B3FBF0F3236140F2763322
:105900004B43B3FBF0F3636158234B43B3FBF0F31A
:10591000A3611B4BE2604B43B3FBF0F3E361194B14
:10592000A1604B43B3FBF0F32362174B174A4B4381
:10593000B3FBF0F3636243F6C0730024D454144BFA
:105940001A78012A03D001221A70FFF773FF200092
:1059500070BDD307C7D50132C5E740F2F614F6E7AC
:10596000EC5B002000E0014040420F00FF083D00DA
:1059700080841E00C0C62D003F420F003F8AF70101
:10598000B86A0500D066050068ED220000C07E40C0
:1059900090C07E4044F6003313B5A522019340F237
:1059A0008013F7210F4CE2500F4B9D3A5A705970FB
:1059B0005A705B78934200D1C04601680620FFF719
:1059C00039FF43F6B073094AE252E25A90B202B983
:1059D00016BD019A1AB1019A013A0192F5E7142015
:1059E000F6E7C04600C07E40FFC07E4000AAFFFF31
:1059F00003000022343310B51A7043F6B073094A1D
:105A00000400D35A0BB9FFF71DFF01212000064BFC
:105A100008309A6A0A439A629A6A8A439A62FFF73E
:105A2000B9FF10BD00C07E40FCC07E40F7B5174DE9
:105A30001C002E0001912B6B5B0617D57F27144BA2
:105A40005D7D3D405D7500255D750191336B5B06A5
:105A500012D440F2F0130F49C95813000B400A4208
:105A600002D0FFF7C5FF23001800FEBD019B4BB11C
:105A7000019B013B0193DEE7019B1BB1019B013BB5
:105A80000193E3E7FFF7B4FF1423EDE7FCC07E408A
:105A9000FFC07E4000C07E4010B51823122241692D
:105AA0000400FFF7C3FFB8B9A26A531CA362E36AFC
:105AB000591CE162216B481E206368B107495B18DD
:105AC0000749180C9BB248824B815278054B08203D
:105AD0005A638122044B5A7510BDC0460100F0BDC7
:105AE000FEC07E40FCC07E40FFC07E4070B50025F9
:105AF00004003430057023636368E2621B78A1629E
:105B00000BB1012303702000FFF79CFE0121114A15
:105B1000A06A53798B4353710F49E36A5B180F49AD
:105B20001D0C9BB24D824B8101780D4B00255963B2
:105B30008123537563681B7853B92000FFF7ACFFCE
:105B400005000828F9D018B920000830FFF722FF17
:105B5000280070BDFFC07E400000F0BDFEC07E404A
:105B6000FCC07E40F8B51E0003001500002234334F
:105B70001A704268040012780F000AB103221A70EA
:105B80002000FFF75FFE1B4B1B4AF91801275079D5
:105B90006B1EB843507119480F0C47825B18184FA1
:105BA00089B24181190C9BB2796243838323537577
:105BB00063681B7823B10223002533702800F8BDE9
:105BC000A16940F2F813694310222000FFF72EFF6D
:105BD000050040B92000FA6A08301207D20F32706F
:105BE000FFF7D8FEEAE70828E8D02000FFF700FF1B
:105BF000E4E7C0460000F0BDFFC07E40FEC07E402E
:105C0000FCC07E4070B50400FFF71CFEE3683F2037
:105C100040F2D8120A491F2B0CD9203B5B081F33D6
:105C20008D580340854320002B438B500830FFF7ED
:105C3000B1FE70BD1F25013B2B408D58F2E7C046D9
:105C400000C07E40F8B50B7804004160CBB1112054
:105C50000856134B032582089200D2180B7CFF21B3
:105C600040F200370540ED009B010B40A940AB40DE
:105C7000D6598E431E430B4BD6518200D450FFF7AA
:105C8000A3FD23000022343320001A70FFF706FE24
:105C900028B92000FFF7B6FF08B9034B2360F8BD11
:105CA00000E100E0645B00204E45504F030070B5FA
:105CB0001500002234331A704268890A12780400F1
:105CC0008E020AB102221A702000FFF7BBFD0121EB
:105CD000164A53798B435371154B2563F018567947
:105CE000A0628E435671AB02124E010C013B7182D1
:105CF0001B18114980B27081180C9BB248627383E3
:105D000084235375636800261B7863B9216A1122C6
:105D1000200069431933FFF789FE060018B92000F7
:105D20000830FFF737FE300070BDC046FFC07E4030
:105D30000000F0BDFEC07E40FCC07E4030B585B0A6
:105D4000EFF30383103B5BB21A002648C032920087
:105D50001158254C9B0021401150244A9C58230087
:105D600034331D78012D1ED12000FFF795FE082346
:105D7000984330B12000FFF73BFE072302AA1370BF
:105D800003E0236B6BB902AB1D7020000830FFF7F6
:105D900001FE6268536823B1D26802A8039201929F
:105DA000984705B030BD022D0AD1192311222000D9
:105DB000216AFFF73BFE0028DCD102AB1870E4E754
:105DC00040F2F81310222000A169FFF72FFE0028EF
:105DD000D0D1074BDB6A1B0701D50323CEE7022393
:105DE000CCE7C04600600040FFFFFEFF645B002080
:105DF000FCC07E40F7B504240191009204571C4971
:105E00002200C032920055581A4E3540555048F283
:105E100000055258184ED205D20D2A433500F78995
:105E20009742FCD008223270019E144AA40016B199
:105E30001659019F7760009E16B11659009FB760F2
:105E40003F261459E278B243802A0DD1A38118234A
:105E50002B7004238022C3565204C0339B00C858C1
:105E60000243CA500020FEBD002AF0D1E381EEE7D4
:105E700000600040FFFFFFFE005400400040002093
:105E8000062070470620704704238022C356044929
:105E9000C0339B0058585204024300205A507047A8
:105EA000006000400423C3560449C0339B005A5885
:105EB000034802405A5000207047C046006000402E
:105EC000FFFFFFFE0423C3560E4A9B009B5800228F
:105ED0003F200A604A60DA7882436AB1C130886044
:105EE000D889C0B2C860802A04D1802252020A60D8
:105EF0009B894B6000207047802252028A60DB89B8
:105F0000CB60F7E700400020042230B58256074CF2
:105F10001100C03189000300054D08599200284046
:105F20000851002003495050186030BD0060004007
:105F3000FFFFFFFE0040002030B53F21FF24C37863
:105F400005008B432BB1C289D3B21B0222401343FD
:105F5000C381AB7810308B43002BF0D130BDFFFFF5
:105F60001C4BF7B50E0019780400A9B901251D7066
:105F7000EFF3108085F31088174B184FDA693A4019
:105F8000DA61DB6980F31088154F8022380000F059
:105F900026FF144B5F601D7373680B251B785BB283
:105FA000002B15DB0E4F9A00D259033D01927AB9AE
:105FB000237136683000FFF7BFFF0423094A1570CC
:105FC000E356019D9B00DE5118231370064B23609E
:105FD0002800FEBD5858002000E00140FFFFBFFF31
:105FE000004000200054004000435444F8B504230E
:105FF000C356154CC0339B001A590E0013490500B7
:106000000A401A5148F200021B59114FDB05DB0D03
:106010001343FA899A42FCD03000FFF78DFF082322
:106020003B700423EB560B4A9B009E5018233B7099
:1060300004238022EB565204C0339B00E158002019
:106040000A43E250F8BDC04600600040FFFFFFFE7B
:106050000054004000400020034B8000C3581970DA
:106060001A788A42FCD17047ECED000048F200013A
:1060700010B5154B154A1B781268DBB28A4210D155
:1060800013490978E1B113490978C9B1124909786E
:10609000B1B1EE21C905084212D1042000F01EFC66
:1060A00010BD1BB10D4B1840984204D10C4B9A42C5
:1060B00001D80320F2E70B4B9A42F1D80120EDE71B
:1060C000002BEFD1F5E7C04640E00140EC5B00203B
:1060D00036E0014038E0014032E0014004040004B1
:1060E00080841E0000366E0110B50C00002000F008
:1060F00017FD01212000FFF7AFFF002000F0EAFCB0
:10610000012000F00DFD044B186AFFF7AFFF0120DE
:1061100000F0E0FC002010BD00E0014081680A7A38
:10612000D207D20F0B7A9B07DB0F9A42FAD1F023EA
:1061300000200B7270478068027AD207D20F037A70
:106140009B07DB0F9A42FAD1037A9B07DB0F0B7197
:10615000038800200B60704710B54268C160137C53
:106160000A4C9B00195114784B1E82689BB224B9CB
:10617000490889B25180918004E0012C04D00021AB
:10618000022CF7D1138010BD1900F3E75C580020F2
:10619000F0B55A4A0B7C87B09B181B0205000C0017
:1061A00083604160EFF31086012383F3108803209E
:1061B000277C534AC01B8340D1689943D160D36880
:1061C00086F310880023AA681372117A8907CB0F0F
:1061D0000029FADBE6699372317930780191072161
:1061E000F7780F40002800D078E0237A002B00D108
:1061F0007AE005395940030009010F43049771788B
:106200008C4677216046084005906868017802292D
:1062100016D1C168406803910138401A0290604667
:10622000C743780701D10298039070276046384031
:10623000702800D102996846808989B25080918087
:10624000B67807203100014006424FD10198014342
:1062500011730599DBB291736946097C280051726C
:1062600093726168FFF778FF1223E356002B2BDB54
:1062700040F2003C6046234A9908890089180F586B
:106280000320FF26627C1840C00092013240864005
:1062900082406046B7433A430A501B4A99008D50EA
:1062A0001A001A48C03292001158194E314011504C
:1062B0001F21012219408A405B0912499B005B188B
:1062C00040F280115A501A60002063692B61A36963
:1062D0006861AB610F4B2B6007B0F0BD0100502827
:1062E00000D18AE7237A88E7190086E70420019E17
:1062F000033930434E427141A9E7C046400840008F
:10630000FC6F044000E100E0645B0020006000409E
:10631000FFFFFEFF5447410010B5040081680A7A70
:10632000D207D20F0B7A9B07DB0F9A42FAD1636830
:106330001B78012B03D12000E168FFF70DFFF1224C
:10634000A3681A7262681278012A06D11A7A920733
:10635000FCD5012252425A809A80002010BD10B50F
:106360008468227AD207D20F237A9B07DB0F9A42E6
:10637000FAD1FFF7F1FE002010BDFFFFF0B587B0A6
:10638000EFF30383103B5BB21A001D48C03292004A
:1063900011581C4C9B00214011501B4A9D58A96864
:1063A0006A680B7A1278DBB2012A07D1F4208A7B63
:1063B0000872E538D2B283430B728A732A69944615
:1063C000B2B1686903AA0192C0B11100060094CE6F
:1063D00094C19B0601D500230371AB690360E047BC
:1063E0006B6913B1019C07CC07C3AB681B7ADBB2A6
:1063F0000F21AA680B40137207B0F0BD0198E8E7BF
:1064000000600040FFFFFEFF645B00200368828A9B
:1064100000201A80704703680020188070470368C6
:1064200010314900CB5A002013807047F7B5019214
:1064300000282ADBFF2703263A0040F200350640F9
:10644000F6008901B2403940B140104C83089B00EE
:106450001B195C59944321435951019A0C4B8100FB
:10646000CA5003000B49C0339B005A580A4C2240C3
:106470005A501F2201230240934040F28012034CE5
:1064800040098000001983500360F7BD00E100E07F
:10649000645B002000600040FFFFFEFF002810DB6F
:1064A0001F21012201408A404309064920339B00F5
:1064B0005A50BFF34F8FBFF36F8F0022024B800003
:1064C000C250704700E100E0645B002070B5002519
:1064D000436804008560C560062018565E69FFF7B2
:1064E000DDFF072063681856FFF7D8FF06203056F7
:1064F000FFF7D4FF07203056FFF7D0FF23681D8237
:106500001D80EFF31080012383F310886168064A31
:106510000C881021091B8B40D6683343D360D368A5
:1065200080F31088280070BDFC6F044070B5C66908
:1065300004000D0088B056B120223100684600F0FA
:1065400045FC29002022300000F040FC35002800E6
:10655000A3699847E06918B12022694600F036FC2B
:1065600008B070BDCB68F0B54E6983610B69444AD1
:1065700003620023C3610B8841605B029B180360C8
:106580008B784A790D005B0311020B4331790400CB
:1065900085B0890700D569E040210B43F1780029D7
:1065A00000D166E040F2802003439BB240F2000C31
:1065B0000093A382022A03D1324B8900CB589C4618
:1065C00073782A795B01D2031A43337801920293DC
:1065D000EFF31087012080F3108810212A4BDA682E
:1065E00003922A88891A02008A401100039A8A437A
:1065F000DA60DB6887F3108847F6FF52009923685A
:106600001140624692B219801A826A469288DA81F3
:10661000029A1A7331798A0706D503228A330A430C
:106620001A70010000F0FAF90620236832798A33E3
:106630001A70297A22002856FFF7F8FE0720220058
:10664000697A2856FFF7F2FE06202200317A30568A
:10665000FFF7ECFE072022003056717AFFF7E6FEC6
:1066600000200A4B2061A36005B0F0BD40F240411C
:1066700093E7002A00D098E748F2000094E7C0466C
:1066800000C0054000EE0000FC6F0440434441524E
:10669000F0B505006A6885B052690B6803924A68D4
:1066A000019316008C68624B01981E4018400294BA
:1066B00023402C6887B2A780B7B2A7829FB22781F8
:1066C0001B0C070C360CE780E6826381019B1A43A2
:1066D000C0239B0500921A423ED00727554B1E6AE5
:1066E000330E3B409C466246534B3E401B689340F2
:1066F000F34040F2E836B3FBF6F341F288367343D9
:106700004E4EB3FBF6F30133BB4200D23B00802672
:10671000009F009A7605374032420BD040F2DE0CE3
:10672000A4446246DFB21770029A1640771EBE413B
:10673000771CFF378026009AB60532420AD0220025
:10674000DBB2DF321370029B334200D06DE040F2C7
:1067500000231F43BFB26782CB681A00002B45D0CD
:106760001A89160532D52600903632805F89B781A6
:106770009F89F7811E6800966E463788BC462700C1
:10678000664640F2960C94373E80009EA444370142
:1067900066463F0D37802700009E9237360F3E70C9
:1067A0005E6800966E463788BC462700664640F213
:1067B0009A0C98373E80009EA444370166463F0DF0
:1067C00037802700009E9337360F3E7096050DD513
:1067D0009F7CDE7C3E432700A6373E702600DF8983
:1067E000A83637801E8A2300AA331E8023009033E8
:1067F0001A800A8A103B1A80039BDB7873B11F232F
:1068000026889E43013310B100F080FAC3B21F36D0
:10681000F61AB6B22680A88A0643AE820020084B3C
:10682000EB60019B2B6105B0F0BD40F2022390E7C5
:10683000FFFFFFCF00E00140EC5B002040420F0073
:106840004344415230B5020089B0EFF30383103B5B
:106850000F495BB29B005858EFF30383103B5BB2C8
:106860000C4CC0339B0019590B4D294019516B46F4
:106870009A706A4643681B88138000231372036A68
:106880000193836913B16946FFF750FE09B030BD2B
:10689000645B002000600040FFFFFEFF10B5002099
:1068A000FFF7D0FF10BDFFFF094B1A7882420DD0D1
:1068B000084A12781AB908490A78D207FCD51A781A
:1068C000D206FCD418701A78D206FCD47047C046A1
:1068D000A0E0014036E001403CE0014010B50C4B27
:1068E000042808D11A78D206FCD401221A701A782A
:1068F000D206FCD410BD1A78D206D10F002AFADBDA
:1069000019701A78002AFCD1FFF7CEFFF2E7C046D3
:10691000AAE00140064B0749DA1DD27F1B6A9200AC
:1069200052585B015B0FDA401300034A1360704753
:1069300000E001402C410020EC5B002040F2FE33DF
:1069400070B5234A234C0026E25243F6C873224D09
:10695000224AEE54224B23491A60234AD9605A60D6
:1069600048F200029A601A61FFF7D4FF40F2134325
:106970000922E6541D4B1A7040F28043E25C2AB9AA
:10698000012140F2C440E15400F048F8002640F2F2
:106990008143E654013BE6543000FFF785FF144B7A
:1069A000144A1E701378DB07FCD50022124BDA77ED
:1069B000124B2362FFF7AEFF0120FFF78FFF40F27B
:1069C000FE330F4AE25243F6C8730122EA5470BD07
:1069D00003A5FFFF00E0014000C07E40006CDC0228
:1069E0002C4100200024F40000127A00A2E00140B3
:1069F00036E001403CE0014007E0014001020001B7
:106A000000A5FFFF014B0360002070470000060354
:106A1000704701380028FCD17047FFFF4143124BFB
:106A200070B51868114D0C00B5FBF0F540F2E83276
:106A300008000023002100F087F931B9B0FBF5F020
:106A4000800808B1FFF7E5FF70BDAD00B4FBF5F0BD
:106A500040F2E8320023002100F076F90029F0D05E
:106A600001204042EEE7C046EC5B002000CA9A3BA2
:106A700040F2401370B5002401260A4AD55AADB23F
:106A80002B00E340E0B2334205D0074AA3009B1835
:106A90001B6803B198470134102CF1D1034B5D867C
:106AA00070BDC04600600040205B0020FE600040DA
:106AB00000230649064A9A1810781A00C03292003C
:106AC00001335050202BF5D17047C0460060004084
:106AD00070ED000030B5EFF31081012383F31088CF
:106AE0000B4B4000C25A1AB1C25A013A92B2C2527A
:106AF0001B5A53B940F2FE32064C074BA55A185A9E
:106B0000064B2B4383439BB2A35281F3108830BDC5
:106B1000E45B002000E001400CEE000000A5FFFF58
:106B200070B5EFF31081012383F310880A4B400006
:106B3000C25A52B940F2FE34084D094E2A5B865BB8
:106B400032434AF2005632432A531A5A013292B261
:106B50001A5281F3108870BDE45B002000E0014010
:106B60000CEE00000B4A0300116810B509B90A4980
:106B700011600321106803338B430849C3188B420B
:106B800006D900F00FF90C2303600120404210BD2C
:106B90001360FCE764580020005C002000600020C7
:106BA00000BE704710B500F003F8FDF7A7F8FEE748
:106BB00073B5364A364B00209A60FDF78BF8FFF725
:106BC000BDFE6B460024DE1D347001203378FFF7D4
:106BD000A7FFEFF31081012585F310882D4B2E4878
:106BE0009A6802409A609A6881F310882B490A6873
:106BF000D207D20F32700A68D207D20F32700A68F9
:106C0000D207D20F3270EFF3108185F31088802203
:106C10009868520502439A609B6881F310882800A7
:106C2000FFF758FF2800FDF755F841F200011C4B13
:106C30001C4A9C801A801C4A1C489A601C4ADA60D4
:106C40001C4A51841C4A9D802100121A00F0C7F88A
:106C50001A481B4A1B49121A00F0B8F81A4D1B4B70
:106C6000ED1AAD10AC420ADBFFF754FE0220FDF72F
:106C700031F8FFF71DFF0020FFF7CAFE73BD134A6E
:106C8000A3009B181B6898470134EBE70000000045
:106C900000ED00E0FC6F0440FFFFFFEF0008044040
:106CA000000D004000A5FFFF0060002040410020D3
:106CB00000640020FE600040005C00208040002056
:106CC0002C410020B0EE000028410020244100208B
:106CD00002B4714649084900095649008E4402BC75
:106CE0007047C04602B4714649084900095C490032
:106CF0008E4402BC7047C04603B471464908400048
:106D00004900095E49008E4403BC70471C210123E1
:106D10001B04984201D3000C10391B0A984201D37E
:106D2000000A08391B09984201D30009043902A25C
:106D3000105C40187047C0460403020201010101C3
:106D40000000000000000000F0B5CE4647464FF6B8
:106D5000FF7580B50700280015400E002900140CAF
:106D6000384099463B0C41435D43604363434019BF
:106D70000C0C24189C46A54203D980235B0298463C
:106D8000C4444B464FF6FF707B437243250C654469
:106D900024040840591920188918C0BCB946B046C7
:106DA000F0BDC046014B18687047C046C040002087
:106DB00030B500240139A24201D1002005E0035D75
:106DC00001340D5DAB42F6D0581B30BD002310B529
:106DD0009A4200D110BDCC5CC4540133F8E70300E3
:106DE0008218934200D1704719700133F9E7FFFF11
:106DF0000FB40A4B13B51C6824B1A36913B9200062
:106E000000F094FA05AB2000049AA168019300F009
:106E1000C5FD16BC08BC04B01847C046C0400020E1
:106E200070B505000E0018B183690BB900F07EFA49
:106E3000AB69AC6813B9280000F078FA2C4B9C427F
:106E400020D16C68636EDB0705D4A3899B0502D44F
:106E5000A06D00F00AFBA3891B0701D5236943BB82
:106E60002100280000F0C6F818B301256D42636EBA
:106E7000DB0705D4A3899B0502D4A06D00F0F6FAC8
:106E8000280070BD1B4B9C4201D1AC68DAE71A4B5D
:106E90009C42D7D1EC68D5E70136A360002B04DA19
:106EA000A2699A4216DC0A2914D023685A1C22606F
:106EB0001970A3683178013B0029EDD1A360002B44
:106EC0000FDA280022000A3100F042F80A25431C9C
:106ED000CDD1CAE72200280000F03AF8431CE8D1DF
:106EE000C3E70A2523685A1C22601D70BFE7C0460D
:106EF00038EE000058EE000018EE000010B5034B0D
:106F000001001868FFF78CFF10BDC046C04000208C
:106F10000EB400B50B499CB01DAB029006900791D2
:106F200004910948094904CB0591006802A901931D
:106F300000F00EFC0023029A13701CB008BC03B0D2
:106F40001847C046FFFFFF7FC04000200802FFFF38
:106F5000F8B505000E00140018B183690BB900F0F4
:106F6000E5F9214B9C422CD16C68A369A360A389ED
:106F70001B0730D52369002B2DD023682269F7B277
:106F8000981A6369F6B2834204DC2100280000F0FD
:106F90002FF930BBA3680130013BA36023685A1C62
:106FA00022601F706369834204D0A389DB0706D582
:106FB0000A2E04D12100280000F01AF988B9300007
:106FC000F8BD0A4B9C4201D1AC68CEE7084B9C420D
:106FD000CBD1EC68C9E72100280000F00BF80028AD
:106FE000CBD001267642EAE738EE000058EE0000EA
:106FF00018EE0000354B70B51D6806000C0025B179
:10700000AB6913B9280000F091F9314B9C420FD1C4
:107010006C680C23E25E93B211072CD4D90611D40C
:1070200009230120336037331343A381404270BDED
:10703000284B9C4201D1AC68EBE7274B9C42E8D13E
:10704000EC68E6E75B0712D5616B41B1230044337E
:10705000994202D0300000F073FA002363632422C7
:10706000A3899343A38100236360236923600823DA
:10707000A2891343A38123695BB940F2802140F2C6
:107080000022A3890B40934203D02100300000F07E
:1070900017FA0C22A35E01201A0099B202400342A3
:1070A0000FD00022A26062695242A26122690020D0
:1070B000002ABCD10A06BAD540221343A381013865
:1070C000B5E7880700D46269A260EFE7C0400020FE
:1070D00038EE000058EE000018EE0000F7B58B897E
:1070E00005000C001A075DD44A68002A04DC0A6C0B
:1070F000002A01DC0020FEBDE76A002FFAD0002242
:1071000041F200012E682A601A000A400B4232D078
:10711000606DA3895B0705D56368C01A636B0BB10B
:10712000236CC01A0200216A00232800E76AB847CE
:10713000A189431C06D12B681D2B30D82B4ADA407D
:10714000D3072CD50023636023692360CB0404D5C7
:10715000431C01D12B6803B96065616B2E60002967
:10716000C8D023004433994202D0280000F0E8F947
:1071700000206063BFE701232800216AB847431C51
:10718000C7D12B68002BC4D01D2B01D0162B01D1E9
:107190002E60AFE74023A2891343A381ABE74023CE
:1071A0000B43FAE70F69002FA4D00A680F60D21BC7
:1071B000019200229B0700D14A69A260019B002B2B
:1071C00098DD3A002800019B216AA66AB047002892
:1071D00006DC40230120A28940421343A3818AE7B1
:1071E000019B3F181B1A0193E8E7C04601004020AD
:1071F0000B6970B505000C0013B90025280070BD9F
:1072000018B183690BB900F091F8144B9C421BD163
:107210006C680C22A35E002BEFD0626ED20704D400
:107220009B0502D4A06D00F020F928002100FFF793
:1072300055FF636E0500DB07E0D4A3899B05DDD411
:10724000A06D00F013F9D9E7054B9C4201D1AC6861
:10725000DFE7044B9C42DCD1EC68DAE738EE000053
:1072600058EE000018EE0000002310B50400036083
:1072700043608360818143661900C2810361436179
:10728000836108225C30FFF7AAFD054B6362054B62
:107290002462A362044BE362044B236310BDC04627
:1072A000157F00003D7F0000757F0000A17F00007A
:1072B00010B5024900F0B8F810BDC046F1710000E9
:1072C00070B568254A1E55430E002900743100F040
:1072D00081F9040040B100212A00016046600C30B1
:1072E000A0606832FFF77BFD200070BD10B502483A
:1072F00000F0BBF810BDC046F85B002010B5024896
:1073000000F0B4F810BDC046F85B002010B502488C
:1073100000F0ABF810BDC046F35B002010B502488A
:1073200000F0A4F810BDC046F35B002013B50400C4
:10733000FFF7ECFFA36913B1FFF7F0FF13BDA364E0
:10734000E3642365134B144A1B68A2620193A342B2
:1073500001D10123A361200000F020F8606020002B
:1073600000F01CF8A060200000F018F800220421B2
:10737000E0606068FFF778FF01220921A068FFF74D
:1073800073FF02221221E068FFF76EFF0123A36161
:10739000D2E7C04614EE0000B1720000F8B5070055
:1073A000FFF7A4FF1E4B1E68B36913B93000FFF747
:1073B000BDFF4836B4687368013B03D533680BB32F
:1073C0003668F7E70C22A55ED5B92000154B58307A
:1073D000E360656600F048F8FFF790FF20000822A0
:1073E00029002560A560656025616561A5615C3047
:1073F000FFF7F5FC6563A563A564E5642000F8BDAF
:107400006834D9E704213800FFF75AFF04003060E0
:107410000028D5D1FFF772FF0C233B60EEE7C04692
:1074200014EE00000100FFFFF7B50400060000277E
:10743000019148346368A5680093009B013B009369
:1074400004D52468002CF5D13800FEBDAB89012B92
:1074500008D90E22AB5E013304D029003000019B15
:10746000984707436835E8E7704770477047FFFF64
:1074700070B50E001D000E23C95E140096B00029E1
:1074800007DA00232B60B3891B0611D440F20043B6
:107490000FE06A4600F0ACFD0028F2DB4FF200037B
:1074A00001991940054BC9184B4259412960EDE734
:1074B00040230020236016B070BDC04600E0FFFFEF
:1074C000F7B502268B8905000C00334206D0230055
:1074D00047332360236101236361F7BD6A4601AB33
:1074E000FFF7C6FF00990700280000F073F840B9C5
:1074F0000C22A35E9A05F0D4032293431E43A68177
:10750000E5E70E4BAB628023A28920601343A38181
:10751000009B20616361019B63B128000E23E15E43
:1075200000F078FD30B10322A38993431A000123B0
:107530001343A381A0890743A781CEE7B17200005E
:1075400070B5050081B10C1F2368002B00DAE41828
:10755000280000F09FFD1E4A136811002BB96360DC
:107560001460280000F09EFD70BDA3420AD9226875
:10757000A018834203D118685B6882182260636098
:107580000C60EEE71A005B680BB1A342FAD91168F0
:107590005018A0420BD1206809185018116083427E
:1075A000DFD118685B68411811605360D9E7A042C9
:1075B00002D90C232B60D4E721686018834203D1E1
:1075C00018685B684118216063605460C9E7C04671
:1075D00068580020F8B50323CD1C9D4308350600EC
:1075E0000C2D1DD20C25A9421CD8300000F052FDF4
:1075F00024490A681400CCB9234F3B6823B9210001
:10760000300000F077FC38602900300000F072FC98
:10761000431C2BD10C233000336000F043FD03E00A
:10762000002DE0DA0C2333600020F8BD23685B1BDB
:1076300019D40B2B03D92360E418256003E0636899
:10764000A2420ED10B60300000F02CFD200007227A
:107650000B30231D9043C21A9842E6D01B1AA35048
:10766000E3E75360EFE722006468C4E70323C41C28
:107670009C43A042E1D0211A300000F03BFC431CA7
:10768000DBD1C7E7685800206C580020F0B58E6841
:1076900085B007000C00039201939E423CD840F253
:1076A00080438A891A4234D00325096923685B1A0A
:1076B0000293636902985D43EB0F5D19019B6D10A6
:1076C00001331B18AB4200D91D00530532D52900E8
:1076D0003800FFF77FFF060048B90C233B604023CA
:1076E0000120A28940421343A38105B0F0BD029A54
:1076F0002169FFF76BFBA389144A1A4080231343C7
:10770000A381029B2661F61826606561019EED1A31
:10771000A560019B9E4200D9019E3200039920681A
:1077200000F0A5FCA36800209B1BA36023689E19A2
:107730002660DAE72A00380000F0BCFC06000028CA
:10774000DFD138002169FFF7FBFEC6E77FFBFFFFB3
:10775000F0B5A1B003901D008B890F0016001B0629
:107760000FD50B696BB94021FFF734FF38603861E2
:1077700028B90C23039A0138136021B0F0BD4023CF
:107780007B61002308AC6361203363761033A376FA
:10779000079535002B780BB1252B47D1AB1B0593F3
:1077A000B5420CD0320039000398FFF76FFF431C3D
:1077B00000D1B0E06269059B9446634463612B7815
:1077C000002B00D1A7E0012200235242626004A9ED
:1077D000543252186E1C2360E360A3601370A365DB
:1077E00005223178544800F037FC751C00BB226834
:1077F000D30604D5532304A95B182021197013075D
:1078000004D5532304A95B182B21197033782A2B34
:1078100017D03500002140F20A0C0126E3682A78CF
:10782000681C303A092A4BD989B917E00135B1E70C
:10783000414B2268C01A0123834013432E0023606A
:10784000CEE7079B191D1B680791002B01DB0B93EB
:1078500004E05B42E3600223134323602B782E2B6A
:107860000AD16B782A2B34D1079B02351A1D1B686D
:107870000792002B2ADB0993304E0322300029782F
:1078800000F0EAFB30B14023801B834022680135C1
:10789000134323602978062229486E1C217600F0C4
:1078A000DBFB00283FD0274B4BBB0722079B07334E
:1078B0009343083307936369049A9B18636168E7ED
:1078C00061464B43050031009B18A8E701235B424A
:1078D000D1E7002340F20A0C1A000126013563604B
:1078E0002978681C3039092903D9002BC4D00992A2
:1078F000C2E763465A43050033005218F0E707AB6E
:1079000000933A002100104B039800E000BF049060
:10791000049B0133CFD1BB890D985B0600D42CE7C3
:107920000120404229E707AB00933A002100064BB3
:10793000039800F0D3F9EAE778EE00007EEE00004D
:1079400082EE0000000000008D760000936810B504
:10795000013B9360002B04DA9469A34207DB0A29F8
:1079600005D01368581C10601970080010BDFFF78F
:10797000EFFA0100F9E7F8B506000F001400D5187A
:10798000AC4201D1002007E021783A003000FFF737
:10799000DDFF0134431CF3D1F8BDFFFFF0B5A1B00A
:1079A00007000C001E00039218B183690BB9FFF7A2
:1079B000BDFC8B4B9C421AD17C68636EDB0705D4FF
:1079C000A3899B0502D4A06DFFF74FFDA3891B0778
:1079D00001D52369E3B921003800FFF70BFBB8B1EB
:1079E000636EDB070DD50120404221B0F0BD7D4B19
:1079F0009C4201D1BC68E0E77B4B9C42DDD1FC6836
:107A0000DBE7A3899B05EED4A06DFFF72FFDEAE726
:107A1000002308AD6B6120336B761033AB7607968D
:107A2000039E33780BB1252B4DD1039BF31A05939D
:107A3000039B9E420DD0059B21003800039AFFF75F
:107A40009AFF431C00D1B3E06A69059B94466344E6
:107A50006B613378002B00D1AAE00122731C0393E1
:107A6000002352426A6004A9543252182B60EB6022
:107A7000AB601370AB65039B052219785B4800F07F
:107A8000EBFA039B5E1C00BB2A68D30604D5532384
:107A900004A95B1820211970130704D5532304A9E6
:107AA0005B182B211970039B1B782A2B16D0002101
:107AB00040F20A0CEB68039E3278701C303A092AB7
:107AC0004CD989B917E00136ABE7484B2A68C01A90
:107AD0000123834013432B600396CCE7079B191DBA
:107AE0001B680791002B01DB0B9304E05B42EB600A
:107AF000022313432B6033782E2B0AD173782A2B61
:107B000035D1079B02361A1D1B680792002B2BDB11
:107B1000099303223178364800F09EFA38B1344B8D
:107B20002A68C01A40238340134301362B60317802
:107B3000731C06222F480393297600F08DFA002843
:107B400045D02D4B43BB0722079B07339343083394
:107B500007936B69049A9B186B6161E761464B431D
:107B6000060001219B18A7E701235B42D0E7002311
:107B700040F20A0C1A0001366B603178701C303903
:107B8000092903D9002BC4D00992C2E763465A439E
:107B9000060001235218F0E707AB009322002900EA
:107BA0003800164B00E000BF0490049B0133D0D195
:107BB000636EDB0705D4A3899B0502D4A06DFFF794
:107BC00055FCA3895B0600D50DE70D980DE707ABC3
:107BD0000093220029003800084B00F07FF8E3E70B
:107BE00038EE000058EE000018EE000078EE0000BD
:107BF0007EEE000082EE00000000000077790000B9
:107C0000F7B5150001938A680B690C000090934248
:107C100000DA130022002B60433212780AB10133DC
:107C20002B6023689B0602D52B6802332B602268E9
:107C3000062317001F401A4227D0230043331B7826
:107C40005A1E93412268920630D42200019900986E
:107C5000089E4332B047431C25D0062320682A687B
:107C6000E16800250340042B03D18D1AEB43DB1799
:107C70001D40A3682269934201DD9B1AED1800277D
:107C8000BD4220D1002010E00137E3682A689B1A2A
:107C9000BB42D2DD2200012301990098089E1932CF
:107CA000B047431CF0D101204042FEBD3020E11816
:107CB0004331087021005A1C45310978A21843321B
:107CC00002331170C1E72200012301990098089E38
:107CD0001A32B047431CE6D00137D1E7F0B50E00A9
:107CE00089B00492039005930C00097E0E9A4336E6
:107CF000782907D8622909D8002900D1BCE0582981
:107D000000D184E025004235297022E00800633864
:107D10001528F7D8FEF7F0FF16001F00F6FFF6FF54
:107D2000F6FFF6FF1F00F6FFF6FFF6FFF6FFA300D3
:107D300034009200F6FFF6FFB400F6FF3400F6FFC1
:107D4000F6FF9600250013684235191D1B68116067
:107D50002B700123A1E013682068191D050609D5C1
:107D60001B681160002B02DA2D225B4232700A225E
:107D70005E4914E01B6811604006F3D51BB2F1E7C1
:107D800013682568181D10601B682F063BD56F29E6
:107D900062D00A22554920000025433005706068F2
:107DA000A060002803DB04252768AF4327600BB9D8
:107DB000350060B13500B3FBF2FC60465043181A41
:107DC000085C013D2870180063468242F3D9082AF6
:107DD00009D12368DB0706D563682269934202DC78
:107DE0003023013D2B70761B2661059B21000093FB
:107DF0000398049B07AAFFF703FF431C51D10120FE
:107E0000404209B0F0BD6D06C1D59BB2BFE723006B
:107E10004533197035491068256808C810602F0669
:107E200016D5EA0702D52022154325601022002B23
:107E3000B1D12020256885432560ACE72023216847
:107E40000B43236023007821453319702849E2E76A
:107E50006F06E6D59BB2E4E7082224499BE7136846
:107E60002568181D616910601B682F0601D519600F
:107E700002E06D06FBD51980002335002361B4E7CD
:107E80001368191D11601D6800212800626800F048
:107E9000E3F808B1401B606063682361002333701E
:107EA000A3E72A00236904990398059DA847431C6A
:107EB000A5D023689B0716D4079BE0689842A0DAF8
:107EC00018009EE72200012304990398059E1932A9
:107ED000B047431C00D192E70135E368079A9B1A2B
:107EE000AB42EFDCE8E70025F7E7C04689EE00008B
:107EF0009AEE0000002370B5054D040008002B60C9
:107F0000FEF730FE431C02D12B6803B1236070BD25
:107F1000FC5B002070B50C000E25495F00F0F0F806
:107F2000002803DB636D1B18636570BDA389024ADB
:107F30001340A381F9E7C046FFEFFFFFF8B51F002C
:107F40008B8905000C001600DB0505D50E23C95EE4
:107F50000022022300F06EF8A389054A280013408E
:107F6000A38132000E23E15E3B0000F01FF8F8BD54
:107F7000FFEFFFFF70B50C000E25495F00F05AF8C7
:107F8000A389421C03D1054A1340A38170BD41F26D
:107F900000021343A3816065F8E7C046FFEFFFFFCF
:107FA00010B50E23C95E00F013F810BD70B50400C3
:107FB000080011001A000023044D2B60FBF7ACFCF5
:107FC000431C02D12B6803B1236070BDFC5B002011
:107FD000002370B5054D040008002B6000F0AAF8DE
:107FE000431C02D12B6803B1236070BDFC5B0020F1
:107FF000002370B5064D0400080011002B6000F04E
:10800000A3F8431C02D12B6803B1236070BDC046A6
:10801000FC5B0020002370B5054D040008002B60B8
:1080200000F09CF8431C02D12B6803B1236070BDA3
:10803000FC5B002070B50400080011001A0000234A
:10804000044D2B6000F092F8431C02D12B6803B161
:10805000236070BDFC5B0020C9B28218904201D140
:108060000020704703788B42FBD00130F6E710B553
:10807000884202D98B18984203D3002307E08B5C17
:108080008354013AFBD210BDCC5CC45401339A42F4
:10809000FAD1F8E710B50248FFF7E7F910BDC0467E
:1080A000F45B002010B50248FFF7E0F910BDC046B0
:1080B000F45B0020F8B507000D00160029B9110087
:1080C000FFF788FA04002000F8BD1AB9FFF738FA64
:1080D0003400F8E700F026F82C00B042F3D231006B
:1080E0003800FFF777FA04000028ECD029003200AE
:1080F000FEF76CFE29003800FFF722FAE3E7FFFFE6
:1081000070B50400080011001A000023044D2B6014
:1081100000F036F8431C02D12B6803B1236070BD18
:10812000FC5B00200B1F1B68181F002B01DA0B588B
:10813000C018704745F6FC3358220120C2F20003F4
:1081400040421A607047C04645F6FC335822012071
:10815000C2F2000340421A607047C04645F6FC3345
:108160005822C2F2000300201A60704745F6FC3323
:1081700058220120C2F2000340421A607047C046F4
:1081800045F6FC3358220120C2F2000340421A6037
:108190007047C0464275696C7420776974682052D4
:1081A000656E6573617320416476616E63656420FA
:1081B000466C657869626C6520536F66747761728E
:1081C00065205061636B6167652076657273696FC6
:1081D0006E20332E362E3000332E362E3000000027
:1081E00000000603F8B5C046F8BC08BC9E467047C0
:1081F000F8B5C046F8BC08BC9E467047E5B08FE5B0
:10820000AF9200E5A4A7E5AF9200E7AB8BE698A597
:1082100000E99BA8E6B0B400E6838AE89BB000E6DC
:1082200098A5E5888600E6B885E6988E00E8B0B7A0
:10823000E99BA800E7AB8BE5A48F00E5B08FE6BB18
:10824000A100E88A92E7A78D00E5A48FE887B30034
:10825000E5B08FE69A9100E5A4A7E69A9100E7AB16
:108260008BE7A78B00E5A484E69A9100E799BDE926
:108270009CB200E7A78BE5888600E5AF92E99CB247
:1082800000E99C9CE9998D00E7AB8BE586AC00E5A5
:10829000B08FE99BAA00E5A4A7E99BAA00E586ACFC
:1082A000E887B300E794B300E9858900E6888C008D
:1082B000E4BAA500E5AD9000E4B89100E5AF850013
:1082C000E58DAF00E8BEB000E5B7B300E58D8800EE
:1082D000E69CAA00E69CAAE79FA500E5889DE4B875
:1082E0008000E5889DE4BA8C00E5889DE4B88900AB
:1082F000E5889DE59B9B00E5889DE4BA9400E588B0
:108300009DE585AD00E5889DE4B88300E5889DE5A1
:1083100085AB00E5889DE4B99D00E5889DE58D81EC
:1083200000E58D81E4B88000E58D81E4BA8C00E53C
:108330008D81E4B88900E58D81E59B9B00E58D8109
:10834000E4BA9400E58D81E585AD00E58D81E4B862
:108350008300E58D81E585AB00E58D81E4B99D0065
:10836000E4BA8CE58D8100E5BBBFE4B88000E5BBD5
:10837000BFE4BA8C00E5BBBFE4B88900E5BBBFE54C
:108380009B9B00E5BBBFE4BA9400E5BBBFE585ADB0
:1083900000E5BBBFE4B88300E5BBBFE585AB00E506
:1083A000BBBFE4B99D00E4B889E58D810000000001
:1083B00000E6B6A600E69CAAE79FA500E6ADA3E608
:1083C0009C8800E4BA8CE69C8800E4B889E69C8826
:1083D00000E59B9BE69C8800E4BA94E69C8800E557
:1083E00085ADE69C8800E4B883E69C8800E585AB13
:1083F000E69C8800E4B99DE69C8800E58D81E69CBA
:108400008800E586ACE69C8800E8858AE69C8800C2
:10841000E5BA9A00E8BE9B00E5A3AC00E799B80076
:10842000E794B200E4B99900E4B89900E4B8810097
:10843000E6888A00E5B7B200E78CB400E9B8A1008D
:10844000E78B9700E78CAA00E9BCA000E7899B00B6
:10845000E8998E00E5859400E9BE9900E89B8700C5
:10846000E9A9AC00E7BE8A001F1C1F1E1F1E1F1FAC
:108470001E1F1E1F4EA6999CA29880001800102453
:108480004EA6999CA2988082180010244EA6D99ED0
:10849000A2988082180010044EE6D99EA6A8808279
:1084A000180010000FE6D9BEA69888821880000038
:1084B0000FEFD9BEA6998C82988000000FEFDBBE2B
:1084C000A6999CA2988000180FEFDBBEA6999CA2EB
:1084D000988000180FEFDBBEA2998CA098808218BC
:1084E0000BEFDBBEA6998CA2988082180FEFDBBE43
:1084F000E6D99EA2988082180FEFFBBFE6D99EA610
:10850000988082180FFFFFFCEFD9BEA6180000006C
:1085100000000000061404130615051406150615C0
:10852000071708170817081808160716CD070000C0
:108530006DB200005C1200002C190000959A00003A
:10854000941A00004A1B0000554B0000D40A00009A
:108550005BF50000BA0400005A1200002BB90000BD
:108560002A15000094160000AA960000AA15000023
:10857000B52A010074090000B614000057CA0000B3
:10858000560A000026150000958E0000540D0000CC
:10859000AA150000B54900006C090000AED4000027
:1085A0009C1400004C1A000026BD0000A61A000012
:1085B000540B00006A6D0000DA1200005D690100D2
:1085C0005A0900009A1400004BDA00004A1A000011
:1085D000A41A000054BB0000B4160000DA0A000020
:1085E0005B4900003609000097F400009614000073
:1085F0004A150000A5B60000A40D0000B415000047
:10860000B66A00006E1200002F0901002E0900005A
:10861000960C00004ACD00004A1D0000640D0000C9
:108620006C9500005C1500005C1200002E790000C3
:108630002C19000095FA0000941A00004A1B000053
:1086400055AB0000D40A0000DA1400005D8A000077
:108650005A0A00002B1501002A150000941600008C
:10866000AAD60000AA150000B40A0000BA940000BF
:10867000B6140000560A000027750000260D000001
:1086800053EE0000540D0000AA150000B5A900002B
:108690006C090000AE1400004E8A00004C1A000065
:1086A000261D0100A41A0000541B00006ACD000022
:1086B000DA0A00005C0900009D9400009A14000092
:1086C0002A1A0000255B0000A41A000052FB0000DB
:1086D000B4160000BA0A00005BA9000036090000C9
:1086E000961400004B9A00004A150000A5360100C0
:1086F000A40D0000AC150000B6CA00006E12000008
:108700002E090000978C0000960A00004A0D000018
:10871000A56D0000540D00006AF500005A15000018
:108720005C0A00002EB900002C150000941A00000D
:108730004A9D00002A1B0000556B0100D40A00006E
:10874000DA1400005DCA00005A0A00001A15000081
:1087500095BA000054160000AA160000D54A000081
:10876000B40A0000BAF40000B6140000560A000073
:1087700017B50000160D0000520E0000AA9600006A
:108780006A0D0000B56501006C090000AE14000020
:108790002ECA00002C1A0000161D000052AD000069
:1087A000521B00006A0B00006D6500005C050000B4
:1087B0005DF400005A1400002A1A000095DA000047
:1087C000A4160000D21A00005A8B0000B60A00005E
:1087D0005B450100B6080000561400002BD50000D0
:1087E0002A15000094160000AAB60000AA15000081
:1087F000B60A0000B7640000AE08000057EC0000A5
:10880000560A00002A0D000095CD0000540B000010
:108810006A1500006D8A00005C090000AE140000BB
:10882000564A0000541A00002ADD0000AA1A00006F
:10883000540B00006AB50000DA1400005C09000067
:10884000AB7400009A1400004BFA000052160000AE
:10885000AA160000D5CA0000B4050000CD0700002C
:108860003C9C0F00509E0F0045A00F0038A20F0047
:108870004CA40F0041A60F0036A80F0049AA0F0014
:108880003DAC0F0052AE0F0047B00F003AB20F00E0
:108890004EB40F0043B60F0037B80F004ABA0F00AE
:1088A0003FBC0F0053BE0F0048C00F003CC20F007A
:1088B00050C40F0045C60F0039C80F004CCA0F0046
:1088C00041CC0F0036CE0F004AD00F003DD20F0032
:1088D00051D40F0046D60F003AD80F004DDA0F00E2
:1088E00043DC0F0037DE0F004BE00F003FE20F00CC
:1088F00053E40F0048E60F003CE80F004FEA0F007A
:1089000044EC0F0038EE0F004CF00F0041F20F0066
:1089100036F40F004AF60F003EF80F0051FA0F0030
:1089200046FC0F003AFE0F004E00100042021000FD
:10893000370410004B06100041081000530A1000C5
:10894000480C10003C0E10004F1010004412100094
:10895000381410004C16100042181000351A100080
:10896000491C10003D1E100051201000452210002F
:108970003A2410004E26100043281000372A100019
:108980004B2C10003F2E10005330100047321000C7
:108990003B3410004F36100045381000383A1000B4
:1089A0004C3C1000423E100036401000494210007E
:1089B0003D44100051461000464810003A4A10004D
:1089C0004E4C1000434E1000385010004A52100018
:1089D0003E54100052561000475810003B5A1000E9
:1089E0004F5C1000455E1000396010004C621000B2
:1089F0004164100035661000496810003D6A10009F
:108A0000516C1000476E10003C7010004F72100047
:108A100044741000387610004C7810003F7A100033
:108A2000537C1000487E10003D80100050821000E2
:108A3000468410003A8610004E881000428A1000CA
:108A4000368C10004A8E10003E901000519210009B
:108A5000479410003B9610004F981000439A100066
:108A6000379C10004B9E100041A0100053A2100034
:108A700048A410003DA6100051A8100045AA1000FF
:108A800039AC10004DAE100042B0100036B21000EC
:108A90004AB410003EB6100052B8100047BA100099
:108AA0003BBC10004FBE100044C0100037C2100085
:108AB0004BC4100041C6100054C8100048CA100032
:108AC0003DCC100050CE100045D0100039D210001F
:108AD0004CD4100042D6100037D810004ADA1000EB
:108AE0003EDC100052DE100047E010003AE21000B9
:108AF0004EE4100043E6100038E810004BEA100086
:108B000041EC100054EE100049F010003CF210004F
:108B100050F4100045F6100039F810004CFA10001F
:108B200042FC100037FE10004B0011003E02110005
:108B300052041100470611003B0811004E0A1100B3
:108B4000430C1100380E11004C1011003F1211009F
:108B500035141100481611003C1811004F1A11006D
:108B6000451C1100391E11004D2011004222110038
:108B7000362411004A2611003E281100512A110006
:108B8000462C11003B2E11004F301100AC33000079
:108B90000000E697A500E4B88000E4BA8C00E4B8D1
:108BA0008900E59B9B00E4BA9400E585AD00455043
:108BB000445F32494E36365F746573742044656D88
:108BC0006F0D005061696E745F4E6577496D616726
:108BD000650D00E7A7BBE58AA800E5878F00E58A59
:108BE000A000E8BF94E59B9E00E4BF9DE5AD980022
:108BF0002D2D00E7A1AEE5AE9A00E4B88A00E4B8F6
:108C00008B00E6B58BE9878F00E4B8BBE88F9CE565
:108C10008D95E9A1B500E697B6E997B4E8AEBEE751
:108C2000BDAE00E6B8A9E6B9BFE5818FE7A7BB00F6
:108C3000E794B5E6B1A0E8AEBEE7BDAE00E997B9EE
:108C4000E9929FE8AEBEE7BDAE00E89C82E9B8A31A
:108C5000E8AEBEE7BDAE00E58589E6958FE8AEBE1D
:108C6000E7BDAE00E681A2E5A48DE9BB98E8AEA41D
:108C700000E7B3BBE7BB9FE4BFA1E681AF00E9809B
:108C800080E587BAE8AEBEE7BDAE00E5AE9EE697EA
:108C9000B6E794B5E58E8B3A2025642E2564560000
:108CA000E58F82E88083E794B5E58E8B414443E508
:108CB00080BC3A20256400E6BBA1E794B5E794B5F3
:108CC000E58E8B3A2025642E25645600E688AAE6B8
:108CD000ADA2E794B5E58E8B3A2025642E25645627
:108CE00000E58786E782B9E5938D3A202025730059
:108CF000E99FB3E9878F3A202564EFBC8500E9A29C
:108D000091E78E873A2025642E2564204B485A002F
:108D10002B00E5AE9EE9998500E5818FE580BC00DA
:108D2000E698BEE7A4BA00E6B8A9E5BAA63A2020BC
:108D3000253032642E2564E2848300E6B9BFE5BAAB
:108D4000A63A2020253032642E2564EFBC85005BD6
:108D50002573253032642E25645D00E8ADA6E591CB
:108D60008A2120E681A2E5A48DE9BB98E8AEA4E6BD
:108D700095B0E68DAE212121212100E5908CE6976A
:108D8000B6E68C89E4BD8FE8AEBEE7BDAEE5928C59
:108D9000E5878FE994AEE5B9B6E5A48DE4BD8D0015
:108DA000E58FAFE4BBA5E5BCBAE588B6E693A6E9D6
:108DB00099A4E585A8E983A8E695B0E68DAE004FB5
:108DC0004B004552520020202020E7A1ACE4BBB666
:108DD000203A2041485432302025732052583830F0
:108DE0003235542025730031343A35373A31320068
:108DF0004D6179203135203230323200E7BC96E8BF
:108E0000AF91E697B6E997B4203A202573202573F1
:108E100000312E3400E8BDAFE4BBB6E78988E69C9C
:108E2000AC203A202573004653502020564552204E
:108E30003A2025642E25642E256400627920E6926E
:108E400092E58DA1E4B881E8BDA60032302530322C
:108E5000642D253032642D25303264202530326473
:108E60003A253032643A25303264003132E5B08F31
:108E7000E697B6E588B63A20257300E58589E6953C
:108E80008F3A20257300E5AE9EE697B63A2025641A
:108E90002E253032645600E4BC91E79CA0E998800E
:108EA000E580BC3A2025642E253032645600E6B3B6
:108EB000A8E6848F3AE5A4A7E4BA8EE99880E58015
:108EC000BCE4BC91E79CA0006164635F7265663D91
:108ED00025640A00766261743A25642056626174E2
:108EE0003A25640A00E794B5E9878FE4BD8EEFBCAC
:108EF0008100323025303264E5B9B425303264E681
:108F00009C8825303264E697A520E6989FE69C9FD2
:108F100025732025732573257300E4BB8AE5A4A976
:108F2000E698AF257300E7A6BB2573E8BF98E69CDB
:108F3000892564E5A4A900257325732573E5B9B4D3
:108F40002025732025642E25303264560043454C7D
:108F50003A253032642E2564E28483202052483A38
:108F6000253032642E2564EFBC85004550445F32C5
:108F7000494E36365F536C65657000E6938DE4BDEF
:108F80009CE8AFB4E6988E00E6ACA2E8BF8EE4BDE4
:108F9000BFE794A800E58588E68C89E4BD8FE58A63
:108FA000A0E994AEE5868DE68C89E8AEBEE7BDAE5D
:108FB000E994AEE8BF9BE585A500E8AEBEE7BDAE8F
:108FC000E88F9CE58D95E9A1B5003330E7A792E5E0
:108FD000908EE697A0E6938DE4BD9CE887AAE58A8B
:108FE000A8E98080E587BA00E585B3E997AD00E59B
:108FF000BC80E590AF00FFFF302F500BC49D0000F8
:109000002008105FF6B10000FFFFF00FF00F8001A5
:10901000BFFDBFFDBFFDBFFDBFFDBFFDBFFDBFFD70
:10902000BFFDBFFDBFFDBFFDBFFDBFFDBFFDBFFD60
:10903000BFFDBFFDBFFDBFFDBFFD8001FFFFFFFF07
:10904000F00FF00F8001BFFDA005A005A005BFFD3A
:10905000A005A005A005BFFDA005A005A005BFFDBA
:10906000A005A005A005BFFDA005A005A005BFFDAA
:109070008001FFFFFFFFF00FF00F8001BFFDBFFD7C
:10908000BFFDBFFDBFFDBFFDBFFDBFFDBFFDBFFD00
:10909000BFFDBFFDBFFDBFFDBFFDBFFDBFFDA00507
:1090A000A005A005BFFD8001FFFFFFFFF00FF00F3F
:1090B0008001BFFDBFFDBFFDBFFDBFFDBFFDBFFD0B
:1090C000BFFDBFFDBFFDBFFDBFFDBFFDA005A005EE
:1090D000A005BFFDA005A005A005BFFD8001FFFF05
:1090E000FFFFF00FF00F8001BFFDBFFDBFFDBFFD13
:1090F000BFFDBFFDBFFDBFFDBFFDA005A005A005D5
:10910000BFFDA005A005A005BFFDA005A005A00509
:10911000BFFD8001FFFFFFFFF00FF00F8001BFFDDB
:10912000BFFDBFFDBFFDBFFDA005A005A005BFFDA4
:10913000A005A005A005BFFDA005A005A005BFFDD9
:10914000A005A005A005BFFD8001FFFFFFFFFFFFF9
:10915000FFFFFFFFFFFFFFFFFFFFFFFFFFFFFFFF1F
:10916000FFFFFFFFFFFFFFFFFFFFFFFFFFFFC1FF4D
:10917000FFFFFFFFFFFFFFFFFFFFFFFFFFFFFFFFFF
:10918000FF007FFFFFFFFFFFFFFFFFFFFFFFFFFF6E
:10919000FFFFFFFE001FFFFFFFFFFFFFFFFFFFFFBF
:1091A000FFFFFFFFFFFFFC000FFFFFFFFFFFFFFFC1
:1091B000FFFFFFFFFFFFFFFFFFF80207FFFFFFFEBC
:1091C00003FFFFFFFFFFFFFFFFFFFFFFF00FC3FFE6
:1091D000FFFFF8007FFFFFFFFFFFFFFFFFFFFFF034
:1091E0001FE1FFFFFFF0003FFFFFFFFFFFFFFFFF5B
:1091F000FFFFE03FF0FFFFFFF0000FFFFFFFFFFF6B
:10920000FFFFFFFFFFC07FF0FFFFFFF03C07FFFF06
:10921000FFFFFFFFFFFFFFFF81FFF0FFFFFFE07F8A
:1092200003FFFFFFFFFFFFFFFFFFFF03FFF0FFFF55
:10923000FFE0FFC0FFFFFFFFFFFFFFFFFFFE07FF95
:10924000F0FFFFFFE0FFE07FFFFFFFFFFFFFFFFFFB
:10925000FE0FFFE0FFFFFFF0FFF03FFFFFFFFFFF0C
:10926000FFFFFFFC1FFFC1FFFFFFF0FFF83FFFFF05
:10927000FFFFFFFFFFFFFC1FFFC3FFFFFFF0FFFC2F
:109280001FFFFFFFFFFFFFFFFFFC3FFF87FFFFFF09
:10929000F0FFFE0FFFFFFFFFFFFFFFFFFC3FFF0F91
:1092A000FFFFFFF87FFF07FFFFFFFFFFFFFFFFFC50
:1092B0003FFE1FFFFFFFF87FFF07FFFFFFFFFFFFDE
:1092C000FFFFFC3FFC3FFFFFFFF87FFF83FFFFFF37
:1092D000FFFFFFFFFFFC1FFC3FFFFFFFFC3FFFC145
:1092E000FFFFFFFFFFFFFFFFFE1FFC3FFFFFFFFC35
:1092F0001FFFE1FFFFFFFFFFFFFFFFFE0FFE1FFF4E
:10930000FFFFFE1FFFE0FFFFFFF00FFFFFFFFF0F5C
:10931000FF0FFFFFFFFE0FFFF07FFFF000001FFFBA
:10932000FFFF87FF87FFFFFFFF07FFF87FFF0000BA
:109330000001FFFFFFC3FFC3FFFFFFFF87FFF83FF1
:10934000F8000000003FFFFFE1FFE0FFFFFFFF83A9
:10935000FFFC3FC001FFF8000FFFFFF0FFF07FFFB1
:10936000FFFFC1FFFE1F001FFFFF8003FFFFF07F15
:10937000F83FFFFFFFE0FFFE1C00FFFFFFF001FFD3
:10938000FFF83FFC1FFFFFFFE07FFF0803FFFFFF29
:10939000FE007FFFFC1FFE0FFFFFFFF03FFF000FEF
:1093A000FFFFFFFF803FFFFE0FFF07FFFFFFF81FDC
:1093B000FF803FFFFFFFFFE00FFFFF07FF83FFFF7F
:1093C000FFFC0FFF80FFFFFFFFFFF807FFFF83FF9A
:1093D000C1FFFFFFFE07FF01FFFFFFFFFFFE03FFCF
:1093E000FFC1FFF07FFFFFFF03FC07FFFFFFFFFF51
:1093F000FF01FFFFE0FFF83FFFFFFF81F80FFFFFD6
:10940000FFFFFFFF80FFFFF07FFC1FFFFFFFC0F0AB
:109410001FFFFFFFFFFFFFE07FFFF83FFC0FFFFF95
:10942000FFE0603FFFFFFFFFFFFFF03FFFFC1FFE7D
:1094300007FFFFFFF0007FFFFFFFFFFFFFF83FFF89
:10944000FE0FFF03FFFFFFFC00FFFFFFFFFFFFFF1B
:10945000FC1FFFFF07FF83FFFFFFFE01FFFFFFFF72
:10946000FFFFFFFE0FFFFF83FFC3FFFFFFFF03FFB1
:10947000FFFFFFFFFFFFFE07FFFFC1FFE3FFFFFF4F
:10948000FE07FFFFFFFFFFFFFFFF07FFFFE0FFF308
:10949000FFFFFFFC0FFFFFFFFFFFFFFFFF83FFFF4B
:1094A000F87FFBFFFFFFFC1FFFFFFFFFFFFFFFFF3A
:1094B000C1FFFFF87FFFFFFFFFF81FFFFFFFFFFF68
:1094C000FFFFFFC1FFFFFC3FFFFFFFFFF03FFFFF7C
:1094D000FFFFFFFFFFFFE0FFFFF83FFFFFFFFFF091
:1094E0007FFFFFFFFFFFFFFFFFF07FFFF03FFFFF6A
:1094F000FFFFE07FFFFFFFFFFFFFFFFFF07FFFE0C9
:109500007FFFFFFFFFE0FFFFFFFFFFFFFFFFFFF811
:109510003FFF807FFFF81FFFC1FFFFFFFFFFFFFF3F
:10952000FFFFF83FFE00FFFFE003FFC1FFFFFFFF6B
:10953000FFFFFFFFFFF81FF003FFFF80007F83FFA7
:10954000FFFFFFFFFFFFFFFFFC1FC00FFFFF8000BB
:109550001F83FFFFFFFFFFFFFFFFFFFC0F003FFF29
:10956000FF01C00787FFFFFFFFFFFFFFFFFFFE08B0
:1095700000FFFFFF07FC0107FFFFFFFFFFFFFFFFEB
:10958000FFFE0003FFFFFF0FFF800FFFFFFFFFFF46
:10959000FFFFFFFFFE000FFFFFFF1FFFE00FFFFFBA
:1095A000FFFFFFFFFFFFFFFF00FFFFFFFF1FFFF8B1
:1095B0001FFFFFFFFFFFFFFFFFFFFF01FFFFFFFF99
:1095C0001FFFFC1FFFFFFFFFFFFFFFFFFFFF03FF6A
:1095D000FFFFFB0FFFFC3FFFFFFFFFFFFFFFFFFF52
:1095E000FF07FFFFFFF30FFFFC3FFFFFFFFFFFFF42
:1095F000FFFFFFFF0FFFFFFFC30FFFFC3FFFFFFF5A
:10960000FFFFFFFFFFFFFF8FFFFFFF0387FFF87FD5
:10961000FFFFFFFFFFFFFFFFFFFF9FFFFFFE03C3F3
:10962000FFF87FFFFFFFFFFFFFFFFFFFFFFFFFFFD1
:10963000F803E1FFF07FFFFFFFFFFFFFFFFFFFFFEA
:10964000FFFFFFE00FF07FF0FFFFFFFFFFFFFFFFD7
:10965000FFFFFFFFFFFF803FF81FF0FFFFFFFFFF4F
:10966000FFFFFFFFFFFFFFFFFF807FFC07F0FFFF13
:10967000FFFFFFFFFFFFFFFFFFFFFFFFE03FFF00D8
:10968000F0FFFFFFFFFFFFFFFFFFFFFFFFFFFFF008
:109690001FFF8001FFFFFFFFFFFFFFFFFFFFFFFF37
:1096A000FFFFFC07FFE001FFFFFFFFFFFFFFFFFFE2
:1096B000FFFFFFFFFFFE03FFF801FFFFFFFFFFFFBC
:1096C000FFFFFFFFFFFFFFFFFF83FFFF01FFFFFF24
:1096D000FFFFFFFFFFFFFFFFFFFFFFFFC3FFFFC312
:1096E000FFFFFFFFFFFFFFFFFFFFFFFFFFFFFFF396
:1096F000FFFFC3FFFFFFFFFFFFFFFFFFFFFFFFFFB6
:10970000FFFFFFFFFFC3FFFFFFFFFFFFFFFFFFFFA5
:10971000FFFFFFFFFFFFFFFFC3FFFFFFFFFFFFFF95
:10972000FFFFFFFFFFFFFFFFFFFFFFC3FFFFFFFF85
:10973000FFFFFFFFFFFFFFFFFFFFFFFFFFFFC7FF71
:10974000FFFE0FFFFFFFFFFFFFFFFFFFFFFFFFFF1A
:10975000FF87FFFFFE0FFFFFFFFFFFFFFFFFFFFF82
:10976000FFFFFFFF87FFFFFE0FFFFFFFFFFFFFFF72
:10977000FFFFFFFFFFFFFF87FFFFFE0FFFFFFFFF62
:10978000FFFFFFFFFFFFFFFFFFFF87FFFFFE0FFF52
:10979000FFFFFFFFFFFFFFFFFFFFFFFFFF87FFFF51
:1097A000FE0FFFFFFFFFFFFFFFFFFFFFFFFFFFFFBA
:1097B00087FFFFFE0FFFFFFFFFFFFFFFFFFFFFFF22
:1097C000FFFFFF8FFFFFFE0FFFFFFFFFFFFFFFFF0A
:1097D000FFFFFFFFFFFF8FFFFFFE0FFFFFFFFFFFFA
:1097E000FFFFFFFFFFFFFFFFFF8FFFFFFE0FFFFFEA
:1097F000FFFFFFFFFFFFFFFFFFFFFFFF8FFFFFFEEA
:109800000FFFFFFFFFFFFFFFFFFFFFFFFFFFFF8FC8
:10981000FFFFFE0FFFFFFFFFFFFFFFFFFFFFFFFF49
:10982000FFFF8FFFFFFE0FFFFFFFFFFFFFFFFFFFA9
:10983000FFFFFFFFFF8FFFFFFE0FFFFFFFFFFFFF99
:10984000FFFFFFFFFFFFFFFF8FFFFFFE0FFFFFFF89
:10985000FFFFFFFFFFFFFFFFFFFFFF8FFFFFFE0F79
:10986000FFFFFFFFFFFFFFFFFFFFFFFFFFFF8FFF78
:10987000FFFE0FFFFFFFFFFFFFFFFFFFFFFFFFFFE9
:10988000FF8FFFFFFE0FFFFFFFFFFFFFFFFFFFFF49
:10989000FFFFFFFF8FFFFFFE1FFFFFFFFFFFFFFF29
:1098A000FFFFFFFFFFFFFF8FFFFFFE1FFFFFFFFF19
:1098B000FFFFFFFFFFFFFFFFFFFF8FFFFFFE1FFF09
:1098C000FFFFFFFFFFFFFFFFFFFFFFFFFF8FFFFF18
:1098D000FE1FFFFFFFFFFFFFFFFFFFFFFFFFFFFF79
:1098E0008FFFFFFE1FFFFFFFFFFFFFFFFFFFFFFFD9
:1098F000FFFFFF8FFFFFFE1FFFFFFFFFFFFFFFFFC9
:10990000FFFFFFFFFFFF8FFFFFFE1FFFFFFFFFFFB8
:10991000FFFFFFFFFFFFFFFFFF8FFFFFFE1FFFFFA8
:10992000FFFFFFFFFFFFFFFFFFFFFFFF8FFFFFFEB8
:109930001FFFFFFFFFFFFFFFFFFFFFFFFFFFFF8F87
:10994000FFFFFE1FFFFFFFFFFFFFFFFFFFFFFFFF08
:10995000FFFF8FFFFFFE1FFFFFFFFFFFFFFFFFFF68
:10996000FFFFFFFFFFCFFFFFFE1FFFFFFFFFFFFF18
:10997000FFFFFFFFFFFFFFFFC7FFFFFE1FFFFFFF10
:10998000FFFFFFFFFFFFFFFFFFFFFFC7FFFFFE1F00
:10999000FFFFFFFFFFFFFFFFFFFFFFFFFFFFC7FF0F
:1099A000FFFE1FFFFFFFFFFFFFFFFFFFFFFFFFFFA8
:1099B000FFC7FFFFFE1FFFFFFFFFFFFFFFFFFFFFD0
:1099C000FFFFFFFFC7FFFFFE1FFFFFFFFFFFFFFFC0
:1099D000FFFFFFFFFFFFFFC3FFFFFE1FFFFFFFFFB4
:1099E000FFFFFFFFFFFFFFFFFFFFC3FFFFFE1FFFA4
:1099F000FFFFFFFFFFFFFFFFFFFFFFFFFFE3FFFF93
:109A0000FF1FFFFFFFFFFFFFFFFFFFFFFFFFFFFF46
:109A1000E3FFFFFFFFFFFFFFFFFFFF9FFFFFFFFFD2
:109A2000FFFFFFE1FFFFFFFFFFFFFFFFFFFF1FFF44
:109A3000FFFFFFFFFFFFE1FFFFFFFFFFFFFFFFFF54
:109A4000FE1FFFFFFFFFFFFFFFE1FFFFFFFFFFFF25
:109A5000FFFFFFFE1FFFFFFFFFFFFFFFF0FFFFFF06
:109A6000FFFFFFFFFFFFFC1FFF3FFFFFFFFFFFF0B8
:109A7000FFFFFFFFFFFFFFFFFFF81FFE0FFFFFFFCE
:109A8000FFFFF0FFFFFFFFFFFFFFFFFFF01FFC03E3
:109A9000FFFFFFFFFFF87FFFFFFFFFFFFFFFFFF06C
:109AA0001FFC01FFFFFFFFFFF87FFFFFFFFFFFFF2E
:109AB000FFFFE01FFC607FFFFFFFFFF83FFFFFFF9E
:109AC000FFFFFFFFFFC11FFCF03FFFFFFFFFFC3F59
:109AD000FFFFFFFFFFFFFFFF830FFCF80FFFFFFFFC
:109AE000FFFC1FFFFFFFFFFFFFFFFF070FFCFE074D
:109AF000FFFFFFFFFC1FFFFE0FFFFFFFFFFE070F33
:109B0000FC7F01FFFFFFFFFE0FFFFE0FFFFFFFFFC8
:109B1000FC0F0FFC7FC07FFFFFFFFE07FFFF0FFF63
:109B2000FFFFFFF81F0FFC7FE03FFFFFFFFF07FF76
:109B3000FF0FFFFFFFFFF03F0FFC7FF80FFFFFFF5E
:109B4000FF03FFFF0FFFFFFFFFE07F0FFC7FFE0320
:109B5000FFFFFFFF81FFFF0FFFFFFFFFC0FF07FCBD
:109B60003FFF00FFFFFFFFC0FFFF0FFFFFFFFF8171
:109B7000FF07FC3FFFC03FFFFFFFC0FFFF0FFFFFDE
:109B8000FFFF03FF87FE3FFFE00FFFFFFFE07FFFC8
:109B900087FFFFFFFE07FF87FE1FFFF003FFFFFFAA
:109BA000F03FFF87FFFFFFF80FFF87FF1FFFF00366
:109BB000FFFFFFF81FFF87FFFFFFF01FFF83FF0F6F
:109BC000FFE1C3FFFFFFFC07FF87FFFFFFE03FFF51
:109BD00083FF87FF87E3FFFFFFFE03FF87FFFFFF92
:109BE000807FFFC3FFC1F01FE3FFFFFFFF81FFC7BF
:109BF000FFFFFE00FFFFC1FFE0007FE3FFFFFFFF6D
:109C0000C07FC7FFFFFC03FFFFC1FFF803FFE3FFB7
:109C1000FFFFFFE03FC7FFFFF007FFFFE0FFFFFF91
:109C2000FFE3FFFFFFFFF00FDFFFFF800FFFFFE00D
:109C3000FFFFFFFFC3FFFFFFFFFC01FFFFFE003F31
:109C4000FFFFF07FFFFFFFC3FFFFFFFFFE003FFFAF
:109C5000E0007FFFFFF07FFFFFFF83FFFFFFFFFFBD
:109C60008000600001FFFFFFF83FFFFFFF07FFFFDD
:109C7000FFFFFFE000000007FFFFFFF81FFFFFFEF0
:109C80000FFFFFFFFFFFF80000001FFFFFFFFC1F9B
:109C9000FFFFFC1FFFFFFFFFFFFE000000FFFFFFB5
:109CA000FFFE0FFFFFF03FFFFFFFFFFFFFC00007BA
:109CB000FFFFFFFFFE03FFFFE07FFFFFFFFFFFFF50
:109CC000FE00FFFFFFFFFFFF01FFFF80FFFFFFFF21
:109CD000FFFFFFFFFFFFFFFFFFFFFF807FFC01FF94
:109CE000FFFFFFFFFFFFFFFFFFFFFFFFFFFFE000A2
:109CF0000007FFFFFFFFFFFFFFFFFFFFFFFFFFFF6B
:109D0000FFF000000FFFFFFFFFFFFFFFFFFFFFFF60
:109D1000FFFFFFFFF800003FFFFFFFFFFFFFFFFF18
:109D2000FFFFFFFFFFFFFFFE0001FFFFFFFFFFFF41
:109D3000FFFFFFFFFFFFFFFFFFFFFFC00FFFFFFF62
:109D4000FFFFFFFFFFFFFFFFFFFFFFFFFFFFFFFF23
:109D5000FFFFFFFFFFFFFFFFFFFFFFFFFFFFFFFF13
:109D6000FFFFFFFFFF0000000000000000000000F8
:109D700000000000000000000000000000000000E3
:109D800000000000000000000000000000000000D3
:109D900000000000000000000000000000000000C3
:109DA00000000000000000000000000000000000B3
:109DB00000000000000000000000000000000000A3
:109DC00000000000FFFFFFFFFFFFFFFFFFFFFF801E
:109DD000000007C0000003FFFF0000000380000038
:109DE00001FFFE0000000100000000FFFF00000076
:109DF0000100000001FFFF8000000380000003FF5E
:109E0000F7C0000007C0000007DFF7E000000FE028
:109E100000000FDFE3E000001FF000000F8FC1F033
:109E200000003FF800001F07C0F800007FFC0000A2
:109E30003E07C07C0000FFFE00007C07C03FFFFF24
:109E4000FFFFFFFFF807C01FFFFFFFFFFFFFF00747
:109E5000C00FFFFFFFFFFFFFE007C00FFFFFFFFF87
:109E6000FFFFE007C00FFFFFFFFFFFFFE007C00F8E
:109E7000FFFFFFFFFFFFE007C00FFFFFFFFFFFFF38
:109E8000E007C00FFFFFFFFFFFFFE007C00FFFFF6E
:109E9000FFFFFFFFE007C00FFFFFFFFFFFFFE0072F
:109EA000C00FFFFFFFFFFFFFE007C00FFFFFFFFF37
:109EB000FFFFE007C00FFFFFFFFFFFFFE007C00F3E
:109EC000FFFFFFFFFFFFE007C00FFFFFFFFFFFFFE8
:109ED000E007C00FFFFFFFFFFFFFE007C00FFFFF1E
:109EE000FFFFFFFFE007C00FFFFFFFFFFFFFE007DF
:109EF000C00FFFFFFFFFFFFFE007C01FFFFFFFFFD7
:109F0000FFFFF007C03FFFFFFFFFFFFFF807C07C28
:109F10000000FFFE00007C07C0F800007FFC00008E
:109F20003E07C1F000003FF800001F07E3E000001B
:109F30001FF000000F8FF7E000000FE000000FDFC0
:109F4000F7C0000007C0000007DFFF8000000380AB
:109F5000000003FFFF0000000100000001FFFE0001
:109F600000000100000000FFFF000000038000006F
:109F700001FFFF80000007C0000003FFFFFFFFFF9D
:109F8000FFFFFFFFFFFFFFFFFFFFFFFFFFFFFFFFE1
:109F9000FFFFFFFFFFFFFFFFFFFFFFFFFFFFFFFFD1
:109FA000FFFFFFFFFFFFFFFFFFFFFFFFFFFFFFFFC1
:109FB000FFFFFFFFFFFFFFFFFFFFFFFFFFFFFFFFB1
:109FC000FFFFFFFFFFFFFFFFFFFFFFFFFFFFFFFFA1
:109FD000FFFFFFFFFFFFFFFFFFFFFFFFFFFFFFFF91
:109FE000FFFFFFFFFFFFFFFFFFFFFFFFFFFFFFFF81
:109FF000FFFFFFFFFFFFFFFFFFFFFFFFFFFFFFFF71
:10A00000FFFFFFFFFFFFFFFFFFFFFFFFFFFFFFFF60
:10A01000FFFFFFFFFFFFFFFFFFFFFFFFFFFFFFFF50
:10A02000FFFFFFFFFFFFFFFFFFFFFFFFFFFFFFFF40
:10A03000FFFFFFFFFFFFFFFFFFFFFFFFFFFFFFFF30
:10A04000FFFFFFFFFFFFFFFFFFFFFFFFFFFFFFFF20
:10A05000FFFFFFFFFFFFFFFFFFFFFFFFFFFFFFFF10
:10A06000FFFFFFFFFFFFFFFFFFFFFFFFFFFFFFFF00
:10A07000FFFFFFFFFFFFFFFFFFFFFFFFFFFFFFFFF0
:10A08000FFFFFFFFFFFFFFFFFFFFFFFFFFFFFFFFE0
:10A09000FFFFFFFFFFFFFFFFFFFFFFFFFFFFFFFFD0
:10A0A000FFFFFFFFFFFFFFFFFFFFFFFFFFFFFFFFC0
:10A0B000FFFFFFFFFFFFFFFFFFFFFFFFFFFFFFFFB0
:10A0C000FFFFFFFFFFFFFFFFFFFFFFFFFFFFFFFFA0
:10A0D000FFFFFFFFFFFFFFFFFFFFFFFFFFFFFFFF90
:10A0E000FFFFFFFFFFFE0000FFFE0000FFFFFFFC81
:10A0F00000007FFC00007FFFFFF800003FF8000039
:10A100003FFFFFF000001FF000001FFFFFE0000016
:10A110000FE000000FFFFFC0000007C0000007FFB6
:10A12000FF8000000380000003FFFF00000001002B
:10A13000000001FFFF0000000100000001FFFF80A0
:10A1400000000380000003FFFFC0000007C0000004
:10A1500007FFFFFFFFFFFFFFFFFFFFFFFFFFFFFF07
:10A16000FFFFFFFFFFFFFFFFFFFFFFFFFFFFFFFFFF
:10A17000FFFFFFFFFFFFFFFFFFFFFFFFFFFFFF806E
:10A18000000003FFFFFFFFFFFF00000001FFFFFFD4
:10A19000FFFFFE00000000FFFFFFFFFFFF000000C9
:10A1A00001FFFFFFFFFFFF80000003FFF7FFFFFF3E
:10A1B000FFC0000007DFF7FFFFFFFFE000000FDF39
:10A1C000E3FFFFFFFFF000001F8FC1FFFFFFFFF065
:10A1D00000001F07C0FFFFFFFCF800003E07C07F24
:10A1E000FFFFF87C00007C07C03FFFFFF03FFFFF50
:10A1F000F807C01FFFFFE01FFFFFF007C00FFFFFC2
:10A20000C00FFFFFE007C00FFFFFC00FFFFFE00719
:10A21000C00FFFFFC00FFFFFE007C00FFFFFC00F21
:10A22000FFFFE007C00FFFFFC00FFFFFE007C00FF9
:10A23000FFFFC00FFFFFE007C00FFFFFC00FFFFFD2
:10A24000E007C00FFFFFC00FFFFFE007C00FFFFFD9
:10A25000C00FFFFFE007C00FFFFFC00FFFFFE007C9
:10A26000C00FFFFFC00FFFFFE007C00FFFFFC00FD1
:10A27000FFFFE007C00FFFFFC00FFFFFE007C00FA9
:10A28000FFFFC00FFFFFE007C00FFFFFC00FFFFF82
:10A29000E007C00FFFFFC00FFFFFE007C00FFFFF89
:10A2A000C00FFFFFE007C01FFFFFE01FFFFFF00729
:10A2B000C03FFFFFF03FFFFFF807C07C0000F87FC2
:10A2C000FFFFFC07C0F800007CFFFFFFFE07C1F0A6
:10A2D00000003FFFFFFFFF07E3E000001FFFFFFF5D
:10A2E000FF8FF7E000001FFFFFFFFFDFF7C0000058
:10A2F0000FFFFFFFFFDFFF80000007FFFFFFFFFFF3
:10A30000FF00000003FFFFFFFFFFFE00000001FF52
:10A31000FFFFFFFFFF00000003FFFFFFFFFFFF80C5
:10A32000000007FFFFFFFFFFFFFFFFFFFFFFFFFF33
:10A33000FFFFFFFFFFFFFFFFFFFFFFFFFFFFFFFF2D
:10A34000FFFFFFFFFFFFFFFFFFFFFFFFFFFFFFFF1D
:10A35000FFFFFFFFFFFFFFFFFFFFFFFFFFFFFFFF0D
:10A36000FFFFFFFFFFFFFFFFFFFFFFFFFFFFFFFFFD
:10A37000FFFFFFFFFFFFFFFFFFFFFFFFFFFFFFFFED
:10A38000FFFFF7FFFFFFFFFFFFFFFFDFE3FFFFFF21
:10A39000FFFFFFFFFF8FC1FFFFFFFFFFFFFFFF0773
:10A3A000C0FFFFFFFCFFFFFFFE07C07FFFFFF87F3E
:10A3B000FFFFFC07C03FFFFFF03FFFFFF807C03F74
:10A3C000FFFFF03FFFFFF807C01FFFFFE01FFFFF89
:10A3D000F007C00FFFFFC00FFFFFE007C00FFFFF38
:10A3E000C00FFFFFE007C00FFFFFC00FFFFFE00738
:10A3F000C00FFFFFC00FFFFFE007C00FFFFFC00F40
:10A40000FFFFE007C00FFFFFC00FFFFFE007C00F17
:10A41000FFFFC00FFFFFE007C00FFFFFC00FFFFFF0
:10A42000E007C00FFFFFC00FFFFFE007C00FFFFFF7
:10A43000C00FFFFFE007C00FFFFFC00FFFFFE007E7
:10A44000C00FFFFFC00FFFFFE007C00FFFFFC00FEF
:10A45000FFFFE007C00FFFFFC00FFFFFE007C00FC7
:10A46000FFFFC00FFFFFE007C00FFFFFC00FFFFFA0
:10A47000E007C00FFFFFC00FFFFFE007C01FFFFF97
:10A48000E01FFFFFF007C03FFFFFF03FFFFFF807AF
:10A49000C07C0000F87C00007C07C0F800007CF85D
:10A4A00000003E07C1F000003FF000001F07E3E09E
:10A4B00000001FF000001F8FF7E000001FE0000009
:10A4C0000FDFF7C000000FC0000007DFFF800000B3
:10A4D0000780000003FFFF0000000300000001FFF1
:10A4E000FE0000000000000000FFFF00000003006D
:10A4F000000001FFFF8000000780000003FFFFFF56
:10A50000FFFFFFFFFFFFFFFFFFFFFFFFFFFFFFFF5B
:10A51000FFFFFFFFFFFFFFFFFFFFFFFFFFFFFFFF4B
:10A52000FFFFFFFFFFFFFFC0000003FFFFFFFFFF74
:10A53000FF80000001FFFFFFFFFFFF00000000FFA2
:10A54000FFFFFFFFFF80000001FFFFFFFFFFFFC0D5
:10A55000000003FFFFFFFFFFFFE0000007FFFFFF1A
:10A56000FFFFFFF0000007FFFFFFFFFFFFF8000005
:10A570000FFFFFFFFFFFFFFC00001FFFFFFFFFFFBC
:10A58000FFFE00003E7FFFFFFFFFFFFF00007C3F5C
:10A59000FFFFFFFFFFFFFFFFF81FFFFFFFFFFFFFB2
:10A5A000FFFFF00FFFFFFFFFFFFFFFFFE007FFFFD1
:10A5B000FFFFFFFFFFFFE007FFFFFFFFFFFFFFFFC2
:10A5C000E007FFFFFFFFFFFFFFFFE007FFFFFFFFC9
:10A5D000FFFFFFFFE007FFFFFFFFFFFFFFFFE007B9
:10A5E000FFFFFFFFFFFFFFFFE007FFFFFFFFFFFF92
:10A5F000FFFFE007FFFFFFFFFFFFFFFFE007FFFF99
:10A60000FFFFFFFFFFFFE007FFFFFFFFFFFFFFFF71
:10A61000E007FFFFFFFFFFFFFFFFE007FFFFFFFF78
:10A62000FFFFFFFFE007FFFFFFFFFFFFFFFFE00768
:10A63000FFFFFFFFFFFFFFFFE007FFFFFFFFFFFF41
:10A64000FFFFE007FFFFFFFFFFFFFFFFE007FFFF48
:10A65000FFFFFFFFFFFFF00FFFFFFFFFFFFFFFFF09
:10A66000F81FFFFFFFFFFFFF00007C3E0000FFFF21
:10A67000FFFE00003E7C00007FFFFFFC00001FF893
:10A6800000003FFFFFF800000FF000001FFFFFF089
:10A69000000007E000000FFFFFE0000007E00000FF
:10A6A00007FFFFC0000003C0000003FFFF800000A1
:10A6B0000180000001FFFF0000000000000000FF1B
:10A6C000FF8000000180000001FFFFC0000003C008
:10A6D000000003FFFFFFFFFFFFFFFFFFFFFFFFFF84
:10A6E000FFFFFFFFFFFFFFFFFFFFFFFFFFFFFFFF7A
:10A6F000FFFFFFFFFFFFFFFFFFFFFFFFFF800000E7
:10A7000007FFFFFFFFFFFF00000003FFFFFFFFFF4A
:10A71000FE00000001FFFFFFFFFFFF00000003FF3E
:10A72000FFFFFFFFFF80000007FFFFFFFFFFF7C0F5
:10A7300000000FFFFFFFFFDFF7E000001FFFFFFF3C
:10A74000FFDFE3E000001FFFFFFFFF8FC1F000000D
:10A750003FFFFFFFFF07C0F800007CFFFFFFFE0781
:10A76000C07C0000F87FFFFFFC07C03FFFFFF03F09
:10A77000FFFFF807C01FFFFFE01FFFFFF007C00F3C
:10A78000FFFFC00FFFFFE007C00FFFFFC00FFFFF7D
:10A79000E007C00FFFFFC00FFFFFE007C00FFFFF84
:10A7A000C00FFFFFE007C00FFFFFC00FFFFFE00774
:10A7B000C00FFFFFC00FFFFFE007C00FFFFFC00F7C
:10A7C000FFFFE007C00FFFFFC00FFFFFE007C00F54
:10A7D000FFFFC00FFFFFE007C00FFFFFC00FFFFF2D
:10A7E000E007C00FFFFFC00FFFFFE007C00FFFFF34
:10A7F000C00FFFFFE007C00FFFFFC00FFFFFE00724
:10A80000C00FFFFFC00FFFFFE007C00FFFFFC00F2B
:10A81000FFFFE007C00FFFFFC00FFFFFE007C00F03
:10A82000FFFFC00FFFFFE007C01FFFFFE01FFFFF9C
:10A83000F007C03FFFFFF03FFFFFF807C07FFFFFBB
:10A84000F87C00007C07C0FFFFFFFCF800003E071B
:10A85000C1FFFFFFFFF000001F07E3FFFFFFFFF056
:10A8600000001F8FF7FFFFFFFFE000000FDFF7FF83
:10A87000FFFFFFC0000007DFFFFFFFFFFF800000BA
:10A8800003FFFFFFFFFFFF00000001FFFFFFFFFFCF
:10A89000FE00000000FFFFFFFFFFFF00000001FFC0
:10A8A000FFFFFFFFFF80000003FFFFFFFFFFFFFF31
:10A8B000FFFFFFFFFFFFFFFFFFFFFFFFFFFFFFFFA8
:10A8C000FFFFFFFFFFFFFFFFFFFFFFFFFFFFFFFF98
:10A8D000FFFFFF8000000780000003FFFF00000073
:10A8E0000300000001FFFE0000000000000000FF68
:10A8F000FF0000000300000001FFFF800000078050
:10A90000000003FFF7C000000FC0000007DFF7E002
:10A9100000001FE000000FDFE3E000001FF0000078
:10A920001F8FC1F000003FF000001F07C0F80000BB
:10A930007CF800003E07C07C0000F87C00007C072B
:10A94000C03FFFFFF03FFFFFF807C01FFFFFE01F02
:10A95000FFFFF007C00FFFFFC00FFFFFE007C00FB2
:10A96000FFFFC00FFFFFE007C00FFFFFC00FFFFF9B
:10A97000E007C00FFFFFC00FFFFFE007C00FFFFFA2
:10A98000C00FFFFFE007C00FFFFFC00FFFFFE00792
:10A99000C00FFFFFC00FFFFFE007C00FFFFFC00F9A
:10A9A000FFFFE007C00FFFFFC00FFFFFE007C00F72
:10A9B000FFFFC00FFFFFE007C00FFFFFC00FFFFF4B
:10A9C000E007C00FFFFFC00FFFFFE007C00FFFFF52
:10A9D000C00FFFFFE007C00FFFFFC00FFFFFE00742
:10A9E000C00FFFFFC00FFFFFE007C00FFFFFC00F4A
:10A9F000FFFFE007C00FFFFFC00FFFFFE007C01F12
:10AA0000FFFFE01FFFFFF007C03FFFFFF03FFFFF2A
:10AA1000F807C07FFFFFF87C00007C07C0FFFFFF46
:10AA2000FCF800003E07C1FFFFFFFFF000001F071A
:10AA3000E3FFFFFFFFF000001F8FF7FFFFFFFFE0C6
:10AA400000000FDFF7FFFFFFFFC0000007DFFFFF81
:10AA5000FFFFFF80000003FFFFFFFFFFFF0000007C
:10AA600001FFFFFFFFFFFE00000000FFFFFFFFFFF1
:10AA7000FF00000001FFFFFFFFFFFF80000003FF5A
:10AA8000FFFFFFFFFFFFFFFFFFFFFFFFFFFFFFFFD6
:10AA9000FFFFFFFFFFFFFFFFFFFFFFFFFFFFFFFFC6
:10AAA000FFFFFFFFFFFFFFFFFFFFFFFFFFFFFFFFB6
:10AAB000FFFFFFFFFFFFFFFFFFFFFFFFFFFFFFFFA6
:10AAC000FFFFFFFFFFFFFFFFFFFFFFFFFFFFFFFF96
:10AAD000FFFFFFFFFFFFFFFFFFFFF7FFFFFFFFFF8E
:10AAE000FFFFFFFFE3FFFFFFFFFFFFFFFFFFC1FFD0
:10AAF000FFFFFFFFFFFFFFFFC0FFFFFFFFFFFFFFA5
:10AB0000FFFFC07FFFFFFFFFFFFFFFFFC03FFFFF13
:10AB1000FFFFFFFFFFFFC03FFFFFFFFFFFFFFFFF44
:10AB2000C01FFFFFFFFFFFFFFFFFC00FFFFFFFFF83
:10AB3000FFFFFFFFC00FFFFFFFFFFFFFFFFFC00F83
:10AB4000FFFFFFFFFFFFFFFFC00FFFFFFFFFFFFF44
:10AB5000FFFFC00FFFFFFFFFFFFFFFFFC00FFFFF63
:10AB6000FFFFFFFFFFFFC00FFFFFFFFFFFFFFFFF24
:10AB7000C00FFFFFFFFFFFFFFFFFC00FFFFFFFFF43
:10AB8000FFFFFFFFC00FFFFFFFFFFFFFFFFFC00F33
:10AB9000FFFFFFFFFFFFFFFFC00FFFFFFFFFFFFFF4
:10ABA000FFFFC00FFFFFFFFFFFFFFFFFC00FFFFF13
:10ABB000FFFFFFFFFFFFC00FFFFFFFFFFFFFFFFFD4
:10ABC000C00FFFFFFFFFFFFFFFFFC00FFFFFFFFFF3
:10ABD000FFFFFFFFC01FFFFFFFFFFFFFFFFFC03FA3
:10ABE000FFFFFFFFFFFFFFFFC07C0001FFFC000134
:10ABF000FFFFC0F80000FFF80000FFFFC1F00000F9
:10AC00007FF000007FFFE3E000003FE000003FFF37
:10AC1000F7C000001FC000001FFFF7C000000F803A
:10AC200000000FFFFF8000000700000007FFFF008B
:10AC300000000300000003FFFE0000000000000011
:10AC400001FFFF0000000300000003FFFF80000081
:10AC50000780000007FFFFFFFFFFFFFFFFFFFFFF71
:10AC6000FFFFFFFFFFFFFFFFFFFFFFFFFFFFFFFFF4
:10AC7000FFFFFFFFFFFFFFFFFFFFFFFFFFFFFF8063
:10AC800000000780000003FFFF0000000300000039
:10AC900001FFFE0000000000000000FFFF000000B8
:10ACA0000300000001FFFF8000000780000003FF99
:10ACB000F7C000000FC0000007DFF7E000001FE052
:10ACC00000000FDFE3E000001FF000001F8FC1F065
:10ACD00000003FF000001F07C0F800007CF80000F3
:10ACE0003E07C07C0000F87C00007C07C03FFFFFEF
:10ACF000F03FFFFFF807C01FFFFFE01FFFFFF00757
:10AD0000C00FFFFFC00FFFFFE007C00FFFFFC00F26
:10AD1000FFFFE007C00FFFFFC00FFFFFE007C00FFE
:10AD2000FFFFC00FFFFFE007C00FFFFFC00FFFFFD7
:10AD3000E007C00FFFFFC00FFFFFE007C00FFFFFDE
:10AD4000C00FFFFFE007C00FFFFFC00FFFFFE007CE
:10AD5000C00FFFFFC00FFFFFE007C00FFFFFC00FD6
:10AD6000FFFFE007C00FFFFFC00FFFFFE007C00FAE
:10AD7000FFFFC00FFFFFE007C00FFFFFC00FFFFF87
:10AD8000E007C00FFFFFC00FFFFFE007C00FFFFF8E
:10AD9000C00FFFFFE007C00FFFFFC00FFFFFE0077E
:10ADA000C00FFFFFC00FFFFFE007C01FFFFFE01F46
:10ADB000FFFFF007C03FFFFFF03FFFFFF807C07C39
:10ADC0000000F87C00007C07C0F800007CF8000060
:10ADD0003E07C1F000003FF000001F07E3E0000065
:10ADE0001FF000001F8FF7E000001FE000000FDFE2
:10ADF000F7C000000FC0000007DFFF8000000780E1
:10AE0000000003FFFF0000000300000001FFFE0040
:10AE100000000000000000FFFF0000000300000031
:10AE200001FFFF8000000780000003FFFFFFFFFF1E
:10AE3000FFFFFFFFFFFFFFFFFFFFFFFFFFFFFFFF22
:10AE4000FFFFFFFFFFFFFFFFFFFFFFFFFFFFFFFF12
:10AE5000FFFFFFFFFF80000007FFFFFFFFFFFF0076
:10AE6000000003FFFFFFFFFFFE00000001FFFFFFE8
:10AE7000FFFFFF00000003FFFFFFFFFFFF80000058
:10AE800007FFFFFFFFFFF7C000000FFFFFFFFFDF1F
:10AE9000F7E000001FFFFFFFFFDFE3E000001FFF00
:10AEA000FFFFFF8FC1F000003FFFFFFFFF07C0F86B
:10AEB00000007CFFFFFFFE07C07C0000F87FFFFF63
:10AEC000FC07C03FFFFFF03FFFFFF807C01FFFFF79
:10AED000E01FFFFFF007C00FFFFFC00FFFFFE007FD
:10AEE000C00FFFFFC00FFFFFE007C00FFFFFC00F45
:10AEF000FFFFE007C00FFFFFC00FFFFFE007C00F1D
:10AF0000FFFFC00FFFFFE007C00FFFFFC00FFFFFF5
:10AF1000E007C00FFFFFC00FFFFFE007C00FFFFFFC
:10AF2000C00FFFFFE007C00FFFFFC00FFFFFE007EC
:10AF3000C00FFFFFC00FFFFFE007C00FFFFFC00FF4
:10AF4000FFFFE007C00FFFFFC00FFFFFE007C00FCC
:10AF5000FFFFC00FFFFFE007C00FFFFFC00FFFFFA5
:10AF6000E007C00FFFFFC00FFFFFE007C00FFFFFAC
:10AF7000C00FFFFFE007C00FFFFFC00FFFFFE0079C
:10AF8000C01FFFFFE01FFFFFF007C03FFFFFF03FC4
:10AF9000FFFFF807C07C0000F87C00007C07C0F8C9
:10AFA00000007CF800003E07C1F000003FF0000008
:10AFB0001F07E3E000001FF000001F8FF7E0000014
:10AFC0001FE000000FDFF7C000000FC0000007DF28
:10AFD000FF8000000780000003FFFF000000030067
:10AFE000000001FFFE0000000000000000FFFF0065
:10AFF00000000300000001FFFF8000000780000048
:10B0000003FFFFFFFFFFFFFFFFFFFFFFFFFFFFFF4C
:10B01000FFFFFFFFFFFFFFFFFFFFFFFFFFFFFFFF40
:10B02000FFFFFFFFFFFFFFFFFFFFFFFFFFFFFFFF30
:10B03000FFFFFFFFFFFFFFFFFFFFFFFFFFFFFFFF20
:10B04000FFFFFFFFFFFFFFFFFFFFFFFFFFFFFFFF10
:10B05000FFFFFFFFFFFFFFFFFFFFFFFFFFFFFFFF00
:10B06000FFFFFFFFFFFFFFFFFFFFFFFFFFFFFFFFF0
:10B07000FFFFFFFFFFFFFFFFFFFFFFFFFFFFFFFFE0
:10B08000FFFFFFFFFFFFFFFFFFFFFFFFFFFFFFFFD0
:10B09000FFFFFFFFFFFFFFFFFFFFFFFFFFFFFFFFC0
:10B0A000FFFFFFFFFFFFFFFFFFFFFFFFFFFFFFFFB0
:10B0B000FFFFFFFFFFFFFFFFFFFFFFFFFFFFFFFFA0
:10B0C000FFFFFFFFFFFFFFFFFFFFFFFFF87FFFFF17
:10B0D000FC3FFFFFFFFFF03FFFFFF81FFFFFFFFFF9
:10B0E000E01FFFFFF00FFFFFFFFFC00FFFFFE007B4
:10B0F000FFFFFFFFC00FFFFFE007FFFFFFFFC00FD5
:10B10000FFFFE007FFFFFFFFC00FFFFFE007FFFFAC
:10B11000FFFFC00FFFFFE007FFFFFFFFE01FFFFF84
:10B12000F00FFFFFFFFFF03FFFFFF81FFFFFFFFFE4
:10B13000F87FFFFFFC3FFFFFFFFFFFFFFFFFFFFF69
:10B14000FFFFFFFFFFFFFFFFFFFFFFFFFFFFFFFF0F
:10B15000FFFFFFFFFFFFFFFFFFFFFFFFFFFFFFFFFF
:10B16000FFFFFFFFFFFFFFFFFFFFFFFFFFFFFFFFEF
:10B17000FFFFFFFFFFFFFFFFFFFFFFFFFFFFFFFFDF
:10B18000FFFFFFFFFFFFFFFFFFFFFFFFFFFFFFFFCF
:10B19000FFFFFFFFFFFFFFFFFFFFFFFFFFFFFFFFBF
:10B1A000FFFFFFFFFFFFFFFFFFFFFFFFFFFFFFFFAF
:10B1B000FFFFFFFFFFFFFFFFFFFFFFFFFFFFFFFF9F
:10B1C000FFFFFFFFFFFFFFFFFFFFFFFFFFFFFFFF8F
:10B1D000FFFFFFFFFFFFFFFFFFFFFFFFFFFFFFFF7F
:10B1E000FFFFFFFFFFFFFFFFFFFFFFFFFFFFFFFF6F
:10B1F000FFFFFFFFFFFFFFFFFFFFFFFFFFFFFFFF5F
:10B20000FFFFFFFFFFFFFFFFFFFFFFFFE033E03324
:10B21000FFFFFFFFFFFFFFFFF7FFC7FF8FFFB7FF36
:10B22000C7FF8FFFBFFFFFFFFDDFFC03E003E1DF90
:10B23000FC03E003E1DFFFFFF1E7E0E3EEFBC0002A
:10B24000C000E303F387F0FFE073E043F00FF8077B
:10B25000E103E703FF87FF87F003E03BEE0BE043EA
:10B26000F103FF1BFF73FFFFB7FF87FF8FFFFFFF98
:10B27000FFFFFFFFFFFFFFFFFFFFFFFFF81FE007DC
:10B28000C7E39FF9BFFDFFFFBFFD9FF9C7E3E007DD
:10B29000F81FFFFFFFFFFDBFFDBFFC3FF00FF00FEA
:10B2A000FC3FFDBFFDBFFFFFFF7FFF7FFF7FF80F6C
:10B2B000F80FFF7FFF7FFFFFFFF6FFF0FFF1FFFFBB
:10B2C000FFFFFFFFFFFFFFFFFF7FFF7FFF7FFF7F8E
:10B2D000FF7FFF7FFF7FFFFFFFF3FFF3FFF3FFFF22
:10B2E000FFFFFFFFFFFFFFFFFFF9FFE1FF07FC1F6D
:10B2F000E0FFC3FFDFFFFFFFF80FF007E7F3EFFB0F
:10B30000E7F3F007F80FFFFFFFFFF7FBF7FBE003A2
:10B31000E003FFFBFFFBFFFFF1F3E1E3EFCBEF9B6C
:10B32000EF3BE073F0F3FFFFF3E7E3E3EF7BEF7B4B
:10B33000EE3BE083F1C7FFFFFF9FFE1FFC5BF1DBED
:10B34000E003E003FFDBFFFFE067E063EEFBEEFB03
:10B35000EE73EF07EF8FFFFFF80FF007E673EEFBDA
:10B36000E6FBF603FF07FFFFE7FFE7FFEF83EE03D0
:10B37000E87FE1FFE7FFFFFFF1C7E083EE3BEF7BF4
:10B38000EE3BE083F1C7FFFFF07FE037EFB3EFBBA9
:10B39000E733F007F80FFFFFFFFFFFFFFCF3FCF3BD
:10B3A000FCF3FFFFFFFFFFFFFFFFFFFFFEF8FEF8CC
:10B3B000FFFFFFFFFFFFFFFFFF7FFE3FFC9FF9CF77
:10B3C000F3E7E7F3EFFBFFFFFDBFFDBFFDBFFDBFF1
:10B3D000FDBFFDBFFDBFFFFFEFFBE7F3F3E7F9CFD5
:10B3E000FC9FFE3FFF7FFFFFF1FFE1FFEDF3EF1357
:10B3F000EE13E0FFF1FFFC1FF007E003E80BE80BA2
:10B40000E00BF003F817FFFBFFC3FC03E03BE0BFDA
:10B41000F81BFF03FFE3EFFBE003E003EEFBEEFBB3
:10B42000E073F107FF8FFC1FF007E3E3EFFBEFFB97
:10B43000EFF3E3E7E3EFEFFBE003E003EFFBEFFB0A
:10B44000E7F3F007F80FEFFBE003E003EEFBE83B68
:10B45000E83BE7E3F7E7EFFBE003E003EEFBE83F61
:10B46000E83FE7FFF7FFFC1FF007E3E3EFFBEFBB6D
:10B47000E383E387FFBFEFFBE003E003EF7BFF7FA6
:10B48000EF7BE003E003FFFFEFFBEFFBE003E003F4
:10B49000EFFBEFFBFFFFFFFCFFFCEFFEEFFEE0002A
:10B4A000E001EFFFEFFFEFFBE003E003EC7BE81BC5
:10B4B000E383E7E3EFFBEFFBE003E003EFFBFFFBDE
:10B4C000FFFBFFF3FFF3EFFBE003E003E003E00328
:10B4D000E003E003EFFBEFFBE003E003F0FBFC1F06
:10B4E000EF07E003E003F80FF007E7F3EFFBEFFBF4
:10B4F000E7F3F007F80FEFFBE003E003EF7BEF7FEC
:10B50000EF7FE07FF0FFF80FF007E7E3EFEBEFE30B
:10B51000E7F1F005F80DEFFBE003E003EEFBEE3F93
:10B52000EE0FE0C3F1F3FFFFF1E3E0E3EE7BEF7B2F
:10B53000EF3BE383E3C7E7FFE7FFEFFBE003E00355
:10B54000EFFBE7FFE7FFEFFFE007E003EFFBFFFBA9
:10B55000EFFBE003E007EFFFE1FFE01FEE03FF83F7
:10B56000EC0FE07FE3FFEFFFE03FE003E003E003E9
:10B57000E003E03FEFFFEFFBE7F3E1C3E80BFE3F43
:10B58000E80BE1C3E7F3EFFFE3FFE0FBEC03EC03C1
:10B59000E0FBE3FFEFFFF7FBE7E3EF83EF1BEC7B61
:10B5A000E0FBE3E3EFE7FFFFFFFFFFFF8001800128
:10B5B000BFFDBFFDBFFDFFFFDFFFC3FFE07FFC1F3F
:10B5C000FF83FFE0FFFCFFFFBFFDBFFDBFFD80016C
:10B5D0008001FFFFFFFFFFFFFFFFDFFF9FFFBFFFB8
:10B5E0009FFFDFFFFFFFFFFEFFFEFFFEFFFEFFFEF0
:10B5F000FFFEFFFEFFFEFFFFBFFFBFFF9FFFDFFF5E
:10B60000FFFFFFFFFFFFFFFFFF67FE43FEDBFE9331
:10B61000FE03FF03FFFBF7FFF003F003FE73FEFBE7
:10B62000FE73FF07FF8FFFFFFF8FFF07FE73FEFB19
:10B63000FEFBFE73FF77FFFFFF07FE03FEFBFEFB33
:10B64000F6F3F003F003FFFFFF07FE03FEDBFEDB74
:10B65000FEDBFE13FF17FFFFFEFBFEFBF803F0030C
:10B66000F6FBF2FBFBFFFFFFFF29FE00FED6FED636
:10B67000FE16FE30FEF9F7FBF003F003FE7BFEFF43
:10B68000FEFBFE03FF03FFFFFEFBE6FBE603E60314
:10B69000FFFBFFFBFFFFFFFFFFFCFFFCFEFEE6FEE4
:10B6A000E600E601FFFFF7FBF003F003FF9BFE0B54
:10B6B000FE63FEF3FEFBFFFFF7FBF7FBE003E00397
:10B6C000FFFBFFFBFFFFFEFBFE03FE03FEFBFE0393
:10B6D000FE03FEFBFE03FEFBFE03FE03FE7BFEFFFE
:10B6E000FEFBFE03FF03FFFFFF07FE03FEFBFEFB67
:10B6F000FEFBFE03FF07FEFEFE00FE00FE72FEFBE9
:10B70000FE73FF07FF8FFFFFFF8FFF07FE73FEFB38
:10B71000FE72FE00FE00FEFBFEFBFE03FE03FE7B50
:10B72000FEFBFE7FFE7FFFFFFF33FE13FEDBFEDB33
:10B73000FEDBFE43FE67FFFFFEFFFEFFF807F80398
:10B74000FEFBFEF3FFF7FEFFFE07FE03FFFBFFFB22
:10B75000FEF3FE03FE03FEFFFE3FFE0FFEC3FEC32D
:10B76000FE0FFE3FFEFFFE7FFE0FFE83FEC3FE0FB9
:10B77000FE03FE83FE1FFFFFFEFBFE73FE03FE8B38
:10B78000FE03FE73FEFBFEFFFE7EFE1EFE80FFE15B
:10B79000FE87FE1FFE7FFFFFFE7BFE73FEC3FE8B58
:10B7A000FE3BFE73FEF3FFFFFFFFFFFFFFFFFF7F88
:10B7B000C0038081BFFDFFFFFFFFFFFFFFFF000011
:10B7C0000000FFFFFFFFBFFDBFFD8081C003FF7FC3
:10B7D000FFFFFFFFFFFFFFFFBFFF3FFF3FFFBFFF79
:10B7E0009FFF9FFFBFFF00661FFFFFFFDDFF9D82E2
:10B7F0002D826DAB6DAB6DA801A801AB6DAB6D83F8
:10B800006D836DFF7DFFFDFFFF00671FFFEEDFEC27
:10B810000009000BDB6FDB6700020008DFE180033B
:10B82000800FBBBDBBBC80008001FFFF0065E5FF52
:10B83000FFFFFFFFFF80008000BEFDBEFDBEFDBE1E
:10B84000FDBEFDBEFD80008000FFFFFFFFFFFF008B
:10B850002103F3FFEDFFEDFFF3FFFC1FF807F1C736
:10B86000E3E3E7F3E7F3E7F3E7F3F3E7FFFFFFFFD4
:10B87000FFFF00FF05FFFFFFFFFFFFF1FFEEFFEE01
:10B88000F3EEC3F107FC1FF047E1BBE7BBFFBBFFD3
:10B89000C7FFFFFFFF00519CFBF7E3E7E7CFEF9FF8
:10B8A000EF00EC00E0F900FB0C3FEF1FEF8FEF27FC
:10B8B000EA73E2F9E7FDFFFD005386FFFEFFF88023
:10B8C000018006BDFCBDF9BDE3BD87A01FA07FBD03
:10B8D000FDBDFCBDFCBC01BC03BFFF0095F0FFFF3C
:10B8E000E00060001BF79B77FB77BB77B807B807D2
:10B8F000BB77BB77BB75BBF480008001FFFF00679F
:10B900002AFEFBFEFBEEF3EEE7EECFEE9FEE3F00EE
:10B91000000000EE3FEE9FEECFEEE7EEF3FEFBFE03
:10B92000FB0077E5FB7EE37C07710F43E00FE00F40
:10B93000EF41EF71FF7FC003C003DFF7DFF7C00304
:10B94000C003FFFF006B63FFFDBFFDBFFDBC01BC7B
:10B9500001BFFDBFFD80018001BEFDBEFDBEFDBE7D
:10B96000FDBEFDBFFDFFFD0051ACFFBFFBBFF33FC0
:10B97000E77FC67B12DB18DBDDD9DDCDD8ECD2E664
:10B98000C677CF7FFF3FFFBFFFBF00814AFFFE802A
:10B99000008001BBBE80008000EDFFED00010001D2
:10B9A0006DED6DED6D016D0100ED00EDFF006708BF
:10B9B000FFFEFFFCFFF18003800FBBBFBBBFBBBF1F
:10B9C000BBBFBBBFBBBDBBBC80008001FFFFFFFF97
:10B9D00000521DEFBFEF3F6E7F2800A000E61EEE75
:10B9E0009CDFF9DFE3C007C01DDFFCDFFCC001C046
:10B9F00003FFFF005EFFFBFFFBFFFBFFFBFF000001
:10BA00000000FBFDFBFDFBFDFBFDFBFD000000005E
:10BA1000FBFFFBFFFBFF004E00FE7FFE7FFE7FFE75
:10BA20007FFE7FFE7FFE7FFE7FFE7FFE7FFE7FFE2E
:10BA30007FFE7FFE7FFE7FFFFF004E8CFFF3FFF354
:10BA4000E7F3E7F3E7F3E7F3E7F3E7F3E7F3E7F326
:10BA5000E7F3E7F3E7F3FFF3FFF3FFFF004E09FF20
:10BA6000F9CFF9CE79CE79CE79CE79CE79CE79CE9D
:10BA700079CE79CE79CE79CE79CFF9FFF9FFFF0073
:10BA800056DBFFFFC001C001DFCBDF1BC03BC0FBAB
:10BA9000DFFBDFFBC07BC03BDFBBDFBBC001C00106
:10BAA000FFFF004E94FFFDBFFDBDFDBDFDBDE1BC30
:10BAB00001801D81FDBDFDBDFDBDFDBC01BC01BF03
:10BAC000FDBFFDFFFD00516DFBFFFBFDFBF9FBF32F
:10BAD000FBC7FB0F7B3F3BFF8BFFCB7FFB3FFB9FFE
:10BAE000FBC7FBE1FBF9FBFF004E03FEFFFEFFFE81
:10BAF000FFFEFFFEFFFCFF00030001FDFDFDFDF961
:10BB0000FDFBFDFBFDFBE1FBE1FFFF00516BFFFFD8
:10BB1000FFFEFFF8FFE1FF07C01FC0FFFFFFFFFFB1
:10BB200081FF803FFE0FFFC3FFF1FFFCFFFE004ED1
:10BB30005DFFFEF7FCF7F9F7E3F707001F00FFF7DB
:10BB4000FFF7FFF7FFF003F001FFFDFFFDFFE1FF4F
:10BB5000E1005341FCFFFCFFFCFFFCFFFCFFFCFF8E
:10BB6000FCFF00000000FCFFFCFFFCFFFCFFFCFFF3
:10BB7000FCFFFFFF009F20FFFFFFFF81008100AD62
:10BB80006C2D256DB7FD00FD00AD6CAD25ADB78109
:10BB9000038101FFF0FFF000725BFFBFFDBFF9BF43
:10BBA00083BF87BFF7BFF7BF00000000F7BFF7BF35
:10BBB000F7BFF7BFF7BFFFBFFFBF00864EFFFEFF17
:10BBC000F8E001E006EDFCEDF9EDC300C7005FA968
:10BBD0005FAB41AB40AC7EA478E7F8FFFF00515467
:10BBE000FDFEF9FEF01CE0190BB31BA7DB8FD81F7D
:10BBF000D801D380C3AECBA2F812F81EFFF8FFF82D
:10BC0000009F99F7FEF7FCF7F9F7E3F787001D00AF
:10BC100079F7F3F003F001779D173D947DF4FDF77C
:10BC2000E1F7E10086C7FFFBE039E03900030007D8
:10BC3000E067E063E3F3E403EC016F9D0F3D8E7D6D
:10BC4000EAFDE3E1E7E1009A6CFFEFBFEFBFEFB081
:10BC5000EFB0EFBEEFBEEFBEEFBEEFBEEF80ED8008
:10BC6000ECFEFCFE01FE03FFFF007F8AFFEFEFEF1B
:10BC7000EEEFEEEF6EEF0EEF8EEFE000E000CEEFB6
:10BC80000EEF2EEFEEEFEEEFEFEFFFEF007334BBB2
:10BC9000DD939CC73CC0019003B9FFE00000001792
:10BCA0005EB05CB0D1B603860386D1F6DCF7DE0069
:10BCB0009E21EFFBEDF3ECC7EE0FEC1FE0C7E3E7CF
:10BCC000FFF7C037803717B755B5DCB4C0B4C181B2
:10BCD000FF830072D7FDEFB9CD939CC73CC00190A4
:10BCE00003B3FFC40F0C0F2DDFEC0DEC0CEFFCE0E9
:10BCF00001E003FFFF00732ABBDD939CC73CC0013A
:10BD00009003BBDFDB9FDB00DA00006D016DD36DBC
:10BD1000C3008B009BFFFBFF007532FFFFFFFF801E
:10BD20001F801FBBBFBBBFBBBF80008000BBBFBBB2
:10BD3000BFBBBF801F801FFFFFFFFF004E59FFFFEB
:10BD4000BFFFBFE3BF81BF1DBE7DBCFDB9FDB3FD1D
:10BD5000A7FD8FFD9FFDBFFDFFE1FFE1FFFF004E4F
:10BD600019BFFFB800B800BBFFBBEFBBCFBB1F8044
:10BD70003F807FBB3FBB8FBBCDBBFCB800B801BFD2
:10BD8000FF004E01FFFFBFFFBFFFBFFFBFFFBFFDB3
:10BD9000BFFC80008001BFFFBFFFBFFFBFFFBFFF31
:10BDA000BFFFFFFF00620AFFFEFFF8E001E007EFC0
:10BDB000FEEFFEEFFCEFFD01F90033EE076FC72F3A
:10BDC00013AC39ECE0EFE0005DF2FFFFFFFFB803DA
:10BDD000B801BEFDBEFDBEFDBEFDBEFDBEFDBEFD8D
:10BDE00080FD80FDFFE1FFE1FFFF005E9AFFFDFFA8
:10BDF000F1C002C00EDB6CDB6DDB695B631007908A
:10BE000007DB63DB69D80DD80CDF7EDF7E008F9BFC
:10BE1000FDFFFDDFDDDFDDDFD5DFD1DF59DF1C001A
:10BE20009C00D9DFD1DFD5DFDDDFDDDFFDDFFDFF0A
:10BE30000058ECFEFFFEFFDEFDDEFDDEFDDEFDDE7A
:10BE4000FDC0018001BEFDBEFD3EFD3EFDBEFDFE0E
:10BE5000FFFEFF007678FEFFAEDEA4DEB1DCB2DDD1
:10BE6000A6D98ED39E073E070ED786D332D961DC82
:10BE7000CCDEDEDFFEFF005B50FEFFBEFFBEFFBE7E
:10BE8000FFBEFFBEFDBEFCB800B801B2FFA6FF8E2C
:10BE9000FF9EFFBEFFFEFFFEFF004E11FFFDFFFDF8
:10BEA000BEFDBEFDBEFDBE01800180FDBEFDBEFD2E
:10BEB000BEFD80018001FFFDFFFDFFFD005BC5F7BA
:10BEC000FFC7FFCFFFD406D404D5B155B3100790F8
:10BED00007D5B3D5B1D404D406D7FFC7FFCFFF0031
:10BEE000536FFFFF801F801EBFDC3F914003400F58
:10BEF000FFFF80008000BFDFBFCFBFCF801F803F2C
:10BF0000FFFF008FB0FFFDFFF18003800FB6FFB68B
:10BF100000B600B6F9B63BB61FB6CFB6C7B693B6F5
:10BF2000B9BEFDFFFD005DF3FFFFFFFF8003800151
:10BF3000BEFDBEFDBEFDBEFDBEFDBEFDBEFD80FD67
:10BF400080FDFFE1FFE1FFFF005348FFBFFDBFF9A8
:10BF5000BFE3BF07BF0FBFEFBFE000E000EFBFEFE1
:10BF6000BFEFBFEFBFEFBFFFBFFFBF007533FFFFE6
:10BF7000FFFFE007E007EEEFEEEFEEEF000000005E
:10BF8000EEEFEEEFEEEFE007E007FFFFFFFF0091BF
:10BF900049BFFFB000B000B72DB66D80ED81EDB7A1
:10BFA000EDB7ED80ED806DB76DB76DB000B000BF3F
:10BFB000FF00620CFFFEFFF8E001E007EF7FEF7F7C
:10BFC000EF7FEF7EEFFC007900136F872F83AC19B2
:10BFD000EC60EFE0004EA5FFFFEFF6EF76EE66ECCB
:10BFE0006CE94D6359271BAF33EE67ECC7ED93EF58
:10BFF00039EF7CEFFEFFFF005E74FFDFFBDFE3DF66
:10C00000041F1C1FDDDFDDDFDDDFC000C000DDDF62
:10C01000DDDFDDDFDDDFDFDFFFDF007EE7FBBBF342
:10C0200019C21908B331B7F7B780018001E59DF552
:10C030003D00010001F53DE59DEDDDFFFD007EEDDC
:10C04000FBBBF319C21908B339B7E3B7E3A6DBAEFC
:10C05000DA8CDA4903630207DA07DAE3D8E8F9ECA5
:10C06000008BBEFDFFFDFFBDFF8C03CC02FDE6F89B
:10C07000EC823D8609BEC3BEE38689821DFA7CFB45
:10C08000FEFBFE007F6EFFFD17FD17FD54015401FE
:10C090001555155541554155155515555401540122
:10C0A00017FD17FDFFFD0052A0F7FEF7FCF7F100AA
:10C0B00003000DF7FCF000F001FFFFE001E001EFED
:10C0C000FBEFFBE001E001FFFF0051CFFFBFBFBF6F
:10C0D0008F01CC00FCFCE001E003ED87ED86ED84F0
:10C0E000ED81001300036F812E10AE70004E0AFF29
:10C0F000FDFFFDFFFDFFFDFFFDFFFD00010001FD58
:10C10000FDFDFDFDFDFDFDFDFDFDFDFFFDFFFD0058
:10C110004E0BBFFFBFFFBFFFBFFFBFFFBFFF8000D2
:10C120008000BFFFBDFFBCFFBE7FBF1FBF9FBFFF23
:10C13000BFFF007A7AF7FFC7FDCDFDD97DD37DD74C
:10C140007D5F7D1F019F01DF7DD77DD37DD97DD5AB
:10C15000FDC7FDCFFF009009FDFFFDFDBDF98C037C
:10C16000CC03F5F185C58C0DEC3D01FD000DEC0512
:10C17000EDF5EDC5FDC5FFFD0062E9F7BDF7BC00BB
:10C18000000001F77FBEF79EB78CB7A5B7B000B02F
:10C1900000A5B78CB79EB7FEF7FEFF0079FBDBEF7B
:10C1A000DB8FDA1F800000003B1FBB9FF76EE76E3E
:10C1B000C64C108D1921D233C6A7CF8FFF9F0052D6
:10C1C000A8FDF7DDC3DC03DC37DDD7DDC2DDE0F53C
:10C1D000F1F783000F007DF7FCF7FCF001F003FF9F
:10C1E000FF004FDDFF7FFE7FF8FFE00000001F73C0
:10C1F0008367834FBB1FB800B800BB1F834F8367A3
:10C20000FF73FFFB005B58DFBFDF3FDE7FD800C05E
:10C210000007BF1BBFDBBDDBBCDB00DA01D8BFD929
:10C22000BFDBBFDFBFDFBF0053D6BFEFBFE7800775
:10C23000800FB6EFB6CF800080009FDE80DCC01993
:10C24000DF03DF03C019C0FCFFFE006D88F7DFF1DC
:10C25000DFB9C18F01CC3FFCFFB8008800CB6F0372
:10C260006F036DEB6C88009801FFFFFFFF008FDB11
:10C27000FDFFFDFDBDF98C03CC03FEF9EEF5EEC527
:10C28000000D003DEEFD00050005EEFDEEFDFEFD9E
:10C29000005165FFFEFFFCFFF9FFF3FFC77F0F387A
:10C2A0003F80FFC0FFF83FFF0FFFC3FFF1FFFCFF20
:10C2B000FEFFFE00540CFFFFFFFF80008000B7FF71
:10C2C000B607B607B6EFB6EFB6EFB607B605B7FCDA
:10C2D00080008001FFFF0065F6FFFFC003C003DEA2
:10C2E000F7DEF7C003C003F7FFF77FF71FF79DF7EF
:10C2F000FC00000001F7FFF7FF006309F7BFF7BD7F
:10C30000F73C00000001F2FFE2FEE6DEEE0C6829D9
:10C3100008E38EE3EE09EA1CE2FEE6FF004F4FFF62
:10C320007FFE7FF8FFE00000000F7DEF7DEF7D6F67
:10C330007D2001A001EF7DEF7DEF7DEF7DFFFD0012
:10C34000548CFBF7DBE7DB8FDA1F800000003B1F1C
:10C35000BB9FFBFFE003E003EFF7EFF7E003E00331
:10C36000FFFF00952EFD7FF17F00010801DB71DAF0
:10C3700011D883C003C619D55DD55D00050005C180
:10C380005DC15DF7DD005E76FFBFF7BEF7BC77B13C
:10C390001003900FF7BFF7BFF7BFF7BFD000100033
:10C3A00037BFF7BFF7BFFFBF00590DFBFEF3F6E73E
:10C3B000F60064104DD505D511D55BD55BD551D5AB
:10C3C00045D04DD05CDFFEDFFEFFFE004F4DFF7F0E
:10C3D000FE7FF8FFE000000017FDF67DF60577858B
:10C3E00017FD97F1F781F40DF47DF7FDFFFD005384
:10C3F000EFFFFFBFFFBFFFB00FB00FB7DFB7DFB07A
:10C400000FB00FBFFDBFFC80008001BFFFBFFFBFAB
:10C41000FF004EE5FFFFFFFFC003C003FFE7BFCEF5
:10C420009FDCC7F9E7F3FFC7FE0F002F01E7FFF31B
:10C43000FFF8FFFC005F3ABFFFB83DB83CBBBC83D0
:10C44000818381FE1D861D86DDB6DDB001B001B69B
:10C45000DD86D58610FE18005236FDFFF5FF858378
:10C460008D83EDBF00000000EDB3ED83ED87E00F9D
:10C47000E00DFFFC00000001FFFF0064E6F7BDF7E0
:10C48000BC00000001F66FC44DC009D22B582E1815
:10C49000A090A0D02FDA2BD089C1CDCFEF00966429
:10C4A000FFFF80008000A1CF840B9A13F347E34D78
:10C4B000CB7C18001801CB5FE34FF363FB73FBFFEA
:10C4C000005168FEFFFEFDFCFDF9DDF1DDE5DDCD8F
:10C4D000DD1C011C01CDDDE5DDF1DDF9DDFCFDFE3E
:10C4E000FDFEFF0090E8FDFFDDFFD581518119BB06
:10C4F0009DBBD9BBD181D581DDFF80008000BBE72A
:10C50000A0E7840F9F1F006570F6BEB4A69184D388
:10C5100011003900B1D384918EB4FEF0FC00310ECD
:10C5200003EF03E031E0FCEFFE00636EF7BDF7BC04
:10C5300000000001F67EF6F880018007B6C0B6C0A4
:10C54000B01DB01DB6DD86C086C0FEFF003010FFF6
:10C55000FFFFFFFFFFFFFFFFFFFFFFFFFF800180E7
:10C56000018001800183C18FF19FF9BFFDFFFF00B2
:10C570003011FFFFFFFFBFFD9FF98FF183C18001E5
:10C58000800180018001FFFFFFFFFFFFFFFFFFFF32
:10C59000FFFF0095F4FFFFF80098008FFFEC07FC09
:10C5A00003D9BBDBBBDBBBDBBBD9BBDC02DC02DF03
:10C5B000FEC000E001005468FFFEE000C001DEFFA5
:10C5C000D683D683D6BBC0BBC0BBD6BBD6BAD682B9
:10C5D000D682C000C000FFFF00683CFFFFF79FF459
:10C5E0001FC000C000F45FF31FE3A0C700D25ED8F5
:10C5F000DEDCDED85EC300E780FFDF005F0FFFFFF9
:10C60000F77EF77EF77EF77CF701F701F779F77B86
:10C61000C07BC00FD703C7F1C7FCE7F0F7F0005CA1
:10C620000FFFFBFFE3FF07F81FF8FEFFFEFFFEC052
:10C6300000C000FFFFFFFFFFFFF9FFF81FFE03FF31
:10C64000E3006B22FFFFEFFDEDF9EC73EE07EE0F59
:10C65000E001E0F0C0F8C1E1E007E01FEF87EC6126
:10C66000E078F3FE008FCEFFFFFDFECDFCC401F6A7
:10C6700001E00CC006DFE6DFEEC000E000CFF6DF31
:10C68000F6C006E006FFFE004F7FFFBFFE3FC00082
:10C69000C000EC3EEC0EE9C6EBD0EBD18001800C83
:10C6A000EBDEEBDEE9DEEC1EEC3E007528FFFFFF63
:10C6B000F9C001C007DDDFDDDFDDDFC001C001DD66
:10C6C000DFDDDEDDDEDDDEC000C000FFFF004E3B53
:10C6D000FFFEFFFEFBDEFBDEFBDEFBDEFBDEC8005B
:10C6E000C800FBDEFBDEFBDEFBDEFBDEFBFEFFFE4F
:10C6F0000083DCFFFFEFDEEDDCECDDCC19CD1BEDC4
:10C70000D3EC81EC01E9478393831BE859E8DDEF23
:10C71000DCEFDE005355FFFFFFF7F017F017D6D719
:10C72000C6D7E6D7F000F000F6D7E6D786D796D77B
:10C73000F017F837FFF7009875FFFFDFFEDC1ED813
:10C740001ED3FCD7F9D7F3C707C70FD7F7D7F3D74F
:10C75000FBD3F9D80CDC0EDFFF008FD4FFFFFEFE09
:10C76000CEFCC601F601FF81C004C078DAFADA32E5
:10C77000DB06DBCEDB06D832F8FAFFFE0056DEFF22
:10C78000FFE001C000DFFEDC0ED806DBF6DBF6DBE7
:10C79000F6DBF6DBF6D806DC0EDFFEC000E00100BB
:10C7A0007535FFFFF00FF00FE6EFEEEFEEEFEEEF77
:10C7B00080008000EEEEEEEEEEEEE6EEF00EF0081B
:10C7C000FFF9006C60FFFFFEFEEEF8E671E667F62B
:10C7D000EFE000E000F9FEC00EC00EF3EEF7EEE76A
:10C7E000CEE000F0300094C3FBFFF3DFC6DFCE00E5
:10C7F000EE00EEDCEC9DF9B7F3B3C3BBC9B9CCB81E
:10C80000C6B2F3A7F98FFD9F0058F0FFFFFFFFEFBF
:10C81000F8EB00EA07EAEFEAEFEAEF820F820FEAAD
:10C82000EFEAEFEAEFEA0FEB1FEFFF004F20FFBF49
:10C83000FF3FF800C000C6FFF6FFF6FFF637C01353
:10C84000C09BF6B9F6B8F6B2F6A6F68FFEDF006129
:10C850001FFFFFFF9EE010E071E811E810E9DEE93C
:10C86000CEE800860080CEE818E838C893C310F7F9
:10C870001C005668FFFFFEDFC2C0C2C0DA8EDA2E8F
:10C88000C260C0E0E4F1C260DA2ED8AED88EC2C079
:10C89000C2C0FEDF0053C2FFDFFDDFF5DFF5DAE5E2
:10C8A0008AC52A944AB0DAF192F4B4D465C529E174
:10C8B000B3F193FDD7FDDF008003FFFFFDDFEDDF68
:10C8C000EDDFED9FEDBEED8E810E802EECAFECAF77
:10C8D000E9AEE1AEE5A0CDB1DDFF00538BFFFFE097
:10C8E00000C000DFFFDFFEDF7EDF7EDF7ED000D016
:10C8F00000DF3EDF0EDF42DF72DFFEFFFF007CFB6A
:10C90000FFFFFFFEDFB8DDB1D907D10EC43ECC80FA
:10C91000DC80D9BFD39FD3879623BE10FF9CFFFF37
:10C92000007EDFFFFFFCE6F0C6C204CC2DF8ECEB86
:10C93000ECEE68E801E107C77FCF00E900E87EEE92
:10C9400030EFB0004FE1FFFFFE7FF00080008FFF6F
:10C95000ED60ED60ED6EED6ECD6ECD6EED6EED6E5B
:10C96000ED60ED60EFFF00606FFFFFFFFDE031E085
:10C9700033EAB1EAB0EABE8ABE8AA2EAA2EABEEA15
:10C98000B0EAA0E027E031FFF9006062FF9FF01FEE
:10C99000F07F80008000E038EE018006803CEC39BA
:10C9A000EFE3E807E807EE01EC18EDFE009ED8FF84
:10C9B000FFC361C161C561C001C013C143C142C1B0
:10C9C00050FDF1FD83800F8007CDC3E5F8F5FC0035
:10C9D0008BA4FFFFFDFFDDFFCC01E601F7F2FFF4C2
:10C9E000FFF9FFE3FF07801F800FFF87FFF1FFF8CC
:10C9F000FFFC006E05FFFFDDFEDCF8CE41EE07EA2E
:10CA0000A9EA81EA17EA5780578057EA56EA56EAB8
:10CA100000EA80EEFF005C4FFFFFFFF1C001C00F96
:10CA2000D6EED2ECD001D403D6EFD6EFD6EFD000BD
:10CA3000D000D6EFC6EFC7EF005E55FFFFDFB7D8D7
:10CA4000B7D020D52085078517D517D500D52085E7
:10CA5000168506D520D020D8B7DFB700504FFFFF8E
:10CA6000FF3FF800C000C7C1E001E000ED00ED6F3E
:10CA7000CD00CD00ED00ED00ED6EE100F3000050C3
:10CA80003CFFBFFE3FE00080008FFEEEA8EC00ED13
:10CA900056ED5681568156ED56ED56EC00EC00EF02
:10CAA000FE005B9EFFFFF7DEE7DEEDDEECDEEA1C5C
:10CAB000E919ECD3CE87C807E857EFD3EFD9EFDDFC
:10CAC000E3DCE3DE009645FFFFC000C000D0EFC00E
:10CAD0000FCD03DDC3DD0EDD3EDDFEDC00DC00DD61
:10CAE000FFDD8FDD83DDF3005F00FFFFFF7FDF7E73
:10CAF000DF78C001C007DF7FDF7FDF7FDF7FDF7F81
:10CB0000C000C000DF7FDF7FFF7F00542FFFFFFFEB
:10CB1000E1E001E001EE80EEBEEEBE8EBE8EBEEE26
:10CB2000BEEEBEEEBEEEBEE080E180FFFF008702FB
:10CB3000FFFFF01EC002C000F005F010F6A8E6AB43
:10CB4000CCABC5ABD000D800D1ABC4ABEEABFEAB29
:10CB5000009E23FFFFE003C001DFFDC001E003E012
:10CB60001BE01BC3DBCBDBE8DAEC5AE05AE0DBFF6F
:10CB7000C0FFC00072B6FFFBF7F3F3E3F98F80004C
:10CB80008000FBFCFBF8FBE3C007C01FFA0FCB875C
:10CB9000C3F1F3F8FBFE006001FF7FEF7CEF40EE96
:10CBA00043EEFFECC0E9C0C0FEC44EE342E9F2EC44
:10CBB000F0EED0EE47EF61EF79005173FFFFFF7E9B
:10CBC000F77EF77CD779C77BE763F007F01FF70F95
:10CBD000E767C773D779F77CF77EFF7E0095EDFF97
:10CBE000FFF001F001CDEFCDEFFDCFDD9BDD3BCCC4
:10CBF0007BC003D003DDFDDDFDC001C001FFFF00F0
:10CC000097F3FFFFEEFFEEC1EE80E2B6E0B6ECB6C2
:10CC10008EB68EB6EEB6E8B6E0B6E680EE80EEFFF3
:10CC2000FEFF0091CFFFFFFDFEC58AC10AC94AC9B8
:10CC30004AC94AC94AC900C900C94AC94AC14AC100
:10CC40000AFD8AFDFE00622AFFFFFB3FF800E800B4
:10CC5000EAD6C0D6C000EA00EAD6EAD6FAF4C0188E
:10CC6000C003CB00EB38FBF0006B62FFFFFFFEFF61
:10CC7000FEF000F000FFFEFFFEFFFEC000C000FE61
:10CC8000FEFEFEFEFEFEFEFFFEFFFE008B66FFFFC9
:10CC9000F9FFE0DD84C084C2E4C284428742E0023E
:10CCA000E002C642C0C2E1C2E0C0EEC4FEFF0054D2
:10CCB0004AFFFFFD7FF961C340C75EF75EF75EC0C4
:10CCC0005EC05EF75EF75EF75EF75EF740F761FF06
:10CCD0007F006E29FFFFDDFCCCE0C602E700C0C08C
:10CCE000C0DEDAC0DAC0DADEDAC0DAC0DA5EC0404E
:10CCF000C0C0FFFE006E7FFFFFFDFCDCA0C602E7A8
:10CD00001EC086C0C2DA00DA00DAFEDA00DA00DA23
:10CD1000F6C0C6C0CEFFFE005EA6FFFEF000E0003B
:10CD2000EBDEEBDEE0CEE044EB51CB59CB59EB51DF
:10CD3000E054E046EBCEEBFEEFFE00949FFFFFF2E7
:10CD4000DFC2DFCE00EE00EEDCEEDDF00FF00FF71D
:10CD5000EFC000C000F7EFF7EFF00FF00F00800119
:10CD6000FFEFFEEFEEEFEECFEEC0EE80EEB680A668
:10CD7000802EEE6EECCEE8DEE0DEE29EEEB0FEF15E
:10CD8000005316FFFFFF7FFC7FE00080009FBFFF86
:10CD9000BFFF3FC001C000FEFEFCFEF9FEF3FEF740
:10CDA000E0FFE0006BCFFFFFFBBFF3BFE403C80170
:10CDB000DBBDD99DD98DD8A4DA34DB35DBBCDBA053
:10CDC000D801D81DDFBF004E2AFFFFFEFFFCFFFD8C
:10CDD000FFF9FFF3FFE7FFCFFFDC00CC00E7FFF335
:10CDE000FFF9FFFDFFFCFFFEFF007EA6FFFFFCEE4C
:10CDF000F08CC20DC86DF8CDF9DDE1FF86FF8E1E07
:10CE0000EF0EEFEEEFFEEFFEE000E001004E3AFF26
:10CE1000FFFBFEFBFCDBFDC3F1E3C3800F803FFBA8
:10CE2000FEFB3EFB0EFBC6FBF6F800F801FFFF0021
:10CE300059CBFFFFF71EC00CC0E1F7E3F001F01D76
:10CE4000FCE1F8C0E2DEC6DEDEDEFEDEF2DEF0C0D1
:10CE5000FC41005230FFFFDFDEDDDED0DEC2DECE81
:10CE600000DE00D2DED0DCDCDDC00DE00EFFFEFF18
:10CE7000FE80008000005B8CFFFFE3BEE3BEEDBCE4
:10CE8000EDBDED81ED838DBF8DBFEDBFED80ED80FC
:10CE9000EDBEEDBEE1B0E1B0006210FFFEF900F0C2
:10CEA00001F6F7F6F3F6FAF600F605F7F9C033C027
:10CEB00007F783F619C67CC3F0F3F00079D2FFF7C9
:10CEC000DDC7DD0FC000C000DD1FDD1EF03EF0FE3F
:10CED000FFFE80048001FFF3F187F00FFE7F005416
:10CEE0000EFFFFFFF9E001C007DDFFDD00DD00DD23
:10CEF0007EDD7EDD7EDD7EDD7EDD7E9D00BD00FF94
:10CF0000FF00786CFFBFDE03D001C0FDCEFDDE0167
:10CF1000D800D00ED6C6D6D0C001C001D6DDD6DC32
:10CF2000D01ED83E004EF6FFFFFE7FF00080008F3F
:10CF3000FFFCDFE0DFE3DFFBDFFBDF80008000FBE7
:10CF4000DFFBDFFBDFFBDF007248FFFFC001C0013A
:10CF5000FDBFC1BFC181FDC0E000C002DC3CDD09F6
:10CF6000DDC3DDC3DD09DC3CDCFE00672CFFFFEF29
:10CF7000F7EFE7EFC7EF97EE37EC7780008000E838
:10CF8000F7EC77EF37EF97EFC7EFE7EFF7006CE8D5
:10CF9000FFFFDDFECCF8EE41EF47F79EF7BEF7BE90
:10CFA000F7BED000C000E7BEF7BEF7BEF7BEF7BEC3
:10CFB00000610FFFFFFBFDDA01DA03CAA1C2A0D2B4
:10CFC000AE9AA29AA0DAACD2ACC2ACCAA3DA01DAA9
:10CFD00008FBFC004E0DFFFFDFDFDFDFDF9FDF3FE1
:10CFE000DE7FDCFFD000C000CDFFDCFFDE7FDF3F57
:10CFF000DF9FDFCFDFEF004F1AFFFFFDFFFDBFF91F
:10D00000BCF1B0F5A2E58ECD9EDDBECDBECDBEE5B8
:10D01000BEF1B0F9B0FDBEFDFF00518DFFEFDFEFB7
:10D02000D800D000D76FD76FD76FC00FC00FD76FA2
:10D03000D76ED76ED76ED000D800DFEF00663EFF08
:10D04000FFFFFEC0BEC006DB42DB00DB00DB7EDB99
:10D050007EDB00DB00DB7ADB42C006C0BEFFFE00E9
:10D06000793AFFFFFDFDDDF1DDC3DD0FDD3EDDFEC5
:10D07000DDFEDC00DC00DDFFDD7FDD1FDD87DDE1C7
:10D08000FDF9006B64FFFFFFFEF000F000FFFCC045
:10D0900001C001FBF9FBFBC001C000FCFEF9FEF37F
:10D0A000FEF3F8F7F0005BD2FFFBE3BBE2B3EAA7C5
:10D0B000EA8FE01BE0298AAD8AA4EAB6E036E01FD9
:10D0C000EA8FEAA7E2B3E3BB005927FFFFFBFEFBB1
:10D0D000FEFBFCFBF9FBE3FB87C01FC07FFA1FFBD5
:10D0E00087FBE3FBF9FBFCFBFEFBFE007ACBFFFFBB
:10D0F000FFFEFBFEF87EF802FB80FBFCCBFEC3FECE
:10D10000F3FEFBFCFA00FA02FBFEFBFEFFFE0066EC
:10D1100025FFEFFEEFDECFDAC0DA80DA16D85680D0
:10D12000D682D6DAD6DA56DA16DA80DA80DECFFEA2
:10D13000EF0096E8FFFFDC00D800D9DFD8C7DA633C
:10D14000DB31C000C000D9DFD8CEDA66DB32DBBA13
:10D15000D800DC01006C34FFFFFBFBFBF3FBE7FBBB
:10D16000CEFB8EF83EF87EC000C001FE3FFC8FF97A
:10D17000C7F3F3F7FBFFFB0060CAFFBFF03FF07F90
:10D18000C000C000E07DEC79E822EBA6ABBE8B804E
:10D19000CB80EBBFE827E821EFF90086F0FFFFED39
:10D1A0007EED46ED02801A805AE9DAEB00EA00C013
:10D1B000DAC0DAECDAE0DAE000FC04FC7E005206C9
:10D1C000FFFFFEFEFEFEFCFCF0F9C2E3CE07FE1FF1
:10D1D000FEFEBEFE8EFEC6FEF200F801FCFFFE7FE4
:10D1E00000660EFFFFE007C007DEF7DEF7DEF6C0E1
:10D1F00004E009C003C007DDDFDDDEDDDEDDDEC00B
:10D2000000C000008C37FFFFF7BFF73FE700EE00DC
:10D21000CCBE9DBEB9BEF3BEF3BED9BEDCBECE0051
:10D22000E740F73FFFBF00590FFFFBFFFAD072C086
:10D2300036CAA6CA86CA82CAA8CAADCAADCAA8CA10
:10D24000A2CAA6C026D07EFFFE006EE1FDFFDDFC77
:10D25000CCE0E603E700ED00C573C403EC0FED6717
:10D26000ED73C402C406ED62ED00EF80008292FF10
:10D27000FFEF7FEF7FEF018100817EEF7EE97EE8A7
:10D280007EEE7EEF7E817E817EEF7EEF7EEF7E0002
:10D2900079CDFDFFDDCFDD0FC000C000DD1FFDDF5C
:10D2A000F80FF00FF7EF80008000F7EFF7EFF00FC7
:10D2B000F80F0081F3FFFFDFFEDEEEDCEED8EED2EA
:10D2C000EEC6EECE00DE00DEEED6EED2EED8EEDC1E
:10D2D0006EDE2EFFBE006691FFF7FFB7C2B7C2B584
:10D2E000D2A0D2AAD2AAD00AD00AD28AD2AAD22A4C
:10D2F000D22AC020C0B0FFBF0079CBFFF7DDE7DD49
:10D300008FC000C000DC3FDD8EFC4CE071E3C3C089
:10D310000FC01FFF87FC63E078E3FC005904FFFFA8
:10D32000FF3EFC3C807D8009F783F7C3F419F03D94
:10D33000FBFCC406C006F8FEFC7EFF3EFFBE007686
:10D340007DFFFFFFFFF000E000EFBEEFBEEFBECFBE
:10D35000BECFBEEFBEEFBEEFBEEFBEE000F000FFFF
:10D36000FF009732F7FFE738ED18C95EC940C940A2
:10D37000C914C004C0A8CC20C806C946C946CD00FF
:10D38000E328E3FF00971CFFFFE1BBC0B3CA87CAD5
:10D3900000CA00CAA3C0B3C080CA80CAAACAAACAA7
:10D3A000AACA80E080E1FF00964DFFFFC000C000E8
:10D3B000D8EFC00FC30FF303E623C6BBC0BBD80032
:10D3C000D800C0BBC6BBDE3BFF3B0096EAFFFFF8C0
:10D3D000FFD0DED55ED55AD55AD55AD51AC01AC057
:10D3E0005AD55AD55AD55AD540D1C0F1FF0079BB8C
:10D3F000FFFFDFE0D0C0D05FDE5BD443D503911BDD
:10D400009B5BD14AD542D552DF5BD05ED0C0DFE115
:10D41000008FD8FFFFFDFECDF8C401F603DFE9DF82
:10D42000CCDF9EDE3ED800C000C5FEDC7EDE1EDF07
:10D430008EDFEE006709FF7FEE7FEEFFEC00E80075
:10D44000E1B7C5B78DB7ADB7EDB7EDB6EDB6EDB693
:10D45000EC00EC00EFFF005929FFFFFEFEDEFEDED0
:10D46000FCDEFDDEF9DEE3C087C01FDE1FDEC7DEA7
:10D47000E3DEF9DEFDDEFCFEFE004ECAFFFFFDBF6F
:10D48000FDBFF9BEF3BEF7BEE3BEC9BEDDBECCBC78
:10D49000E6BDF7B9F3B3F987FD8FFDFF00662FFFF7
:10D4A000FEFF7EFF7CC141C043D673D679D600D63D
:10D4B00000D66ED66ED66EC06EC16EFF6EFF7E0059
:10D4C000786EFF7FDE7FC001C001DDFDDC01DA0088
:10D4D000D000C0038B6F9801D001C36ECB6EF800F3
:10D4E000FC00005B9AFFFFF1FCE1F0EC03EC07EDC0
:10D4F000F3EDF98C018C00EDDEEDDEEDDEEDDEED21
:10D50000DEE1DEE3FE005149FFFFFEFEFEFEEEFC23
:10D51000E0F1F003FE0F80FF80FFFE00FC00F8FE4C
:10D52000E2FEC6FEDEF0FEF100654FFBBFF383C0F6
:10D5300001881DA88CE824EB34E800E800F0BC80EA
:10D54000398F03EF03E011E0FCEFFE009000FFFFD6
:10D55000FEFECEFCC601F601FFFCC002C002D67A78
:10D56000D632D696D6CED6C6C092C0BAFFFE0051ED
:10D57000FAFFFFF0C0F040FF7EFF7EFF7EFF7EC01F
:10D5800000C000FF7EFF7EFF7EFF7EF07EF040FF4A
:10D59000C00095F9FFFFF000F000CBFFCB07FB07C1
:10D5A000DB7FD001D001DB7FDB7BDB02DB06CBFE48
:10D5B000E000E000008F6FFFFFEF7BE83BE033848B
:10D5C000008C00EF77EF76E8F480F187C3E00FE09E
:10D5D00007EE61E078E1FE006492FFFFF7DEC00035
:10D5E000C000E53FE500C100C156C156C100ED00D5
:10D5F000C03C8001A003E009EFFC005361FFFFFE87
:10D60000FFFEFFFEFFFEFFFEFFFEFF80008000EE3C
:10D61000DFEECFEEEFEEE7EEF7EEF7FEFF004E01A6
:10D62000FFFFDFFFDFFFDFFDDFFCDFFEDFFEDFFEF2
:10D63000C000C000DFFFDFFFDFFFDFFFDFFFDFFF36
:10D64000008F66FFFFEFF7EFF7EE77E877C177C758
:10D6500077EF77EC00EC00EF77EF77EF77EF77EF8E
:10D66000F7FFFF007F16FFFFFCEDF08DC209C86BCE
:10D67000F9E8F000E001ED018D6F8D01ED01ED00A5
:10D68000ED00E100F300008BD1FFFFFDFFDC03CCD8
:10D6900001EFF1FEF3DEB7DEB7C4B7C1B7D000D8F3
:10D6A00000D1B7C4B7CEB7FEF7004E8EFF7FFF7F25
:10D6B000DF7FDF7FDF7EDF7EDF7EDF7CC000C003B9
:10D6C000DF7FDF7FDF7FDF7FDF7FFF7F009600FF71
:10D6D000FFB0009000CF9FEE01C801D979D97BD867
:10D6E00013DE07DAC3D898DCB0DEF0C000E000003B
:10D6F0004F11FFBFFE3FF800C000C3F7FBE7FBCFB1
:10D70000FB1FF83F80008000FA3FFB1FFBCFFBE7C9
:10D71000FBF7007720FFFFC001C000DDDEC000C0C6
:10D7200001C001C000DDBCDDBDDC39DC03DD81D919
:10D73000B8C1B0E7B0006D4BFDFFDDFCDCF0CEC33F
:10D74000EFCEC00CC001D003D007C001C008E00E6E
:10D75000E00EFFFEC000C0000051C6FFFFE7F9E188
:10D76000E1F987FD9FF091C000C76EF76E976E805C
:10D7700000E000F76EF76EF76EF76E0070B9FFFF0E
:10D78000FFFEFC00FC01FDEFFDE3D1E0C1ECEDEF9D
:10D79000EDE3EDE0EDECEC0FEC03EFF0EFFC00540B
:10D7A000CDFFFFE003E003EFFBE003E003F000F058
:10D7B00000F607C60786F7B6F6F606F606F000F09E
:10D7C00000009891FFFFFEE7E006E01EC00CC001DC
:10D7D000EE03EE0EC80CD809DBE1C207C21BDBF971
:10D7E000D80CD80E007387FFFFE7D7E397E937EC33
:10D7F00037EE57E89780008400ED97EC97E857EBF9
:10D8000037E397E7D7FFF7005148FFFFFC7EF87E2C
:10D81000E17CC779D703F707C07FC07FF700F70027
:10D82000F77EF77EF77EF770FF700065E0FFFFFE82
:10D83000FEDEFCDEF9DEF1DEC3DE0FC03FC001DE3E
:10D8400000DEFEDEFEDEFEDEFEDEF0FEF00064CD7B
:10D85000FFFFFBDEE000E000FB9FFA2EE42CC1ADF1
:10D86000D9A9D823DA00D800D823C1A9E42CFC2EEA
:10D87000004F5CFFFFFE7FF801C001C77FF87FC04B
:10D88000FFC7FFE000E000EEF7EEF7EEF7EEF7EE91
:10D89000F7EFF70081EAFFFFFFFFF000E000EEEE98
:10D8A000EEEEEEEECEEECEEEEEEEEEEEEEEEEEEED8
:10D8B000E000F000FFFF0065F6FFFFFFFFFCFFFF49
:10D8C000F8FFFC01FFF81BFFF99BFFFBB7FFFBEE26
:10D8D000FFF000FFF8007FFBBFFFFF2F7FFF63BF5C
:10D8E000FF77BFFF7F9FFE7F9F80000F80000FFEAE
:10D8F0007FFFFE7FFFFE7FFFFE7FFFFF7FFFFFFFBB
:10D90000FF007CFBFFFFFFFFFFFFFFFFFFFFBFCF1D
:10D91000FF3F8FFE7F9FFC4D3FF8C9FFF39BEFE772
:10D9200013EFCE03CF8C000F990007F313FFE72707
:10D93000FFEEDF7FFDDF3FFFD73FFFE39FFFFFFFEE
:10D94000FFFFFFFFFFFFFFFFFFFFFFFF00660EFF70
:10D95000FE7FFFFE7FFC00FFFC01FFFC19FFFB12B6
:10D96000FFFBB6EFF9E06FF8004FF8FF9FFFFE3FB7
:10D97000FFF0FFF803FFF807FFF667DFF66FDFF74A
:10D98000FFCFF0000FF00007F7FFFFFFFFFFFFFFE3
:10D99000FFFFFFFFFFFFFF00606FFFFFFFFFFFDFE5
:10D9A000FFFF9FFFFF1FFEFEFFFCFFFFF9FFFFF0E1
:10D9B000023FE04B9FCA93CF8696C7D6B667F7F66D
:10D9C00067F3F2E7F003E3F00063FFFF83FFFFE399
:10D9D000FFFDFFFFFCFFFFFC7FFFFE3FFFFFFFFFA0
:10D9E000FFFF006C60FFFFFFFFA07FFF8F9FF99F8D
:10D9F0001FF1FE3FF8F0FFFCF7FFFF87FFFF80FFFE
:10DA0000FFC67FFFCF3FFE019FC0039FC03B9FFF2C
:10DA1000739FFE019FFE079FFE1F9FFF7F9FFFFFDB
:10DA20009FFFFF1FFFFE1FFFF01FFFFE3F0079FB60
:10DA3000FFFEFFFF9EFFFF3DFFFF3BFFF733FFF7BA
:10DA400007FFF6001FEE001FEE0FF7EE4FF7FEFF89
:10DA5000E7FDEDE7F9C9CFF0938FE6231FE6407F9E
:10DA6000E00C7FF1987FF3C3FFFFE7FFFFEFFFFFBD
:10DA7000FFFFFFFFFFFFFFFF0083DCFFFFEFFFFF64
:10DA8000EFFFFBCFFBF9CFF9F99FF9AB3FC3AB7FBA
:10DA9000C12AF7D170F7F651F3F6C003F4A003F0F2
:10DAA000C1FFC484FF0426FF2766FF6F673FEFE7CF
:10DAB0009FFFF78FFFFF8FFFFFCFFFFFCFFFFFEF2E
:10DAC000FFFFFF004E3BFFFFEFFFFFEFFFFFEFFF0A
:10DAD000FFEFFFFFCFFFFFCFFF99DFFF98DFFF9939
:10DAE000DFFF99DF8F001F87001FC7001FFF339FD5
:10DAF000FF339FFE739FFE779FFFFF9FFFFF9FFFF8
:10DB0000FF9FFFFFEFFFFFFFFFFFFFFFFFFF005340
:10DB100055FFFDFFFFFCFFFFFDFFFFFDFFFFFDFFCA
:10DB2000EE79FFE419FFCDE9FFCD0BFFDD0BFFF828
:10DB30000003F00003E04BFFC24BFF8BCBFF180B41
:10DB4000FF3C3BFFFCFBFFFFFBFFFFFBFFFFFBFF7F
:10DB5000FFFDFFFFFFFFFFFFFF008BBEFFEFFFFF9B
:10DB6000EFFFFFCFFFFFC01FE3803FE38E7FF1FC9D
:10DB7000FFFFFFBFFFDFBFFFA7BFF0233FF0213F45
:10DB8000E7D87FEFDCFFE840FFE0027FE72F7FFF71
:10DB90003F1FFFBF9FFFFF9FFFFF9FFFFFDFFFFFB5
:10DBA000DFFFFFDF009875FFFFFFFFFFFFF3FFFFC1
:10DBB000F3FFFFF3FFEFF700CFE700CFE73F9FE66C
:10DBC0007E1FE080FFE083FFE2FEFFE6FE7FC63FB0
:10DBD0003FC6001FC6008FC7FF87C7FFCFC7FFFF25
:10DBE000F7FFFFFFFFFFFFFFFFFFFFFFFFFFFF004C
:10DBF0009E23FF3FFFFE1FFFFECFFFFECFFFFE1F56
:10DC0000FFFE1F7FFE7F7FFFFE7FFFFE7FFC027F08
:10DC1000F802FFE27AFFC578FF8D24FFDDE4FFFC08
:10DC200004EFFC16EFFDF7E7FFF7C7FFF78FFFF0F4
:10DC30003FFFF9FFFFFFFFFFFFFF00590DFFFFFF51
:10DC4000FFFFFFFFFFDFFFFF9FFDFF9FF9F7BFF320
:10DC5000F36FE7F6EFCE24EF86005FA6021FE6A380
:10DC60003FED2A3FCDE83FCDE09FCC01DFCC3DEF3B
:10DC7000DFFFE7FFFFE3FFFFF3FFFFF3FFFFF3FF2C
:10DC8000FFF3FFFFF30095F9FFFFFFFFFFFFFFFF2B
:10DC9000FFFF001FFF001FE30FFFE1A1FFF9A7FF38
:10DCA000FB2FFFF8001FFA001FFB5CFFF75CBFF7BC
:10DCB00040DFF767DFF3FFCFF07FCFF00007F00022
:10DCC00007FFFFFFFFFFFFFFFFFFFFFFFFFFFFFF5C
:10DCD0000095F4FFFFFFFFFFFFFFC03FFFC03FF1D4
:10DCE000CFFFF9FFFFFDFFFFFF83FFFF81FFF34938
:10DCF000FFF749FFF779FFF701FFEF00FFEF7FEF35
:10DD0000EFFFEFEFFFEFE01FEFF00007FB8007FFF3
:10DD1000FFFFFFFFFFFFFFFFFFFFFF0091CFFFBFF0
:10DD2000FFFFBFFFFF3FFFFF7FFFFF7FFFFF7FF78B
:10DD3000C767F7C361AF916CAF84CAAFA4C20FAA23
:10DD4000C00FBAC40FB2C12F82D92F8EC12FDEC32C
:10DD5000EFFECFEFFEFFE7FE7FFFFE7FFFFFFFFF3F
:10DD6000FFFFFFFFFFFF008702FFF3FFFC73FFFCD5
:10DD700033FFFC87FFC007FFEC2FFFFD0EFFFCCE3B
:10DD8000FFFCBEFFFBB1FFF315FFE315FFC885FFE6
:10DD9000890003C10003E4ABFFEEABFFFF7BFFFF95
:10DDA0001BFFFF9BFFFF9FFFFF9FFFFFDFFFFFDFCB
:10DDB000FF009ED8FFFFEFFC7F4FFC1F7FFD4D7FD4
:10DDC000FB4A1FF800FFF8003FFA92BFFA107FF8F5
:10DDD000155FF84F9FFDCF1FFFCC3FC001FFC00371
:10DDE000FFDF89FFFF9CFFFFBE7FF9FF1FFCFF9F46
:10DDF000FFFF8FFFFFCFFFFFCFFFFFEF004FE1FFE0
:10DE0000E7FFFFCFFFFF8FFFFF1FFFFC001FF8C0E2
:10DE10001FF1CFFFC2FFFFC6FFFFECFF7FFCB31F68
:10DE2000FC970FFCB6CFCDB6CF8D26CFC126DFF144
:10DE3000261FF9261FF9F61FF9FF7FF9FFFFFDFFE7
:10DE4000FFFFFFFFFFFFFF006E29FFFFFFFF807F47
:10DE5000FF0FBFFB9F1FE1FE3FF1F85FFDE19FFF5A
:10DE6000FFBFF9F03FF8303FF813BFF0903FF49751
:10DE70003FF4003FF5003FF7073FF0043FF0203F3D
:10DE8000F8F03FFFF33FFFFF1FFFFF1FFFFFDFFF24
:10DE9000FFFF008BF4FFC7FFFFCFFFFFCFFFFF8027
:10DEA0003FFF871FE3DE3FE3FCFFFBFFFFFFFFDFDA
:10DEB000FF3F1FF70E3FF200FFE663FFECC7FFF8DE
:10DEC000C81FF00B8FE60FCFCE1FCF9E7FCFFFFF77
:10DED000CFFFFFCFFFF80FFFFE0FFFFFFF00949F64
:10DEE000FFE7FFFFC7FFFF8BFFFF7BFFFEB3FFF9DD
:10DEF000803FF3033FC1267FCD6CFFFD19FFFF0775
:10DF0000FFFF03FFFF77FFFF77FFC00003C0003F65
:10DF1000DEE7FFFEE7FFFE07FFFE07FFFF3FFFFF15
:10DF20007FFFFFFFFFFFFFFF00654FFFFB7FFF7AD3
:10DF30007FFE707FF8C05FE0C25FC6104FDC804F8D
:10DF4000FCB60FFC803FF9823FFFB7BFFE373FF0C2
:10DF5000233F81107FCF38FFFF00FFFE067FFE7F4B
:10DF60001FFE7F1FFFFF9FFFFF8FFFFFCFFFFFCF32
:10DF7000FFFFCF007535FFFFFFFFFFFFFFFFFFFF34
:10DF80000FFFFF07FFFF79FFFED9FFFEC9FFFE016C
:10DF9000FFE0007FE0003FFD9B9FFD93CFFDFDCFA5
:10DFA000FCF1CFFC03CFFE07CFFE7FCFFFFFCFFFFB
:10DFB000FF8FFFFF0FFFF81FFFFF1FFFFFFF007F17
:10DFC0006EFFFFF7FFFFF7FFFFF7FFFFEFE7FFEF42
:10DFD000E19FEFECBE0FECB01FE1A55FE0155FCC59
:10DFE000155FD857DFC15FDFC9401FD9401FD97FF8
:10DFF0009FC37F9FE7FF9FEFFF9FFFFF8FFFFFCF35
:10E00000FFFFEFFFFFFFFFFFFF004F4EFFF7FFFF98
:10E01000EFFFFF8FFFFF1FFFFC001FF0C01FC3FFBC
:10E02000FFC7FFFFFBF07FF8007FF80E7FF99CFF32
:10E03000F19DFFF3B8FFF03E7FE60FFFEF61FFFEBB
:10E040007C7FFE7F3FFE7F9FFFFFCFFFFF0FFFF034
:10E050000FFFFFFF005149FFFFFFFFFFDFFFEF9FB3
:10E06000FFE7BFFFEF3FFECE3FFE4CFFFCC9FFFDC9
:10E07000C3FFFD87FF800FFFC0181FDC980FFDBB9B
:10E08000CFF93FE7F33FE7E73FE7FFBFE7FFFFE7F2
:10E09000FFFFE7FFFFC7FFFE07FFFE07FFFFF700D9
:10E0A00064CDFFFE3FFFDE3FFF8C7FFF98EFFF99BF
:10E0B000EFFE0007E00007E72DFFFF1DCFFF8D2FCC
:10E0C000F3A4EFF189EFF68007F6B007E49BFFF0C9
:10E0D0000BFFF36AFFF70A7FFF0B1FFFBB1FFFFB5E
:10E0E000BFFFF9FFFFFFFFFFFFFF006062FFEFFFD1
:10E0F000FF8FFFFF87FFC00007C00007CE3EFFFE77
:10E100007CFFFEF9EFFFF1EFFEE7CFFC879FFC13EA
:10E110001FF8667FC0E0FF0180FFF9E4FFF9E73FE9
:10E12000F9CF0FFF8F8FFFCFCFFFFFC7FFFFE7FFB5
:10E13000FFEFFFFFFF00FF01FFFFFFFFFFFFFFFFFC
:10E140007FF0FF3FE0033FF01FBFFFFFFFFFFFFF38
:10E15000FFFFFFFFFFFFFFFFFFFFFFFFFFFFFFFFCF
:10E16000FFFFFFFFFFFFFFFFFFFFFFFFFFFFFFFFBF
:10E17000FFFFFFFFFFFFFFFFFFFFFFFFFFFFFFFFAF
:10E18000009000FFFFFFFFFE7FFFFE7FF9C27FF8D8
:10E19000C87FFCFE7FFFFE7FFFFF7FFFFF7FE00069
:10E1A0007FE01C3FE03DBFE4B1BFCDB79FCE679F8E
:10E1B000C063CFC3CBC7CF98C7FF98C7FFFFC7FFC8
:10E1C000FFC7FFFFC7FFFFEFFFFFEF00504FFFEF5D
:10E1D000FFFFCFFFFF9FFFFF001FFC007FF0CF7FFF
:10E1E000C1FEFFC7FDFFEFF3FFFFC03FFC00FFFCD8
:10E1F00012FFFDB03FCD30FFCB25FFEB241FF821F0
:10E20000DFF82DCFF8EFCFFFE00FFFE01FFFE3FFB8
:10E21000FFFFFFFFFFFF007EDFFFDFFFFFDBBFFF32
:10E220009B3FFE027FFC067FF194FFF325FFFEFF7C
:10E23000DFFFEF9FFE673FFEC4FFFE01FFCE0FFF33
:10E24000C45FFFE4903FFDBBCFF96FEFFD8FEFFFA1
:10E25000FFEFFFFFEFFFFFEFFFFE0FFFFE0FFFFFE0
:10E26000FF008BA4FFE7FFFFE7FFFFC01FFFC31FF7
:10E27000F9C73FE1CE7FF9FCDFFDFF9FFFFF1FFFE6
:10E28000FE3FFFF8FFFFC1FFF007FFF007FFF3E3DA
:10E29000FFFFF3FFFFFCFFFFFE3FFFFE1FFFFF1F1F
:10E2A000FFFF9FFFFF9FFFFFDFFFFFDF004F5CFFD0
:10E2B000F7FFFFE7FFFF8FFFFF1FFFFC003FF0C0EE
:10E2C0007FC1DFFFC7EFFFDF8FFFFF1FFFFE3FFFB5
:10E2D000F07FFFE300078700078E06FFDE66FFFE84
:10E2E0004CFFFECCFFFCCCFFFCFCFFFFFEFFFFFF62
:10E2F000FFFFFFFFFFFFFF0051FAFFFFFFFFFFFFE0
:10E30000FFFFFFFF0F1FFF276FFF63EFFFE7CFFF49
:10E31000E7CFFFEFDFFFC71FE0001FE0001FEFCFD9
:10E32000DFFFDFDFFFDFDFFFDFDFFE1F9FFC1E1FE2
:10E33000FE3E1FFFFE7FFFFFFFFFFFFFFFFFFFFF10
:10E34000FFFF006E7FFFFFFFFFC0FFFF8F3FE39FD8
:10E350001FE1FF3FF9FCFFFFE39FFFDDBFF1FDBFC2
:10E36000F07BBFE7203FE4203FED3F3FED707FEDC6
:10E37000207FE4213FE07B3FE1F33FF7E73FFFFFF2
:10E380003FFFFFBFFFFFFFFFFFFFFFFFFFFFFF801C
:10E39000008000C001C001E003F007F007F80FF8AB
:10E3A0000FFC1FFC1FFE3FFF7FFF7FFFFFE7C787BC
:10E3B000070787C7E7FFFFFEFFE7DFFEFFB03FF37A
:10E3C00007E7C467F467F4E7C4F307B03FFCFFE76F
:10E3D000DFFEFFFFFFFFFFFFFFFFFFFFFFFFFFFF6E
:10E3E000FFFFFFFFFFFFFFFFFFFFFFFFFFFFFFFF3D
:10E3F000FFFFFFFFFFFFFFFFFFFFFFFFFFFFFFFF2D
:10E40000FFFFFFFFFFFFFFFFFFFFFFFFFFFFFFFF1C
:10E41000FFFFFFFFFFFFFFFFFFFFFFFFFFFFFFFF0C
:10E42000C1FFFFFFFFFFFFF81C1FFFFFFFFFFFE320
:10E43000FFE3FFFFFFFFFF9FFFF9FFFFFFFFFF7FEE
:10E44000FFFE7FFFFFFFFEFFFFFF3FFFFFFFFDFF20
:10E45000FFFF9FFFFFFFFBFFFFFFCFF5FFFFF3FF76
:10E46000FFFFE7F57FFFF7FFFFFFF3F97FFFF7FF00
:10E47000FFFFF9F9FFFFEFFFFFFFFDFAFFFFEF1FBF
:10E48000FFFFFCF9FFFFEE0FFFFFFEF3FFFFEECFF4
:10E49000FFFFFEE3FFFFEE1FFFFFFF23FFFFEFBFC6
:10E4A000FFFFFF4BFFFFC7FFFEFFFF1BFFFF17FF35
:10E4B000FCFFFF33FFFE7BFFF9FE7FBFFFFCFBFF8E
:10E4C000F3FF3FBFFFF80DFFE7FFBFBFFFFFEC7F8C
:10E4D0008FFF9FBFFFFFEB807FFFDFBAFFFFE7F7F4
:10E4E000FFFFDFBF5FFFE7F7FFFE9FBDDFFFFFF727
:10E4F000FFFE5FBCBFFFFFF7FFFEDF3C7FFFFFF3C8
:10E50000F7F0DF7CFFFFFFF3F7F5DF79FFFFFFF3A5
:10E51000F7A7DF43FFFFFFFBFB8FDE2BFFFFFFF3C0
:10E52000F83BBED9FFFFFFF3FDDBBEBDFFFFFFF3EE
:10E53000FCDFBC7DFFFFFFF7FE6E79FBFFFFFFE70F
:10E54000FFB47BFFFFFFFFEFFFC8F7FFFFFFFFDF19
:10E55000FFF9EFFFFFFFFFDFFFFF9FFFFFFFFFBFA1
:10E56000FFFF3FFFFFFFFFBFFFFC7FFFFFFFFFBF7E
:10E57000FFF1FFFFFFFFFFCFFF87FFFFFFFFFFE080
:10E58000001FFFFFFFFFFFFF03FFFFFFFFFFFFFF76
:10E59000FFFFFFFFFFFFFFFFFFFFFFFFFFFFFFFF8B
:10E5A000FFFFFFFFFFFFFFFFFFFFFFFFFFFFFFFF7B
:10E5B000FFFFFFFFFFFFFFFFFFFFFFFFFFFFFFFF6B
:10E5C000FFFFFFFFFFFFFFFFFFFFFFFFFFFFFFFF5B
:10E5D000FFFFFFFFFFFFFFFF001010F0E6B7000096
:10E5E00000181825B6D800002A2A20525F464C4150
:10E5F00053485F4C505F4F70656E20415049206614
:10E600006F7220466C6173685F4C50206661696C64
:10E610006564202A2A200D00486561643A30782517
:10E62000580A0049735F636F6E6669673A25640A2A
:10E6300000486F75725F31323A25640A0043454CD9
:10E640004F66667365743A25640A0052484F6666E1
:10E650007365743A25640A00564241545F4D494E31
:10E660003A25640A00564241545F4D41583A2564A8
:10E670000A00564241545F5245463A25640A005604
:10E680004241545F504F5745524F46463A25640A1F
:10E69000004C4F575F4C494748543A25640A0043A1
:10E6A0004845434B5F4C494748545F4F4E3A2564B9
:10E6B0000A00424545505F4F4E3A25640A004245E4
:10E6C00045505F4652455155454E43593A25640AD7
:10E6D00000424545505F564F4C554D453A25640A1A
:10E6E000002A2A20525F464C4153485F4C505F42FB
:10E6F0006C616E6B436865636B2041504920666FA7
:10E700007220466C6173685F4C50206661696C656D
:10E7100064202A2A200D00426C6F636B2025642040
:10E72000697320626C616E6B200D0A00426C6F632E
:10E730006B202564206973206E6F7420626C616E9B
:10E740006B200D0A00466C61736820697320636F4B
:10E750006E6669677572656420666F722042474F06
:10E76000206D6F64652E20526573756C742069731B
:10E770002072657475726E656420696E2063616CC9
:10E780006C6261636B2E200D002A2A20525F464C7A
:10E790004153485F4C505F45726173652041504959
:10E7A00020666F7220466C6173685F4C5020666112
:10E7B000696C6564202A2A200D004572617365200A
:10E7C0005375636365737366756C200D00525F4605
:10E7D0004C4153485F4C505F457261736528292056
:10E7E0006661696C656420746F2065726173652071
:10E7F000256420626C6F636B0D0A002A2A20525F29
:10E80000464C4153485F4C505F57726974652041D4
:10E81000504920666F7220466C6173685F4C5020CF
:10E820006661696C6564202A2A200D00577269743C
:10E8300065207375636365737366756C200D002ABC
:10E840002A20525F464C4153485F4C505F436C6FE7
:10E8500073652041504920666F7220466C61736871
:10E860005F4C50206661696C6564202A2A200D0087
:10E87000A5AA00000000000000004A01A20140011A
:10E880001C078F00000000001E000100652D506174
:10E8900070657220627573790D00652D5061706529
:10E8A0007220627573792072656C656173650D0005
:10E8B0000008000000026028280000010014000089
:10E8C0000001001212000001000000000000000022
:10E8D000000000000000000000000000001901001E
:10E8E00000014008000000029028280000014014A8
:10E8F00000000001A0121200000100000000000052
:10E9000000000000000000000000000000190100ED
:10E910000001400800000002902828000001401477
:10E9200000000001A0121200000100000000000021
:10E93000000000000000000000000000801901003D
:10E9400000018008000000029028280000018014C7
:10E950000000000150121200000100000000000041
:10E96000000000000000000000000000401901004D
:10E970000001800800000002902828000001801497
:10E980000000000150121200000100000000000011
:10E99000000000000000000000000000001901005D
:10E9A0000001457863656564696E6720646973700A
:10E9B0006C617920626F756E6461726965730D00B8
:10E9C0003230253032642D253032642D25303264CA
:10E9D00020253032643A253032643A2530326420C2
:10E9E0004F4B0A003059002048EC000090ED000029
:10E9F00000000000000014DF02FF00007938000072
:10EA00000000000008EA0000000102000200DFDF51
:10EA1000FFFFFFFF010000000000000000000000F9
:10EA2000000000000000001800000000000014DFDB
:10EA300002FF0000793800000000000040EA0000FA
:10EA4000000102000000DFDFFFFFFFFF0400000005
:10EA5000000000000000000000000000000000189E
:10EA600000000000000014DF02FF00007938000001
:10EA70000000000078EA0000000102000000DFDF73
:10EA8000FFFFFFFF0000002000000000000000006A
:10EA90000000000000000018000200000301000058
:10EAA000850D0000000000000000000002020200CE
:10EAB00003000000790D00000000000000000000CD
:10EAC0000302030203000000910D0000000000009B
:10EAD0000000000001000000212F000000000000E5
:10EAE000000000000112000000000000801A060073
:10EAF00038000000010208010A0B000000000000BD
:10EB000000000000110A00000000000010EB0000EF
:10EB10000101000A0AFFFFFF000C090E0F020202AA
:10EB20000200000001000000C0EB0000D8EB000074
:10EB300091390000000000003CEB000000010000E3
:10EB4000000000000000000002000000C05D0000A6
:10EB500000000000E02E000007FFDF0000000000C2
:10EB60000000000068EB0000010100000000000050
:10EB70000000000000000000000000000000000095
:10EB800000000000000000000000FFFFDFDF0000C9
:10EB9000000000000000000000000000CC0C00009D
:10EBA000000000006606000001031000950D000043
:10EBB00000000000B8EB000040000701000000FF6B
:10EBC000AC590020CCEB0000C8ED00009C400020B8
:10EBD000D4EB000009FFFFFF2C5A0020E4EB0000FB
:10EBE000C8ED0000AC400020ECEB00000CFFFFFF84
:10EBF00009020000020402050206020700000000EC
:10EC000000000000893800000000000010EC000047
:10EC100000010000BC4000200F00FFFF00000000CA
:10EC2000FFFF0000FFFFFFFF0100000000000000E9
:10EC30000D000010000000000000000000000000B7
:10EC400000000000000000002400000050EC000064
:10EC5000008000000000000005000000010000002E
:10EC60000080000002000000040000000A00000014
:10EC7000040000000B000000040000000C00000075
:10EC8000050000000D000000000000000E00000064
:10EC9000040000000F00000004000000000100005C
:10ECA0000000010601010000000001060201000051
:10ECB0000400000003010000040000000401000043
:10ECC000000001000801000000000105090100002A
:10ECD000000001050A010000040000000B01000013
:10ECE0000000010C0C0100000400000006020000FE
:10ECF00004000000070200000400000008020000F9
:10ED0000004000000C020000104000000D02000056
:10ED100000000100000300000400000001030000E7
:10ED20000000010302030000104000000004000086
:10ED300010000000010400000000010707040000AB
:10ED4000000001070804000004000000090400009E
:10ED50000400000000050000040000000D09000090
:10ED6000040000000E090000040000000F0900006C
:10ED7000010801011E1C1E1A0A11060614001110BA
:10ED80000500020007000000000000000000000075
:10ED9000794B0000D54900008D4B0000994B0000D5
:10EDA0008D4A0000D54A0000D14A0000DD4900002C
:10EDB0002D4A0000554A0000754A0000B54A00007F
:10EDC000FD490000114A0000615F0000ED5F000096
:10EDD000F55D0000895E0000A55E0000815E000018
:10EDE000855E0000C55E0000095F000036E001405E
:10EDF00038E0014090E4014032E0014080E401400D
:10EE00000A0900000A0900003F0B0000010002008F
:10EE100008001000C44000200000000000000000B6
:10EE200000000000000000000000000000000000E2
:10EE300000000000000000000000000000000000D2
:10EE400000000000000000000000000000000000C2
:10EE500000000000000000000000000000000000B2
:10EE600000000000000000000000000000000000A2
:10EE70000000000000000000232D302B2000686CF3
:10EE80004C006566674546470030313233343536CD
:10EE90003738394142434445460030313233343506
:10EEA0003637383961626364656600FF0000000030
:10EEB0000100000074900000AA900000E0900000A3
:10EEC000169100003E9000000100000000001018A4
:10EED000000000000000000000000000000008101A
:10EEE00000000000000000000000000050000C00C6
:10EEF000C44000200000000038EE000058EE000082
:10EF000018EE0000000000000000000000000000FB
:10EF100000000000000000000000000000000000F1
:10EF200000000000000000000000000000000000E1
:10EF300000000000000000000000000000000000D1
:10EF400000000000000000000000000000000000C1
:0CEF5000000000002D050000010500007D
:020000040101F8
:10001800FFFFFFFFFFFFFFFFFFFFFFFFFFFFFFFFE8
:0C002800FFFFFFFFFFFFFFFFFFFFFFFFD8
:0400000300006BA5E9
:00000001FF
